{
    "contractName": "Agronomo",
    "abi": [
        {
            "inputs": [
                {
                    "internalType": "address",
                    "name": "_customerContractAddress",
                    "type": "address"
                }
            ],
            "payable": false,
            "stateMutability": "nonpayable",
            "type": "constructor"
        },
        {
            "constant": false,
            "inputs": [
                {
                    "internalType": "address",
                    "name": "_address",
                    "type": "address"
                }
            ],
            "name": "addAuthorized",
            "outputs": [],
            "payable": false,
            "stateMutability": "nonpayable",
            "type": "function"
        },
        {
            "constant": true,
            "inputs": [
                {
                    "internalType": "address",
                    "name": "",
                    "type": "address"
                }
            ],
            "name": "authorized",
            "outputs": [
                {
                    "internalType": "bool",
                    "name": "",
                    "type": "bool"
                }
            ],
            "payable": false,
            "stateMutability": "view",
            "type": "function"
        },
        {
            "constant": true,
            "inputs": [
                {
                    "internalType": "uint256",
                    "name": "_idTerreno",
                    "type": "uint256"
                }
            ],
            "name": "getAnalisiQualitaProdotto",
            "outputs": [
                {
                    "internalType": "string",
                    "name": "",
                    "type": "string"
                }
            ],
            "payable": false,
            "stateMutability": "view",
            "type": "function"
        },
        {
            "constant": true,
            "inputs": [
                {
                    "internalType": "uint256",
                    "name": "_idTerreno",
                    "type": "uint256"
                }
            ],
            "name": "getCertificazioneUvaAppezzamento",
            "outputs": [
                {
                    "internalType": "string",
                    "name": "",
                    "type": "string"
                }
            ],
            "payable": false,
            "stateMutability": "view",
            "type": "function"
        },
        {
            "constant": true,
            "inputs": [
                {
                    "internalType": "uint256",
                    "name": "_idTerreno",
                    "type": "uint256"
                }
            ],
            "name": "getDatiSensoriAgronomo",
            "outputs": [
                {
                    "internalType": "string",
                    "name": "",
                    "type": "string"
                },
                {
                    "internalType": "string",
                    "name": "",
                    "type": "string"
                },
                {
                    "internalType": "string",
                    "name": "",
                    "type": "string"
                },
                {
                    "internalType": "string",
                    "name": "",
                    "type": "string"
                }
            ],
            "payable": false,
            "stateMutability": "view",
            "type": "function"
        },
        {
            "constant": true,
            "inputs": [],
            "name": "getIdAnalisiQualitaSerial",
            "outputs": [
                {
                    "internalType": "uint256",
                    "name": "",
                    "type": "uint256"
                }
            ],
            "payable": false,
            "stateMutability": "view",
            "type": "function"
        },
        {
            "constant": true,
            "inputs": [],
            "name": "getIdCertificazioneUvaAppezzamentoSerial",
            "outputs": [
                {
                    "internalType": "uint256",
                    "name": "",
                    "type": "uint256"
                }
            ],
            "payable": false,
            "stateMutability": "view",
            "type": "function"
        },
        {
            "constant": true,
            "inputs": [],
            "name": "owner",
            "outputs": [
                {
                    "internalType": "address",
                    "name": "",
                    "type": "address"
                }
            ],
            "payable": false,
            "stateMutability": "view",
            "type": "function"
        },
        {
            "constant": false,
            "inputs": [
                {
                    "internalType": "address",
                    "name": "_address",
                    "type": "address"
                }
            ],
            "name": "removeAuthorized",
            "outputs": [],
            "payable": false,
            "stateMutability": "nonpayable",
            "type": "function"
        },
        {
            "constant": false,
            "inputs": [
                {
                    "internalType": "string",
                    "name": "_analisiQualitaProdotto",
                    "type": "string"
                }
            ],
            "name": "setAnalisiQualitaProdotto",
            "outputs": [],
            "payable": false,
            "stateMutability": "nonpayable",
            "type": "function"
        },
        {
            "constant": false,
            "inputs": [
                {
                    "internalType": "string",
                    "name": "_certificazioneUvaAppezzamento",
                    "type": "string"
                }
            ],
            "name": "setCertificazioneUvaAppezzamento",
            "outputs": [],
            "payable": false,
            "stateMutability": "nonpayable",
            "type": "function"
        },
        {
            "constant": false,
            "inputs": [
                {
                    "internalType": "uint256",
                    "name": "_idTerreno",
                    "type": "uint256"
                },
                {
                    "internalType": "string",
                    "name": "_superficie",
                    "type": "string"
                },
                {
                    "internalType": "string",
                    "name": "_umiditaTerreno",
                    "type": "string"
                },
                {
                    "internalType": "string",
                    "name": "_temperaturaTerreno",
                    "type": "string"
                },
                {
                    "internalType": "string",
                    "name": "_pioggia",
                    "type": "string"
                }
            ],
            "name": "setSensoriAgronomo",
            "outputs": [],
            "payable": false,
            "stateMutability": "nonpayable",
            "type": "function"
        }
    ],
    "bytecode": "60806040526001600455600160055534801561001a57600080fd5b50604051610ee4380380610ee48339818101604052602081101561003d57600080fd5b5051600080546001600160a01b031990811633178083556001600160a01b039081168352600160208190526040909320805460ff191690931790925560028054929093169116179055610e4f806100956000396000f3fe608060405234801561001057600080fd5b50600436106100b45760003560e01c80638da5cb5b116100715780638da5cb5b14610632578063a1fabe7914610656578063b918161114610673578063cd201ecc146106ad578063cf1c316a146106b5578063e0a4a850146106db576100b4565b8063045150f4146100b957806304724f55146102f557806308ee8deb14610399578063485d7d94146103b357806357bd5df1146103d95780635df6ec331461046b575b600080fd5b6102f3600480360360a08110156100cf57600080fd5b81359190810190604081016020820135600160201b8111156100f057600080fd5b82018360208201111561010257600080fd5b803590602001918460018302840111600160201b8311171561012357600080fd5b91908080601f0160208091040260200160405190810160405280939291908181526020018383808284376000920191909152509295949360208101935035915050600160201b81111561017557600080fd5b82018360208201111561018757600080fd5b803590602001918460018302840111600160201b831117156101a857600080fd5b91908080601f0160208091040260200160405190810160405280939291908181526020018383808284376000920191909152509295949360208101935035915050600160201b8111156101fa57600080fd5b82018360208201111561020c57600080fd5b803590602001918460018302840111600160201b8311171561022d57600080fd5b91908080601f0160208091040260200160405190810160405280939291908181526020018383808284376000920191909152509295949360208101935035915050600160201b81111561027f57600080fd5b82018360208201111561029157600080fd5b803590602001918460018302840111600160201b831117156102b257600080fd5b91908080601f01602080910402602001604051908101604052809392919081815260200183838082843760009201919091525092955061077f945050505050565b005b6102f36004803603602081101561030b57600080fd5b810190602081018135600160201b81111561032557600080fd5b82018360208201111561033757600080fd5b803590602001918460018302840111600160201b8311171561035857600080fd5b91908080601f01602080910402602001604051908101604052809392919081815260200183838082843760009201919091525092955061081e945050505050565b6103a1610869565b60408051918252519081900360200190f35b6102f3600480360360208110156103c957600080fd5b50356001600160a01b031661088d565b6103f6600480360360208110156103ef57600080fd5b50356108c5565b6040805160208082528351818301528351919283929083019185019080838360005b83811015610430578181015183820152602001610418565b50505050905090810190601f16801561045d5780820380516001836020036101000a031916815260200191505b509250505060405180910390f35b6104886004803603602081101561048157600080fd5b5035610983565b6040518080602001806020018060200180602001858103855289818151815260200191508051906020019080838360005b838110156104d15781810151838201526020016104b9565b50505050905090810190601f1680156104fe5780820380516001836020036101000a031916815260200191505b5085810384528851815288516020918201918a019080838360005b83811015610531578181015183820152602001610519565b50505050905090810190601f16801561055e5780820380516001836020036101000a031916815260200191505b50858103835287518152875160209182019189019080838360005b83811015610591578181015183820152602001610579565b50505050905090810190601f1680156105be5780820380516001836020036101000a031916815260200191505b50858103825286518152865160209182019188019080838360005b838110156105f15781810151838201526020016105d9565b50505050905090810190601f16801561061e5780820380516001836020036101000a031916815260200191505b509850505050505050505060405180910390f35b61063a610c0e565b604080516001600160a01b039092168252519081900360200190f35b6103f66004803603602081101561066c57600080fd5b5035610c1d565b6106996004803603602081101561068957600080fd5b50356001600160a01b0316610cbb565b604080519115158252519081900360200190f35b6103a1610cd0565b6102f3600480360360208110156106cb57600080fd5b50356001600160a01b0316610cf3565b6102f3600480360360208110156106f157600080fd5b810190602081018135600160201b81111561070b57600080fd5b82018360208201111561071d57600080fd5b803590602001918460018302840111600160201b8311171561073e57600080fd5b91908080601f016020809104026020016040519081016040528093929190818152602001838380828437600092019190915250929550610d31945050505050565b600085815260036020908152604090912085516107a492600290920191870190610d82565b50600085815260036020818152604090922085516107ca93919092019190860190610d82565b50600085815260036020908152604090912083516107f092600490920191850190610d82565b506000858152600360209081526040909120825161081692600590920191840190610d82565b505050505050565b3360009081526001602052604090205460ff1661083a57600080fd5b6004546000908152600360209081526040909120825161085c92840190610d82565b5050600480546001019055565b3360009081526001602052604081205460ff1661088557600080fd5b506005545b90565b6000546001600160a01b031633146108a457600080fd5b6001600160a01b03166000908152600160205260409020805460ff19169055565b3360009081526001602052604090205460609060ff166108e457600080fd5b60008281526003602090815260409182902080548351601f6002600019610100600186161502019093169290920491820184900484028101840190945280845290918301828280156109775780601f1061094c57610100808354040283529160200191610977565b820191906000526020600020905b81548152906001019060200180831161095a57829003601f168201915b50505050509050919050565b3360009081526001602052604090205460609081908190819060ff166109a857600080fd5b6000858152600360208181526040928390206002808201805486516001821615610100026000190190911692909204601f810185900485028301850190965285825294938201936004830193600590930192869190830182828015610a4e5780601f10610a2357610100808354040283529160200191610a4e565b820191906000526020600020905b815481529060010190602001808311610a3157829003601f168201915b5050865460408051602060026001851615610100026000190190941693909304601f810184900484028201840190925281815295995088945092508401905082828015610adc5780601f10610ab157610100808354040283529160200191610adc565b820191906000526020600020905b815481529060010190602001808311610abf57829003601f168201915b5050855460408051602060026001851615610100026000190190941693909304601f810184900484028201840190925281815295985087945092508401905082828015610b6a5780601f10610b3f57610100808354040283529160200191610b6a565b820191906000526020600020905b815481529060010190602001808311610b4d57829003601f168201915b5050845460408051602060026001851615610100026000190190941693909304601f810184900484028201840190925281815295975086945092508401905082828015610bf85780601f10610bcd57610100808354040283529160200191610bf8565b820191906000526020600020905b815481529060010190602001808311610bdb57829003601f168201915b5050505050905093509350935093509193509193565b6000546001600160a01b031681565b3360009081526001602052604090205460609060ff16610c3c57600080fd5b600360008381526020019081526020016000206001018054600181600116156101000203166002900480601f0160208091040260200160405190810160405280929190818152602001828054600181600116156101000203166002900480156109775780601f1061094c57610100808354040283529160200191610977565b60016020526000908152604090205460ff1681565b3360009081526001602052604081205460ff16610cec57600080fd5b5060045490565b6000546001600160a01b03163314610d0a57600080fd5b6001600160a01b03166000908152600160208190526040909120805460ff19169091179055565b3360009081526001602052604090205460ff16610d4d57600080fd5b60055460009081526003602090815260409091208251610d7592600190920191840190610d82565b5050600580546001019055565b828054600181600116156101000203166002900490600052602060002090601f016020900481019282601f10610dc357805160ff1916838001178555610df0565b82800160010185558215610df0579182015b82811115610df0578251825591602001919060010190610dd5565b50610dfc929150610e00565b5090565b61088a91905b80821115610dfc5760008155600101610e0656fea265627a7a72315820c5987e00297997780a96a2f35349a19d13711a464e5445e846e25cbe07e7692064736f6c63430005100032",
    "sourcePath": "c:/Users/Erman/OneDrive/BinTraWine2.0/contracts/Agronomo.sol",
    "compiler": {
        "name": "solc",
        "version": "0.5.16+commit.9c3226ce"
    },
    "functionHashes": {
        "addAuthorized(address)": "cf1c316a",
        "authorized(address)": "b9181611",
        "getAnalisiQualitaProdotto(uint256)": "57bd5df1",
        "getCertificazioneUvaAppezzamento(uint256)": "a1fabe79",
        "getDatiSensoriAgronomo(uint256)": "5df6ec33",
        "getIdAnalisiQualitaSerial()": "cd201ecc",
        "getIdCertificazioneUvaAppezzamentoSerial()": "08ee8deb",
        "owner()": "8da5cb5b",
        "removeAuthorized(address)": "485d7d94",
        "setAnalisiQualitaProdotto(string)": "04724f55",
        "setCertificazioneUvaAppezzamento(string)": "e0a4a850",
        "setSensoriAgronomo(uint256,string,string,string,string)": "045150f4"
    },
    "gasEstimates": {
        "creation": {
            "codeDepositCost": "732600",
            "executionCost": "infinite",
            "totalCost": "infinite"
        },
        "external": {
            "addAuthorized(address)": "22052",
            "authorized(address)": "1180",
            "getAnalisiQualitaProdotto(uint256)": "infinite",
            "getCertificazioneUvaAppezzamento(uint256)": "infinite",
            "getDatiSensoriAgronomo(uint256)": "infinite",
            "getIdAnalisiQualitaSerial()": "1957",
            "getIdCertificazioneUvaAppezzamentoSerial()": "1937",
            "owner()": "1037",
            "removeAuthorized(address)": "22013",
            "setAnalisiQualitaProdotto(string)": "infinite",
            "setCertificazioneUvaAppezzamento(string)": "infinite",
            "setSensoriAgronomo(uint256,string,string,string,string)": "infinite"
        }
    }
}