{
    "contractName": "Distributore",
    "abi": [
        {
            "inputs": [
                {
                    "internalType": "address",
                    "name": "_imbottigliatoreContractAddress",
                    "type": "address"
                }
            ],
            "payable": false,
            "stateMutability": "nonpayable",
            "type": "constructor"
        },
        {
            "constant": false,
            "inputs": [
                {
                    "internalType": "address",
                    "name": "_address",
                    "type": "address"
                }
            ],
            "name": "addAuthorized",
            "outputs": [],
            "payable": false,
            "stateMutability": "nonpayable",
            "type": "function"
        },
        {
            "constant": true,
            "inputs": [
                {
                    "internalType": "address",
                    "name": "",
                    "type": "address"
                }
            ],
            "name": "authorized",
            "outputs": [
                {
                    "internalType": "bool",
                    "name": "",
                    "type": "bool"
                }
            ],
            "payable": false,
            "stateMutability": "view",
            "type": "function"
        },
        {
            "constant": true,
            "inputs": [
                {
                    "internalType": "uint256",
                    "name": "_idLotto",
                    "type": "uint256"
                }
            ],
            "name": "getCodiceBarre",
            "outputs": [
                {
                    "internalType": "string",
                    "name": "",
                    "type": "string"
                }
            ],
            "payable": false,
            "stateMutability": "view",
            "type": "function"
        },
        {
            "constant": true,
            "inputs": [
                {
                    "internalType": "uint256",
                    "name": "_idLotto",
                    "type": "uint256"
                }
            ],
            "name": "getDatiSensoriDistributore",
            "outputs": [
                {
                    "internalType": "string",
                    "name": "",
                    "type": "string"
                },
                {
                    "internalType": "string",
                    "name": "",
                    "type": "string"
                }
            ],
            "payable": false,
            "stateMutability": "view",
            "type": "function"
        },
        {
            "constant": true,
            "inputs": [
                {
                    "internalType": "uint256",
                    "name": "_idVendita",
                    "type": "uint256"
                }
            ],
            "name": "getDatiVendita",
            "outputs": [
                {
                    "internalType": "string",
                    "name": "",
                    "type": "string"
                },
                {
                    "internalType": "string",
                    "name": "",
                    "type": "string"
                },
                {
                    "internalType": "string",
                    "name": "",
                    "type": "string"
                },
                {
                    "internalType": "string",
                    "name": "",
                    "type": "string"
                },
                {
                    "internalType": "string",
                    "name": "",
                    "type": "string"
                }
            ],
            "payable": false,
            "stateMutability": "view",
            "type": "function"
        },
        {
            "constant": true,
            "inputs": [
                {
                    "internalType": "uint256",
                    "name": "_idLotto",
                    "type": "uint256"
                }
            ],
            "name": "getDestinazione",
            "outputs": [
                {
                    "internalType": "string",
                    "name": "",
                    "type": "string"
                }
            ],
            "payable": false,
            "stateMutability": "view",
            "type": "function"
        },
        {
            "constant": true,
            "inputs": [],
            "name": "getIdDestinazioneSerial",
            "outputs": [
                {
                    "internalType": "uint256",
                    "name": "",
                    "type": "uint256"
                }
            ],
            "payable": false,
            "stateMutability": "view",
            "type": "function"
        },
        {
            "constant": true,
            "inputs": [],
            "name": "getIdVenditaSerial",
            "outputs": [
                {
                    "internalType": "uint256",
                    "name": "",
                    "type": "uint256"
                }
            ],
            "payable": false,
            "stateMutability": "view",
            "type": "function"
        },
        {
            "constant": true,
            "inputs": [],
            "name": "owner",
            "outputs": [
                {
                    "internalType": "address",
                    "name": "",
                    "type": "address"
                }
            ],
            "payable": false,
            "stateMutability": "view",
            "type": "function"
        },
        {
            "constant": false,
            "inputs": [
                {
                    "internalType": "address",
                    "name": "_address",
                    "type": "address"
                }
            ],
            "name": "removeAuthorized",
            "outputs": [],
            "payable": false,
            "stateMutability": "nonpayable",
            "type": "function"
        },
        {
            "constant": false,
            "inputs": [
                {
                    "internalType": "string",
                    "name": "_prezzoVendita",
                    "type": "string"
                },
                {
                    "internalType": "string",
                    "name": "_nomeProdotto",
                    "type": "string"
                },
                {
                    "internalType": "string",
                    "name": "_quantita",
                    "type": "string"
                },
                {
                    "internalType": "string",
                    "name": "_nomeCliente",
                    "type": "string"
                },
                {
                    "internalType": "string",
                    "name": "_dataVendita",
                    "type": "string"
                }
            ],
            "name": "setDatiVendita",
            "outputs": [],
            "payable": false,
            "stateMutability": "nonpayable",
            "type": "function"
        },
        {
            "constant": false,
            "inputs": [
                {
                    "internalType": "string",
                    "name": "_destinazione",
                    "type": "string"
                }
            ],
            "name": "setDestinazione",
            "outputs": [],
            "payable": false,
            "stateMutability": "nonpayable",
            "type": "function"
        },
        {
            "constant": false,
            "inputs": [
                {
                    "internalType": "uint256",
                    "name": "_idLotto",
                    "type": "uint256"
                },
                {
                    "internalType": "string",
                    "name": "_quantitaTrasportata",
                    "type": "string"
                },
                {
                    "internalType": "string",
                    "name": "_temperaturaTrasporto",
                    "type": "string"
                }
            ],
            "name": "setSensoriDistributore",
            "outputs": [],
            "payable": false,
            "stateMutability": "nonpayable",
            "type": "function"
        }
    ],
    "bytecode": "60806040526001600555600160065534801561001a57600080fd5b5060405161144c38038061144c8339818101604052602081101561003d57600080fd5b5051600080546001600160a01b031990811633178083556001600160a01b039081168352600160208190526040909320805460ff1916909317909255600280549290931691161790556113b7806100956000396000f3fe608060405234801561001057600080fd5b50600436106100cf5760003560e01c80639edd513f1161008c578063b918161111610066578063b918161114610806578063cf1c316a14610840578063d4be0f2614610866578063f60e13061461090a576100cf565b80639edd513f146105b4578063a597e007146107e1578063ae0235d2146107e9576100cf565b80630da52d3c146100d45780633828cb7a14610166578063485d7d94146104205780635125419c1461044657806381da1b18146104605780638da5cb5b14610590575b600080fd5b6100f1600480360360208110156100ea57600080fd5b5035610a05565b6040805160208082528351818301528351919283929083019185019080838360005b8381101561012b578181015183820152602001610113565b50505050905090810190601f1680156101585780820380516001836020036101000a031916815260200191505b509250505060405180910390f35b61041e600480360360a081101561017c57600080fd5b810190602081018135600160201b81111561019657600080fd5b8201836020820111156101a857600080fd5b803590602001918460018302840111600160201b831117156101c957600080fd5b91908080601f0160208091040260200160405190810160405280939291908181526020018383808284376000920191909152509295949360208101935035915050600160201b81111561021b57600080fd5b82018360208201111561022d57600080fd5b803590602001918460018302840111600160201b8311171561024e57600080fd5b91908080601f0160208091040260200160405190810160405280939291908181526020018383808284376000920191909152509295949360208101935035915050600160201b8111156102a057600080fd5b8201836020820111156102b257600080fd5b803590602001918460018302840111600160201b831117156102d357600080fd5b91908080601f0160208091040260200160405190810160405280939291908181526020018383808284376000920191909152509295949360208101935035915050600160201b81111561032557600080fd5b82018360208201111561033757600080fd5b803590602001918460018302840111600160201b8311171561035857600080fd5b91908080601f0160208091040260200160405190810160405280939291908181526020018383808284376000920191909152509295949360208101935035915050600160201b8111156103aa57600080fd5b8201836020820111156103bc57600080fd5b803590602001918460018302840111600160201b831117156103dd57600080fd5b91908080601f016020809104026020016040519081016040528093929190818152602001838380828437600092019190915250929550610b43945050505050565b005b61041e6004803603602081101561043657600080fd5b50356001600160a01b0316610c36565b61044e610c6e565b60408051918252519081900360200190f35b61041e6004803603606081101561047657600080fd5b81359190810190604081016020820135600160201b81111561049757600080fd5b8201836020820111156104a957600080fd5b803590602001918460018302840111600160201b831117156104ca57600080fd5b91908080601f0160208091040260200160405190810160405280939291908181526020018383808284376000920191909152509295949360208101935035915050600160201b81111561051c57600080fd5b82018360208201111561052e57600080fd5b803590602001918460018302840111600160201b8311171561054f57600080fd5b91908080601f016020809104026020016040519081016040528093929190818152602001838380828437600092019190915250929550610c92945050505050565b610598610ce3565b604080516001600160a01b039092168252519081900360200190f35b6105d1600480360360208110156105ca57600080fd5b5035610cf2565b60405180806020018060200180602001806020018060200186810386528b818151815260200191508051906020019080838360005b8381101561061e578181015183820152602001610606565b50505050905090810190601f16801561064b5780820380516001836020036101000a031916815260200191505b5086810385528a5181528a516020918201918c019080838360005b8381101561067e578181015183820152602001610666565b50505050905090810190601f1680156106ab5780820380516001836020036101000a031916815260200191505b5086810384528951815289516020918201918b019080838360005b838110156106de5781810151838201526020016106c6565b50505050905090810190601f16801561070b5780820380516001836020036101000a031916815260200191505b5086810383528851815288516020918201918a019080838360005b8381101561073e578181015183820152602001610726565b50505050905090810190601f16801561076b5780820380516001836020036101000a031916815260200191505b50868103825287518152875160209182019189019080838360005b8381101561079e578181015183820152602001610786565b50505050905090810190601f1680156107cb5780820380516001836020036101000a031916815260200191505b509a505050505050505050505060405180910390f35b61044e61100f565b6100f1600480360360208110156107ff57600080fd5b5035611032565b61082c6004803603602081101561081c57600080fd5b50356001600160a01b03166110f0565b604080519115158252519081900360200190f35b61041e6004803603602081101561085657600080fd5b50356001600160a01b0316611105565b61041e6004803603602081101561087c57600080fd5b810190602081018135600160201b81111561089657600080fd5b8201836020820111156108a857600080fd5b803590602001918460018302840111600160201b831117156108c957600080fd5b91908080601f016020809104026020016040519081016040528093929190818152602001838380828437600092019190915250929550611143945050505050565b6109276004803603602081101561092057600080fd5b503561118e565b604051808060200180602001838103835285818151815260200191508051906020019080838360005b83811015610968578181015183820152602001610950565b50505050905090810190601f1680156109955780820380516001836020036101000a031916815260200191505b50838103825284518152845160209182019186019080838360005b838110156109c85781810151838201526020016109b0565b50505050905090810190601f1680156109f55780820380516001836020036101000a031916815260200191505b5094505050505060405180910390f35b600254604080516303694b4f60e21b81526004810184905290516060926001600160a01b031691630da52d3c916024808301926000929190829003018186803b158015610a5157600080fd5b505afa158015610a65573d6000803e3d6000fd5b505050506040513d6000823e601f3d908101601f191682016040526020811015610a8e57600080fd5b8101908080516040519392919084600160201b821115610aad57600080fd5b908301906020820185811115610ac257600080fd5b8251600160201b811182820188101715610adb57600080fd5b82525081516020918201929091019080838360005b83811015610b08578181015183820152602001610af0565b50505050905090810190601f168015610b355780820380516001836020036101000a031916815260200191505b506040525050509050919050565b3360009081526001602052604090205460ff16610b5f57600080fd5b60065460009081526004602090815260409091208651610b81928801906112ea565b5060065460009081526004602090815260409091208551610baa926001909201918701906112ea565b5060065460009081526004602090815260409091208451610bd3926002909201918601906112ea565b5060065460009081526004602090815260409091208351610bfc926003909201918501906112ea565b5060065460009081526004602081815260409092208351610c25939190920191908401906112ea565b505060068054600101905550505050565b6000546001600160a01b03163314610c4d57600080fd5b6001600160a01b03166000908152600160205260409020805460ff19169055565b3360009081526001602052604081205460ff16610c8a57600080fd5b506005545b90565b60008381526003602090815260409091208351610cb7926001909201918501906112ea565b5060008381526003602090815260409091208251610cdd926002909201918401906112ea565b50505050565b6000546001600160a01b031681565b33600090815260016020526040902054606090819081908190819060ff16610d1957600080fd5b6000868152600460208181526040928390208054845160026001808416156101000260001901909316819004601f81018690048602830186019097528682529295918601949286019360038701938701928791830182828015610dbd5780601f10610d9257610100808354040283529160200191610dbd565b820191906000526020600020905b815481529060010190602001808311610da057829003601f168201915b5050875460408051602060026001851615610100026000190190941693909304601f8101849004840282018401909252818152959a5089945092508401905082828015610e4b5780601f10610e2057610100808354040283529160200191610e4b565b820191906000526020600020905b815481529060010190602001808311610e2e57829003601f168201915b5050865460408051602060026001851615610100026000190190941693909304601f810184900484028201840190925281815295995088945092508401905082828015610ed95780601f10610eae57610100808354040283529160200191610ed9565b820191906000526020600020905b815481529060010190602001808311610ebc57829003601f168201915b5050855460408051602060026001851615610100026000190190941693909304601f810184900484028201840190925281815295985087945092508401905082828015610f675780601f10610f3c57610100808354040283529160200191610f67565b820191906000526020600020905b815481529060010190602001808311610f4a57829003601f168201915b5050845460408051602060026001851615610100026000190190941693909304601f810184900484028201840190925281815295975086945092508401905082828015610ff55780601f10610fca57610100808354040283529160200191610ff5565b820191906000526020600020905b815481529060010190602001808311610fd857829003601f168201915b505050505090509450945094509450945091939590929450565b3360009081526001602052604081205460ff1661102b57600080fd5b5060065490565b3360009081526001602052604090205460609060ff1661105157600080fd5b60008281526003602090815260409182902080548351601f6002600019610100600186161502019093169290920491820184900484028101840190945280845290918301828280156110e45780601f106110b9576101008083540402835291602001916110e4565b820191906000526020600020905b8154815290600101906020018083116110c757829003601f168201915b50505050509050919050565b60016020526000908152604090205460ff1681565b6000546001600160a01b0316331461111c57600080fd5b6001600160a01b03166000908152600160208190526040909120805460ff19169091179055565b3360009081526001602052604090205460ff1661115f57600080fd5b60055460009081526003602090815260409091208251611181928401906112ea565b5050600580546001019055565b33600090815260016020526040902054606090819060ff166111af57600080fd5b6000838152600360209081526040918290206001808201805485516002938216156101000260001901909116839004601f81018690048602820186019096528581529094919092019284919083018282801561124c5780601f106112215761010080835404028352916020019161124c565b820191906000526020600020905b81548152906001019060200180831161122f57829003601f168201915b5050845460408051602060026001851615610100026000190190941693909304601f8101849004840282018401909252818152959750869450925084019050828280156112da5780601f106112af576101008083540402835291602001916112da565b820191906000526020600020905b8154815290600101906020018083116112bd57829003601f168201915b5050505050905091509150915091565b828054600181600116156101000203166002900490600052602060002090601f016020900481019282601f1061132b57805160ff1916838001178555611358565b82800160010185558215611358579182015b8281111561135857825182559160200191906001019061133d565b50611364929150611368565b5090565b610c8f91905b80821115611364576000815560010161136e56fea265627a7a723158206f352685b093ebaec598b524432d7067fead102ad3e6404535410e22beb632f564736f6c63430005100032",
    "sourcePath": "c:/Users/Erman/OneDrive/BinTraWine2.0/contracts/Distributore.sol",
    "compiler": {
        "name": "solc",
        "version": "0.5.16+commit.9c3226ce"
    },
    "functionHashes": {
        "addAuthorized(address)": "cf1c316a",
        "authorized(address)": "b9181611",
        "getCodiceBarre(uint256)": "0da52d3c",
        "getDatiSensoriDistributore(uint256)": "f60e1306",
        "getDatiVendita(uint256)": "9edd513f",
        "getDestinazione(uint256)": "ae0235d2",
        "getIdDestinazioneSerial()": "5125419c",
        "getIdVenditaSerial()": "a597e007",
        "owner()": "8da5cb5b",
        "removeAuthorized(address)": "485d7d94",
        "setDatiVendita(string,string,string,string,string)": "3828cb7a",
        "setDestinazione(string)": "d4be0f26",
        "setSensoriDistributore(uint256,string,string)": "81da1b18"
    },
    "gasEstimates": {
        "creation": {
            "codeDepositCost": "1009400",
            "executionCost": "infinite",
            "totalCost": "infinite"
        },
        "external": {
            "addAuthorized(address)": "22008",
            "authorized(address)": "1158",
            "getCodiceBarre(uint256)": "infinite",
            "getDatiSensoriDistributore(uint256)": "infinite",
            "getDatiVendita(uint256)": "infinite",
            "getDestinazione(uint256)": "infinite",
            "getIdDestinazioneSerial()": "1959",
            "getIdVenditaSerial()": "1936",
            "owner()": "1148",
            "removeAuthorized(address)": "21991",
            "setDatiVendita(string,string,string,string,string)": "infinite",
            "setDestinazione(string)": "infinite",
            "setSensoriDistributore(uint256,string,string)": "infinite"
        }
    }
}