{
    "contractName": "EnteCertificatore",
    "abi": [
        {
            "inputs": [
                {
                    "internalType": "address",
                    "name": "agronomoContractAddr",
                    "type": "address"
                },
                {
                    "internalType": "address",
                    "name": "viticoltoreContractAddr",
                    "type": "address"
                },
                {
                    "internalType": "address",
                    "name": "produttoreContractAddr",
                    "type": "address"
                },
                {
                    "internalType": "address",
                    "name": "imbottigliatoreContractAddr",
                    "type": "address"
                },
                {
                    "internalType": "address",
                    "name": "distributoreContractAddr",
                    "type": "address"
                },
                {
                    "internalType": "address",
                    "name": "rivenditoreContractAddr",
                    "type": "address"
                }
            ],
            "payable": false,
            "stateMutability": "nonpayable",
            "type": "constructor"
        },
        {
            "constant": false,
            "inputs": [
                {
                    "internalType": "address",
                    "name": "_address",
                    "type": "address"
                }
            ],
            "name": "addAuthorized",
            "outputs": [],
            "payable": false,
            "stateMutability": "nonpayable",
            "type": "function"
        },
        {
            "constant": true,
            "inputs": [
                {
                    "internalType": "address",
                    "name": "",
                    "type": "address"
                }
            ],
            "name": "authorized",
            "outputs": [
                {
                    "internalType": "bool",
                    "name": "",
                    "type": "bool"
                }
            ],
            "payable": false,
            "stateMutability": "view",
            "type": "function"
        },
        {
            "constant": true,
            "inputs": [
                {
                    "internalType": "uint256",
                    "name": "_idLotto",
                    "type": "uint256"
                }
            ],
            "name": "getAllergeni",
            "outputs": [
                {
                    "internalType": "string",
                    "name": "",
                    "type": "string"
                }
            ],
            "payable": false,
            "stateMutability": "view",
            "type": "function"
        },
        {
            "constant": true,
            "inputs": [
                {
                    "internalType": "uint256",
                    "name": "_idTerreno",
                    "type": "uint256"
                }
            ],
            "name": "getAnalisiQualitaProdotto",
            "outputs": [
                {
                    "internalType": "string",
                    "name": "",
                    "type": "string"
                }
            ],
            "payable": false,
            "stateMutability": "view",
            "type": "function"
        },
        {
            "constant": true,
            "inputs": [
                {
                    "internalType": "uint256",
                    "name": "_idLotto",
                    "type": "uint256"
                }
            ],
            "name": "getCertificazione",
            "outputs": [
                {
                    "internalType": "string",
                    "name": "",
                    "type": "string"
                }
            ],
            "payable": false,
            "stateMutability": "view",
            "type": "function"
        },
        {
            "constant": true,
            "inputs": [
                {
                    "internalType": "uint256",
                    "name": "_idTerreno",
                    "type": "uint256"
                }
            ],
            "name": "getCertificazioneUvaAppezzamento",
            "outputs": [
                {
                    "internalType": "string",
                    "name": "",
                    "type": "string"
                }
            ],
            "payable": false,
            "stateMutability": "view",
            "type": "function"
        },
        {
            "constant": true,
            "inputs": [
                {
                    "internalType": "uint256",
                    "name": "_idLotto",
                    "type": "uint256"
                }
            ],
            "name": "getCodiceBarre",
            "outputs": [
                {
                    "internalType": "string",
                    "name": "",
                    "type": "string"
                }
            ],
            "payable": false,
            "stateMutability": "view",
            "type": "function"
        },
        {
            "constant": true,
            "inputs": [
                {
                    "internalType": "uint256",
                    "name": "_idTerreno",
                    "type": "uint256"
                }
            ],
            "name": "getDataRaccolta",
            "outputs": [
                {
                    "internalType": "string",
                    "name": "",
                    "type": "string"
                }
            ],
            "payable": false,
            "stateMutability": "view",
            "type": "function"
        },
        {
            "constant": true,
            "inputs": [
                {
                    "internalType": "uint256",
                    "name": "_idTerreno",
                    "type": "uint256"
                }
            ],
            "name": "getDatiForniture",
            "outputs": [
                {
                    "internalType": "string",
                    "name": "",
                    "type": "string"
                }
            ],
            "payable": false,
            "stateMutability": "view",
            "type": "function"
        },
        {
            "constant": true,
            "inputs": [
                {
                    "internalType": "uint256",
                    "name": "_idTerreno",
                    "type": "uint256"
                }
            ],
            "name": "getDatiSensoriAgronomo",
            "outputs": [
                {
                    "internalType": "string",
                    "name": "",
                    "type": "string"
                },
                {
                    "internalType": "string",
                    "name": "",
                    "type": "string"
                },
                {
                    "internalType": "string",
                    "name": "",
                    "type": "string"
                },
                {
                    "internalType": "string",
                    "name": "",
                    "type": "string"
                }
            ],
            "payable": false,
            "stateMutability": "view",
            "type": "function"
        },
        {
            "constant": true,
            "inputs": [
                {
                    "internalType": "uint256",
                    "name": "_idLotto",
                    "type": "uint256"
                }
            ],
            "name": "getDatiSensoriDistributore",
            "outputs": [
                {
                    "internalType": "string",
                    "name": "",
                    "type": "string"
                },
                {
                    "internalType": "string",
                    "name": "",
                    "type": "string"
                }
            ],
            "payable": false,
            "stateMutability": "view",
            "type": "function"
        },
        {
            "constant": true,
            "inputs": [
                {
                    "internalType": "uint256",
                    "name": "_idLotto",
                    "type": "uint256"
                }
            ],
            "name": "getDatiSensoriImbottigliatore",
            "outputs": [
                {
                    "internalType": "string",
                    "name": "",
                    "type": "string"
                },
                {
                    "internalType": "string",
                    "name": "",
                    "type": "string"
                },
                {
                    "internalType": "string",
                    "name": "",
                    "type": "string"
                }
            ],
            "payable": false,
            "stateMutability": "view",
            "type": "function"
        },
        {
            "constant": true,
            "inputs": [
                {
                    "internalType": "uint256",
                    "name": "_idLotto",
                    "type": "uint256"
                }
            ],
            "name": "getDatiSensoriProduttore",
            "outputs": [
                {
                    "internalType": "string",
                    "name": "",
                    "type": "string"
                },
                {
                    "internalType": "string",
                    "name": "",
                    "type": "string"
                },
                {
                    "internalType": "string",
                    "name": "",
                    "type": "string"
                },
                {
                    "internalType": "string",
                    "name": "",
                    "type": "string"
                }
            ],
            "payable": false,
            "stateMutability": "view",
            "type": "function"
        },
        {
            "constant": true,
            "inputs": [
                {
                    "internalType": "uint256",
                    "name": "_idLotto",
                    "type": "uint256"
                }
            ],
            "name": "getDatiSensoriRivenditore",
            "outputs": [
                {
                    "internalType": "string",
                    "name": "",
                    "type": "string"
                }
            ],
            "payable": false,
            "stateMutability": "view",
            "type": "function"
        },
        {
            "constant": true,
            "inputs": [
                {
                    "internalType": "uint256",
                    "name": "_idTerreno",
                    "type": "uint256"
                }
            ],
            "name": "getDatiSensoriViticoltore",
            "outputs": [
                {
                    "internalType": "string",
                    "name": "",
                    "type": "string"
                },
                {
                    "internalType": "string",
                    "name": "",
                    "type": "string"
                },
                {
                    "internalType": "string",
                    "name": "",
                    "type": "string"
                },
                {
                    "internalType": "string",
                    "name": "",
                    "type": "string"
                },
                {
                    "internalType": "string",
                    "name": "",
                    "type": "string"
                }
            ],
            "payable": false,
            "stateMutability": "view",
            "type": "function"
        },
        {
            "constant": true,
            "inputs": [
                {
                    "internalType": "uint256",
                    "name": "_idLotto",
                    "type": "uint256"
                }
            ],
            "name": "getDatiVenditaDistributore",
            "outputs": [
                {
                    "internalType": "string",
                    "name": "",
                    "type": "string"
                },
                {
                    "internalType": "string",
                    "name": "",
                    "type": "string"
                },
                {
                    "internalType": "string",
                    "name": "",
                    "type": "string"
                },
                {
                    "internalType": "string",
                    "name": "",
                    "type": "string"
                },
                {
                    "internalType": "string",
                    "name": "",
                    "type": "string"
                }
            ],
            "payable": false,
            "stateMutability": "view",
            "type": "function"
        },
        {
            "constant": true,
            "inputs": [
                {
                    "internalType": "uint256",
                    "name": "_idTerreno",
                    "type": "uint256"
                }
            ],
            "name": "getDatiVenditaViticoltore",
            "outputs": [
                {
                    "internalType": "string",
                    "name": "",
                    "type": "string"
                },
                {
                    "internalType": "string",
                    "name": "",
                    "type": "string"
                },
                {
                    "internalType": "string",
                    "name": "",
                    "type": "string"
                },
                {
                    "internalType": "string",
                    "name": "",
                    "type": "string"
                },
                {
                    "internalType": "string",
                    "name": "",
                    "type": "string"
                }
            ],
            "payable": false,
            "stateMutability": "view",
            "type": "function"
        },
        {
            "constant": true,
            "inputs": [
                {
                    "internalType": "uint256",
                    "name": "_idLotto",
                    "type": "uint256"
                }
            ],
            "name": "getDestinazione",
            "outputs": [
                {
                    "internalType": "string",
                    "name": "",
                    "type": "string"
                }
            ],
            "payable": false,
            "stateMutability": "view",
            "type": "function"
        },
        {
            "constant": true,
            "inputs": [
                {
                    "internalType": "uint256",
                    "name": "_idTerreno",
                    "type": "uint256"
                }
            ],
            "name": "getDestinazioneUva",
            "outputs": [
                {
                    "internalType": "string",
                    "name": "",
                    "type": "string"
                }
            ],
            "payable": false,
            "stateMutability": "view",
            "type": "function"
        },
        {
            "constant": true,
            "inputs": [],
            "name": "getIdCertificazioneSerial",
            "outputs": [
                {
                    "internalType": "uint256",
                    "name": "",
                    "type": "uint256"
                }
            ],
            "payable": false,
            "stateMutability": "view",
            "type": "function"
        },
        {
            "constant": true,
            "inputs": [],
            "name": "getIdValidazioneSerial",
            "outputs": [
                {
                    "internalType": "uint256",
                    "name": "",
                    "type": "uint256"
                }
            ],
            "payable": false,
            "stateMutability": "view",
            "type": "function"
        },
        {
            "constant": true,
            "inputs": [
                {
                    "internalType": "uint256",
                    "name": "_idLotto",
                    "type": "uint256"
                }
            ],
            "name": "getProdottiVinificazione",
            "outputs": [
                {
                    "internalType": "string",
                    "name": "",
                    "type": "string"
                }
            ],
            "payable": false,
            "stateMutability": "view",
            "type": "function"
        },
        {
            "constant": true,
            "inputs": [
                {
                    "internalType": "uint256",
                    "name": "_idLotto",
                    "type": "uint256"
                }
            ],
            "name": "getQuantitaVinoOttenuto",
            "outputs": [
                {
                    "internalType": "string",
                    "name": "",
                    "type": "string"
                }
            ],
            "payable": false,
            "stateMutability": "view",
            "type": "function"
        },
        {
            "constant": true,
            "inputs": [
                {
                    "internalType": "uint256",
                    "name": "_idLotto",
                    "type": "uint256"
                }
            ],
            "name": "getQuantitaVinoRivendicato",
            "outputs": [
                {
                    "internalType": "string",
                    "name": "",
                    "type": "string"
                }
            ],
            "payable": false,
            "stateMutability": "view",
            "type": "function"
        },
        {
            "constant": true,
            "inputs": [
                {
                    "internalType": "uint256",
                    "name": "_idLotto",
                    "type": "uint256"
                }
            ],
            "name": "getSolfiti",
            "outputs": [
                {
                    "internalType": "string",
                    "name": "",
                    "type": "string"
                }
            ],
            "payable": false,
            "stateMutability": "view",
            "type": "function"
        },
        {
            "constant": true,
            "inputs": [
                {
                    "internalType": "uint256",
                    "name": "_idLotto",
                    "type": "uint256"
                }
            ],
            "name": "getValidazione",
            "outputs": [
                {
                    "internalType": "string",
                    "name": "",
                    "type": "string"
                }
            ],
            "payable": false,
            "stateMutability": "view",
            "type": "function"
        },
        {
            "constant": true,
            "inputs": [
                {
                    "internalType": "uint256",
                    "name": "_idLotto",
                    "type": "uint256"
                }
            ],
            "name": "getlocalitaUve",
            "outputs": [
                {
                    "internalType": "string",
                    "name": "",
                    "type": "string"
                }
            ],
            "payable": false,
            "stateMutability": "view",
            "type": "function"
        },
        {
            "constant": true,
            "inputs": [],
            "name": "owner",
            "outputs": [
                {
                    "internalType": "address",
                    "name": "",
                    "type": "address"
                }
            ],
            "payable": false,
            "stateMutability": "view",
            "type": "function"
        },
        {
            "constant": false,
            "inputs": [
                {
                    "internalType": "address",
                    "name": "_address",
                    "type": "address"
                }
            ],
            "name": "removeAuthorized",
            "outputs": [],
            "payable": false,
            "stateMutability": "nonpayable",
            "type": "function"
        },
        {
            "constant": false,
            "inputs": [
                {
                    "internalType": "string",
                    "name": "_certificazione",
                    "type": "string"
                }
            ],
            "name": "setCertificazione",
            "outputs": [],
            "payable": false,
            "stateMutability": "nonpayable",
            "type": "function"
        },
        {
            "constant": false,
            "inputs": [
                {
                    "internalType": "string",
                    "name": "_validazione",
                    "type": "string"
                }
            ],
            "name": "setValidazione",
            "outputs": [],
            "payable": false,
            "stateMutability": "nonpayable",
            "type": "function"
        }
    ],
    "bytecode": "608060405260016009556001600a5534801561001a57600080fd5b506040516125e53803806125e5833981810160405260c081101561003d57600080fd5b5080516020808301516040808501516060860151608087015160a09097015160008054336001600160a01b0319918216178083556001600160a01b039081168352600198899052958220805460ff191690981790975560028054881698861698909817909755600380548716958516959095179094556004805486169284169290921790915560058054851691831691909117905560068054841695821695909517909455600780549092169316929092179091556124e390819061010290396000f3fe608060405234801561001057600080fd5b50600436106101e55760003560e01c806393e617731161010f578063b5c77406116100a2578063d7f0663c11610071578063d7f0663c14610baf578063d939881a14610bcc578063e5288d3514610be9578063f60e130614610bf1576101e5565b8063b5c7740614610a8e578063b918161114610aab578063c02a7b0114610ae5578063cf1c316a14610b89576101e5565b8063ae0235d2116100de578063ae0235d214610a1a578063b1689d4014610a37578063b17e973014610a54578063b1b02a6e14610a71576101e5565b806393e61773146109a65780639e78ddfa146109c35780639f09e11c146109e0578063a1fabe79146109fd576101e5565b80633df6d06a116101875780635df6ec33116101565780635df6ec331461092e578063635b75cb1461094b57806385c3435a146109685780638da5cb5b14610982576101e5565b80633df6d06a146106e4578063411967f814610845578063485d7d94146108eb57806357bd5df114610911576101e5565b80630da52d3c116101c35780630da52d3c146102b657806313a4db7b146102d35780632f33114f1461050057806337051aec1461051d576101e5565b806304f78e15146101ea57806305edddca1461027c578063095482f314610299575b600080fd5b6102076004803603602081101561020057600080fd5b5035610cec565b6040805160208082528351818301528351919283929083019185019080838360005b83811015610241578181015183820152602001610229565b50505050905090810190601f16801561026e5780820380516001836020036101000a031916815260200191505b509250505060405180910390f35b6102076004803603602081101561029257600080fd5b5035610e49565b610207600480360360208110156102af57600080fd5b5035610eb4565b610207600480360360208110156102cc57600080fd5b5035610f1d565b6102f0600480360360208110156102e957600080fd5b5035610f88565b60405180806020018060200180602001806020018060200186810386528b818151815260200191508051906020019080838360005b8381101561033d578181015183820152602001610325565b50505050905090810190601f16801561036a5780820380516001836020036101000a031916815260200191505b5086810385528a5181528a516020918201918c019080838360005b8381101561039d578181015183820152602001610385565b50505050905090810190601f1680156103ca5780820380516001836020036101000a031916815260200191505b5086810384528951815289516020918201918b019080838360005b838110156103fd5781810151838201526020016103e5565b50505050905090810190601f16801561042a5780820380516001836020036101000a031916815260200191505b5086810383528851815288516020918201918a019080838360005b8381101561045d578181015183820152602001610445565b50505050905090810190601f16801561048a5780820380516001836020036101000a031916815260200191505b50868103825287518152875160209182019189019080838360005b838110156104bd5781810151838201526020016104a5565b50505050905090810190601f1680156104ea5780820380516001836020036101000a031916815260200191505b509a505050505050505050505060405180910390f35b6102076004803603602081101561051657600080fd5b50356113a1565b61053a6004803603602081101561053357600080fd5b5035611476565b6040518080602001806020018060200180602001858103855289818151815260200191508051906020019080838360005b8381101561058357818101518382015260200161056b565b50505050905090810190601f1680156105b05780820380516001836020036101000a031916815260200191505b5085810384528851815288516020918201918a019080838360005b838110156105e35781810151838201526020016105cb565b50505050905090810190601f1680156106105780820380516001836020036101000a031916815260200191505b50858103835287518152875160209182019189019080838360005b8381101561064357818101518382015260200161062b565b50505050905090810190601f1680156106705780820380516001836020036101000a031916815260200191505b50858103825286518152865160209182019188019080838360005b838110156106a357818101518382015260200161068b565b50505050905090810190601f1680156106d05780820380516001836020036101000a031916815260200191505b509850505050505050505060405180910390f35b610701600480360360208110156106fa57600080fd5b50356117dd565b60405180806020018060200180602001848103845287818151815260200191508051906020019080838360005b8381101561074657818101518382015260200161072e565b50505050905090810190601f1680156107735780820380516001836020036101000a031916815260200191505b50848103835286518152865160209182019188019080838360005b838110156107a657818101518382015260200161078e565b50505050905090810190601f1680156107d35780820380516001836020036101000a031916815260200191505b50848103825285518152855160209182019187019080838360005b838110156108065781810151838201526020016107ee565b50505050905090810190601f1680156108335780820380516001836020036101000a031916815260200191505b50965050505050505060405180910390f35b6108e96004803603602081101561085b57600080fd5b810190602081018135600160201b81111561087557600080fd5b82018360208201111561088757600080fd5b803590602001918460018302840111600160201b831117156108a857600080fd5b91908080601f016020809104026020016040519081016040528093929190818152602001838380828437600092019190915250929550611a98945050505050565b005b6108e96004803603602081101561090157600080fd5b50356001600160a01b0316611ae9565b6102076004803603602081101561092757600080fd5b5035611b21565b61053a6004803603602081101561094457600080fd5b5035611b8c565b6102076004803603602081101561096157600080fd5b5035611bfd565b610970611c66565b60408051918252519081900360200190f35b61098a611c8a565b604080516001600160a01b039092168252519081900360200190f35b6102f0600480360360208110156109bc57600080fd5b5035611c99565b610207600480360360208110156109d957600080fd5b5035611d0c565b610207600480360360208110156109f657600080fd5b5035611d93565b61020760048036036020811015610a1357600080fd5b5035611dfe565b61020760048036036020811015610a3057600080fd5b5035611e69565b61020760048036036020811015610a4d57600080fd5b5035611ed4565b61020760048036036020811015610a6a57600080fd5b5035611f3f565b61020760048036036020811015610a8757600080fd5b5035611faa565b61020760048036036020811015610aa457600080fd5b5035612013565b610ad160048036036020811015610ac157600080fd5b50356001600160a01b031661207e565b604080519115158252519081900360200190f35b6108e960048036036020811015610afb57600080fd5b810190602081018135600160201b811115610b1557600080fd5b820183602082011115610b2757600080fd5b803590602001918460018302840111600160201b83111715610b4857600080fd5b91908080601f016020809104026020016040519081016040528093929190818152602001838380828437600092019190915250929550612093945050505050565b6108e960048036036020811015610b9f57600080fd5b50356001600160a01b03166120de565b6102f060048036036020811015610bc557600080fd5b503561211c565b61020760048036036020811015610be257600080fd5b503561217d565b6109706121e8565b610c0e60048036036020811015610c0757600080fd5b503561220b565b604051808060200180602001838103835285818151815260200191508051906020019080838360005b83811015610c4f578181015183820152602001610c37565b50505050905090810190601f168015610c7c5780820380516001836020036101000a031916815260200191505b50838103825284518152845160209182019186019080838360005b83811015610caf578181015183820152602001610c97565b50505050905090810190601f168015610cdc5780820380516001836020036101000a031916815260200191505b5094505050505060405180910390f35b3360009081526001602052604090205460609060ff16610d0b57600080fd5b600554604080516304f78e1560e01b81526004810185905290516001600160a01b03909216916304f78e1591602480820192600092909190829003018186803b158015610d5757600080fd5b505afa158015610d6b573d6000803e3d6000fd5b505050506040513d6000823e601f3d908101601f191682016040526020811015610d9457600080fd5b8101908080516040519392919084600160201b821115610db357600080fd5b908301906020820185811115610dc857600080fd5b8251600160201b811182820188101715610de157600080fd5b82525081516020918201929091019080838360005b83811015610e0e578181015183820152602001610df6565b50505050905090810190601f168015610e3b5780820380516001836020036101000a031916815260200191505b506040525050509050919050565b3360009081526001602052604090205460609060ff16610e6857600080fd5b600554604080516302f6eee560e11b81526004810185905290516001600160a01b03909216916305edddca91602480820192600092909190829003018186803b158015610d5757600080fd5b3360009081526001602052604090205460609060ff16610ed357600080fd5b600480546040805163095482f360e01b8152928301859052516001600160a01b039091169163095482f3916024808301926000929190829003018186803b158015610d5757600080fd5b3360009081526001602052604090205460609060ff16610f3c57600080fd5b600554604080516303694b4f60e21b81526004810185905290516001600160a01b0390921691630da52d3c91602480820192600092909190829003018186803b158015610d5757600080fd5b33600090815260016020526040902054606090819081908190819060ff16610faf57600080fd5b600354604080516313a4db7b60e01b81526004810189905290516001600160a01b03909216916313a4db7b91602480820192600092909190829003018186803b158015610ffb57600080fd5b505afa15801561100f573d6000803e3d6000fd5b505050506040513d6000823e601f3d908101601f1916820160405260a081101561103857600080fd5b8101908080516040519392919084600160201b82111561105757600080fd5b90830190602082018581111561106c57600080fd5b8251600160201b81118282018810171561108557600080fd5b82525081516020918201929091019080838360005b838110156110b257818101518382015260200161109a565b50505050905090810190601f1680156110df5780820380516001836020036101000a031916815260200191505b5060405260200180516040519392919084600160201b82111561110157600080fd5b90830190602082018581111561111657600080fd5b8251600160201b81118282018810171561112f57600080fd5b82525081516020918201929091019080838360005b8381101561115c578181015183820152602001611144565b50505050905090810190601f1680156111895780820380516001836020036101000a031916815260200191505b5060405260200180516040519392919084600160201b8211156111ab57600080fd5b9083019060208201858111156111c057600080fd5b8251600160201b8111828201881017156111d957600080fd5b82525081516020918201929091019080838360005b838110156112065781810151838201526020016111ee565b50505050905090810190601f1680156112335780820380516001836020036101000a031916815260200191505b5060405260200180516040519392919084600160201b82111561125557600080fd5b90830190602082018581111561126a57600080fd5b8251600160201b81118282018810171561128357600080fd5b82525081516020918201929091019080838360005b838110156112b0578181015183820152602001611298565b50505050905090810190601f1680156112dd5780820380516001836020036101000a031916815260200191505b5060405260200180516040519392919084600160201b8211156112ff57600080fd5b90830190602082018581111561131457600080fd5b8251600160201b81118282018810171561132d57600080fd5b82525081516020918201929091019080838360005b8381101561135a578181015183820152602001611342565b50505050905090810190601f1680156113875780820380516001836020036101000a031916815260200191505b506040525050509450945094509450945091939590929450565b3360009081526001602052604090205460609060ff166113c057600080fd5b600860008381526020019081526020016000206001018054600181600116156101000203166002900480601f01602080910402602001604051908101604052809291908181526020018280546001816001161561010002031660029004801561146a5780601f1061143f5761010080835404028352916020019161146a565b820191906000526020600020905b81548152906001019060200180831161144d57829003601f168201915b50505050509050919050565b3360009081526001602052604090205460609081908190819060ff1661149b57600080fd5b6004805460408051630dc146bb60e21b8152928301889052516001600160a01b03909116916337051aec916024808301926000929190829003018186803b1580156114e557600080fd5b505afa1580156114f9573d6000803e3d6000fd5b505050506040513d6000823e601f3d908101601f19168201604052608081101561152257600080fd5b8101908080516040519392919084600160201b82111561154157600080fd5b90830190602082018581111561155657600080fd5b8251600160201b81118282018810171561156f57600080fd5b82525081516020918201929091019080838360005b8381101561159c578181015183820152602001611584565b50505050905090810190601f1680156115c95780820380516001836020036101000a031916815260200191505b5060405260200180516040519392919084600160201b8211156115eb57600080fd5b90830190602082018581111561160057600080fd5b8251600160201b81118282018810171561161957600080fd5b82525081516020918201929091019080838360005b8381101561164657818101518382015260200161162e565b50505050905090810190601f1680156116735780820380516001836020036101000a031916815260200191505b5060405260200180516040519392919084600160201b82111561169557600080fd5b9083019060208201858111156116aa57600080fd5b8251600160201b8111828201881017156116c357600080fd5b82525081516020918201929091019080838360005b838110156116f05781810151838201526020016116d8565b50505050905090810190601f16801561171d5780820380516001836020036101000a031916815260200191505b5060405260200180516040519392919084600160201b82111561173f57600080fd5b90830190602082018581111561175457600080fd5b8251600160201b81118282018810171561176d57600080fd5b82525081516020918201929091019080838360005b8381101561179a578181015183820152602001611782565b50505050905090810190601f1680156117c75780820380516001836020036101000a031916815260200191505b5060405250505093509350935093509193509193565b336000908152600160205260409020546060908190819060ff1661180057600080fd5b60055460408051631efb683560e11b81526004810187905290516001600160a01b0390921691633df6d06a91602480820192600092909190829003018186803b15801561184c57600080fd5b505afa158015611860573d6000803e3d6000fd5b505050506040513d6000823e601f3d908101601f19168201604052606081101561188957600080fd5b8101908080516040519392919084600160201b8211156118a857600080fd5b9083019060208201858111156118bd57600080fd5b8251600160201b8111828201881017156118d657600080fd5b82525081516020918201929091019080838360005b838110156119035781810151838201526020016118eb565b50505050905090810190601f1680156119305780820380516001836020036101000a031916815260200191505b5060405260200180516040519392919084600160201b82111561195257600080fd5b90830190602082018581111561196757600080fd5b8251600160201b81118282018810171561198057600080fd5b82525081516020918201929091019080838360005b838110156119ad578181015183820152602001611995565b50505050905090810190601f1680156119da5780820380516001836020036101000a031916815260200191505b5060405260200180516040519392919084600160201b8211156119fc57600080fd5b908301906020820185811115611a1157600080fd5b8251600160201b811182820188101715611a2a57600080fd5b82525081516020918201929091019080838360005b83811015611a57578181015183820152602001611a3f565b50505050905090810190601f168015611a845780820380516001836020036101000a031916815260200191505b506040525050509250925092509193909250565b3360009081526001602052604090205460ff16611ab457600080fd5b600a5460009081526008602090815260409091208251611adc92600190920191840190612416565b5050600a80546001019055565b6000546001600160a01b03163314611b0057600080fd5b6001600160a01b03166000908152600160205260409020805460ff19169055565b3360009081526001602052604090205460609060ff16611b4057600080fd5b600254604080516357bd5df160e01b81526004810185905290516001600160a01b03909216916357bd5df191602480820192600092909190829003018186803b158015610d5757600080fd5b3360009081526001602052604090205460609081908190819060ff16611bb157600080fd5b60025460408051635df6ec3360e01b81526004810188905290516001600160a01b0390921691635df6ec3391602480820192600092909190829003018186803b1580156114e557600080fd5b3360009081526001602052604090205460609060ff16611c1c57600080fd5b600480546040805163635b75cb60e01b8152928301859052516001600160a01b039091169163635b75cb916024808301926000929190829003018186803b158015610d5757600080fd5b3360009081526001602052604081205460ff16611c8257600080fd5b506009545b90565b6000546001600160a01b031681565b33600090815260016020526040902054606090819081908190819060ff16611cc057600080fd5b60035460408051639edd513f60e01b81526004810189905290516001600160a01b0390921691639edd513f91602480820192600092909190829003018186803b158015610ffb57600080fd5b3360009081526001602052604090205460609060ff16611d2b57600080fd5b60008281526008602090815260409182902080548351601f60026000196101006001861615020190931692909204918201849004840281018401909452808452909183018282801561146a5780601f1061143f5761010080835404028352916020019161146a565b3360009081526001602052604090205460609060ff16611db257600080fd5b600354604080516327c2784760e21b81526004810185905290516001600160a01b0390921691639f09e11c91602480820192600092909190829003018186803b158015610d5757600080fd5b3360009081526001602052604090205460609060ff16611e1d57600080fd5b6002546040805163a1fabe7960e01b81526004810185905290516001600160a01b039092169163a1fabe7991602480820192600092909190829003018186803b158015610d5757600080fd5b3360009081526001602052604090205460609060ff16611e8857600080fd5b600654604080516357011ae960e11b81526004810185905290516001600160a01b039092169163ae0235d291602480820192600092909190829003018186803b158015610d5757600080fd5b3360009081526001602052604090205460609060ff16611ef357600080fd5b600354604080516302c5a27560e61b81526004810185905290516001600160a01b039092169163b1689d4091602480820192600092909190829003018186803b158015610d5757600080fd5b3360009081526001602052604090205460609060ff16611f5e57600080fd5b60035460408051630b17e97360e41b81526004810185905290516001600160a01b039092169163b17e973091602480820192600092909190829003018186803b158015610d5757600080fd5b3360009081526001602052604090205460609060ff16611fc957600080fd5b60048054604080516358d8153760e11b8152928301859052516001600160a01b039091169163b1b02a6e916024808301926000929190829003018186803b158015610d5757600080fd5b3360009081526001602052604090205460609060ff1661203257600080fd5b60075460408051635ae3ba0360e11b81526004810185905290516001600160a01b039092169163b5c7740691602480820192600092909190829003018186803b158015610d5757600080fd5b60016020526000908152604090205460ff1681565b3360009081526001602052604090205460ff166120af57600080fd5b600954600090815260086020908152604090912082516120d192840190612416565b5050600980546001019055565b6000546001600160a01b031633146120f557600080fd5b6001600160a01b03166000908152600160208190526040909120805460ff19169091179055565b6060806060806060600660009054906101000a90046001600160a01b03166001600160a01b0316639edd513f876040518263ffffffff1660e01b81526004018082815260200191505060006040518083038186803b158015610ffb57600080fd5b3360009081526001602052604090205460609060ff1661219c57600080fd5b60055460408051636c9cc40d60e11b81526004810185905290516001600160a01b039092169163d939881a91602480820192600092909190829003018186803b158015610d5757600080fd5b3360009081526001602052604081205460ff1661220457600080fd5b50600a5490565b33600090815260016020526040902054606090819060ff1661222c57600080fd5b60065460408051637b07098360e11b81526004810186905290516001600160a01b039092169163f60e130691602480820192600092909190829003018186803b15801561227857600080fd5b505afa15801561228c573d6000803e3d6000fd5b505050506040513d6000823e601f3d908101601f1916820160409081528110156122b557600080fd5b8101908080516040519392919084600160201b8211156122d457600080fd5b9083019060208201858111156122e957600080fd5b8251600160201b81118282018810171561230257600080fd5b82525081516020918201929091019080838360005b8381101561232f578181015183820152602001612317565b50505050905090810190601f16801561235c5780820380516001836020036101000a031916815260200191505b5060405260200180516040519392919084600160201b82111561237e57600080fd5b90830190602082018581111561239357600080fd5b8251600160201b8111828201881017156123ac57600080fd5b82525081516020918201929091019080838360005b838110156123d95781810151838201526020016123c1565b50505050905090810190601f1680156124065780820380516001836020036101000a031916815260200191505b5060405250505091509150915091565b828054600181600116156101000203166002900490600052602060002090601f016020900481019282601f1061245757805160ff1916838001178555612484565b82800160010185558215612484579182015b82811115612484578251825591602001919060010190612469565b50612490929150612494565b5090565b611c8791905b80821115612490576000815560010161249a56fea265627a7a723158202ff7d3efdc6f8a3d8a7a1944ce9203f78228dce00190b0e9d1204ffc93ef471264736f6c63430005100032",
    "sourcePath": "c:/Users/Erman/OneDrive/BinTraWine2.0/contracts/EnteCertificatore.sol",
    "compiler": {
        "name": "solc",
        "version": "0.5.16+commit.9c3226ce"
    },
    "functionHashes": {
        "addAuthorized(address)": "cf1c316a",
        "authorized(address)": "b9181611",
        "getAllergeni(uint256)": "05edddca",
        "getAnalisiQualitaProdotto(uint256)": "57bd5df1",
        "getCertificazione(uint256)": "2f33114f",
        "getCertificazioneUvaAppezzamento(uint256)": "a1fabe79",
        "getCodiceBarre(uint256)": "0da52d3c",
        "getDataRaccolta(uint256)": "b17e9730",
        "getDatiForniture(uint256)": "9f09e11c",
        "getDatiSensoriAgronomo(uint256)": "5df6ec33",
        "getDatiSensoriDistributore(uint256)": "f60e1306",
        "getDatiSensoriImbottigliatore(uint256)": "3df6d06a",
        "getDatiSensoriProduttore(uint256)": "37051aec",
        "getDatiSensoriRivenditore(uint256)": "b5c77406",
        "getDatiSensoriViticoltore(uint256)": "13a4db7b",
        "getDatiVenditaDistributore(uint256)": "d7f0663c",
        "getDatiVenditaViticoltore(uint256)": "93e61773",
        "getDestinazione(uint256)": "ae0235d2",
        "getDestinazioneUva(uint256)": "b1689d40",
        "getIdCertificazioneSerial()": "e5288d35",
        "getIdValidazioneSerial()": "85c3435a",
        "getProdottiVinificazione(uint256)": "635b75cb",
        "getQuantitaVinoOttenuto(uint256)": "095482f3",
        "getQuantitaVinoRivendicato(uint256)": "b1b02a6e",
        "getSolfiti(uint256)": "d939881a",
        "getValidazione(uint256)": "9e78ddfa",
        "getlocalitaUve(uint256)": "04f78e15",
        "owner()": "8da5cb5b",
        "removeAuthorized(address)": "485d7d94",
        "setCertificazione(string)": "411967f8",
        "setValidazione(string)": "c02a7b01"
    },
    "gasEstimates": {
        "creation": {
            "codeDepositCost": "1888600",
            "executionCost": "infinite",
            "totalCost": "infinite"
        },
        "external": {
            "addAuthorized(address)": "22075",
            "authorized(address)": "1203",
            "getAllergeni(uint256)": "infinite",
            "getAnalisiQualitaProdotto(uint256)": "infinite",
            "getCertificazione(uint256)": "infinite",
            "getCertificazioneUvaAppezzamento(uint256)": "infinite",
            "getCodiceBarre(uint256)": "infinite",
            "getDataRaccolta(uint256)": "infinite",
            "getDatiForniture(uint256)": "infinite",
            "getDatiSensoriAgronomo(uint256)": "infinite",
            "getDatiSensoriDistributore(uint256)": "infinite",
            "getDatiSensoriImbottigliatore(uint256)": "infinite",
            "getDatiSensoriProduttore(uint256)": "infinite",
            "getDatiSensoriRivenditore(uint256)": "infinite",
            "getDatiSensoriViticoltore(uint256)": "infinite",
            "getDatiVenditaDistributore(uint256)": "infinite",
            "getDatiVenditaViticoltore(uint256)": "infinite",
            "getDestinazione(uint256)": "infinite",
            "getDestinazioneUva(uint256)": "infinite",
            "getIdCertificazioneSerial()": "1979",
            "getIdValidazioneSerial()": "1981",
            "getProdottiVinificazione(uint256)": "infinite",
            "getQuantitaVinoOttenuto(uint256)": "infinite",
            "getQuantitaVinoRivendicato(uint256)": "infinite",
            "getSolfiti(uint256)": "infinite",
            "getValidazione(uint256)": "infinite",
            "getlocalitaUve(uint256)": "infinite",
            "owner()": "1148",
            "removeAuthorized(address)": "22036",
            "setCertificazione(string)": "infinite",
            "setValidazione(string)": "infinite"
        }
    }
}