{
    "contractName": "Imbottigliatore",
    "abi": [
        {
            "inputs": [
                {
                    "internalType": "address",
                    "name": "_produttoreContractAddress",
                    "type": "address"
                },
                {
                    "internalType": "address",
                    "name": "_viticoltoreContractAddress",
                    "type": "address"
                }
            ],
            "payable": false,
            "stateMutability": "nonpayable",
            "type": "constructor"
        },
        {
            "constant": false,
            "inputs": [
                {
                    "internalType": "address",
                    "name": "_address",
                    "type": "address"
                }
            ],
            "name": "addAuthorized",
            "outputs": [],
            "payable": false,
            "stateMutability": "nonpayable",
            "type": "function"
        },
        {
            "constant": true,
            "inputs": [
                {
                    "internalType": "address",
                    "name": "",
                    "type": "address"
                }
            ],
            "name": "authorized",
            "outputs": [
                {
                    "internalType": "bool",
                    "name": "",
                    "type": "bool"
                }
            ],
            "payable": false,
            "stateMutability": "view",
            "type": "function"
        },
        {
            "constant": true,
            "inputs": [
                {
                    "internalType": "uint256",
                    "name": "_idLotto",
                    "type": "uint256"
                }
            ],
            "name": "getAllergeni",
            "outputs": [
                {
                    "internalType": "string",
                    "name": "",
                    "type": "string"
                }
            ],
            "payable": false,
            "stateMutability": "view",
            "type": "function"
        },
        {
            "constant": true,
            "inputs": [
                {
                    "internalType": "uint256",
                    "name": "_idLotto",
                    "type": "uint256"
                }
            ],
            "name": "getCodiceBarre",
            "outputs": [
                {
                    "internalType": "string",
                    "name": "",
                    "type": "string"
                }
            ],
            "payable": false,
            "stateMutability": "view",
            "type": "function"
        },
        {
            "constant": true,
            "inputs": [
                {
                    "internalType": "uint256",
                    "name": "_idLotto",
                    "type": "uint256"
                }
            ],
            "name": "getDatiSensoriImbottigliatore",
            "outputs": [
                {
                    "internalType": "string",
                    "name": "",
                    "type": "string"
                },
                {
                    "internalType": "string",
                    "name": "",
                    "type": "string"
                },
                {
                    "internalType": "string",
                    "name": "",
                    "type": "string"
                }
            ],
            "payable": false,
            "stateMutability": "view",
            "type": "function"
        },
        {
            "constant": true,
            "inputs": [
                {
                    "internalType": "uint256",
                    "name": "_idLotto",
                    "type": "uint256"
                }
            ],
            "name": "getDestinazioneUva",
            "outputs": [
                {
                    "internalType": "string",
                    "name": "",
                    "type": "string"
                }
            ],
            "payable": false,
            "stateMutability": "view",
            "type": "function"
        },
        {
            "constant": true,
            "inputs": [],
            "name": "getIdAllergeniSerial",
            "outputs": [
                {
                    "internalType": "uint256",
                    "name": "",
                    "type": "uint256"
                }
            ],
            "payable": false,
            "stateMutability": "view",
            "type": "function"
        },
        {
            "constant": true,
            "inputs": [],
            "name": "getIdCodiceBarreSerial",
            "outputs": [
                {
                    "internalType": "uint256",
                    "name": "",
                    "type": "uint256"
                }
            ],
            "payable": false,
            "stateMutability": "view",
            "type": "function"
        },
        {
            "constant": true,
            "inputs": [],
            "name": "getIdLocalitaUveSerial",
            "outputs": [
                {
                    "internalType": "uint256",
                    "name": "",
                    "type": "uint256"
                }
            ],
            "payable": false,
            "stateMutability": "view",
            "type": "function"
        },
        {
            "constant": true,
            "inputs": [],
            "name": "getIdSolfitiSerial",
            "outputs": [
                {
                    "internalType": "uint256",
                    "name": "",
                    "type": "uint256"
                }
            ],
            "payable": false,
            "stateMutability": "view",
            "type": "function"
        },
        {
            "constant": true,
            "inputs": [
                {
                    "internalType": "uint256",
                    "name": "_idLotto",
                    "type": "uint256"
                }
            ],
            "name": "getListaProdottiVinificazione",
            "outputs": [
                {
                    "internalType": "string",
                    "name": "",
                    "type": "string"
                }
            ],
            "payable": false,
            "stateMutability": "view",
            "type": "function"
        },
        {
            "constant": true,
            "inputs": [
                {
                    "internalType": "uint256",
                    "name": "_idLotto",
                    "type": "uint256"
                }
            ],
            "name": "getSolfiti",
            "outputs": [
                {
                    "internalType": "string",
                    "name": "",
                    "type": "string"
                }
            ],
            "payable": false,
            "stateMutability": "view",
            "type": "function"
        },
        {
            "constant": true,
            "inputs": [
                {
                    "internalType": "uint256",
                    "name": "_idLotto",
                    "type": "uint256"
                }
            ],
            "name": "getlocalitaUve",
            "outputs": [
                {
                    "internalType": "string",
                    "name": "",
                    "type": "string"
                }
            ],
            "payable": false,
            "stateMutability": "view",
            "type": "function"
        },
        {
            "constant": true,
            "inputs": [],
            "name": "owner",
            "outputs": [
                {
                    "internalType": "address",
                    "name": "",
                    "type": "address"
                }
            ],
            "payable": false,
            "stateMutability": "view",
            "type": "function"
        },
        {
            "constant": false,
            "inputs": [
                {
                    "internalType": "address",
                    "name": "_address",
                    "type": "address"
                }
            ],
            "name": "removeAuthorized",
            "outputs": [],
            "payable": false,
            "stateMutability": "nonpayable",
            "type": "function"
        },
        {
            "constant": false,
            "inputs": [
                {
                    "internalType": "string",
                    "name": "_allergeni",
                    "type": "string"
                }
            ],
            "name": "setAllergeni",
            "outputs": [],
            "payable": false,
            "stateMutability": "nonpayable",
            "type": "function"
        },
        {
            "constant": false,
            "inputs": [
                {
                    "internalType": "string",
                    "name": "_codiceBarre",
                    "type": "string"
                }
            ],
            "name": "setCodiceBarre",
            "outputs": [],
            "payable": false,
            "stateMutability": "nonpayable",
            "type": "function"
        },
        {
            "constant": false,
            "inputs": [
                {
                    "internalType": "string",
                    "name": "_localitaUve",
                    "type": "string"
                }
            ],
            "name": "setLocalitaUve",
            "outputs": [],
            "payable": false,
            "stateMutability": "nonpayable",
            "type": "function"
        },
        {
            "constant": false,
            "inputs": [
                {
                    "internalType": "uint256",
                    "name": "_idLotto",
                    "type": "uint256"
                },
                {
                    "internalType": "string",
                    "name": "_quantitaProdottoRicevuta",
                    "type": "string"
                },
                {
                    "internalType": "string",
                    "name": "_quantitaVinoImbottigliata",
                    "type": "string"
                },
                {
                    "internalType": "string",
                    "name": "_gradazioneAlcolica",
                    "type": "string"
                }
            ],
            "name": "setSensoriImbottigliatore",
            "outputs": [],
            "payable": false,
            "stateMutability": "nonpayable",
            "type": "function"
        },
        {
            "constant": false,
            "inputs": [
                {
                    "internalType": "string",
                    "name": "_solfiti",
                    "type": "string"
                }
            ],
            "name": "setSolfiti",
            "outputs": [],
            "payable": false,
            "stateMutability": "nonpayable",
            "type": "function"
        }
    ],
    "bytecode": "6080604052600160055560016006556001600755600160085534801561002457600080fd5b506040516113293803806113298339818101604052604081101561004757600080fd5b508051602091820151600080546001600160a01b031990811633178083556001600160a01b0390811683526001958690526040909220805460ff19169095179094556002805493821693851693909317909255600380549290911691909216179055611271806100b86000396000f3fe608060405234801561001057600080fd5b506004361061012c5760003560e01c80634c4c2054116100ad578063b918161111610071578063b918161114610836578063b9e6714214610870578063c5fe6af414610878578063cf1c316a14610895578063d939881a146108bb5761012c565b80634c4c2054146106095780636f036a9b146106ad5780638da5cb5b146107515780639d740b1a14610775578063b1689d40146108195761012c565b806330d381d3116100f457806330d381d3146102bd57806331c82f60146102c55780633a86803e146102cd5780633df6d06a14610482578063485d7d94146105e35761012c565b806304f78e151461013157806305edddca146101c35780630da52d3c146101e0578063129e0c5a146101fd57806318775bdf146102a3575b600080fd5b61014e6004803603602081101561014757600080fd5b50356108d8565b6040805160208082528351818301528351919283929083019185019080838360005b83811015610188578181015183820152602001610170565b50505050905090810190601f1680156101b55780820380516001836020036101000a031916815260200191505b509250505060405180910390f35b61014e600480360360208110156101d957600080fd5b503561099a565b61014e600480360360208110156101f657600080fd5b5035610a38565b6102a16004803603602081101561021357600080fd5b810190602081018135600160201b81111561022d57600080fd5b82018360208201111561023f57600080fd5b803590602001918460018302840111600160201b8311171561026057600080fd5b91908080601f016020809104026020016040519081016040528093929190818152602001838380828437600092019190915250929550610ac2945050505050565b005b6102ab610b13565b60408051918252519081900360200190f35b6102ab610b37565b6102ab610b5a565b6102a1600480360360808110156102e357600080fd5b81359190810190604081016020820135600160201b81111561030457600080fd5b82018360208201111561031657600080fd5b803590602001918460018302840111600160201b8311171561033757600080fd5b91908080601f0160208091040260200160405190810160405280939291908181526020018383808284376000920191909152509295949360208101935035915050600160201b81111561038957600080fd5b82018360208201111561039b57600080fd5b803590602001918460018302840111600160201b831117156103bc57600080fd5b91908080601f0160208091040260200160405190810160405280939291908181526020018383808284376000920191909152509295949360208101935035915050600160201b81111561040e57600080fd5b82018360208201111561042057600080fd5b803590602001918460018302840111600160201b8311171561044157600080fd5b91908080601f016020809104026020016040519081016040528093929190818152602001838380828437600092019190915250929550610b7d945050505050565b61049f6004803603602081101561049857600080fd5b5035610bf5565b60405180806020018060200180602001848103845287818151815260200191508051906020019080838360005b838110156104e45781810151838201526020016104cc565b50505050905090810190601f1680156105115780820380516001836020036101000a031916815260200191505b50848103835286518152865160209182019188019080838360005b8381101561054457818101518382015260200161052c565b50505050905090810190601f1680156105715780820380516001836020036101000a031916815260200191505b50848103825285518152855160209182019187019080838360005b838110156105a457818101518382015260200161058c565b50505050905090810190601f1680156105d15780820380516001836020036101000a031916815260200191505b50965050505050505060405180910390f35b6102a1600480360360208110156105f957600080fd5b50356001600160a01b0316610de9565b6102a16004803603602081101561061f57600080fd5b810190602081018135600160201b81111561063957600080fd5b82018360208201111561064b57600080fd5b803590602001918460018302840111600160201b8311171561066c57600080fd5b91908080601f016020809104026020016040519081016040528093929190818152602001838380828437600092019190915250929550610e21945050505050565b6102a1600480360360208110156106c357600080fd5b810190602081018135600160201b8111156106dd57600080fd5b8201836020820111156106ef57600080fd5b803590602001918460018302840111600160201b8311171561071057600080fd5b91908080601f016020809104026020016040519081016040528093929190818152602001838380828437600092019190915250929550610e72945050505050565b610759610ebd565b604080516001600160a01b039092168252519081900360200190f35b6102a16004803603602081101561078b57600080fd5b810190602081018135600160201b8111156107a557600080fd5b8201836020820111156107b757600080fd5b803590602001918460018302840111600160201b831117156107d857600080fd5b91908080601f016020809104026020016040519081016040528093929190818152602001838380828437600092019190915250929550610ecc945050505050565b61014e6004803603602081101561082f57600080fd5b5035610f1d565b61085c6004803603602081101561084c57600080fd5b50356001600160a01b031661105b565b604080519115158252519081900360200190f35b6102ab611070565b61014e6004803603602081101561088e57600080fd5b5035611093565b6102a1600480360360208110156108ab57600080fd5b50356001600160a01b03166110df565b61014e600480360360208110156108d157600080fd5b503561111d565b3360009081526001602052604090205460609060ff166108f757600080fd5b6000828152600460209081526040918290206002908101805484516001821615610100026000190190911692909204601f81018490048402830184019094528382529092909183018282801561098e5780601f106109635761010080835404028352916020019161098e565b820191906000526020600020905b81548152906001019060200180831161097157829003601f168201915b50505050509050919050565b3360009081526001602052604090205460609060ff166109b957600080fd5b600460008381526020019081526020016000206001018054600181600116156101000203166002900480601f01602080910402602001604051908101604052809291908181526020018280546001816001161561010002031660029004801561098e5780601f106109635761010080835404028352916020019161098e565b3360009081526001602052604090205460609060ff16610a5757600080fd5b60008281526004602090815260409182902060030180548351601f60026000196101006001861615020190931692909204918201849004840281018401909452808452909183018282801561098e5780601f106109635761010080835404028352916020019161098e565b3360009081526001602052604090205460ff16610ade57600080fd5b60065460009081526004602090815260409091208251610b06926001909201918401906111a4565b5050600680546001019055565b3360009081526001602052604081205460ff16610b2f57600080fd5b506008545b90565b3360009081526001602052604081205460ff16610b5357600080fd5b5060075490565b3360009081526001602052604081205460ff16610b7657600080fd5b5060065490565b60008481526004602081815260409092208551610ba2939190920191908601906111a4565b5060008481526004602090815260409091208351610bc8926005909201918501906111a4565b5060008481526004602090815260409091208251610bee926006909201918401906111a4565b5050505050565b336000908152600160205260409020546060908190819060ff16610c1857600080fd5b6000848152600460208181526040928390209182018054845160026001831615610100026000190190921691909104601f81018490048402820184019095528481529093600584019360060192859190830182828015610cb95780601f10610c8e57610100808354040283529160200191610cb9565b820191906000526020600020905b815481529060010190602001808311610c9c57829003601f168201915b5050855460408051602060026001851615610100026000190190941693909304601f810184900484028201840190925281815295985087945092508401905082828015610d475780601f10610d1c57610100808354040283529160200191610d47565b820191906000526020600020905b815481529060010190602001808311610d2a57829003601f168201915b5050845460408051602060026001851615610100026000190190941693909304601f810184900484028201840190925281815295975086945092508401905082828015610dd55780601f10610daa57610100808354040283529160200191610dd5565b820191906000526020600020905b815481529060010190602001808311610db857829003601f168201915b505050505090509250925092509193909250565b6000546001600160a01b03163314610e0057600080fd5b6001600160a01b03166000908152600160205260409020805460ff19169055565b3360009081526001602052604090205460ff16610e3d57600080fd5b60085460009081526004602090815260409091208251610e65926003909201918401906111a4565b5050600880546001019055565b3360009081526001602052604090205460ff16610e8e57600080fd5b60055460009081526004602090815260409091208251610eb0928401906111a4565b5050600580546001019055565b6000546001600160a01b031681565b3360009081526001602052604090205460ff16610ee857600080fd5b60075460009081526004602090815260409091208251610f10926002909201918401906111a4565b5050600780546001019055565b600354604080516302c5a27560e61b81526004810184905290516060926001600160a01b03169163b1689d40916024808301926000929190829003018186803b158015610f6957600080fd5b505afa158015610f7d573d6000803e3d6000fd5b505050506040513d6000823e601f3d908101601f191682016040526020811015610fa657600080fd5b8101908080516040519392919084600160201b821115610fc557600080fd5b908301906020820185811115610fda57600080fd5b8251600160201b811182820188101715610ff357600080fd5b82525081516020918201929091019080838360005b83811015611020578181015183820152602001611008565b50505050905090810190601f16801561104d5780820380516001836020036101000a031916815260200191505b506040525050509050919050565b60016020526000908152604090205460ff1681565b3360009081526001602052604081205460ff1661108c57600080fd5b5060055490565b6002546040805163635b75cb60e01b81526004810184905290516060926001600160a01b03169163635b75cb916024808301926000929190829003018186803b158015610f6957600080fd5b6000546001600160a01b031633146110f657600080fd5b6001600160a01b03166000908152600160208190526040909120805460ff19169091179055565b3360009081526001602052604090205460609060ff1661113c57600080fd5b60008281526004602090815260409182902080548351601f60026000196101006001861615020190931692909204918201849004840281018401909452808452909183018282801561098e5780601f106109635761010080835404028352916020019161098e565b828054600181600116156101000203166002900490600052602060002090601f016020900481019282601f106111e557805160ff1916838001178555611212565b82800160010185558215611212579182015b828111156112125782518255916020019190600101906111f7565b5061121e929150611222565b5090565b610b3491905b8082111561121e576000815560010161122856fea265627a7a723158207b599d22498dad3dddfc944969ce8ae6fd49656aa4afd8aab17fc5f9ad93bb8d64736f6c63430005100032",
    "sourcePath": "c:/Users/Erman/OneDrive/BinTraWine2.0/contracts/Imbottigliatore.sol",
    "compiler": {
        "name": "solc",
        "version": "0.5.16+commit.9c3226ce"
    },
    "functionHashes": {
        "addAuthorized(address)": "cf1c316a",
        "authorized(address)": "b9181611",
        "getAllergeni(uint256)": "05edddca",
        "getCodiceBarre(uint256)": "0da52d3c",
        "getDatiSensoriImbottigliatore(uint256)": "3df6d06a",
        "getDestinazioneUva(uint256)": "b1689d40",
        "getIdAllergeniSerial()": "31c82f60",
        "getIdCodiceBarreSerial()": "18775bdf",
        "getIdLocalitaUveSerial()": "30d381d3",
        "getIdSolfitiSerial()": "b9e67142",
        "getListaProdottiVinificazione(uint256)": "c5fe6af4",
        "getSolfiti(uint256)": "d939881a",
        "getlocalitaUve(uint256)": "04f78e15",
        "owner()": "8da5cb5b",
        "removeAuthorized(address)": "485d7d94",
        "setAllergeni(string)": "129e0c5a",
        "setCodiceBarre(string)": "4c4c2054",
        "setLocalitaUve(string)": "9d740b1a",
        "setSensoriImbottigliatore(uint256,string,string,string)": "3a86803e",
        "setSolfiti(string)": "6f036a9b"
    },
    "gasEstimates": {
        "creation": {
            "codeDepositCost": "944200",
            "executionCost": "infinite",
            "totalCost": "infinite"
        },
        "external": {
            "addAuthorized(address)": "22052",
            "authorized(address)": "1158",
            "getAllergeni(uint256)": "infinite",
            "getCodiceBarre(uint256)": "infinite",
            "getDatiSensoriImbottigliatore(uint256)": "infinite",
            "getDestinazioneUva(uint256)": "infinite",
            "getIdAllergeniSerial()": "1936",
            "getIdCodiceBarreSerial()": "2004",
            "getIdLocalitaUveSerial()": "1914",
            "getIdSolfitiSerial()": "1935",
            "getListaProdottiVinificazione(uint256)": "infinite",
            "getSolfiti(uint256)": "infinite",
            "getlocalitaUve(uint256)": "infinite",
            "owner()": "1104",
            "removeAuthorized(address)": "22057",
            "setAllergeni(string)": "infinite",
            "setCodiceBarre(string)": "infinite",
            "setLocalitaUve(string)": "infinite",
            "setSensoriImbottigliatore(uint256,string,string,string)": "infinite",
            "setSolfiti(string)": "infinite"
        }
    }
}