{
    "contractName": "Produttore",
    "abi": [
        {
            "inputs": [
                {
                    "internalType": "address",
                    "name": "_viticoltoreContractAddress",
                    "type": "address"
                }
            ],
            "payable": false,
            "stateMutability": "nonpayable",
            "type": "constructor"
        },
        {
            "constant": false,
            "inputs": [
                {
                    "internalType": "address",
                    "name": "_address",
                    "type": "address"
                }
            ],
            "name": "addAuthorized",
            "outputs": [],
            "payable": false,
            "stateMutability": "nonpayable",
            "type": "function"
        },
        {
            "constant": true,
            "inputs": [
                {
                    "internalType": "address",
                    "name": "",
                    "type": "address"
                }
            ],
            "name": "authorized",
            "outputs": [
                {
                    "internalType": "bool",
                    "name": "",
                    "type": "bool"
                }
            ],
            "payable": false,
            "stateMutability": "view",
            "type": "function"
        },
        {
            "constant": true,
            "inputs": [
                {
                    "internalType": "uint256",
                    "name": "_idLotto",
                    "type": "uint256"
                }
            ],
            "name": "getDataRaccolta",
            "outputs": [
                {
                    "internalType": "string",
                    "name": "",
                    "type": "string"
                }
            ],
            "payable": false,
            "stateMutability": "view",
            "type": "function"
        },
        {
            "constant": true,
            "inputs": [
                {
                    "internalType": "uint256",
                    "name": "_idLotto",
                    "type": "uint256"
                }
            ],
            "name": "getDatiSensoriProduttore",
            "outputs": [
                {
                    "internalType": "string",
                    "name": "",
                    "type": "string"
                },
                {
                    "internalType": "string",
                    "name": "",
                    "type": "string"
                },
                {
                    "internalType": "string",
                    "name": "",
                    "type": "string"
                },
                {
                    "internalType": "string",
                    "name": "",
                    "type": "string"
                }
            ],
            "payable": false,
            "stateMutability": "view",
            "type": "function"
        },
        {
            "constant": true,
            "inputs": [
                {
                    "internalType": "uint256",
                    "name": "_idLotto",
                    "type": "uint256"
                }
            ],
            "name": "getDatiVendita",
            "outputs": [
                {
                    "internalType": "string",
                    "name": "",
                    "type": "string"
                },
                {
                    "internalType": "string",
                    "name": "",
                    "type": "string"
                },
                {
                    "internalType": "string",
                    "name": "",
                    "type": "string"
                },
                {
                    "internalType": "string",
                    "name": "",
                    "type": "string"
                },
                {
                    "internalType": "string",
                    "name": "",
                    "type": "string"
                }
            ],
            "payable": false,
            "stateMutability": "view",
            "type": "function"
        },
        {
            "constant": true,
            "inputs": [
                {
                    "internalType": "uint256",
                    "name": "_idLotto",
                    "type": "uint256"
                }
            ],
            "name": "getDestinazioneUva",
            "outputs": [
                {
                    "internalType": "string",
                    "name": "",
                    "type": "string"
                }
            ],
            "payable": false,
            "stateMutability": "view",
            "type": "function"
        },
        {
            "constant": true,
            "inputs": [],
            "name": "getIdProdottiVinificazioneSerial",
            "outputs": [
                {
                    "internalType": "uint256",
                    "name": "",
                    "type": "uint256"
                }
            ],
            "payable": false,
            "stateMutability": "view",
            "type": "function"
        },
        {
            "constant": true,
            "inputs": [],
            "name": "getIdQuantitaVinoOttenutoSerial",
            "outputs": [
                {
                    "internalType": "uint256",
                    "name": "",
                    "type": "uint256"
                }
            ],
            "payable": false,
            "stateMutability": "view",
            "type": "function"
        },
        {
            "constant": true,
            "inputs": [],
            "name": "getIdQuantitaVinoRivendicatoSerial",
            "outputs": [
                {
                    "internalType": "uint256",
                    "name": "",
                    "type": "uint256"
                }
            ],
            "payable": false,
            "stateMutability": "view",
            "type": "function"
        },
        {
            "constant": true,
            "inputs": [
                {
                    "internalType": "uint256",
                    "name": "_idLotto",
                    "type": "uint256"
                }
            ],
            "name": "getPesoViticoltore",
            "outputs": [
                {
                    "internalType": "string",
                    "name": "",
                    "type": "string"
                }
            ],
            "payable": false,
            "stateMutability": "view",
            "type": "function"
        },
        {
            "constant": true,
            "inputs": [
                {
                    "internalType": "uint256",
                    "name": "_idLotto",
                    "type": "uint256"
                }
            ],
            "name": "getProdottiVinificazione",
            "outputs": [
                {
                    "internalType": "string",
                    "name": "",
                    "type": "string"
                }
            ],
            "payable": false,
            "stateMutability": "view",
            "type": "function"
        },
        {
            "constant": true,
            "inputs": [
                {
                    "internalType": "uint256",
                    "name": "_idLotto",
                    "type": "uint256"
                }
            ],
            "name": "getQuantitaVinoOttenuto",
            "outputs": [
                {
                    "internalType": "string",
                    "name": "",
                    "type": "string"
                }
            ],
            "payable": false,
            "stateMutability": "view",
            "type": "function"
        },
        {
            "constant": true,
            "inputs": [
                {
                    "internalType": "uint256",
                    "name": "_idLotto",
                    "type": "uint256"
                }
            ],
            "name": "getQuantitaVinoRivendicato",
            "outputs": [
                {
                    "internalType": "string",
                    "name": "",
                    "type": "string"
                }
            ],
            "payable": false,
            "stateMutability": "view",
            "type": "function"
        },
        {
            "constant": true,
            "inputs": [
                {
                    "internalType": "uint256",
                    "name": "_idLotto",
                    "type": "uint256"
                }
            ],
            "name": "getTipologiaUva",
            "outputs": [
                {
                    "internalType": "string",
                    "name": "",
                    "type": "string"
                }
            ],
            "payable": false,
            "stateMutability": "view",
            "type": "function"
        },
        {
            "constant": true,
            "inputs": [],
            "name": "owner",
            "outputs": [
                {
                    "internalType": "address",
                    "name": "",
                    "type": "address"
                }
            ],
            "payable": false,
            "stateMutability": "view",
            "type": "function"
        },
        {
            "constant": false,
            "inputs": [
                {
                    "internalType": "address",
                    "name": "_address",
                    "type": "address"
                }
            ],
            "name": "removeAuthorized",
            "outputs": [],
            "payable": false,
            "stateMutability": "nonpayable",
            "type": "function"
        },
        {
            "constant": false,
            "inputs": [
                {
                    "internalType": "string",
                    "name": "_prodottiVinificazione",
                    "type": "string"
                }
            ],
            "name": "setProdottiVinificazione",
            "outputs": [],
            "payable": false,
            "stateMutability": "nonpayable",
            "type": "function"
        },
        {
            "constant": false,
            "inputs": [
                {
                    "internalType": "string",
                    "name": "_quantitaVinoOttenuto",
                    "type": "string"
                }
            ],
            "name": "setQuantitaVinoOttenuto",
            "outputs": [],
            "payable": false,
            "stateMutability": "nonpayable",
            "type": "function"
        },
        {
            "constant": false,
            "inputs": [
                {
                    "internalType": "string",
                    "name": "_quantitaVinoRivendicato",
                    "type": "string"
                }
            ],
            "name": "setQuantitaVinoRivendicato",
            "outputs": [],
            "payable": false,
            "stateMutability": "nonpayable",
            "type": "function"
        },
        {
            "constant": false,
            "inputs": [
                {
                    "internalType": "uint256",
                    "name": "_idLotto",
                    "type": "uint256"
                },
                {
                    "internalType": "string",
                    "name": "_pesoArrivo",
                    "type": "string"
                },
                {
                    "internalType": "string",
                    "name": "_pesoProdottoFinito",
                    "type": "string"
                },
                {
                    "internalType": "string",
                    "name": "_idContainer",
                    "type": "string"
                },
                {
                    "internalType": "string",
                    "name": "_temperaturaContainer",
                    "type": "string"
                }
            ],
            "name": "setSensoriProduttore",
            "outputs": [],
            "payable": false,
            "stateMutability": "nonpayable",
            "type": "function"
        }
    ],
    "bytecode": "608060405260016004556001600555600160065534801561001f57600080fd5b506040516121c13803806121c18339818101604052602081101561004257600080fd5b5051600080546001600160a01b031990811633178083556001600160a01b039081168352600160208190526040909320805460ff1916909317909255600280549290931691161790556121278061009a6000396000f3fe608060405234801561001057600080fd5b506004361061012c5760003560e01c80638a23f0df116100ad578063b1689d4011610071578063b1689d4014610aaa578063b17e973014610ac7578063b1b02a6e14610ae4578063b918161114610b01578063cf1c316a14610b3b5761012c565b80638a23f0df146106f45780638da5cb5b146107985780639edd513f146107bc578063a679f04d146109e9578063a7de4ef714610a065761012c565b8063485d7d94116100f4578063485d7d9414610452578063635b75cb1461047857806364d421c1146104955780637cdf0404146106cf578063875693cd146106d75761012c565b806305a680c01461013157806306fe3d9f146101d7578063095482f3146101f15780631bbc236f1461028357806337051aec1461028b575b600080fd5b6101d56004803603602081101561014757600080fd5b810190602081018135600160201b81111561016157600080fd5b82018360208201111561017357600080fd5b803590602001918460018302840111600160201b8311171561019457600080fd5b91908080601f016020809104026020016040519081016040528093929190818152602001838380828437600092019190915250929550610b61945050505050565b005b6101df610bac565b60408051918252519081900360200190f35b61020e6004803603602081101561020757600080fd5b5035610bd0565b6040805160208082528351818301528351919283929083019185019080838360005b83811015610248578181015183820152602001610230565b50505050905090810190601f1680156102755780820380516001836020036101000a031916815260200191505b509250505060405180910390f35b6101df610ca5565b6102a8600480360360208110156102a157600080fd5b5035610cc8565b6040518080602001806020018060200180602001858103855289818151815260200191508051906020019080838360005b838110156102f15781810151838201526020016102d9565b50505050905090810190601f16801561031e5780820380516001836020036101000a031916815260200191505b5085810384528851815288516020918201918a019080838360005b83811015610351578181015183820152602001610339565b50505050905090810190601f16801561037e5780820380516001836020036101000a031916815260200191505b50858103835287518152875160209182019189019080838360005b838110156103b1578181015183820152602001610399565b50505050905090810190601f1680156103de5780820380516001836020036101000a031916815260200191505b50858103825286518152865160209182019188019080838360005b838110156104115781810151838201526020016103f9565b50505050905090810190601f16801561043e5780820380516001836020036101000a031916815260200191505b509850505050505050505060405180910390f35b6101d56004803603602081101561046857600080fd5b50356001600160a01b0316610f55565b61020e6004803603602081101561048e57600080fd5b5035610f8d565b6101d5600480360360a08110156104ab57600080fd5b81359190810190604081016020820135600160201b8111156104cc57600080fd5b8201836020820111156104de57600080fd5b803590602001918460018302840111600160201b831117156104ff57600080fd5b91908080601f0160208091040260200160405190810160405280939291908181526020018383808284376000920191909152509295949360208101935035915050600160201b81111561055157600080fd5b82018360208201111561056357600080fd5b803590602001918460018302840111600160201b8311171561058457600080fd5b91908080601f0160208091040260200160405190810160405280939291908181526020018383808284376000920191909152509295949360208101935035915050600160201b8111156105d657600080fd5b8201836020820111156105e857600080fd5b803590602001918460018302840111600160201b8311171561060957600080fd5b91908080601f0160208091040260200160405190810160405280939291908181526020018383808284376000920191909152509295949360208101935035915050600160201b81111561065b57600080fd5b82018360208201111561066d57600080fd5b803590602001918460018302840111600160201b8311171561068e57600080fd5b91908080601f016020809104026020016040519081016040528093929190818152602001838380828437600092019190915250929550611014945050505050565b6101df6110b3565b61020e600480360360208110156106ed57600080fd5b50356110d6565b6101d56004803603602081101561070a57600080fd5b810190602081018135600160201b81111561072457600080fd5b82018360208201111561073657600080fd5b803590602001918460018302840111600160201b8311171561075757600080fd5b91908080601f0160208091040260200160405190810160405280939291908181526020018383808284376000920191909152509295506114e0945050505050565b6107a0611531565b604080516001600160a01b039092168252519081900360200190f35b6107d9600480360360208110156107d257600080fd5b5035611540565b60405180806020018060200180602001806020018060200186810386528b818151815260200191508051906020019080838360005b8381101561082657818101518382015260200161080e565b50505050905090810190601f1680156108535780820380516001836020036101000a031916815260200191505b5086810385528a5181528a516020918201918c019080838360005b8381101561088657818101518382015260200161086e565b50505050905090810190601f1680156108b35780820380516001836020036101000a031916815260200191505b5086810384528951815289516020918201918b019080838360005b838110156108e65781810151838201526020016108ce565b50505050905090810190601f1680156109135780820380516001836020036101000a031916815260200191505b5086810383528851815288516020918201918a019080838360005b8381101561094657818101518382015260200161092e565b50505050905090810190601f1680156109735780820380516001836020036101000a031916815260200191505b50868103825287518152875160209182019189019080838360005b838110156109a657818101518382015260200161098e565b50505050905090810190601f1680156109d35780820380516001836020036101000a031916815260200191505b509a505050505050505050505060405180910390f35b61020e600480360360208110156109ff57600080fd5b5035611959565b6101d560048036036020811015610a1c57600080fd5b810190602081018135600160201b811115610a3657600080fd5b820183602082011115610a4857600080fd5b803590602001918460018302840111600160201b83111715610a6957600080fd5b91908080601f016020809104026020016040519081016040528093929190818152602001838380828437600092019190915250929550611d63945050505050565b61020e60048036036020811015610ac057600080fd5b5035611db4565b61020e60048036036020811015610add57600080fd5b5035611f11565b61020e60048036036020811015610afa57600080fd5b5035611f7c565b610b2760048036036020811015610b1757600080fd5b50356001600160a01b0316612007565b604080519115158252519081900360200190f35b6101d560048036036020811015610b5157600080fd5b50356001600160a01b031661201c565b3360009081526001602052604090205460ff16610b7d57600080fd5b60045460009081526003602090815260409091208251610b9f9284019061205a565b5050600480546001019055565b3360009081526001602052604081205460ff16610bc857600080fd5b506005545b90565b3360009081526001602052604090205460609060ff16610bef57600080fd5b600360008381526020019081526020016000206001018054600181600116156101000203166002900480601f016020809104026020016040519081016040528092919081815260200182805460018160011615610100020316600290048015610c995780601f10610c6e57610100808354040283529160200191610c99565b820191906000526020600020905b815481529060010190602001808311610c7c57829003601f168201915b50505050509050919050565b3360009081526001602052604081205460ff16610cc157600080fd5b5060045490565b3360009081526001602052604090205460609081908190819060ff16610ced57600080fd5b60008581526003602081815260409283902091820180548451601f600260001961010060018616150201909316929092049182018490048402810184019095528085529093600484019360058101936006909101928691830182828015610d955780601f10610d6a57610100808354040283529160200191610d95565b820191906000526020600020905b815481529060010190602001808311610d7857829003601f168201915b5050865460408051602060026001851615610100026000190190941693909304601f810184900484028201840190925281815295995088945092508401905082828015610e235780601f10610df857610100808354040283529160200191610e23565b820191906000526020600020905b815481529060010190602001808311610e0657829003601f168201915b5050855460408051602060026001851615610100026000190190941693909304601f810184900484028201840190925281815295985087945092508401905082828015610eb15780601f10610e8657610100808354040283529160200191610eb1565b820191906000526020600020905b815481529060010190602001808311610e9457829003601f168201915b5050845460408051602060026001851615610100026000190190941693909304601f810184900484028201840190925281815295975086945092508401905082828015610f3f5780601f10610f1457610100808354040283529160200191610f3f565b820191906000526020600020905b815481529060010190602001808311610f2257829003601f168201915b5050505050905093509350935093509193509193565b6000546001600160a01b03163314610f6c57600080fd5b6001600160a01b03166000908152600160205260409020805460ff19169055565b3360009081526001602052604090205460609060ff16610fac57600080fd5b60008281526003602090815260409182902080548351601f600260001961010060018616150201909316929092049182018490048402810184019094528084529091830182828015610c995780601f10610c6e57610100808354040283529160200191610c99565b600085815260036020818152604090922086516110399391909201919087019061205a565b506000858152600360209081526040909120845161105f9260049092019186019061205a565b50600085815260036020908152604090912083516110859260059092019185019061205a565b50600085815260036020908152604090912082516110ab9260069092019184019061205a565b505050505050565b3360009081526001602052604081205460ff166110cf57600080fd5b5060065490565b3360009081526001602052604090205460609060ff166110f557600080fd5b600254604080516313a4db7b60e01b81526004810185905290516060926001600160a01b0316916313a4db7b916024808301926000929190829003018186803b15801561114157600080fd5b505afa158015611155573d6000803e3d6000fd5b505050506040513d6000823e601f3d908101601f1916820160405260a081101561117e57600080fd5b8101908080516040519392919084600160201b82111561119d57600080fd5b9083019060208201858111156111b257600080fd5b8251600160201b8111828201881017156111cb57600080fd5b82525081516020918201929091019080838360005b838110156111f85781810151838201526020016111e0565b50505050905090810190601f1680156112255780820380516001836020036101000a031916815260200191505b5060405260200180516040519392919084600160201b82111561124757600080fd5b90830190602082018581111561125c57600080fd5b8251600160201b81118282018810171561127557600080fd5b82525081516020918201929091019080838360005b838110156112a257818101518382015260200161128a565b50505050905090810190601f1680156112cf5780820380516001836020036101000a031916815260200191505b5060405260200180516040519392919084600160201b8211156112f157600080fd5b90830190602082018581111561130657600080fd5b8251600160201b81118282018810171561131f57600080fd5b82525081516020918201929091019080838360005b8381101561134c578181015183820152602001611334565b50505050905090810190601f1680156113795780820380516001836020036101000a031916815260200191505b5060405260200180516040519392919084600160201b82111561139b57600080fd5b9083019060208201858111156113b057600080fd5b8251600160201b8111828201881017156113c957600080fd5b82525081516020918201929091019080838360005b838110156113f65781810151838201526020016113de565b50505050905090810190601f1680156114235780820380516001836020036101000a031916815260200191505b5060405260200180516040519392919084600160201b82111561144557600080fd5b90830190602082018581111561145a57600080fd5b8251600160201b81118282018810171561147357600080fd5b82525081516020918201929091019080838360005b838110156114a0578181015183820152602001611488565b50505050905090810190601f1680156114cd5780820380516001836020036101000a031916815260200191505b5060405250959998505050505050505050565b3360009081526001602052604090205460ff166114fc57600080fd5b600654600090815260036020908152604090912082516115249260029092019184019061205a565b5050600680546001019055565b6000546001600160a01b031681565b33600090815260016020526040902054606090819081908190819060ff1661156757600080fd5b60025460408051639edd513f60e01b81526004810189905290516001600160a01b0390921691639edd513f91602480820192600092909190829003018186803b1580156115b357600080fd5b505afa1580156115c7573d6000803e3d6000fd5b505050506040513d6000823e601f3d908101601f1916820160405260a08110156115f057600080fd5b8101908080516040519392919084600160201b82111561160f57600080fd5b90830190602082018581111561162457600080fd5b8251600160201b81118282018810171561163d57600080fd5b82525081516020918201929091019080838360005b8381101561166a578181015183820152602001611652565b50505050905090810190601f1680156116975780820380516001836020036101000a031916815260200191505b5060405260200180516040519392919084600160201b8211156116b957600080fd5b9083019060208201858111156116ce57600080fd5b8251600160201b8111828201881017156116e757600080fd5b82525081516020918201929091019080838360005b838110156117145781810151838201526020016116fc565b50505050905090810190601f1680156117415780820380516001836020036101000a031916815260200191505b5060405260200180516040519392919084600160201b82111561176357600080fd5b90830190602082018581111561177857600080fd5b8251600160201b81118282018810171561179157600080fd5b82525081516020918201929091019080838360005b838110156117be5781810151838201526020016117a6565b50505050905090810190601f1680156117eb5780820380516001836020036101000a031916815260200191505b5060405260200180516040519392919084600160201b82111561180d57600080fd5b90830190602082018581111561182257600080fd5b8251600160201b81118282018810171561183b57600080fd5b82525081516020918201929091019080838360005b83811015611868578181015183820152602001611850565b50505050905090810190601f1680156118955780820380516001836020036101000a031916815260200191505b5060405260200180516040519392919084600160201b8211156118b757600080fd5b9083019060208201858111156118cc57600080fd5b8251600160201b8111828201881017156118e557600080fd5b82525081516020918201929091019080838360005b838110156119125781810151838201526020016118fa565b50505050905090810190601f16801561193f5780820380516001836020036101000a031916815260200191505b506040525050509450945094509450945091939590929450565b3360009081526001602052604090205460609060ff1661197857600080fd5b600254604080516313a4db7b60e01b81526004810185905290516060926001600160a01b0316916313a4db7b916024808301926000929190829003018186803b1580156119c457600080fd5b505afa1580156119d8573d6000803e3d6000fd5b505050506040513d6000823e601f3d908101601f1916820160405260a0811015611a0157600080fd5b8101908080516040519392919084600160201b821115611a2057600080fd5b908301906020820185811115611a3557600080fd5b8251600160201b811182820188101715611a4e57600080fd5b82525081516020918201929091019080838360005b83811015611a7b578181015183820152602001611a63565b50505050905090810190601f168015611aa85780820380516001836020036101000a031916815260200191505b5060405260200180516040519392919084600160201b821115611aca57600080fd5b908301906020820185811115611adf57600080fd5b8251600160201b811182820188101715611af857600080fd5b82525081516020918201929091019080838360005b83811015611b25578181015183820152602001611b0d565b50505050905090810190601f168015611b525780820380516001836020036101000a031916815260200191505b5060405260200180516040519392919084600160201b821115611b7457600080fd5b908301906020820185811115611b8957600080fd5b8251600160201b811182820188101715611ba257600080fd5b82525081516020918201929091019080838360005b83811015611bcf578181015183820152602001611bb7565b50505050905090810190601f168015611bfc5780820380516001836020036101000a031916815260200191505b5060405260200180516040519392919084600160201b821115611c1e57600080fd5b908301906020820185811115611c3357600080fd5b8251600160201b811182820188101715611c4c57600080fd5b82525081516020918201929091019080838360005b83811015611c79578181015183820152602001611c61565b50505050905090810190601f168015611ca65780820380516001836020036101000a031916815260200191505b5060405260200180516040519392919084600160201b821115611cc857600080fd5b908301906020820185811115611cdd57600080fd5b8251600160201b811182820188101715611cf657600080fd5b82525081516020918201929091019080838360005b83811015611d23578181015183820152602001611d0b565b50505050905090810190601f168015611d505780820380516001836020036101000a031916815260200191505b5060405250949998505050505050505050565b3360009081526001602052604090205460ff16611d7f57600080fd5b60055460009081526003602090815260409091208251611da79260019092019184019061205a565b5050600580546001019055565b3360009081526001602052604090205460609060ff16611dd357600080fd5b600254604080516302c5a27560e61b81526004810185905290516001600160a01b039092169163b1689d4091602480820192600092909190829003018186803b158015611e1f57600080fd5b505afa158015611e33573d6000803e3d6000fd5b505050506040513d6000823e601f3d908101601f191682016040526020811015611e5c57600080fd5b8101908080516040519392919084600160201b821115611e7b57600080fd5b908301906020820185811115611e9057600080fd5b8251600160201b811182820188101715611ea957600080fd5b82525081516020918201929091019080838360005b83811015611ed6578181015183820152602001611ebe565b50505050905090810190601f168015611f035780820380516001836020036101000a031916815260200191505b506040525050509050919050565b3360009081526001602052604090205460609060ff16611f3057600080fd5b60025460408051630b17e97360e41b81526004810185905290516001600160a01b039092169163b17e973091602480820192600092909190829003018186803b158015611e1f57600080fd5b3360009081526001602052604090205460609060ff16611f9b57600080fd5b6000828152600360209081526040918290206002908101805484516001821615610100026000190190911692909204601f810184900484028301840190945283825290929091830182828015610c995780601f10610c6e57610100808354040283529160200191610c99565b60016020526000908152604090205460ff1681565b6000546001600160a01b0316331461203357600080fd5b6001600160a01b03166000908152600160208190526040909120805460ff19169091179055565b828054600181600116156101000203166002900490600052602060002090601f016020900481019282601f1061209b57805160ff19168380011785556120c8565b828001600101855582156120c8579182015b828111156120c85782518255916020019190600101906120ad565b506120d49291506120d8565b5090565b610bcd91905b808211156120d457600081556001016120de56fea265627a7a723158202dc06ce28034010f09b07381a45545316694c51243a06a7aaf0802898c71370564736f6c63430005100032",
    "sourcePath": "c:/Users/Erman/OneDrive/BinTraWine2.0/contracts/Produttore.sol",
    "compiler": {
        "name": "solc",
        "version": "0.5.16+commit.9c3226ce"
    },
    "functionHashes": {
        "addAuthorized(address)": "cf1c316a",
        "authorized(address)": "b9181611",
        "getDataRaccolta(uint256)": "b17e9730",
        "getDatiSensoriProduttore(uint256)": "37051aec",
        "getDatiVendita(uint256)": "9edd513f",
        "getDestinazioneUva(uint256)": "b1689d40",
        "getIdProdottiVinificazioneSerial()": "1bbc236f",
        "getIdQuantitaVinoOttenutoSerial()": "06fe3d9f",
        "getIdQuantitaVinoRivendicatoSerial()": "7cdf0404",
        "getPesoViticoltore(uint256)": "875693cd",
        "getProdottiVinificazione(uint256)": "635b75cb",
        "getQuantitaVinoOttenuto(uint256)": "095482f3",
        "getQuantitaVinoRivendicato(uint256)": "b1b02a6e",
        "getTipologiaUva(uint256)": "a679f04d",
        "owner()": "8da5cb5b",
        "removeAuthorized(address)": "485d7d94",
        "setProdottiVinificazione(string)": "05a680c0",
        "setQuantitaVinoOttenuto(string)": "a7de4ef7",
        "setQuantitaVinoRivendicato(string)": "8a23f0df",
        "setSensoriProduttore(uint256,string,string,string,string)": "64d421c1"
    },
    "gasEstimates": {
        "creation": {
            "codeDepositCost": "1697400",
            "executionCost": "infinite",
            "totalCost": "infinite"
        },
        "external": {
            "addAuthorized(address)": "22074",
            "authorized(address)": "1224",
            "getDataRaccolta(uint256)": "infinite",
            "getDatiSensoriProduttore(uint256)": "infinite",
            "getDatiVendita(uint256)": "infinite",
            "getDestinazioneUva(uint256)": "infinite",
            "getIdProdottiVinificazioneSerial()": "1981",
            "getIdQuantitaVinoOttenutoSerial()": "1938",
            "getIdQuantitaVinoRivendicatoSerial()": "1980",
            "getPesoViticoltore(uint256)": "infinite",
            "getProdottiVinificazione(uint256)": "infinite",
            "getQuantitaVinoOttenuto(uint256)": "infinite",
            "getQuantitaVinoRivendicato(uint256)": "infinite",
            "getTipologiaUva(uint256)": "infinite",
            "owner()": "1082",
            "removeAuthorized(address)": "21969",
            "setProdottiVinificazione(string)": "infinite",
            "setQuantitaVinoOttenuto(string)": "infinite",
            "setQuantitaVinoRivendicato(string)": "infinite",
            "setSensoriProduttore(uint256,string,string,string,string)": "infinite"
        }
    }
}