{
    "contractName": "Rivenditore",
    "abi": [
        {
            "inputs": [
                {
                    "internalType": "address",
                    "name": "_distributoreContractAddress",
                    "type": "address"
                }
            ],
            "payable": false,
            "stateMutability": "nonpayable",
            "type": "constructor"
        },
        {
            "constant": false,
            "inputs": [
                {
                    "internalType": "address",
                    "name": "_address",
                    "type": "address"
                }
            ],
            "name": "addAuthorized",
            "outputs": [],
            "payable": false,
            "stateMutability": "nonpayable",
            "type": "function"
        },
        {
            "constant": true,
            "inputs": [
                {
                    "internalType": "address",
                    "name": "",
                    "type": "address"
                }
            ],
            "name": "authorized",
            "outputs": [
                {
                    "internalType": "bool",
                    "name": "",
                    "type": "bool"
                }
            ],
            "payable": false,
            "stateMutability": "view",
            "type": "function"
        },
        {
            "constant": true,
            "inputs": [
                {
                    "internalType": "uint256",
                    "name": "_idLotto",
                    "type": "uint256"
                }
            ],
            "name": "getDatiSensoriRivenditore",
            "outputs": [
                {
                    "internalType": "string",
                    "name": "",
                    "type": "string"
                }
            ],
            "payable": false,
            "stateMutability": "view",
            "type": "function"
        },
        {
            "constant": true,
            "inputs": [
                {
                    "internalType": "uint256",
                    "name": "_idLotto",
                    "type": "uint256"
                }
            ],
            "name": "getDatiVendita",
            "outputs": [
                {
                    "internalType": "string",
                    "name": "",
                    "type": "string"
                },
                {
                    "internalType": "string",
                    "name": "",
                    "type": "string"
                },
                {
                    "internalType": "string",
                    "name": "",
                    "type": "string"
                },
                {
                    "internalType": "string",
                    "name": "",
                    "type": "string"
                },
                {
                    "internalType": "string",
                    "name": "",
                    "type": "string"
                }
            ],
            "payable": false,
            "stateMutability": "view",
            "type": "function"
        },
        {
            "constant": true,
            "inputs": [],
            "name": "owner",
            "outputs": [
                {
                    "internalType": "address",
                    "name": "",
                    "type": "address"
                }
            ],
            "payable": false,
            "stateMutability": "view",
            "type": "function"
        },
        {
            "constant": false,
            "inputs": [
                {
                    "internalType": "address",
                    "name": "_address",
                    "type": "address"
                }
            ],
            "name": "removeAuthorized",
            "outputs": [],
            "payable": false,
            "stateMutability": "nonpayable",
            "type": "function"
        },
        {
            "constant": false,
            "inputs": [
                {
                    "internalType": "uint256",
                    "name": "_idLotto",
                    "type": "uint256"
                },
                {
                    "internalType": "string",
                    "name": "_tipologiaQuantita",
                    "type": "string"
                }
            ],
            "name": "setSensoriRivenditore",
            "outputs": [],
            "payable": false,
            "stateMutability": "nonpayable",
            "type": "function"
        }
    ],
    "bytecode": "608060405234801561001057600080fd5b50604051610b88380380610b888339818101604052602081101561003357600080fd5b5051600080546001600160a01b031990811633178083556001600160a01b039081168352600160208190526040909320805460ff191690931790925560028054929093169116179055610afd8061008b6000396000f3fe608060405234801561001057600080fd5b506004361061007d5760003560e01c80639edd513f1161005b5780639edd513f14610179578063b5c77406146103a6578063b918161114610438578063cf1c316a146104725761007d565b8063485d7d94146100825780638da5cb5b146100aa5780639a66542f146100ce575b600080fd5b6100a86004803603602081101561009857600080fd5b50356001600160a01b0316610498565b005b6100b26104d0565b604080516001600160a01b039092168252519081900360200190f35b6100a8600480360360408110156100e457600080fd5b81359190810190604081016020820135600160201b81111561010557600080fd5b82018360208201111561011757600080fd5b803590602001918460018302840111600160201b8311171561013857600080fd5b91908080601f0160208091040260200160405190810160405280939291908181526020018383808284376000920191909152509295506104df945050505050565b6101966004803603602081101561018f57600080fd5b5035610503565b60405180806020018060200180602001806020018060200186810386528b818151815260200191508051906020019080838360005b838110156101e35781810151838201526020016101cb565b50505050905090810190601f1680156102105780820380516001836020036101000a031916815260200191505b5086810385528a5181528a516020918201918c019080838360005b8381101561024357818101518382015260200161022b565b50505050905090810190601f1680156102705780820380516001836020036101000a031916815260200191505b5086810384528951815289516020918201918b019080838360005b838110156102a357818101518382015260200161028b565b50505050905090810190601f1680156102d05780820380516001836020036101000a031916815260200191505b5086810383528851815288516020918201918a019080838360005b838110156103035781810151838201526020016102eb565b50505050905090810190601f1680156103305780820380516001836020036101000a031916815260200191505b50868103825287518152875160209182019189019080838360005b8381101561036357818101518382015260200161034b565b50505050905090810190601f1680156103905780820380516001836020036101000a031916815260200191505b509a505050505050505050505060405180910390f35b6103c3600480360360208110156103bc57600080fd5b503561091c565b6040805160208082528351818301528351919283929083019185019080838360005b838110156103fd5781810151838201526020016103e5565b50505050905090810190601f16801561042a5780820380516001836020036101000a031916815260200191505b509250505060405180910390f35b61045e6004803603602081101561044e57600080fd5b50356001600160a01b03166109da565b604080519115158252519081900360200190f35b6100a86004803603602081101561048857600080fd5b50356001600160a01b03166109ef565b6000546001600160a01b031633146104af57600080fd5b6001600160a01b03166000908152600160205260409020805460ff19169055565b6000546001600160a01b031681565b600082815260036020908152604090912082516104fe92840190610a2d565b505050565b33600090815260016020526040902054606090819081908190819060ff1661052a57600080fd5b60025460408051639edd513f60e01b81526004810189905290516001600160a01b0390921691639edd513f91602480820192600092909190829003018186803b15801561057657600080fd5b505afa15801561058a573d6000803e3d6000fd5b505050506040513d6000823e601f3d908101601f1916820160405260a08110156105b357600080fd5b8101908080516040519392919084600160201b8211156105d257600080fd5b9083019060208201858111156105e757600080fd5b8251600160201b81118282018810171561060057600080fd5b82525081516020918201929091019080838360005b8381101561062d578181015183820152602001610615565b50505050905090810190601f16801561065a5780820380516001836020036101000a031916815260200191505b5060405260200180516040519392919084600160201b82111561067c57600080fd5b90830190602082018581111561069157600080fd5b8251600160201b8111828201881017156106aa57600080fd5b82525081516020918201929091019080838360005b838110156106d75781810151838201526020016106bf565b50505050905090810190601f1680156107045780820380516001836020036101000a031916815260200191505b5060405260200180516040519392919084600160201b82111561072657600080fd5b90830190602082018581111561073b57600080fd5b8251600160201b81118282018810171561075457600080fd5b82525081516020918201929091019080838360005b83811015610781578181015183820152602001610769565b50505050905090810190601f1680156107ae5780820380516001836020036101000a031916815260200191505b5060405260200180516040519392919084600160201b8211156107d057600080fd5b9083019060208201858111156107e557600080fd5b8251600160201b8111828201881017156107fe57600080fd5b82525081516020918201929091019080838360005b8381101561082b578181015183820152602001610813565b50505050905090810190601f1680156108585780820380516001836020036101000a031916815260200191505b5060405260200180516040519392919084600160201b82111561087a57600080fd5b90830190602082018581111561088f57600080fd5b8251600160201b8111828201881017156108a857600080fd5b82525081516020918201929091019080838360005b838110156108d55781810151838201526020016108bd565b50505050905090810190601f1680156109025780820380516001836020036101000a031916815260200191505b506040525050509450945094509450945091939590929450565b3360009081526001602052604090205460609060ff1661093b57600080fd5b60008281526003602090815260409182902080548351601f6002600019610100600186161502019093169290920491820184900484028101840190945280845290918301828280156109ce5780601f106109a3576101008083540402835291602001916109ce565b820191906000526020600020905b8154815290600101906020018083116109b157829003601f168201915b50505050509050919050565b60016020526000908152604090205460ff1681565b6000546001600160a01b03163314610a0657600080fd5b6001600160a01b03166000908152600160208190526040909120805460ff19169091179055565b828054600181600116156101000203166002900490600052602060002090601f016020900481019282601f10610a6e57805160ff1916838001178555610a9b565b82800160010185558215610a9b579182015b82811115610a9b578251825591602001919060010190610a80565b50610aa7929150610aab565b5090565b610ac591905b80821115610aa75760008155600101610ab1565b9056fea265627a7a7231582020e30e84672c2e490fffef5e243563d9fb4c8a333b859eda5011c4dea0d2777e64736f6c63430005100032",
    "sourcePath": "c:/Users/Erman/OneDrive/BinTraWine2.0/contracts/Rivenditore.sol",
    "compiler": {
        "name": "solc",
        "version": "0.5.16+commit.9c3226ce"
    },
    "functionHashes": {
        "addAuthorized(address)": "cf1c316a",
        "authorized(address)": "b9181611",
        "getDatiSensoriRivenditore(uint256)": "b5c77406",
        "getDatiVendita(uint256)": "9edd513f",
        "owner()": "8da5cb5b",
        "removeAuthorized(address)": "485d7d94",
        "setSensoriRivenditore(uint256,string)": "9a66542f"
    },
    "gasEstimates": {
        "creation": {
            "codeDepositCost": "562600",
            "executionCost": "infinite",
            "totalCost": "infinite"
        },
        "external": {
            "addAuthorized(address)": "22030",
            "authorized(address)": "1180",
            "getDatiSensoriRivenditore(uint256)": "infinite",
            "getDatiVendita(uint256)": "infinite",
            "owner()": "1060",
            "removeAuthorized(address)": "21947",
            "setSensoriRivenditore(uint256,string)": "infinite"
        }
    }
}