{
    "contractName": "Viticoltore",
    "abi": [
        {
            "inputs": [
                {
                    "internalType": "address",
                    "name": "_agronomoContractAddress",
                    "type": "address"
                }
            ],
            "payable": false,
            "stateMutability": "nonpayable",
            "type": "constructor"
        },
        {
            "constant": false,
            "inputs": [
                {
                    "internalType": "address",
                    "name": "_address",
                    "type": "address"
                }
            ],
            "name": "addAuthorized",
            "outputs": [],
            "payable": false,
            "stateMutability": "nonpayable",
            "type": "function"
        },
        {
            "constant": true,
            "inputs": [
                {
                    "internalType": "address",
                    "name": "",
                    "type": "address"
                }
            ],
            "name": "authorized",
            "outputs": [
                {
                    "internalType": "bool",
                    "name": "",
                    "type": "bool"
                }
            ],
            "payable": false,
            "stateMutability": "view",
            "type": "function"
        },
        {
            "constant": true,
            "inputs": [
                {
                    "internalType": "uint256",
                    "name": "_idTerreno",
                    "type": "uint256"
                }
            ],
            "name": "getDataRaccolta",
            "outputs": [
                {
                    "internalType": "string",
                    "name": "",
                    "type": "string"
                }
            ],
            "payable": false,
            "stateMutability": "view",
            "type": "function"
        },
        {
            "constant": true,
            "inputs": [
                {
                    "internalType": "uint256",
                    "name": "_idTerreno",
                    "type": "uint256"
                }
            ],
            "name": "getDatiForniture",
            "outputs": [
                {
                    "internalType": "string",
                    "name": "",
                    "type": "string"
                }
            ],
            "payable": false,
            "stateMutability": "view",
            "type": "function"
        },
        {
            "constant": true,
            "inputs": [
                {
                    "internalType": "uint256",
                    "name": "_idTerreno",
                    "type": "uint256"
                }
            ],
            "name": "getDatiSensoriViticoltore",
            "outputs": [
                {
                    "internalType": "string",
                    "name": "",
                    "type": "string"
                },
                {
                    "internalType": "string",
                    "name": "",
                    "type": "string"
                },
                {
                    "internalType": "string",
                    "name": "",
                    "type": "string"
                },
                {
                    "internalType": "string",
                    "name": "",
                    "type": "string"
                },
                {
                    "internalType": "string",
                    "name": "",
                    "type": "string"
                }
            ],
            "payable": false,
            "stateMutability": "view",
            "type": "function"
        },
        {
            "constant": true,
            "inputs": [
                {
                    "internalType": "uint256",
                    "name": "_idVendita",
                    "type": "uint256"
                }
            ],
            "name": "getDatiVendita",
            "outputs": [
                {
                    "internalType": "string",
                    "name": "",
                    "type": "string"
                },
                {
                    "internalType": "string",
                    "name": "",
                    "type": "string"
                },
                {
                    "internalType": "string",
                    "name": "",
                    "type": "string"
                },
                {
                    "internalType": "string",
                    "name": "",
                    "type": "string"
                },
                {
                    "internalType": "string",
                    "name": "",
                    "type": "string"
                }
            ],
            "payable": false,
            "stateMutability": "view",
            "type": "function"
        },
        {
            "constant": true,
            "inputs": [
                {
                    "internalType": "uint256",
                    "name": "_idTerreno",
                    "type": "uint256"
                }
            ],
            "name": "getDestinazioneUva",
            "outputs": [
                {
                    "internalType": "string",
                    "name": "",
                    "type": "string"
                }
            ],
            "payable": false,
            "stateMutability": "view",
            "type": "function"
        },
        {
            "constant": true,
            "inputs": [],
            "name": "getIdDataRaccoltaSerial",
            "outputs": [
                {
                    "internalType": "uint256",
                    "name": "",
                    "type": "uint256"
                }
            ],
            "payable": false,
            "stateMutability": "view",
            "type": "function"
        },
        {
            "constant": true,
            "inputs": [],
            "name": "getIdDatiFornitureSerial",
            "outputs": [
                {
                    "internalType": "uint256",
                    "name": "",
                    "type": "uint256"
                }
            ],
            "payable": false,
            "stateMutability": "view",
            "type": "function"
        },
        {
            "constant": true,
            "inputs": [],
            "name": "getIdDestinazioneUvaSerial",
            "outputs": [
                {
                    "internalType": "uint256",
                    "name": "",
                    "type": "uint256"
                }
            ],
            "payable": false,
            "stateMutability": "view",
            "type": "function"
        },
        {
            "constant": true,
            "inputs": [],
            "name": "getIdVenditaSerial",
            "outputs": [
                {
                    "internalType": "uint256",
                    "name": "",
                    "type": "uint256"
                }
            ],
            "payable": false,
            "stateMutability": "view",
            "type": "function"
        },
        {
            "constant": true,
            "inputs": [
                {
                    "internalType": "uint256",
                    "name": "_idTerreno",
                    "type": "uint256"
                }
            ],
            "name": "getPioggiaTerreno",
            "outputs": [
                {
                    "internalType": "string",
                    "name": "",
                    "type": "string"
                }
            ],
            "payable": false,
            "stateMutability": "view",
            "type": "function"
        },
        {
            "constant": true,
            "inputs": [
                {
                    "internalType": "uint256",
                    "name": "_idTerreno",
                    "type": "uint256"
                }
            ],
            "name": "getSuperficieTerreno",
            "outputs": [
                {
                    "internalType": "string",
                    "name": "",
                    "type": "string"
                }
            ],
            "payable": false,
            "stateMutability": "view",
            "type": "function"
        },
        {
            "constant": true,
            "inputs": [
                {
                    "internalType": "uint256",
                    "name": "_idTerreno",
                    "type": "uint256"
                }
            ],
            "name": "getTemperaturaTerreno",
            "outputs": [
                {
                    "internalType": "string",
                    "name": "",
                    "type": "string"
                }
            ],
            "payable": false,
            "stateMutability": "view",
            "type": "function"
        },
        {
            "constant": true,
            "inputs": [
                {
                    "internalType": "uint256",
                    "name": "_idTerreno",
                    "type": "uint256"
                }
            ],
            "name": "getUmiditaTerreno",
            "outputs": [
                {
                    "internalType": "string",
                    "name": "",
                    "type": "string"
                }
            ],
            "payable": false,
            "stateMutability": "view",
            "type": "function"
        },
        {
            "constant": true,
            "inputs": [],
            "name": "owner",
            "outputs": [
                {
                    "internalType": "address",
                    "name": "",
                    "type": "address"
                }
            ],
            "payable": false,
            "stateMutability": "view",
            "type": "function"
        },
        {
            "constant": false,
            "inputs": [
                {
                    "internalType": "address",
                    "name": "_address",
                    "type": "address"
                }
            ],
            "name": "removeAuthorized",
            "outputs": [],
            "payable": false,
            "stateMutability": "nonpayable",
            "type": "function"
        },
        {
            "constant": false,
            "inputs": [
                {
                    "internalType": "string",
                    "name": "_dataRaccolta",
                    "type": "string"
                }
            ],
            "name": "setDataRaccolta",
            "outputs": [],
            "payable": false,
            "stateMutability": "nonpayable",
            "type": "function"
        },
        {
            "constant": false,
            "inputs": [
                {
                    "internalType": "string",
                    "name": "_datiForniture",
                    "type": "string"
                }
            ],
            "name": "setDatiForniture",
            "outputs": [],
            "payable": false,
            "stateMutability": "nonpayable",
            "type": "function"
        },
        {
            "constant": false,
            "inputs": [
                {
                    "internalType": "string",
                    "name": "_destinazioneUva",
                    "type": "string"
                }
            ],
            "name": "setDestinazioneUva",
            "outputs": [],
            "payable": false,
            "stateMutability": "nonpayable",
            "type": "function"
        },
        {
            "constant": false,
            "inputs": [
                {
                    "internalType": "uint256",
                    "name": "_idTerreno",
                    "type": "uint256"
                },
                {
                    "internalType": "string",
                    "name": "_quantitaUvaRaccolta",
                    "type": "string"
                },
                {
                    "internalType": "string",
                    "name": "_tipologiaUva",
                    "type": "string"
                },
                {
                    "internalType": "string",
                    "name": "_umidita",
                    "type": "string"
                },
                {
                    "internalType": "string",
                    "name": "_temperatura",
                    "type": "string"
                },
                {
                    "internalType": "string",
                    "name": "_quantitaFertilizzanti",
                    "type": "string"
                }
            ],
            "name": "setSensoriViticoltore",
            "outputs": [],
            "payable": false,
            "stateMutability": "nonpayable",
            "type": "function"
        },
        {
            "constant": false,
            "inputs": [
                {
                    "internalType": "string",
                    "name": "_nomeProdotto",
                    "type": "string"
                },
                {
                    "internalType": "string",
                    "name": "_prezzoVendita",
                    "type": "string"
                },
                {
                    "internalType": "string",
                    "name": "_quantita",
                    "type": "string"
                },
                {
                    "internalType": "string",
                    "name": "_nomeCliente",
                    "type": "string"
                },
                {
                    "internalType": "string",
                    "name": "_dataVendita",
                    "type": "string"
                }
            ],
            "name": "setVendita",
            "outputs": [],
            "payable": false,
            "stateMutability": "nonpayable",
            "type": "function"
        }
    ],
    "bytecode": "6080604052600160055560016006556001600755600160085534801561002457600080fd5b5060405161250e38038061250e8339818101604052602081101561004757600080fd5b5051600080546001600160a01b031990811633178083556001600160a01b039081168352600160208190526040909320805460ff19169093179092556002805492909316911617905561246f8061009f6000396000f3fe608060405234801561001057600080fd5b50600436106101425760003560e01c80636e7f3344116100b8578063a597e0071161007c578063a597e00714610bcc578063a7a2821d14610bd4578063b1689d4014610c78578063b17e973014610c95578063b918161114610cb2578063cf1c316a14610cec57610142565b80636e7f334414610aad5780638da5cb5b14610b515780639edd513f14610b755780639f09e11c14610b92578063a50159c914610baf57610142565b80634b2cfa1e1161010a5780634b2cfa1e1461067d5780634b4301d9146107215780634c89ffed146107b35780634e7ad400146107d05780636475ffdc146107d85780636e7f2ae8146107f557610142565b80630c6faf241461014757806313a4db7b146101615780632e9c22831461038e578063485d7d941461064f5780634942211514610675575b600080fd5b61014f610d12565b60408051918252519081900360200190f35b61017e6004803603602081101561017757600080fd5b5035610d36565b60405180806020018060200180602001806020018060200186810386528b818151815260200191508051906020019080838360005b838110156101cb5781810151838201526020016101b3565b50505050905090810190601f1680156101f85780820380516001836020036101000a031916815260200191505b5086810385528a5181528a516020918201918c019080838360005b8381101561022b578181015183820152602001610213565b50505050905090810190601f1680156102585780820380516001836020036101000a031916815260200191505b5086810384528951815289516020918201918b019080838360005b8381101561028b578181015183820152602001610273565b50505050905090810190601f1680156102b85780820380516001836020036101000a031916815260200191505b5086810383528851815288516020918201918a019080838360005b838110156102eb5781810151838201526020016102d3565b50505050905090810190601f1680156103185780820380516001836020036101000a031916815260200191505b50868103825287518152875160209182019189019080838360005b8381101561034b578181015183820152602001610333565b50505050905090810190601f1680156103785780820380516001836020036101000a031916815260200191505b509a505050505050505050505060405180910390f35b61064d600480360360c08110156103a457600080fd5b81359190810190604081016020820135600160201b8111156103c557600080fd5b8201836020820111156103d757600080fd5b803590602001918460018302840111600160201b831117156103f857600080fd5b91908080601f0160208091040260200160405190810160405280939291908181526020018383808284376000920191909152509295949360208101935035915050600160201b81111561044a57600080fd5b82018360208201111561045c57600080fd5b803590602001918460018302840111600160201b8311171561047d57600080fd5b91908080601f0160208091040260200160405190810160405280939291908181526020018383808284376000920191909152509295949360208101935035915050600160201b8111156104cf57600080fd5b8201836020820111156104e157600080fd5b803590602001918460018302840111600160201b8311171561050257600080fd5b91908080601f0160208091040260200160405190810160405280939291908181526020018383808284376000920191909152509295949360208101935035915050600160201b81111561055457600080fd5b82018360208201111561056657600080fd5b803590602001918460018302840111600160201b8311171561058757600080fd5b91908080601f0160208091040260200160405190810160405280939291908181526020018383808284376000920191909152509295949360208101935035915050600160201b8111156105d957600080fd5b8201836020820111156105eb57600080fd5b803590602001918460018302840111600160201b8311171561060c57600080fd5b91908080601f01602080910402602001604051908101604052809392919081815260200183838082843760009201919091525092955061105b945050505050565b005b61064d6004803603602081101561066557600080fd5b50356001600160a01b0316611121565b61014f611159565b61064d6004803603602081101561069357600080fd5b810190602081018135600160201b8111156106ad57600080fd5b8201836020820111156106bf57600080fd5b803590602001918460018302840111600160201b831117156106e057600080fd5b91908080601f01602080910402602001604051908101604052809392919081815260200183838082843760009201919091525092955061117c945050505050565b61073e6004803603602081101561073757600080fd5b50356111c7565b6040805160208082528351818301528351919283929083019185019080838360005b83811015610778578181015183820152602001610760565b50505050905090810190601f1680156107a55780820380516001836020036101000a031916815260200191505b509250505060405180910390f35b61073e600480360360208110156107c957600080fd5b503561150c565b61014f611851565b61073e600480360360208110156107ee57600080fd5b5035611874565b61064d600480360360a081101561080b57600080fd5b810190602081018135600160201b81111561082557600080fd5b82018360208201111561083757600080fd5b803590602001918460018302840111600160201b8311171561085857600080fd5b91908080601f0160208091040260200160405190810160405280939291908181526020018383808284376000920191909152509295949360208101935035915050600160201b8111156108aa57600080fd5b8201836020820111156108bc57600080fd5b803590602001918460018302840111600160201b831117156108dd57600080fd5b91908080601f0160208091040260200160405190810160405280939291908181526020018383808284376000920191909152509295949360208101935035915050600160201b81111561092f57600080fd5b82018360208201111561094157600080fd5b803590602001918460018302840111600160201b8311171561096257600080fd5b91908080601f0160208091040260200160405190810160405280939291908181526020018383808284376000920191909152509295949360208101935035915050600160201b8111156109b457600080fd5b8201836020820111156109c657600080fd5b803590602001918460018302840111600160201b831117156109e757600080fd5b91908080601f0160208091040260200160405190810160405280939291908181526020018383808284376000920191909152509295949360208101935035915050600160201b811115610a3957600080fd5b820183602082011115610a4b57600080fd5b803590602001918460018302840111600160201b83111715610a6c57600080fd5b91908080601f016020809104026020016040519081016040528093929190818152602001838380828437600092019190915250929550611bb9945050505050565b61064d60048036036020811015610ac357600080fd5b810190602081018135600160201b811115610add57600080fd5b820183602082011115610aef57600080fd5b803590602001918460018302840111600160201b83111715610b1057600080fd5b91908080601f016020809104026020016040519081016040528093929190818152602001838380828437600092019190915250929550611cac945050505050565b610b59611cfd565b604080516001600160a01b039092168252519081900360200190f35b61017e60048036036020811015610b8b57600080fd5b5035611d0c565b61073e60048036036020811015610ba857600080fd5b5035611daf565b61073e60048036036020811015610bc557600080fd5b5035611e84565b61014f6121c9565b61064d60048036036020811015610bea57600080fd5b810190602081018135600160201b811115610c0457600080fd5b820183602082011115610c1657600080fd5b803590602001918460018302840111600160201b83111715610c3757600080fd5b91908080601f0160208091040260200160405190810160405280939291908181526020018383808284376000920191909152509295506121ec945050505050565b61073e60048036036020811015610c8e57600080fd5b503561223d565b61073e60048036036020811015610cab57600080fd5b50356122c8565b610cd860048036036020811015610cc857600080fd5b50356001600160a01b031661234f565b604080519115158252519081900360200190f35b61064d60048036036020811015610d0257600080fd5b50356001600160a01b0316612364565b3360009081526001602052604081205460ff16610d2e57600080fd5b506007545b90565b33600090815260016020526040902054606090819081908190819060ff16610d5d57600080fd5b6000868152600360208181526040928390209182018054845160026001831615610100026000190190921691909104601f810184900484028201840190955284815290936004840193600581019360068201936007909201928791830182828015610e095780601f10610dde57610100808354040283529160200191610e09565b820191906000526020600020905b815481529060010190602001808311610dec57829003601f168201915b5050875460408051602060026001851615610100026000190190941693909304601f8101849004840282018401909252818152959a5089945092508401905082828015610e975780601f10610e6c57610100808354040283529160200191610e97565b820191906000526020600020905b815481529060010190602001808311610e7a57829003601f168201915b5050865460408051602060026001851615610100026000190190941693909304601f810184900484028201840190925281815295995088945092508401905082828015610f255780601f10610efa57610100808354040283529160200191610f25565b820191906000526020600020905b815481529060010190602001808311610f0857829003601f168201915b5050855460408051602060026001851615610100026000190190941693909304601f810184900484028201840190925281815295985087945092508401905082828015610fb35780601f10610f8857610100808354040283529160200191610fb3565b820191906000526020600020905b815481529060010190602001808311610f9657829003601f168201915b5050845460408051602060026001851615610100026000190190941693909304601f8101849004840282018401909252818152959750869450925084019050828280156110415780601f1061101657610100808354040283529160200191611041565b820191906000526020600020905b81548152906001019060200180831161102457829003601f168201915b505050505090509450945094509450945091939590929450565b60008681526003602081815260409092208751611080939190920191908801906123a2565b50600086815260036020908152604090912085516110a6926004909201918701906123a2565b50600086815260036020908152604090912084516110cc926005909201918601906123a2565b50600086815260036020908152604090912083516110f2926006909201918501906123a2565b5060008681526003602090815260409091208251611118926007909201918401906123a2565b50505050505050565b6000546001600160a01b0316331461113857600080fd5b6001600160a01b03166000908152600160205260409020805460ff19169055565b3360009081526001602052604081205460ff1661117557600080fd5b5060055490565b3360009081526001602052604090205460ff1661119857600080fd5b600554600090815260036020908152604090912082516111ba928401906123a2565b5050600580546001019055565b60025460408051635df6ec3360e01b815260048101849052905160609283926001600160a01b0390911691635df6ec3391602480820192600092909190829003018186803b15801561121857600080fd5b505afa15801561122c573d6000803e3d6000fd5b505050506040513d6000823e601f3d908101601f19168201604052608081101561125557600080fd5b8101908080516040519392919084600160201b82111561127457600080fd5b90830190602082018581111561128957600080fd5b8251600160201b8111828201881017156112a257600080fd5b82525081516020918201929091019080838360005b838110156112cf5781810151838201526020016112b7565b50505050905090810190601f1680156112fc5780820380516001836020036101000a031916815260200191505b5060405260200180516040519392919084600160201b82111561131e57600080fd5b90830190602082018581111561133357600080fd5b8251600160201b81118282018810171561134c57600080fd5b82525081516020918201929091019080838360005b83811015611379578181015183820152602001611361565b50505050905090810190601f1680156113a65780820380516001836020036101000a031916815260200191505b5060405260200180516040519392919084600160201b8211156113c857600080fd5b9083019060208201858111156113dd57600080fd5b8251600160201b8111828201881017156113f657600080fd5b82525081516020918201929091019080838360005b8381101561142357818101518382015260200161140b565b50505050905090810190601f1680156114505780820380516001836020036101000a031916815260200191505b5060405260200180516040519392919084600160201b82111561147257600080fd5b90830190602082018581111561148757600080fd5b8251600160201b8111828201881017156114a057600080fd5b82525081516020918201929091019080838360005b838110156114cd5781810151838201526020016114b5565b50505050905090810190601f1680156114fa5780820380516001836020036101000a031916815260200191505b50604052509298975050505050505050565b60025460408051635df6ec3360e01b815260048101849052905160609283926001600160a01b0390911691635df6ec3391602480820192600092909190829003018186803b15801561155d57600080fd5b505afa158015611571573d6000803e3d6000fd5b505050506040513d6000823e601f3d908101601f19168201604052608081101561159a57600080fd5b8101908080516040519392919084600160201b8211156115b957600080fd5b9083019060208201858111156115ce57600080fd5b8251600160201b8111828201881017156115e757600080fd5b82525081516020918201929091019080838360005b838110156116145781810151838201526020016115fc565b50505050905090810190601f1680156116415780820380516001836020036101000a031916815260200191505b5060405260200180516040519392919084600160201b82111561166357600080fd5b90830190602082018581111561167857600080fd5b8251600160201b81118282018810171561169157600080fd5b82525081516020918201929091019080838360005b838110156116be5781810151838201526020016116a6565b50505050905090810190601f1680156116eb5780820380516001836020036101000a031916815260200191505b5060405260200180516040519392919084600160201b82111561170d57600080fd5b90830190602082018581111561172257600080fd5b8251600160201b81118282018810171561173b57600080fd5b82525081516020918201929091019080838360005b83811015611768578181015183820152602001611750565b50505050905090810190601f1680156117955780820380516001836020036101000a031916815260200191505b5060405260200180516040519392919084600160201b8211156117b757600080fd5b9083019060208201858111156117cc57600080fd5b8251600160201b8111828201881017156117e557600080fd5b82525081516020918201929091019080838360005b838110156118125781810151838201526020016117fa565b50505050905090810190601f16801561183f5780820380516001836020036101000a031916815260200191505b50604052509398975050505050505050565b3360009081526001602052604081205460ff1661186d57600080fd5b5060065490565b60025460408051635df6ec3360e01b815260048101849052905160609283926001600160a01b0390911691635df6ec3391602480820192600092909190829003018186803b1580156118c557600080fd5b505afa1580156118d9573d6000803e3d6000fd5b505050506040513d6000823e601f3d908101601f19168201604052608081101561190257600080fd5b8101908080516040519392919084600160201b82111561192157600080fd5b90830190602082018581111561193657600080fd5b8251600160201b81118282018810171561194f57600080fd5b82525081516020918201929091019080838360005b8381101561197c578181015183820152602001611964565b50505050905090810190601f1680156119a95780820380516001836020036101000a031916815260200191505b5060405260200180516040519392919084600160201b8211156119cb57600080fd5b9083019060208201858111156119e057600080fd5b8251600160201b8111828201881017156119f957600080fd5b82525081516020918201929091019080838360005b83811015611a26578181015183820152602001611a0e565b50505050905090810190601f168015611a535780820380516001836020036101000a031916815260200191505b5060405260200180516040519392919084600160201b821115611a7557600080fd5b908301906020820185811115611a8a57600080fd5b8251600160201b811182820188101715611aa357600080fd5b82525081516020918201929091019080838360005b83811015611ad0578181015183820152602001611ab8565b50505050905090810190601f168015611afd5780820380516001836020036101000a031916815260200191505b5060405260200180516040519392919084600160201b821115611b1f57600080fd5b908301906020820185811115611b3457600080fd5b8251600160201b811182820188101715611b4d57600080fd5b82525081516020918201929091019080838360005b83811015611b7a578181015183820152602001611b62565b50505050905090810190601f168015611ba75780820380516001836020036101000a031916815260200191505b50604052509498975050505050505050565b3360009081526001602052604090205460ff16611bd557600080fd5b60085460009081526004602090815260409091208651611bfd926001909201918801906123a2565b5060085460009081526004602090815260409091208551611c20928701906123a2565b5060085460009081526004602090815260409091208451611c49926002909201918601906123a2565b5060085460009081526004602081815260409092208451611c72939190920191908501906123a2565b5060085460009081526004602090815260409091208251611c9b926003909201918401906123a2565b505060088054600101905550505050565b3360009081526001602052604090205460ff16611cc857600080fd5b60065460009081526003602090815260409091208251611cf0926001909201918401906123a2565b5050600680546001019055565b6000546001600160a01b031681565b33600090815260016020526040902054606090819081908190819060ff16611d3357600080fd5b6000868152600460208181526040928390206001808201805486516002938216156101000260001901909116839004601f81018690048602820186019097528681529095929491850193918501926003860192879190830182828015610e095780601f10610dde57610100808354040283529160200191610e09565b3360009081526001602052604090205460609060ff16611dce57600080fd5b600360008381526020019081526020016000206001018054600181600116156101000203166002900480601f016020809104026020016040519081016040528092919081815260200182805460018160011615610100020316600290048015611e785780601f10611e4d57610100808354040283529160200191611e78565b820191906000526020600020905b815481529060010190602001808311611e5b57829003601f168201915b50505050509050919050565b60025460408051635df6ec3360e01b815260048101849052905160609283926001600160a01b0390911691635df6ec3391602480820192600092909190829003018186803b158015611ed557600080fd5b505afa158015611ee9573d6000803e3d6000fd5b505050506040513d6000823e601f3d908101601f191682016040526080811015611f1257600080fd5b8101908080516040519392919084600160201b821115611f3157600080fd5b908301906020820185811115611f4657600080fd5b8251600160201b811182820188101715611f5f57600080fd5b82525081516020918201929091019080838360005b83811015611f8c578181015183820152602001611f74565b50505050905090810190601f168015611fb95780820380516001836020036101000a031916815260200191505b5060405260200180516040519392919084600160201b821115611fdb57600080fd5b908301906020820185811115611ff057600080fd5b8251600160201b81118282018810171561200957600080fd5b82525081516020918201929091019080838360005b8381101561203657818101518382015260200161201e565b50505050905090810190601f1680156120635780820380516001836020036101000a031916815260200191505b5060405260200180516040519392919084600160201b82111561208557600080fd5b90830190602082018581111561209a57600080fd5b8251600160201b8111828201881017156120b357600080fd5b82525081516020918201929091019080838360005b838110156120e05781810151838201526020016120c8565b50505050905090810190601f16801561210d5780820380516001836020036101000a031916815260200191505b5060405260200180516040519392919084600160201b82111561212f57600080fd5b90830190602082018581111561214457600080fd5b8251600160201b81118282018810171561215d57600080fd5b82525081516020918201929091019080838360005b8381101561218a578181015183820152602001612172565b50505050905090810190601f1680156121b75780820380516001836020036101000a031916815260200191505b50604052509198975050505050505050565b3360009081526001602052604081205460ff166121e557600080fd5b5060085490565b3360009081526001602052604090205460ff1661220857600080fd5b60075460009081526003602090815260409091208251612230926002909201918401906123a2565b5050600780546001019055565b3360009081526001602052604090205460609060ff1661225c57600080fd5b6000828152600360209081526040918290206002908101805484516001821615610100026000190190911692909204601f810184900484028301840190945283825290929091830182828015611e785780601f10611e4d57610100808354040283529160200191611e78565b3360009081526001602052604090205460609060ff166122e757600080fd5b60008281526003602090815260409182902080548351601f600260001961010060018616150201909316929092049182018490048402810184019094528084529091830182828015611e785780601f10611e4d57610100808354040283529160200191611e78565b60016020526000908152604090205460ff1681565b6000546001600160a01b0316331461237b57600080fd5b6001600160a01b03166000908152600160208190526040909120805460ff19169091179055565b828054600181600116156101000203166002900490600052602060002090601f016020900481019282601f106123e357805160ff1916838001178555612410565b82800160010185558215612410579182015b828111156124105782518255916020019190600101906123f5565b5061241c929150612420565b5090565b610d3391905b8082111561241c576000815560010161242656fea265627a7a72315820a4b3eb1fc8cbb595ecaf53bb3a0bc7c467ae0ff3fc2991531999e024c7a0fbd964736f6c63430005100032",
    "sourcePath": "c:/Users/Erman/OneDrive/BinTraWine2.0/contracts/Viticoltore.sol",
    "compiler": {
        "name": "solc",
        "version": "0.5.16+commit.9c3226ce"
    },
    "functionHashes": {
        "addAuthorized(address)": "cf1c316a",
        "authorized(address)": "b9181611",
        "getDataRaccolta(uint256)": "b17e9730",
        "getDatiForniture(uint256)": "9f09e11c",
        "getDatiSensoriViticoltore(uint256)": "13a4db7b",
        "getDatiVendita(uint256)": "9edd513f",
        "getDestinazioneUva(uint256)": "b1689d40",
        "getIdDataRaccoltaSerial()": "49422115",
        "getIdDatiFornitureSerial()": "4e7ad400",
        "getIdDestinazioneUvaSerial()": "0c6faf24",
        "getIdVenditaSerial()": "a597e007",
        "getPioggiaTerreno(uint256)": "a50159c9",
        "getSuperficieTerreno(uint256)": "6475ffdc",
        "getTemperaturaTerreno(uint256)": "4b4301d9",
        "getUmiditaTerreno(uint256)": "4c89ffed",
        "owner()": "8da5cb5b",
        "removeAuthorized(address)": "485d7d94",
        "setDataRaccolta(string)": "4b2cfa1e",
        "setDatiForniture(string)": "6e7f3344",
        "setDestinazioneUva(string)": "a7a2821d",
        "setSensoriViticoltore(uint256,string,string,string,string,string)": "2e9c2283",
        "setVendita(string,string,string,string,string)": "6e7f2ae8"
    },
    "gasEstimates": {
        "creation": {
            "codeDepositCost": "1865400",
            "executionCost": "infinite",
            "totalCost": "infinite"
        },
        "external": {
            "addAuthorized(address)": "22096",
            "authorized(address)": "1246",
            "getDataRaccolta(uint256)": "infinite",
            "getDatiForniture(uint256)": "infinite",
            "getDatiSensoriViticoltore(uint256)": "infinite",
            "getDatiVendita(uint256)": "infinite",
            "getDestinazioneUva(uint256)": "infinite",
            "getIdDataRaccoltaSerial()": "2003",
            "getIdDatiFornitureSerial()": "1980",
            "getIdDestinazioneUvaSerial()": "1916",
            "getIdVenditaSerial()": "1913",
            "getPioggiaTerreno(uint256)": "infinite",
            "getSuperficieTerreno(uint256)": "infinite",
            "getTemperaturaTerreno(uint256)": "infinite",
            "getUmiditaTerreno(uint256)": "infinite",
            "owner()": "1082",
            "removeAuthorized(address)": "22036",
            "setDataRaccolta(string)": "infinite",
            "setDatiForniture(string)": "infinite",
            "setDestinazioneUva(string)": "infinite",
            "setSensoriViticoltore(uint256,string,string,string,string,string)": "infinite",
            "setVendita(string,string,string,string,string)": "infinite"
        }
    }
}