{
  "contractName": "Agronomo",
  "abi": [
    {
      "inputs": [],
      "stateMutability": "nonpayable",
      "type": "constructor"
    },
    {
      "inputs": [
        {
          "internalType": "address",
          "name": "",
          "type": "address"
        }
      ],
      "name": "authorized",
      "outputs": [
        {
          "internalType": "bool",
          "name": "",
          "type": "bool"
        }
      ],
      "stateMutability": "view",
      "type": "function",
      "constant": true
    },
    {
      "inputs": [],
      "name": "owner",
      "outputs": [
        {
          "internalType": "address",
          "name": "",
          "type": "address"
        }
      ],
      "stateMutability": "view",
      "type": "function",
      "constant": true
    },
    {
      "inputs": [
        {
          "internalType": "address",
          "name": "_address",
          "type": "address"
        }
      ],
      "name": "addAuthorized",
      "outputs": [],
      "stateMutability": "nonpayable",
      "type": "function"
    },
    {
      "inputs": [
        {
          "internalType": "address",
          "name": "_address",
          "type": "address"
        }
      ],
      "name": "removeAuthorized",
      "outputs": [],
      "stateMutability": "nonpayable",
      "type": "function"
    },
    {
      "inputs": [
        {
          "internalType": "string",
          "name": "_analisiQualitaProdotto",
          "type": "string"
        }
      ],
      "name": "setAnalisiQualitaProdotto",
      "outputs": [],
      "stateMutability": "nonpayable",
      "type": "function"
    },
    {
      "inputs": [
        {
          "internalType": "string",
          "name": "_certificazioneUvaAppezzamento",
          "type": "string"
        }
      ],
      "name": "setCertificazioneUvaAppezzamento",
      "outputs": [],
      "stateMutability": "nonpayable",
      "type": "function"
    },
    {
      "inputs": [
        {
          "internalType": "uint256",
          "name": "_idTerreno",
          "type": "uint256"
        },
        {
          "internalType": "string",
          "name": "_superficie",
          "type": "string"
        },
        {
          "internalType": "string",
          "name": "_umiditaTerreno",
          "type": "string"
        },
        {
          "internalType": "string",
          "name": "_temperaturaTerreno",
          "type": "string"
        },
        {
          "internalType": "string",
          "name": "_pioggia",
          "type": "string"
        }
      ],
      "name": "setSensoriAgronomo",
      "outputs": [],
      "stateMutability": "nonpayable",
      "type": "function"
    },
    {
      "inputs": [],
      "name": "getIdAnalisiQualitaSerial",
      "outputs": [
        {
          "internalType": "uint256",
          "name": "",
          "type": "uint256"
        }
      ],
      "stateMutability": "view",
      "type": "function",
      "constant": true
    },
    {
      "inputs": [],
      "name": "getIdCertificazioneUvaAppezzamentoSerial",
      "outputs": [
        {
          "internalType": "uint256",
          "name": "",
          "type": "uint256"
        }
      ],
      "stateMutability": "view",
      "type": "function",
      "constant": true
    },
    {
      "inputs": [
        {
          "internalType": "uint256",
          "name": "_idTerreno",
          "type": "uint256"
        }
      ],
      "name": "getAnalisiQualitaProdotto",
      "outputs": [
        {
          "internalType": "string",
          "name": "",
          "type": "string"
        }
      ],
      "stateMutability": "view",
      "type": "function",
      "constant": true
    },
    {
      "inputs": [
        {
          "internalType": "uint256",
          "name": "_idTerreno",
          "type": "uint256"
        }
      ],
      "name": "getCertificazioneUvaAppezzamento",
      "outputs": [
        {
          "internalType": "string",
          "name": "",
          "type": "string"
        }
      ],
      "stateMutability": "view",
      "type": "function",
      "constant": true
    },
    {
      "inputs": [
        {
          "internalType": "uint256",
          "name": "_idTerreno",
          "type": "uint256"
        }
      ],
      "name": "getDatiSensoriAgronomo",
      "outputs": [
        {
          "internalType": "string",
          "name": "",
          "type": "string"
        },
        {
          "internalType": "string",
          "name": "",
          "type": "string"
        },
        {
          "internalType": "string",
          "name": "",
          "type": "string"
        },
        {
          "internalType": "string",
          "name": "",
          "type": "string"
        }
      ],
      "stateMutability": "view",
      "type": "function",
      "constant": true
    },
    {
      "inputs": [],
      "name": "getMappingTerreniLength",
      "outputs": [
        {
          "internalType": "uint256",
          "name": "",
          "type": "uint256"
        }
      ],
      "stateMutability": "view",
      "type": "function",
      "constant": true
    },
    {
      "inputs": [],
      "name": "querySuperficiePerTerreno",
      "outputs": [
        {
          "internalType": "string[]",
          "name": "",
          "type": "string[]"
        },
        {
          "internalType": "uint256[]",
          "name": "",
          "type": "uint256[]"
        }
      ],
      "stateMutability": "view",
      "type": "function",
      "constant": true
    },
    {
      "inputs": [],
      "name": "queryUmiditaPerTerreno",
      "outputs": [
        {
          "internalType": "string[]",
          "name": "",
          "type": "string[]"
        },
        {
          "internalType": "uint256[]",
          "name": "",
          "type": "uint256[]"
        }
      ],
      "stateMutability": "view",
      "type": "function",
      "constant": true
    },
    {
      "inputs": [],
      "name": "queryTemperaturaPerTerreno",
      "outputs": [
        {
          "internalType": "string[]",
          "name": "",
          "type": "string[]"
        },
        {
          "internalType": "uint256[]",
          "name": "",
          "type": "uint256[]"
        }
      ],
      "stateMutability": "view",
      "type": "function",
      "constant": true
    },
    {
      "inputs": [],
      "name": "queryPioggiaPerTerreno",
      "outputs": [
        {
          "internalType": "string[]",
          "name": "",
          "type": "string[]"
        },
        {
          "internalType": "uint256[]",
          "name": "",
          "type": "uint256[]"
        }
      ],
      "stateMutability": "view",
      "type": "function",
      "constant": true
    }
  ],
  "bytecode": "0x60806040526001600355600160045534801561001a57600080fd5b50336000806101000a81548173ffffffffffffffffffffffffffffffffffffffff021916908373ffffffffffffffffffffffffffffffffffffffff16021790555060018060008060009054906101000a900473ffffffffffffffffffffffffffffffffffffffff1673ffffffffffffffffffffffffffffffffffffffff1673ffffffffffffffffffffffffffffffffffffffff16815260200190815260200160002060006101000a81548160ff021916908315150217905550611f0b806100e26000396000f3fe608060405234801561001057600080fd5b506004361061010b5760003560e01c80635df6ec33116100a2578063a1fabe7911610071578063a1fabe791461029d578063b9181611146102cd578063cd201ecc146102fd578063cf1c316a1461031b578063e0a4a850146103375761010b565b80635df6ec331461020f578063755460331461024257806381481d86146102605780638da5cb5b1461027f5761010b565b8063467c7151116100de578063467c715114610185578063485d7d94146101a45780634cf66f72146101c057806357bd5df1146101df5761010b565b8063045150f41461011057806304724f551461012c57806308ee8deb146101485780631bd03ff114610166575b600080fd5b61012a60048036038101906101259190611841565b610353565b005b610146600480360381019061014191906117d7565b610406565b005b6101506104a4565b60405161015d9190611bb5565b60405180910390f35b61016e610504565b60405161017c929190611ae0565b60405180910390f35b61018d61076e565b60405161019b929190611ae0565b60405180910390f35b6101be60048036038101906101b991906117ae565b6109d8565b005b6101c8610a8b565b6040516101d6929190611ae0565b60405180910390f35b6101f960048036038101906101f49190611818565b610cf5565b6040516102069190611b32565b60405180910390f35b61022960048036038101906102249190611818565b610df3565b6040516102399493929190611b54565b60405180910390f35b61024a6110e6565b6040516102579190611bb5565b60405180910390f35b610268611175565b604051610276929190611ae0565b60405180910390f35b6102876113df565b6040516102949190611ac5565b60405180910390f35b6102b760048036038101906102b29190611818565b611403565b6040516102c49190611b32565b60405180910390f35b6102e760048036038101906102e291906117ae565b611501565b6040516102f49190611b17565b60405180910390f35b610305611521565b6040516103129190611bb5565b60405180910390f35b610335600480360381019061033091906117ae565b611581565b005b610351600480360381019061034c91906117d7565b6115db565b005b8360026000878152602001908152602001600020600201908051906020019061037d929190611679565b50826002600087815260200190815260200160002060030190805190602001906103a8929190611679565b50816002600087815260200190815260200160002060040190805190602001906103d3929190611679565b50806002600087815260200190815260200160002060050190805190602001906103fe929190611679565b505050505050565b600160003373ffffffffffffffffffffffffffffffffffffffff1673ffffffffffffffffffffffffffffffffffffffff16815260200190815260200160002060009054906101000a900460ff1661045c57600080fd5b806002600060035481526020019081526020016000206000019080519060200190610488929190611679565b506003600081548092919061049c90611dc0565b919050555050565b6000600160003373ffffffffffffffffffffffffffffffffffffffff1673ffffffffffffffffffffffffffffffffffffffff16815260200190815260200160002060009054906101000a900460ff166104fc57600080fd5b600454905090565b60608060006105116110e6565b905060008167ffffffffffffffff811115610555577f4e487b7100000000000000000000000000000000000000000000000000000000600052604160045260246000fd5b60405190808252806020026020018201604052801561058857816020015b60608152602001906001900390816105735790505b50905060008267ffffffffffffffff8111156105cd577f4e487b7100000000000000000000000000000000000000000000000000000000600052604160045260246000fd5b6040519080825280602002602001820160405280156105fb5781602001602082028036833780820191505090505b5090506000600190505b83811161076057808260018361061b9190611cd0565b81518110610652577f4e487b7100000000000000000000000000000000000000000000000000000000600052603260045260246000fd5b60200260200101818152505060026000828152602001908152602001600020600301805461067f90611d8e565b80601f01602080910402602001604051908101604052809291908181526020018280546106ab90611d8e565b80156106f85780601f106106cd576101008083540402835291602001916106f8565b820191906000526020600020905b8154815290600101906020018083116106db57829003601f168201915b50505050508360018361070b9190611cd0565b81518110610742577f4e487b7100000000000000000000000000000000000000000000000000000000600052603260045260246000fd5b6020026020010181905250808061075890611dc0565b915050610605565b508181945094505050509091565b606080600061077b6110e6565b905060008167ffffffffffffffff8111156107bf577f4e487b7100000000000000000000000000000000000000000000000000000000600052604160045260246000fd5b6040519080825280602002602001820160405280156107f257816020015b60608152602001906001900390816107dd5790505b50905060008267ffffffffffffffff811115610837577f4e487b7100000000000000000000000000000000000000000000000000000000600052604160045260246000fd5b6040519080825280602002602001820160405280156108655781602001602082028036833780820191505090505b5090506000600190505b8381116109ca5780826001836108859190611cd0565b815181106108bc577f4e487b7100000000000000000000000000000000000000000000000000000000600052603260045260246000fd5b6020026020010181815250506002600082815260200190815260200160002060050180546108e990611d8e565b80601f016020809104026020016040519081016040528092919081815260200182805461091590611d8e565b80156109625780601f1061093757610100808354040283529160200191610962565b820191906000526020600020905b81548152906001019060200180831161094557829003601f168201915b5050505050836001836109759190611cd0565b815181106109ac577f4e487b7100000000000000000000000000000000000000000000000000000000600052603260045260246000fd5b602002602001018190525080806109c290611dc0565b91505061086f565b508181945094505050509091565b60008054906101000a900473ffffffffffffffffffffffffffffffffffffffff1673ffffffffffffffffffffffffffffffffffffffff163373ffffffffffffffffffffffffffffffffffffffff1614610a3057600080fd5b6000600160008373ffffffffffffffffffffffffffffffffffffffff1673ffffffffffffffffffffffffffffffffffffffff16815260200190815260200160002060006101000a81548160ff02191690831515021790555050565b6060806000610a986110e6565b905060008167ffffffffffffffff811115610adc577f4e487b7100000000000000000000000000000000000000000000000000000000600052604160045260246000fd5b604051908082528060200260200182016040528015610b0f57816020015b6060815260200190600190039081610afa5790505b50905060008267ffffffffffffffff811115610b54577f4e487b7100000000000000000000000000000000000000000000000000000000600052604160045260246000fd5b604051908082528060200260200182016040528015610b825781602001602082028036833780820191505090505b5090506000600190505b838111610ce7578082600183610ba29190611cd0565b81518110610bd9577f4e487b7100000000000000000000000000000000000000000000000000000000600052603260045260246000fd5b602002602001018181525050600260008281526020019081526020016000206004018054610c0690611d8e565b80601f0160208091040260200160405190810160405280929190818152602001828054610c3290611d8e565b8015610c7f5780601f10610c5457610100808354040283529160200191610c7f565b820191906000526020600020905b815481529060010190602001808311610c6257829003601f168201915b505050505083600183610c929190611cd0565b81518110610cc9577f4e487b7100000000000000000000000000000000000000000000000000000000600052603260045260246000fd5b60200260200101819052508080610cdf90611dc0565b915050610b8c565b508181945094505050509091565b6060600160003373ffffffffffffffffffffffffffffffffffffffff1673ffffffffffffffffffffffffffffffffffffffff16815260200190815260200160002060009054906101000a900460ff16610d4d57600080fd5b600260008381526020019081526020016000206000018054610d6e90611d8e565b80601f0160208091040260200160405190810160405280929190818152602001828054610d9a90611d8e565b8015610de75780601f10610dbc57610100808354040283529160200191610de7565b820191906000526020600020905b815481529060010190602001808311610dca57829003601f168201915b50505050509050919050565b606080606080600160003373ffffffffffffffffffffffffffffffffffffffff1673ffffffffffffffffffffffffffffffffffffffff16815260200190815260200160002060009054906101000a900460ff16610e4f57600080fd5b60026000868152602001908152602001600020600201600260008781526020019081526020016000206003016002600088815260200190815260200160002060040160026000898152602001908152602001600020600501838054610eb390611d8e565b80601f0160208091040260200160405190810160405280929190818152602001828054610edf90611d8e565b8015610f2c5780601f10610f0157610100808354040283529160200191610f2c565b820191906000526020600020905b815481529060010190602001808311610f0f57829003601f168201915b50505050509350828054610f3f90611d8e565b80601f0160208091040260200160405190810160405280929190818152602001828054610f6b90611d8e565b8015610fb85780601f10610f8d57610100808354040283529160200191610fb8565b820191906000526020600020905b815481529060010190602001808311610f9b57829003601f168201915b50505050509250818054610fcb90611d8e565b80601f0160208091040260200160405190810160405280929190818152602001828054610ff790611d8e565b80156110445780601f1061101957610100808354040283529160200191611044565b820191906000526020600020905b81548152906001019060200180831161102757829003601f168201915b5050505050915080805461105790611d8e565b80601f016020809104026020016040519081016040528092919081815260200182805461108390611d8e565b80156110d05780601f106110a5576101008083540402835291602001916110d0565b820191906000526020600020905b8154815290600101906020018083116110b357829003601f168201915b5050505050905093509350935093509193509193565b600080600090506000600190505b7fffffffffffffffffffffffffffffffffffffffffffffffffffffffffffffffff81101561116d57600060026000838152602001908152602001600020600401805461113f90611d8e565b9050141561114c5761116d565b818061115790611dc0565b925050808061116590611dc0565b9150506110f4565b508091505090565b60608060006111826110e6565b905060008167ffffffffffffffff8111156111c6577f4e487b7100000000000000000000000000000000000000000000000000000000600052604160045260246000fd5b6040519080825280602002602001820160405280156111f957816020015b60608152602001906001900390816111e45790505b50905060008267ffffffffffffffff81111561123e577f4e487b7100000000000000000000000000000000000000000000000000000000600052604160045260246000fd5b60405190808252806020026020018201604052801561126c5781602001602082028036833780820191505090505b5090506000600190505b8381116113d157808260018361128c9190611cd0565b815181106112c3577f4e487b7100000000000000000000000000000000000000000000000000000000600052603260045260246000fd5b6020026020010181815250506002600082815260200190815260200160002060020180546112f090611d8e565b80601f016020809104026020016040519081016040528092919081815260200182805461131c90611d8e565b80156113695780601f1061133e57610100808354040283529160200191611369565b820191906000526020600020905b81548152906001019060200180831161134c57829003601f168201915b50505050508360018361137c9190611cd0565b815181106113b3577f4e487b7100000000000000000000000000000000000000000000000000000000600052603260045260246000fd5b602002602001018190525080806113c990611dc0565b915050611276565b508181945094505050509091565b60008054906101000a900473ffffffffffffffffffffffffffffffffffffffff1681565b6060600160003373ffffffffffffffffffffffffffffffffffffffff1673ffffffffffffffffffffffffffffffffffffffff16815260200190815260200160002060009054906101000a900460ff1661145b57600080fd5b60026000838152602001908152602001600020600101805461147c90611d8e565b80601f01602080910402602001604051908101604052809291908181526020018280546114a890611d8e565b80156114f55780601f106114ca576101008083540402835291602001916114f5565b820191906000526020600020905b8154815290600101906020018083116114d857829003601f168201915b50505050509050919050565b60016020528060005260406000206000915054906101000a900460ff1681565b6000600160003373ffffffffffffffffffffffffffffffffffffffff1673ffffffffffffffffffffffffffffffffffffffff16815260200190815260200160002060009054906101000a900460ff1661157957600080fd5b600354905090565b60018060008373ffffffffffffffffffffffffffffffffffffffff1673ffffffffffffffffffffffffffffffffffffffff16815260200190815260200160002060006101000a81548160ff02191690831515021790555050565b600160003373ffffffffffffffffffffffffffffffffffffffff1673ffffffffffffffffffffffffffffffffffffffff16815260200190815260200160002060009054906101000a900460ff1661163157600080fd5b80600260006004548152602001908152602001600020600101908051906020019061165d929190611679565b506004600081548092919061167190611dc0565b919050555050565b82805461168590611d8e565b90600052602060002090601f0160209004810192826116a757600085556116ee565b82601f106116c057805160ff19168380011785556116ee565b828001600101855582156116ee579182015b828111156116ed5782518255916020019190600101906116d2565b5b5090506116fb91906116ff565b5090565b5b80821115611718576000816000905550600101611700565b5090565b600061172f61172a84611c01565b611bd0565b90508281526020810184848401111561174757600080fd5b611752848285611d4c565b509392505050565b60008135905061176981611ea7565b92915050565b600082601f83011261178057600080fd5b813561179084826020860161171c565b91505092915050565b6000813590506117a881611ebe565b92915050565b6000602082840312156117c057600080fd5b60006117ce8482850161175a565b91505092915050565b6000602082840312156117e957600080fd5b600082013567ffffffffffffffff81111561180357600080fd5b61180f8482850161176f565b91505092915050565b60006020828403121561182a57600080fd5b600061183884828501611799565b91505092915050565b600080600080600060a0868803121561185957600080fd5b600061186788828901611799565b955050602086013567ffffffffffffffff81111561188457600080fd5b6118908882890161176f565b945050604086013567ffffffffffffffff8111156118ad57600080fd5b6118b98882890161176f565b935050606086013567ffffffffffffffff8111156118d657600080fd5b6118e28882890161176f565b925050608086013567ffffffffffffffff8111156118ff57600080fd5b61190b8882890161176f565b9150509295509295909350565b60006119248383611a35565b905092915050565b60006119388383611aa7565b60208301905092915050565b61194d81611d04565b82525050565b600061195e82611c51565b6119688185611c8c565b93508360208202850161197a85611c31565b8060005b858110156119b657848403895281516119978582611918565b94506119a283611c72565b925060208a0199505060018101905061197e565b50829750879550505050505092915050565b60006119d382611c5c565b6119dd8185611c9d565b93506119e883611c41565b8060005b83811015611a19578151611a00888261192c565b9750611a0b83611c7f565b9250506001810190506119ec565b5085935050505092915050565b611a2f81611d16565b82525050565b6000611a4082611c67565b611a4a8185611cae565b9350611a5a818560208601611d5b565b611a6381611e96565b840191505092915050565b6000611a7982611c67565b611a838185611cbf565b9350611a93818560208601611d5b565b611a9c81611e96565b840191505092915050565b611ab081611d42565b82525050565b611abf81611d42565b82525050565b6000602082019050611ada6000830184611944565b92915050565b60006040820190508181036000830152611afa8185611953565b90508181036020830152611b0e81846119c8565b90509392505050565b6000602082019050611b2c6000830184611a26565b92915050565b60006020820190508181036000830152611b4c8184611a6e565b905092915050565b60006080820190508181036000830152611b6e8187611a6e565b90508181036020830152611b828186611a6e565b90508181036040830152611b968185611a6e565b90508181036060830152611baa8184611a6e565b905095945050505050565b6000602082019050611bca6000830184611ab6565b92915050565b6000604051905081810181811067ffffffffffffffff82111715611bf757611bf6611e67565b5b8060405250919050565b600067ffffffffffffffff821115611c1c57611c1b611e67565b5b601f19601f8301169050602081019050919050565b6000819050602082019050919050565b6000819050602082019050919050565b600081519050919050565b600081519050919050565b600081519050919050565b6000602082019050919050565b6000602082019050919050565b600082825260208201905092915050565b600082825260208201905092915050565b600082825260208201905092915050565b600082825260208201905092915050565b6000611cdb82611d42565b9150611ce683611d42565b925082821015611cf957611cf8611e09565b5b828203905092915050565b6000611d0f82611d22565b9050919050565b60008115159050919050565b600073ffffffffffffffffffffffffffffffffffffffff82169050919050565b6000819050919050565b82818337600083830152505050565b60005b83811015611d79578082015181840152602081019050611d5e565b83811115611d88576000848401525b50505050565b60006002820490506001821680611da657607f821691505b60208210811415611dba57611db9611e38565b5b50919050565b6000611dcb82611d42565b91507fffffffffffffffffffffffffffffffffffffffffffffffffffffffffffffffff821415611dfe57611dfd611e09565b5b600182019050919050565b7f4e487b7100000000000000000000000000000000000000000000000000000000600052601160045260246000fd5b7f4e487b7100000000000000000000000000000000000000000000000000000000600052602260045260246000fd5b7f4e487b7100000000000000000000000000000000000000000000000000000000600052604160045260246000fd5b6000601f19601f8301169050919050565b611eb081611d04565b8114611ebb57600080fd5b50565b611ec781611d42565b8114611ed257600080fd5b5056fea26469706673582212207ebc3ec1742e6befe50e058aeac1d8c79923d1362700a40d8c1dc89992ef156a64736f6c63430008000033",
  "immutableReferences": {},
  "source": "// SPDX-License-Identifier: MIT\r\npragma solidity ^0.8.0;\r\n\r\ncontract Agronomo {\r\n\r\n    //dati per autorizzazioni alle chiamate delle funzioni\r\n    address public owner;\r\n    mapping(address => bool) public authorized;\r\n\r\n   constructor()  {\r\n        owner = msg.sender;\r\n        authorized[owner] = true; //solo per fare test, oppure  un'opzione valida se il deploy viene fatto da ogni singolo attore in maniera indipendente.\r\n        //authorized[address(this)] = true;\r\n    }\r\n\r\n    //dividere le istanze per terreni\r\n\r\n    struct DatiAgronomo {\r\n    \r\n    //dati funzioni inserimento manuale\r\n    string analisiQualitaProdotto;\r\n    string certificazioneUvaAppezzamento;\r\n    \r\n    //dati funzioni simulatore\r\n    string superficie;\r\n    string umiditaTerreno;\r\n    string temperaturaTerreno;\r\n    string pioggia;\r\n\r\n    }\r\n\r\n    mapping(uint256 => DatiAgronomo) terreni; //ad ogni identificativo risulta un'istanza diversa\r\n   \r\n   /*identificativi delle funzioni per i terreni*/\r\n    uint256 idAnalisiQualitaSerial = 1;\r\n    uint256 idCertificazioneUvaAppezzamentoSerial = 1;\r\n\r\n    //funzioni di autorizzazione \r\n    function addAuthorized(address _address) public {\r\n        //require(msg.sender == owner || authorized[msg.sender] == true); Da tenere solo per testing e comodit, a lavoro definitivo va levata.\r\n        authorized[_address] = true;\r\n    }\r\n\r\n    function removeAuthorized(address _address) public {\r\n        require(msg.sender == owner);\r\n        authorized[_address] = false;\r\n    }\r\n\r\n    //funzioni manuali\r\n    function setAnalisiQualitaProdotto(string memory _analisiQualitaProdotto) public {\r\n        require(authorized[msg.sender]);\r\n        terreni[idAnalisiQualitaSerial].analisiQualitaProdotto = _analisiQualitaProdotto;\r\n        idAnalisiQualitaSerial++;\r\n    }\r\n\r\n    function setCertificazioneUvaAppezzamento(string memory _certificazioneUvaAppezzamento) public {\r\n        require(authorized[msg.sender]);\r\n        terreni[idCertificazioneUvaAppezzamentoSerial].certificazioneUvaAppezzamento = _certificazioneUvaAppezzamento;\r\n        //customerContract.setCertificazioneUvaAppezzamento(idCertificazioneUvaAppezzamentoSerial, _certificazioneUvaAppezzamento);\r\n        idCertificazioneUvaAppezzamentoSerial++;\r\n    }\r\n\r\n    //funzioni simmulatore (VERIFICARE SE IL FATTO CHE SIA PRIVATE DA PROBLEMI NEL SIMULATORE)\r\n    function setSensoriAgronomo(uint256 _idTerreno, string memory _superficie, string memory _umiditaTerreno, string memory _temperaturaTerreno, string memory _pioggia) public {\r\n        terreni[_idTerreno].superficie = _superficie;\r\n        terreni[_idTerreno].umiditaTerreno = _umiditaTerreno;\r\n        terreni[_idTerreno].temperaturaTerreno = _temperaturaTerreno;\r\n        terreni[_idTerreno].pioggia = _pioggia;\r\n    }\r\n    \r\n    //funzioni di get\r\n    function getIdAnalisiQualitaSerial() public view returns(uint256){\r\n        require(authorized[msg.sender]);\r\n        return idAnalisiQualitaSerial;\r\n    }\r\n\r\n    function getIdCertificazioneUvaAppezzamentoSerial() public view returns(uint256){\r\n        require(authorized[msg.sender]);\r\n        return idCertificazioneUvaAppezzamentoSerial;\r\n    }\r\n\r\n    function getAnalisiQualitaProdotto(uint256 _idTerreno) public view returns(string memory) {\r\n        //aggiungere permissioning Ente certificatore + ?\r\n        require(authorized[msg.sender]);\r\n        return terreni[_idTerreno].analisiQualitaProdotto;\r\n    }\r\n\r\n    function getCertificazioneUvaAppezzamento(uint256 _idTerreno) public view returns(string memory) {\r\n        //aggiungere permissioning Ente certificatore + ?\r\n        require(authorized[msg.sender]);\r\n        return terreni[_idTerreno].certificazioneUvaAppezzamento;\r\n\r\n    }\r\n\r\n    function getDatiSensoriAgronomo(uint256 _idTerreno) public view returns(string memory, string memory, string memory, string memory) {\r\n        //aggiungere permissioning Ente certificatore + ?\r\n        require(authorized[msg.sender]);\r\n        return (terreni[_idTerreno].superficie, terreni[_idTerreno].umiditaTerreno, terreni[_idTerreno].temperaturaTerreno, terreni[_idTerreno].pioggia);\r\n\r\n    }\r\n\r\n    /*funzioni e supporto per data aggregation*/\r\n    function getMappingTerreniLength() public view returns (uint256) {\r\n        uint256 count = 0;\r\n        for (uint256 i = 1; i < type(uint256).max; i++) {\r\n            if (bytes(terreni[i].temperaturaTerreno).length == 0) {\r\n            break;\r\n            }\r\n            count++;\r\n        }\r\n        return count;\r\n    }\r\n\r\n    function querySuperficiePerTerreno() public view returns(string[] memory, uint256[] memory){\r\n        \r\n        uint256 length = getMappingTerreniLength();\r\n        string[] memory result = new string[](length);\r\n        uint256[] memory resultTerreni = new uint256[](length);\r\n\r\n        for(uint256 i=1; i<=length; i++){\r\n            resultTerreni[i-1] = i;\r\n            result[i-1] = terreni[i].superficie;\r\n        }\r\n        return (result, resultTerreni);\r\n    }\r\n\r\n    function queryUmiditaPerTerreno() public view returns(string[] memory, uint256[] memory){\r\n        \r\n        uint256 length = getMappingTerreniLength();\r\n        string[] memory result = new string[](length);\r\n        uint256[] memory resultTerreni = new uint256[](length);\r\n\r\n        for(uint256 i=1; i<=length; i++){\r\n            resultTerreni[i-1] = i;\r\n            result[i-1] = terreni[i].umiditaTerreno;\r\n        }\r\n        return (result, resultTerreni);\r\n    }\r\n\r\n    function queryTemperaturaPerTerreno() public view returns(string[] memory, uint256[] memory){\r\n        \r\n        uint256 length = getMappingTerreniLength();\r\n        string[] memory result = new string[](length);\r\n        uint256[] memory resultTerreni = new uint256[](length);\r\n\r\n        for(uint256 i=1; i<=length; i++){\r\n            resultTerreni[i-1] = i;\r\n            result[i-1] = terreni[i].temperaturaTerreno;\r\n        }\r\n        return (result, resultTerreni);\r\n    }\r\n\r\n    function queryPioggiaPerTerreno() public view returns(string[] memory, uint256[] memory){\r\n        \r\n        uint256 length = getMappingTerreniLength();\r\n        string[] memory result = new string[](length);\r\n        uint256[] memory resultTerreni = new uint256[](length);\r\n\r\n        for(uint256 i=1; i<=length; i++){\r\n            resultTerreni[i-1] = i;\r\n            result[i-1] = terreni[i].pioggia;\r\n        }\r\n        return (result, resultTerreni);\r\n    }\r\n\r\n}",
  "sourcePath": "C:\\Users\\Erman\\OneDrive\\BinTraWine_github\\BinTraWine\\contracts\\Agronomo.sol",
  "compiler": {
    "name": "solc",
    "version": "0.8.0+commit.c7dfd78e.Emscripten.clang"
  },
  "schemaVersion": "3.4.13",
  "updatedAt": "2023-07-15T15:39:48.995Z",
  "networkType": "quorum",
  "devdoc": {
    "kind": "dev",
    "methods": {},
    "version": 1
  },
  "userdoc": {
    "kind": "user",
    "methods": {},
    "version": 1
  }
}