{
  "contractName": "Customer",
  "abi": [
    {
      "inputs": [
        {
          "internalType": "address",
          "name": "_agronomoContractAddress",
          "type": "address"
        },
        {
          "internalType": "address",
          "name": "_ViticoltoreContractAddress",
          "type": "address"
        },
        {
          "internalType": "address",
          "name": "_produttoreContractAddress",
          "type": "address"
        },
        {
          "internalType": "address",
          "name": "_imbottigliatoreContractAddress",
          "type": "address"
        },
        {
          "internalType": "address",
          "name": "_distributoreContractAddress",
          "type": "address"
        },
        {
          "internalType": "address",
          "name": "_enteCertificatoreContractAddress",
          "type": "address"
        }
      ],
      "stateMutability": "nonpayable",
      "type": "constructor"
    },
    {
      "inputs": [
        {
          "internalType": "uint256",
          "name": "",
          "type": "uint256"
        }
      ],
      "name": "bottiglie",
      "outputs": [
        {
          "internalType": "string",
          "name": "certificazioneUvaAppezzamento",
          "type": "string"
        },
        {
          "internalType": "string",
          "name": "dataRaccolta",
          "type": "string"
        },
        {
          "internalType": "string",
          "name": "datiForniture",
          "type": "string"
        },
        {
          "internalType": "string",
          "name": "destinazioneUva",
          "type": "string"
        },
        {
          "internalType": "string",
          "name": "prodottiVinificazione",
          "type": "string"
        },
        {
          "internalType": "string",
          "name": "solfiti",
          "type": "string"
        },
        {
          "internalType": "string",
          "name": "allergeni",
          "type": "string"
        },
        {
          "internalType": "string",
          "name": "gradazioneAlcolica",
          "type": "string"
        },
        {
          "internalType": "string",
          "name": "localitaUve",
          "type": "string"
        },
        {
          "internalType": "string",
          "name": "temperaturaTrasporto",
          "type": "string"
        },
        {
          "internalType": "string",
          "name": "validazione",
          "type": "string"
        },
        {
          "internalType": "string",
          "name": "certificazione",
          "type": "string"
        }
      ],
      "stateMutability": "view",
      "type": "function",
      "constant": true
    },
    {
      "inputs": [
        {
          "internalType": "uint256",
          "name": "_idBottiglia",
          "type": "uint256"
        }
      ],
      "name": "getCertificazioneAppezzamentoUva",
      "outputs": [
        {
          "internalType": "string",
          "name": "",
          "type": "string"
        }
      ],
      "stateMutability": "nonpayable",
      "type": "function"
    },
    {
      "inputs": [
        {
          "internalType": "uint256",
          "name": "_idBottiglia",
          "type": "uint256"
        }
      ],
      "name": "getDataRaccolta",
      "outputs": [
        {
          "internalType": "string",
          "name": "",
          "type": "string"
        }
      ],
      "stateMutability": "nonpayable",
      "type": "function"
    },
    {
      "inputs": [
        {
          "internalType": "uint256",
          "name": "_idBottiglia",
          "type": "uint256"
        }
      ],
      "name": "getDatiForniture",
      "outputs": [
        {
          "internalType": "string",
          "name": "",
          "type": "string"
        }
      ],
      "stateMutability": "nonpayable",
      "type": "function"
    },
    {
      "inputs": [
        {
          "internalType": "uint256",
          "name": "_idBottiglia",
          "type": "uint256"
        }
      ],
      "name": "getDestinazioneUva",
      "outputs": [
        {
          "internalType": "string",
          "name": "",
          "type": "string"
        }
      ],
      "stateMutability": "nonpayable",
      "type": "function"
    },
    {
      "inputs": [
        {
          "internalType": "uint256",
          "name": "_idBottiglia",
          "type": "uint256"
        }
      ],
      "name": "getProdottiVinificazione",
      "outputs": [
        {
          "internalType": "string",
          "name": "",
          "type": "string"
        }
      ],
      "stateMutability": "nonpayable",
      "type": "function"
    },
    {
      "inputs": [
        {
          "internalType": "uint256",
          "name": "_idBottiglia",
          "type": "uint256"
        }
      ],
      "name": "getSolfiti",
      "outputs": [
        {
          "internalType": "string",
          "name": "",
          "type": "string"
        }
      ],
      "stateMutability": "nonpayable",
      "type": "function"
    },
    {
      "inputs": [
        {
          "internalType": "uint256",
          "name": "_idBottiglia",
          "type": "uint256"
        }
      ],
      "name": "getAllergeni",
      "outputs": [
        {
          "internalType": "string",
          "name": "",
          "type": "string"
        }
      ],
      "stateMutability": "nonpayable",
      "type": "function"
    },
    {
      "inputs": [
        {
          "internalType": "uint256",
          "name": "_idBottiglia",
          "type": "uint256"
        }
      ],
      "name": "getGradazioneAlcolica",
      "outputs": [
        {
          "internalType": "string",
          "name": "",
          "type": "string"
        }
      ],
      "stateMutability": "nonpayable",
      "type": "function"
    },
    {
      "inputs": [
        {
          "internalType": "uint256",
          "name": "_idBottiglia",
          "type": "uint256"
        }
      ],
      "name": "getLocalitaUve",
      "outputs": [
        {
          "internalType": "string",
          "name": "",
          "type": "string"
        }
      ],
      "stateMutability": "nonpayable",
      "type": "function"
    },
    {
      "inputs": [
        {
          "internalType": "uint256",
          "name": "_idBottiglia",
          "type": "uint256"
        }
      ],
      "name": "getTemperaturaTrasporto",
      "outputs": [
        {
          "internalType": "string",
          "name": "",
          "type": "string"
        }
      ],
      "stateMutability": "nonpayable",
      "type": "function"
    },
    {
      "inputs": [
        {
          "internalType": "uint256",
          "name": "_idBottiglia",
          "type": "uint256"
        }
      ],
      "name": "getValidazione",
      "outputs": [
        {
          "internalType": "string",
          "name": "",
          "type": "string"
        }
      ],
      "stateMutability": "nonpayable",
      "type": "function"
    },
    {
      "inputs": [
        {
          "internalType": "uint256",
          "name": "_idBottiglia",
          "type": "uint256"
        }
      ],
      "name": "getCertificazione",
      "outputs": [
        {
          "internalType": "string",
          "name": "",
          "type": "string"
        }
      ],
      "stateMutability": "nonpayable",
      "type": "function"
    }
  ],
  "bytecode": "0x60806040523480156200001157600080fd5b506040516200289e3803806200289e833981810160405281019062000037919062000543565b856000806101000a81548173ffffffffffffffffffffffffffffffffffffffff021916908373ffffffffffffffffffffffffffffffffffffffff16021790555084600160006101000a81548173ffffffffffffffffffffffffffffffffffffffff021916908373ffffffffffffffffffffffffffffffffffffffff16021790555083600260006101000a81548173ffffffffffffffffffffffffffffffffffffffff021916908373ffffffffffffffffffffffffffffffffffffffff16021790555082600360006101000a81548173ffffffffffffffffffffffffffffffffffffffff021916908373ffffffffffffffffffffffffffffffffffffffff16021790555081600460006101000a81548173ffffffffffffffffffffffffffffffffffffffff021916908373ffffffffffffffffffffffffffffffffffffffff16021790555080600560006101000a81548173ffffffffffffffffffffffffffffffffffffffff021916908373ffffffffffffffffffffffffffffffffffffffff16021790555060008054906101000a900473ffffffffffffffffffffffffffffffffffffffff1673ffffffffffffffffffffffffffffffffffffffff1663cf1c316a306040518263ffffffff1660e01b8152600401620002179190620005ea565b600060405180830381600087803b1580156200023257600080fd5b505af115801562000247573d6000803e3d6000fd5b50505050600160009054906101000a900473ffffffffffffffffffffffffffffffffffffffff1673ffffffffffffffffffffffffffffffffffffffff1663cf1c316a306040518263ffffffff1660e01b8152600401620002a89190620005ea565b600060405180830381600087803b158015620002c357600080fd5b505af1158015620002d8573d6000803e3d6000fd5b50505050600260009054906101000a900473ffffffffffffffffffffffffffffffffffffffff1673ffffffffffffffffffffffffffffffffffffffff1663cf1c316a306040518263ffffffff1660e01b8152600401620003399190620005ea565b600060405180830381600087803b1580156200035457600080fd5b505af115801562000369573d6000803e3d6000fd5b50505050600360009054906101000a900473ffffffffffffffffffffffffffffffffffffffff1673ffffffffffffffffffffffffffffffffffffffff1663cf1c316a306040518263ffffffff1660e01b8152600401620003ca9190620005ea565b600060405180830381600087803b158015620003e557600080fd5b505af1158015620003fa573d6000803e3d6000fd5b50505050600460009054906101000a900473ffffffffffffffffffffffffffffffffffffffff1673ffffffffffffffffffffffffffffffffffffffff1663cf1c316a306040518263ffffffff1660e01b81526004016200045b9190620005ea565b600060405180830381600087803b1580156200047657600080fd5b505af11580156200048b573d6000803e3d6000fd5b50505050600560009054906101000a900473ffffffffffffffffffffffffffffffffffffffff1673ffffffffffffffffffffffffffffffffffffffff1663cf1c316a306040518263ffffffff1660e01b8152600401620004ec9190620005ea565b600060405180830381600087803b1580156200050757600080fd5b505af11580156200051c573d6000803e3d6000fd5b5050505050505050505062000655565b6000815190506200053d816200063b565b92915050565b60008060008060008060c087890312156200055d57600080fd5b60006200056d89828a016200052c565b96505060206200058089828a016200052c565b95505060406200059389828a016200052c565b9450506060620005a689828a016200052c565b9350506080620005b989828a016200052c565b92505060a0620005cc89828a016200052c565b9150509295509295509295565b620005e48162000607565b82525050565b6000602082019050620006016000830184620005d9565b92915050565b600062000614826200061b565b9050919050565b600073ffffffffffffffffffffffffffffffffffffffff82169050919050565b620006468162000607565b81146200065257600080fd5b50565b61223980620006656000396000f3fe608060405234801561001057600080fd5b50600436106100cf5760003560e01c80639e78ddfa1161008c578063b1689d4011610066578063b1689d401461028f578063b17e9730146102bf578063d4a1e721146102ef578063d939881a1461031f576100cf565b80639e78ddfa146101f45780639f09e11c14610224578063a25edad114610254576100cf565b806305edddca146100d45780630fb4e686146101045780632f33114f14610134578063635b75cb1461016457806383f0f233146101945780638a23ed12146101c4575b600080fd5b6100ee60048036038101906100e99190611ed5565b61034f565b6040516100fb9190611f46565b60405180910390f35b61011e60048036038101906101199190611ed5565b6104d7565b60405161012b9190611f46565b60405180910390f35b61014e60048036038101906101499190611ed5565b61065e565b60405161015b9190611f46565b60405180910390f35b61017e60048036038101906101799190611ed5565b6107e6565b60405161018b9190611f46565b60405180910390f35b6101ae60048036038101906101a99190611ed5565b61096e565b6040516101bb9190611f46565b60405180910390f35b6101de60048036038101906101d99190611ed5565b610af6565b6040516101eb9190611f46565b60405180910390f35b61020e60048036038101906102099190611ed5565b610c7f565b60405161021b9190611f46565b60405180910390f35b61023e60048036038101906102399190611ed5565b610e07565b60405161024b9190611f46565b60405180910390f35b61026e60048036038101906102699190611ed5565b610f8f565b6040516102869c9b9a99989796959493929190611f68565b60405180910390f35b6102a960048036038101906102a49190611ed5565b61164f565b6040516102b69190611f46565b60405180910390f35b6102d960048036038101906102d49190611ed5565b6117d7565b6040516102e69190611f46565b60405180910390f35b61030960048036038101906103049190611ed5565b61195f565b6040516103169190611f46565b60405180910390f35b61033960048036038101906103349190611ed5565b611ae9565b6040516103469190611f46565b60405180910390f35b60606000600360009054906101000a900473ffffffffffffffffffffffffffffffffffffffff1673ffffffffffffffffffffffffffffffffffffffff166305edddca846040518263ffffffff1660e01b81526004016103ae9190612076565b60006040518083038186803b1580156103c657600080fd5b505afa1580156103da573d6000803e3d6000fd5b505050506040513d6000823e3d601f19601f820116820180604052508101906104039190611d91565b90508060066000858152602001908152602001600020600601908051906020019061042f929190611c71565b506006600084815260200190815260200160002060060180546104519061214b565b80601f016020809104026020016040519081016040528092919081815260200182805461047d9061214b565b80156104ca5780601f1061049f576101008083540402835291602001916104ca565b820191906000526020600020905b8154815290600101906020018083116104ad57829003601f168201915b5050505050915050919050565b606060008060009054906101000a900473ffffffffffffffffffffffffffffffffffffffff1673ffffffffffffffffffffffffffffffffffffffff1663a1fabe79846040518263ffffffff1660e01b81526004016105359190612076565b60006040518083038186803b15801561054d57600080fd5b505afa158015610561573d6000803e3d6000fd5b505050506040513d6000823e3d601f19601f8201168201806040525081019061058a9190611d91565b9050806006600085815260200190815260200160002060000190805190602001906105b6929190611c71565b506006600084815260200190815260200160002060000180546105d89061214b565b80601f01602080910402602001604051908101604052809291908181526020018280546106049061214b565b80156106515780601f1061062657610100808354040283529160200191610651565b820191906000526020600020905b81548152906001019060200180831161063457829003601f168201915b5050505050915050919050565b60606000600560009054906101000a900473ffffffffffffffffffffffffffffffffffffffff1673ffffffffffffffffffffffffffffffffffffffff16632f33114f846040518263ffffffff1660e01b81526004016106bd9190612076565b60006040518083038186803b1580156106d557600080fd5b505afa1580156106e9573d6000803e3d6000fd5b505050506040513d6000823e3d601f19601f820116820180604052508101906107129190611d91565b90508060066000858152602001908152602001600020600b01908051906020019061073e929190611c71565b5060066000848152602001908152602001600020600b0180546107609061214b565b80601f016020809104026020016040519081016040528092919081815260200182805461078c9061214b565b80156107d95780601f106107ae576101008083540402835291602001916107d9565b820191906000526020600020905b8154815290600101906020018083116107bc57829003601f168201915b5050505050915050919050565b60606000600260009054906101000a900473ffffffffffffffffffffffffffffffffffffffff1673ffffffffffffffffffffffffffffffffffffffff1663635b75cb846040518263ffffffff1660e01b81526004016108459190612076565b60006040518083038186803b15801561085d57600080fd5b505afa158015610871573d6000803e3d6000fd5b505050506040513d6000823e3d601f19601f8201168201806040525081019061089a9190611d91565b9050806006600085815260200190815260200160002060040190805190602001906108c6929190611c71565b506006600084815260200190815260200160002060040180546108e89061214b565b80601f01602080910402602001604051908101604052809291908181526020018280546109149061214b565b80156109615780601f1061093657610100808354040283529160200191610961565b820191906000526020600020905b81548152906001019060200180831161094457829003601f168201915b5050505050915050919050565b60606000600360009054906101000a900473ffffffffffffffffffffffffffffffffffffffff1673ffffffffffffffffffffffffffffffffffffffff166304f78e15846040518263ffffffff1660e01b81526004016109cd9190612076565b60006040518083038186803b1580156109e557600080fd5b505afa1580156109f9573d6000803e3d6000fd5b505050506040513d6000823e3d601f19601f82011682018060405250810190610a229190611d91565b905080600660008581526020019081526020016000206008019080519060200190610a4e929190611c71565b50600660008481526020019081526020016000206008018054610a709061214b565b80601f0160208091040260200160405190810160405280929190818152602001828054610a9c9061214b565b8015610ae95780601f10610abe57610100808354040283529160200191610ae9565b820191906000526020600020905b815481529060010190602001808311610acc57829003601f168201915b5050505050915050919050565b60606000600460009054906101000a900473ffffffffffffffffffffffffffffffffffffffff1673ffffffffffffffffffffffffffffffffffffffff1663f60e1306846040518263ffffffff1660e01b8152600401610b559190612076565b60006040518083038186803b158015610b6d57600080fd5b505afa158015610b81573d6000803e3d6000fd5b505050506040513d6000823e3d601f19601f82011682018060405250810190610baa9190611dd2565b91505080600660008581526020019081526020016000206009019080519060200190610bd7929190611c71565b50600660008481526020019081526020016000206009018054610bf99061214b565b80601f0160208091040260200160405190810160405280929190818152602001828054610c259061214b565b8015610c725780601f10610c4757610100808354040283529160200191610c72565b820191906000526020600020905b815481529060010190602001808311610c5557829003601f168201915b5050505050915050919050565b60606000600560009054906101000a900473ffffffffffffffffffffffffffffffffffffffff1673ffffffffffffffffffffffffffffffffffffffff16639e78ddfa846040518263ffffffff1660e01b8152600401610cde9190612076565b60006040518083038186803b158015610cf657600080fd5b505afa158015610d0a573d6000803e3d6000fd5b505050506040513d6000823e3d601f19601f82011682018060405250810190610d339190611d91565b90508060066000858152602001908152602001600020600a019080519060200190610d5f929190611c71565b5060066000848152602001908152602001600020600a018054610d819061214b565b80601f0160208091040260200160405190810160405280929190818152602001828054610dad9061214b565b8015610dfa5780601f10610dcf57610100808354040283529160200191610dfa565b820191906000526020600020905b815481529060010190602001808311610ddd57829003601f168201915b5050505050915050919050565b60606000600160009054906101000a900473ffffffffffffffffffffffffffffffffffffffff1673ffffffffffffffffffffffffffffffffffffffff16639f09e11c846040518263ffffffff1660e01b8152600401610e669190612076565b60006040518083038186803b158015610e7e57600080fd5b505afa158015610e92573d6000803e3d6000fd5b505050506040513d6000823e3d601f19601f82011682018060405250810190610ebb9190611d91565b905080600660008581526020019081526020016000206002019080519060200190610ee7929190611c71565b50600660008481526020019081526020016000206002018054610f099061214b565b80601f0160208091040260200160405190810160405280929190818152602001828054610f359061214b565b8015610f825780601f10610f5757610100808354040283529160200191610f82565b820191906000526020600020905b815481529060010190602001808311610f6557829003601f168201915b5050505050915050919050565b6006602052806000526040600020600091509050806000018054610fb29061214b565b80601f0160208091040260200160405190810160405280929190818152602001828054610fde9061214b565b801561102b5780601f106110005761010080835404028352916020019161102b565b820191906000526020600020905b81548152906001019060200180831161100e57829003601f168201915b5050505050908060010180546110409061214b565b80601f016020809104026020016040519081016040528092919081815260200182805461106c9061214b565b80156110b95780601f1061108e576101008083540402835291602001916110b9565b820191906000526020600020905b81548152906001019060200180831161109c57829003601f168201915b5050505050908060020180546110ce9061214b565b80601f01602080910402602001604051908101604052809291908181526020018280546110fa9061214b565b80156111475780601f1061111c57610100808354040283529160200191611147565b820191906000526020600020905b81548152906001019060200180831161112a57829003601f168201915b50505050509080600301805461115c9061214b565b80601f01602080910402602001604051908101604052809291908181526020018280546111889061214b565b80156111d55780601f106111aa576101008083540402835291602001916111d5565b820191906000526020600020905b8154815290600101906020018083116111b857829003601f168201915b5050505050908060040180546111ea9061214b565b80601f01602080910402602001604051908101604052809291908181526020018280546112169061214b565b80156112635780601f1061123857610100808354040283529160200191611263565b820191906000526020600020905b81548152906001019060200180831161124657829003601f168201915b5050505050908060050180546112789061214b565b80601f01602080910402602001604051908101604052809291908181526020018280546112a49061214b565b80156112f15780601f106112c6576101008083540402835291602001916112f1565b820191906000526020600020905b8154815290600101906020018083116112d457829003601f168201915b5050505050908060060180546113069061214b565b80601f01602080910402602001604051908101604052809291908181526020018280546113329061214b565b801561137f5780601f106113545761010080835404028352916020019161137f565b820191906000526020600020905b81548152906001019060200180831161136257829003601f168201915b5050505050908060070180546113949061214b565b80601f01602080910402602001604051908101604052809291908181526020018280546113c09061214b565b801561140d5780601f106113e25761010080835404028352916020019161140d565b820191906000526020600020905b8154815290600101906020018083116113f057829003601f168201915b5050505050908060080180546114229061214b565b80601f016020809104026020016040519081016040528092919081815260200182805461144e9061214b565b801561149b5780601f106114705761010080835404028352916020019161149b565b820191906000526020600020905b81548152906001019060200180831161147e57829003601f168201915b5050505050908060090180546114b09061214b565b80601f01602080910402602001604051908101604052809291908181526020018280546114dc9061214b565b80156115295780601f106114fe57610100808354040283529160200191611529565b820191906000526020600020905b81548152906001019060200180831161150c57829003601f168201915b50505050509080600a01805461153e9061214b565b80601f016020809104026020016040519081016040528092919081815260200182805461156a9061214b565b80156115b75780601f1061158c576101008083540402835291602001916115b7565b820191906000526020600020905b81548152906001019060200180831161159a57829003601f168201915b50505050509080600b0180546115cc9061214b565b80601f01602080910402602001604051908101604052809291908181526020018280546115f89061214b565b80156116455780601f1061161a57610100808354040283529160200191611645565b820191906000526020600020905b81548152906001019060200180831161162857829003601f168201915b505050505090508c565b60606000600160009054906101000a900473ffffffffffffffffffffffffffffffffffffffff1673ffffffffffffffffffffffffffffffffffffffff1663b1689d40846040518263ffffffff1660e01b81526004016116ae9190612076565b60006040518083038186803b1580156116c657600080fd5b505afa1580156116da573d6000803e3d6000fd5b505050506040513d6000823e3d601f19601f820116820180604052508101906117039190611d91565b90508060066000858152602001908152602001600020600301908051906020019061172f929190611c71565b506006600084815260200190815260200160002060030180546117519061214b565b80601f016020809104026020016040519081016040528092919081815260200182805461177d9061214b565b80156117ca5780601f1061179f576101008083540402835291602001916117ca565b820191906000526020600020905b8154815290600101906020018083116117ad57829003601f168201915b5050505050915050919050565b60606000600160009054906101000a900473ffffffffffffffffffffffffffffffffffffffff1673ffffffffffffffffffffffffffffffffffffffff1663b17e9730846040518263ffffffff1660e01b81526004016118369190612076565b60006040518083038186803b15801561184e57600080fd5b505afa158015611862573d6000803e3d6000fd5b505050506040513d6000823e3d601f19601f8201168201806040525081019061188b9190611d91565b9050806006600085815260200190815260200160002060010190805190602001906118b7929190611c71565b506006600084815260200190815260200160002060010180546118d99061214b565b80601f01602080910402602001604051908101604052809291908181526020018280546119059061214b565b80156119525780601f1061192757610100808354040283529160200191611952565b820191906000526020600020905b81548152906001019060200180831161193557829003601f168201915b5050505050915050919050565b60606000600360009054906101000a900473ffffffffffffffffffffffffffffffffffffffff1673ffffffffffffffffffffffffffffffffffffffff16633df6d06a846040518263ffffffff1660e01b81526004016119be9190612076565b60006040518083038186803b1580156119d657600080fd5b505afa1580156119ea573d6000803e3d6000fd5b505050506040513d6000823e3d601f19601f82011682018060405250810190611a139190611e3e565b9250505080600660008581526020019081526020016000206007019080519060200190611a41929190611c71565b50600660008481526020019081526020016000206007018054611a639061214b565b80601f0160208091040260200160405190810160405280929190818152602001828054611a8f9061214b565b8015611adc5780601f10611ab157610100808354040283529160200191611adc565b820191906000526020600020905b815481529060010190602001808311611abf57829003601f168201915b5050505050915050919050565b60606000600360009054906101000a900473ffffffffffffffffffffffffffffffffffffffff1673ffffffffffffffffffffffffffffffffffffffff1663d939881a846040518263ffffffff1660e01b8152600401611b489190612076565b60006040518083038186803b158015611b6057600080fd5b505afa158015611b74573d6000803e3d6000fd5b505050506040513d6000823e3d601f19601f82011682018060405250810190611b9d9190611d91565b905080600660008581526020019081526020016000206005019080519060200190611bc9929190611c71565b50600660008481526020019081526020016000206005018054611beb9061214b565b80601f0160208091040260200160405190810160405280929190818152602001828054611c179061214b565b8015611c645780601f10611c3957610100808354040283529160200191611c64565b820191906000526020600020905b815481529060010190602001808311611c4757829003601f168201915b5050505050915050919050565b828054611c7d9061214b565b90600052602060002090601f016020900481019282611c9f5760008555611ce6565b82601f10611cb857805160ff1916838001178555611ce6565b82800160010185558215611ce6579182015b82811115611ce5578251825591602001919060010190611cca565b5b509050611cf39190611cf7565b5090565b5b80821115611d10576000816000905550600101611cf8565b5090565b6000611d27611d22846120c2565b612091565b905082815260208101848484011115611d3f57600080fd5b611d4a848285612118565b509392505050565b600082601f830112611d6357600080fd5b8151611d73848260208601611d14565b91505092915050565b600081359050611d8b816121ec565b92915050565b600060208284031215611da357600080fd5b600082015167ffffffffffffffff811115611dbd57600080fd5b611dc984828501611d52565b91505092915050565b60008060408385031215611de557600080fd5b600083015167ffffffffffffffff811115611dff57600080fd5b611e0b85828601611d52565b925050602083015167ffffffffffffffff811115611e2857600080fd5b611e3485828601611d52565b9150509250929050565b600080600060608486031215611e5357600080fd5b600084015167ffffffffffffffff811115611e6d57600080fd5b611e7986828701611d52565b935050602084015167ffffffffffffffff811115611e9657600080fd5b611ea286828701611d52565b925050604084015167ffffffffffffffff811115611ebf57600080fd5b611ecb86828701611d52565b9150509250925092565b600060208284031215611ee757600080fd5b6000611ef584828501611d7c565b91505092915050565b6000611f09826120f2565b611f1381856120fd565b9350611f23818560208601612118565b611f2c816121db565b840191505092915050565b611f408161210e565b82525050565b60006020820190508181036000830152611f608184611efe565b905092915050565b6000610180820190508181036000830152611f83818f611efe565b90508181036020830152611f97818e611efe565b90508181036040830152611fab818d611efe565b90508181036060830152611fbf818c611efe565b90508181036080830152611fd3818b611efe565b905081810360a0830152611fe7818a611efe565b905081810360c0830152611ffb8189611efe565b905081810360e083015261200f8188611efe565b90508181036101008301526120248187611efe565b90508181036101208301526120398186611efe565b905081810361014083015261204e8185611efe565b90508181036101608301526120638184611efe565b90509d9c50505050505050505050505050565b600060208201905061208b6000830184611f37565b92915050565b6000604051905081810181811067ffffffffffffffff821117156120b8576120b76121ac565b5b8060405250919050565b600067ffffffffffffffff8211156120dd576120dc6121ac565b5b601f19601f8301169050602081019050919050565b600081519050919050565b600082825260208201905092915050565b6000819050919050565b60005b8381101561213657808201518184015260208101905061211b565b83811115612145576000848401525b50505050565b6000600282049050600182168061216357607f821691505b602082108114156121775761217661217d565b5b50919050565b7f4e487b7100000000000000000000000000000000000000000000000000000000600052602260045260246000fd5b7f4e487b7100000000000000000000000000000000000000000000000000000000600052604160045260246000fd5b6000601f19601f8301169050919050565b6121f58161210e565b811461220057600080fd5b5056fea26469706673582212204a6be47280d35c2d860cd99a2fd1e9efe9335ed594ef550b67ec692d0623024b64736f6c63430008000033",
  "immutableReferences": {},
  "source": "// SPDX-License-Identifier: MIT\r\npragma solidity ^0.8.0;\r\n\r\nimport \"./Agronomo.sol\";\r\nimport \"./Viticoltore.sol\";\r\nimport \"./Produttore.sol\";\r\nimport \"./Imbottigliatore.sol\";\r\nimport \"./Distributore.sol\";\r\nimport \"./EnteCertificatore.sol\";\r\n\r\ncontract Customer {\r\n\r\n    struct DatiBottiglia {\r\n        //da Agronomo\r\n        string certificazioneUvaAppezzamento;\r\n        //da Viticoltore\r\n        string dataRaccolta;\r\n        string datiForniture;\r\n        string destinazioneUva;\r\n        //da Produttore\r\n        string prodottiVinificazione;\r\n        //da Imbottigliatore\r\n        string solfiti;\r\n        string allergeni;\r\n        string gradazioneAlcolica;\r\n        string localitaUve;\r\n        //da Distributore\r\n        string temperaturaTrasporto; //sensore\r\n        //da Ente Certificatore\r\n        string validazione;\r\n        string certificazione;\r\n\r\n    }\r\n\r\n    Agronomo agronomoContract;\r\n    Viticoltore viticoltoreContract;\r\n    Produttore produttoreContract;\r\n    Imbottigliatore imbottigliatoreContract;\r\n    Distributore distributoreContract;\r\n    EnteCertificatore enteCertificatoreContract;\r\n\r\n    constructor(address _agronomoContractAddress, address _ViticoltoreContractAddress, address _produttoreContractAddress,\r\n        address _imbottigliatoreContractAddress, address _distributoreContractAddress, address _enteCertificatoreContractAddress) {\r\n            agronomoContract = Agronomo(_agronomoContractAddress);\r\n            viticoltoreContract = Viticoltore(_ViticoltoreContractAddress);\r\n            produttoreContract = Produttore(_produttoreContractAddress);\r\n            imbottigliatoreContract = Imbottigliatore(_imbottigliatoreContractAddress);\r\n            distributoreContract = Distributore(_distributoreContractAddress);\r\n            enteCertificatoreContract = EnteCertificatore(_enteCertificatoreContractAddress);\r\n\r\n            agronomoContract.addAuthorized(address(this));\r\n            viticoltoreContract.addAuthorized(address(this));\r\n            produttoreContract.addAuthorized(address(this));\r\n            imbottigliatoreContract.addAuthorized(address(this));\r\n            distributoreContract.addAuthorized(address(this));\r\n            enteCertificatoreContract.addAuthorized(address(this));\r\n        }\r\n\r\n    mapping(uint256 => DatiBottiglia) public bottiglie;\r\n\r\n    //da Agronomo\r\n   /* function setCertificazioneUvaAppezzamento(uint256 _idBottiglia, string memory _certificazioneUvaAppezzamento) public {\r\n        bottiglie[_idBottiglia].certificazioneUvaAppezzamento = _certificazioneUvaAppezzamento;\r\n    }\r\n\r\n    //da Viticoltore\r\n    function setDataRaccolta(uint256 _idBottiglia, string memory _dataRaccolta) public {\r\n        bottiglie[_idBottiglia].dataRaccolta = _dataRaccolta;\r\n    }\r\n\r\n    function setDatiForniture(uint256 _idBottiglia, string memory _datiForniture) public {\r\n        bottiglie[_idBottiglia].datiForniture = _datiForniture;\r\n    }\r\n\r\n    function setDestinazioneUva(uint256 _idBottiglia, string memory _destinazioneUva) public {\r\n        bottiglie[_idBottiglia].destinazioneUva = _destinazioneUva;\r\n    }\r\n\r\n    //da Produttore\r\n    function setProdottiVinificazione(uint256 _idBottiglia, string memory _prodottiVinificazione) public {\r\n        bottiglie[_idBottiglia].prodottiVinificazione = _prodottiVinificazione;\r\n    }\r\n\r\n    //da Imbottigliatore\r\n    function setSolfiti(uint256 _idBottiglia, string memory _solfiti) public {\r\n        bottiglie[_idBottiglia].solfiti = _solfiti;\r\n    }\r\n\r\n    function setAllergeni(uint256 _idBottiglia, string memory _allergeni) public {\r\n        bottiglie[_idBottiglia].allergeni = _allergeni;\r\n    }\r\n\r\n    function setGradazioneAlcolica(uint256 _idBottiglia, string memory _gradazioneAlcolica) public{\r\n        bottiglie[_idBottiglia].gradazioneAlcolica = _gradazioneAlcolica;\r\n    }\r\n\r\n    function setLocalitaUve(uint256 _idBottiglia, string memory _localitaUve) public {\r\n        bottiglie[_idBottiglia].localitaUve = _localitaUve;\r\n    }\r\n\r\n    //da Distributore\r\n    function setTemperaturaTrasporto(uint256 _idBottiglia, string memory _temperaturaTrasporto) public{\r\n        bottiglie[_idBottiglia].temperaturaTrasporto = _temperaturaTrasporto;\r\n    }\r\n\r\n    //da Ente Certificatore\r\n    function setValidazione(uint256 _idbottiglia, string memory _validazione) public {\r\n        bottiglie[_idbottiglia].validazione = _validazione;\r\n    }\r\n\r\n    function setCertificazione(uint256 _idBottiglia, string memory _certificazione) public{\r\n        bottiglie[_idBottiglia].certificazione = _certificazione;\r\n    } */\r\n\r\n    //getters\r\n\r\n    function getCertificazioneAppezzamentoUva(uint256 _idBottiglia) public returns(string memory){\r\n        \r\n        string memory result = agronomoContract.getCertificazioneUvaAppezzamento(_idBottiglia);\r\n        bottiglie[_idBottiglia].certificazioneUvaAppezzamento = result;\r\n        return bottiglie[_idBottiglia].certificazioneUvaAppezzamento;\r\n    }\r\n\r\n    //da Viticoltore\r\n    function getDataRaccolta(uint256 _idBottiglia) public returns(string memory) {\r\n        string memory result = viticoltoreContract.getDataRaccolta(_idBottiglia);\r\n        bottiglie[_idBottiglia].dataRaccolta = result;\r\n        return bottiglie[_idBottiglia].dataRaccolta;\r\n    }\r\n\r\n    function getDatiForniture(uint256 _idBottiglia) public returns(string memory) {\r\n        string memory result = viticoltoreContract.getDatiForniture(_idBottiglia);\r\n        bottiglie[_idBottiglia].datiForniture = result;\r\n        return bottiglie[_idBottiglia].datiForniture;\r\n    }\r\n\r\n    function getDestinazioneUva(uint256 _idBottiglia) public returns(string memory) {\r\n        string memory result = viticoltoreContract.getDestinazioneUva(_idBottiglia);\r\n        bottiglie[_idBottiglia].destinazioneUva = result;\r\n        return bottiglie[_idBottiglia].destinazioneUva;\r\n    }\r\n\r\n    //da Produttore\r\n    function getProdottiVinificazione(uint256 _idBottiglia) public returns(string memory) {\r\n        string memory result = produttoreContract.getProdottiVinificazione(_idBottiglia);\r\n        bottiglie[_idBottiglia].prodottiVinificazione = result;\r\n        return bottiglie[_idBottiglia].prodottiVinificazione;\r\n    }\r\n\r\n    //da Imbottigliatore\r\n    function getSolfiti(uint256 _idBottiglia) public returns(string memory) {\r\n        string memory result = imbottigliatoreContract.getSolfiti(_idBottiglia);\r\n        bottiglie[_idBottiglia].solfiti = result;\r\n        return bottiglie[_idBottiglia].solfiti;\r\n    }\r\n\r\n    function getAllergeni(uint256 _idBottiglia) public  returns(string memory) {\r\n        string memory result = imbottigliatoreContract.getAllergeni(_idBottiglia);\r\n        bottiglie[_idBottiglia].allergeni = result;\r\n        return bottiglie[_idBottiglia].allergeni;\r\n    }\r\n\r\n    function getGradazioneAlcolica(uint256 _idBottiglia) public returns(string memory) {\r\n        (,,  string memory gradazioneAlcolica) = imbottigliatoreContract.getDatiSensoriImbottigliatore(_idBottiglia);\r\n        bottiglie[_idBottiglia].gradazioneAlcolica = gradazioneAlcolica;\r\n        return bottiglie[_idBottiglia].gradazioneAlcolica;\r\n    }\r\n\r\n    function getLocalitaUve(uint256 _idBottiglia) public returns(string memory) {\r\n        string memory result = imbottigliatoreContract.getlocalitaUve(_idBottiglia);\r\n        bottiglie[_idBottiglia].localitaUve = result;\r\n        return bottiglie[_idBottiglia].localitaUve;\r\n    }\r\n\r\n    //da Distributore\r\n    function getTemperaturaTrasporto(uint256 _idBottiglia) public returns(string memory){\r\n        (, string memory temperaturaTrasporto) = distributoreContract.getDatiSensoriDistributore(_idBottiglia);\r\n        bottiglie[_idBottiglia].temperaturaTrasporto = temperaturaTrasporto;\r\n        return bottiglie[_idBottiglia].temperaturaTrasporto;\r\n    }\r\n\r\n    //da Ente Certificatore\r\n    function getValidazione(uint256 _idBottiglia) public returns(string memory) {\r\n        string memory result = enteCertificatoreContract.getValidazione(_idBottiglia);\r\n        bottiglie[_idBottiglia].validazione = result;\r\n        return bottiglie[_idBottiglia].validazione;\r\n    }\r\n\r\n    function getCertificazione(uint256 _idBottiglia) public returns(string memory){\r\n        string memory result = enteCertificatoreContract.getCertificazione(_idBottiglia);\r\n        bottiglie[_idBottiglia].certificazione = result;\r\n        return bottiglie[_idBottiglia].certificazione;\r\n    }\r\n\r\n}",
  "sourcePath": "C:\\Users\\Erman\\OneDrive\\BinTraWine_github\\BinTraWine\\contracts\\Customer.sol",
  "compiler": {
    "name": "solc",
    "version": "0.8.0+commit.c7dfd78e.Emscripten.clang"
  },
  "schemaVersion": "3.4.13",
  "updatedAt": "2023-05-23T16:24:03.068Z",
  "networkType": "quorum",
  "devdoc": {
    "kind": "dev",
    "methods": {},
    "version": 1
  },
  "userdoc": {
    "kind": "user",
    "methods": {},
    "version": 1
  }
}