{
  "contractName": "Distributore",
  "abi": [
    {
      "inputs": [
        {
          "internalType": "address",
          "name": "_imbottigliatoreContractAddress",
          "type": "address"
        }
      ],
      "stateMutability": "nonpayable",
      "type": "constructor"
    },
    {
      "inputs": [
        {
          "internalType": "address",
          "name": "",
          "type": "address"
        }
      ],
      "name": "authorized",
      "outputs": [
        {
          "internalType": "bool",
          "name": "",
          "type": "bool"
        }
      ],
      "stateMutability": "view",
      "type": "function"
    },
    {
      "inputs": [],
      "name": "owner",
      "outputs": [
        {
          "internalType": "address",
          "name": "",
          "type": "address"
        }
      ],
      "stateMutability": "view",
      "type": "function"
    },
    {
      "inputs": [
        {
          "internalType": "address",
          "name": "_address",
          "type": "address"
        }
      ],
      "name": "addAuthorized",
      "outputs": [],
      "stateMutability": "nonpayable",
      "type": "function"
    },
    {
      "inputs": [
        {
          "internalType": "address",
          "name": "_address",
          "type": "address"
        }
      ],
      "name": "removeAuthorized",
      "outputs": [],
      "stateMutability": "nonpayable",
      "type": "function"
    },
    {
      "inputs": [
        {
          "internalType": "string",
          "name": "_destinazione",
          "type": "string"
        }
      ],
      "name": "setDestinazione",
      "outputs": [],
      "stateMutability": "nonpayable",
      "type": "function"
    },
    {
      "inputs": [
        {
          "internalType": "string",
          "name": "_prezzoVendita",
          "type": "string"
        },
        {
          "internalType": "string",
          "name": "_nomeProdotto",
          "type": "string"
        },
        {
          "internalType": "uint256",
          "name": "_quantita",
          "type": "uint256"
        },
        {
          "internalType": "string",
          "name": "_nomeCliente",
          "type": "string"
        },
        {
          "internalType": "string",
          "name": "_dataVendita",
          "type": "string"
        },
        {
          "internalType": "address[]",
          "name": "_addresses",
          "type": "address[]"
        }
      ],
      "name": "setDatiVendita",
      "outputs": [],
      "stateMutability": "nonpayable",
      "type": "function"
    },
    {
      "inputs": [
        {
          "internalType": "uint256",
          "name": "_idLotto",
          "type": "uint256"
        },
        {
          "internalType": "string",
          "name": "_quantitaTrasportata",
          "type": "string"
        },
        {
          "internalType": "string",
          "name": "_temperaturaTrasporto",
          "type": "string"
        }
      ],
      "name": "setSensoriDistributore",
      "outputs": [],
      "stateMutability": "nonpayable",
      "type": "function"
    },
    {
      "inputs": [],
      "name": "getMappaLottiLength",
      "outputs": [
        {
          "internalType": "uint256",
          "name": "",
          "type": "uint256"
        }
      ],
      "stateMutability": "view",
      "type": "function"
    },
    {
      "inputs": [],
      "name": "queryQuantitaTrasportataPerLotto",
      "outputs": [
        {
          "internalType": "string[]",
          "name": "",
          "type": "string[]"
        },
        {
          "internalType": "uint256[]",
          "name": "",
          "type": "uint256[]"
        }
      ],
      "stateMutability": "view",
      "type": "function"
    },
    {
      "inputs": [],
      "name": "getMappingVenditeLength",
      "outputs": [
        {
          "internalType": "uint256",
          "name": "",
          "type": "uint256"
        }
      ],
      "stateMutability": "view",
      "type": "function"
    },
    {
      "inputs": [],
      "name": "queryNomiClientiQuantita",
      "outputs": [
        {
          "internalType": "string[]",
          "name": "",
          "type": "string[]"
        },
        {
          "internalType": "uint256[]",
          "name": "",
          "type": "uint256[]"
        }
      ],
      "stateMutability": "view",
      "type": "function"
    },
    {
      "inputs": [],
      "name": "getIdDestinazioneSerial",
      "outputs": [
        {
          "internalType": "uint256",
          "name": "",
          "type": "uint256"
        }
      ],
      "stateMutability": "view",
      "type": "function"
    },
    {
      "inputs": [],
      "name": "getIdVenditaSerial",
      "outputs": [
        {
          "internalType": "uint256",
          "name": "",
          "type": "uint256"
        }
      ],
      "stateMutability": "view",
      "type": "function"
    },
    {
      "inputs": [
        {
          "internalType": "uint256",
          "name": "_idLotto",
          "type": "uint256"
        }
      ],
      "name": "getDestinazione",
      "outputs": [
        {
          "internalType": "string",
          "name": "",
          "type": "string"
        }
      ],
      "stateMutability": "view",
      "type": "function"
    },
    {
      "inputs": [
        {
          "internalType": "uint256",
          "name": "_idVendita",
          "type": "uint256"
        }
      ],
      "name": "getDatiVendita",
      "outputs": [
        {
          "internalType": "string",
          "name": "",
          "type": "string"
        },
        {
          "internalType": "string",
          "name": "",
          "type": "string"
        },
        {
          "internalType": "uint256",
          "name": "",
          "type": "uint256"
        },
        {
          "internalType": "string",
          "name": "",
          "type": "string"
        },
        {
          "internalType": "string",
          "name": "",
          "type": "string"
        }
      ],
      "stateMutability": "view",
      "type": "function"
    },
    {
      "inputs": [
        {
          "internalType": "uint256",
          "name": "_idLotto",
          "type": "uint256"
        }
      ],
      "name": "getDatiSensoriDistributore",
      "outputs": [
        {
          "internalType": "string",
          "name": "",
          "type": "string"
        },
        {
          "internalType": "string",
          "name": "",
          "type": "string"
        }
      ],
      "stateMutability": "view",
      "type": "function"
    },
    {
      "inputs": [
        {
          "internalType": "uint256",
          "name": "_idLotto",
          "type": "uint256"
        }
      ],
      "name": "getCodiceBarre",
      "outputs": [
        {
          "internalType": "string",
          "name": "",
          "type": "string"
        }
      ],
      "stateMutability": "view",
      "type": "function"
    }
  ],
  "bytecode": "0x6080604052600160075560016008553480156200001b57600080fd5b50604051620026d1380380620026d1833981810160405281019062000041919062000158565b336000806101000a81548173ffffffffffffffffffffffffffffffffffffffff021916908373ffffffffffffffffffffffffffffffffffffffff16021790555060018060008060009054906101000a900473ffffffffffffffffffffffffffffffffffffffff1673ffffffffffffffffffffffffffffffffffffffff1673ffffffffffffffffffffffffffffffffffffffff16815260200190815260200160002060006101000a81548160ff02191690831515021790555080600260006101000a81548173ffffffffffffffffffffffffffffffffffffffff021916908373ffffffffffffffffffffffffffffffffffffffff16021790555050620001d2565b6000815190506200015281620001b8565b92915050565b6000602082840312156200016b57600080fd5b60006200017b8482850162000141565b91505092915050565b6000620001918262000198565b9050919050565b600073ffffffffffffffffffffffffffffffffffffffff82169050919050565b620001c38162000184565b8114620001cf57600080fd5b50565b6124ef80620001e26000396000f3fe608060405234801561001057600080fd5b506004361061010b5760003560e01c80638da5cb5b116100a2578063b918161111610071578063b9181611146102ae578063cf1c316a146102de578063d4be0f26146102fa578063eaed363514610316578063f60e1306146103345761010b565b80638da5cb5b1461020e5780639edd513f1461022c578063a597e00714610260578063ae0235d21461027e5761010b565b8063485d7d94116100de578063485d7d94146101995780635125419c146101b557806381da1b18146101d35780638ae35336146101ef5761010b565b806303747a47146101105780630da52d3c1461012e578063198b51751461015e57806338a776341461017a575b600080fd5b610118610365565b604051610125919061210c565b60405180910390f35b61014860048036038101906101439190611cda565b6103f4565b6040516101559190612024565b60405180910390f35b61017860048036038101906101739190611bd9565b6104ad565b005b61018261088c565b604051610190929190611fd2565b60405180910390f35b6101b360048036038101906101ae9190611b2e565b610af6565b005b6101bd610ba9565b6040516101ca919061210c565b60405180910390f35b6101ed60048036038101906101e89190611d03565b610c09565b005b6101f7610c64565b604051610205929190611fd2565b60405180910390f35b610216611072565b6040516102239190611fb7565b60405180910390f35b61024660048036038101906102419190611cda565b611096565b60405161025795949392919061207d565b60405180910390f35b610268611450565b604051610275919061210c565b60405180910390f35b61029860048036038101906102939190611cda565b6114b0565b6040516102a59190612024565b60405180910390f35b6102c860048036038101906102c39190611b2e565b6115ae565b6040516102d59190612009565b60405180910390f35b6102f860048036038101906102f39190611b2e565b6115ce565b005b610314600480360381019061030f9190611b57565b611628565b005b61031e6116c6565b60405161032b919061210c565b60405180910390f35b61034e60048036038101906103499190611cda565b611755565b60405161035c929190612046565b60405180910390f35b600080600090506000600190505b7fffffffffffffffffffffffffffffffffffffffffffffffffffffffffffffffff8110156103ec5760006003600083815260200190815260200160002060010180546103be90612372565b905014156103cb576103ec565b81806103d6906123a4565b92505080806103e4906123a4565b915050610373565b508091505090565b6060600260009054906101000a900473ffffffffffffffffffffffffffffffffffffffff1673ffffffffffffffffffffffffffffffffffffffff16630da52d3c836040518263ffffffff1660e01b8152600401610451919061210c565b60006040518083038186803b15801561046957600080fd5b505afa15801561047d573d6000803e3d6000fd5b505050506040513d6000823e3d601f19601f820116820180604052508101906104a69190611b98565b9050919050565b600160003373ffffffffffffffffffffffffffffffffffffffff1673ffffffffffffffffffffffffffffffffffffffff16815260200190815260200160002060009054906101000a900460ff1661050357600080fd5b85600460006008548152602001908152602001600020600001908051906020019061052f9291906118fb565b5084600460006008548152602001908152602001600020600101908051906020019061055c9291906118fb565b5083600460006008548152602001908152602001600020600201819055508260046000600854815260200190815260200160002060030190805190602001906105a69291906118fb565b508160046000600854815260200190815260200160002060040190805190602001906105d39291906118fb565b5060006006846040516105e69190611fa0565b9081526020016040518091039020541415806106205750600060068460405161060f9190611fa0565b908152602001604051809103902054145b15610678576000846006856040516106389190611fa0565b908152602001604051809103902054610651919061225e565b9050806006856040516106649190611fa0565b908152602001604051809103902081905550505b60005b815181101561086b57600073ffffffffffffffffffffffffffffffffffffffff168282815181106106d5577f4e487b7100000000000000000000000000000000000000000000000000000000600052603260045260246000fd5b602002602001015173ffffffffffffffffffffffffffffffffffffffff161461085857600160056000600854815260200190815260200160002060003373ffffffffffffffffffffffffffffffffffffffff1673ffffffffffffffffffffffffffffffffffffffff16815260200190815260200160002060006101000a81548160ff021916908315150217905550600160056000600854815260200190815260200160002060008484815181106107b5577f4e487b7100000000000000000000000000000000000000000000000000000000600052603260045260246000fd5b602002602001015173ffffffffffffffffffffffffffffffffffffffff1673ffffffffffffffffffffffffffffffffffffffff16815260200190815260200160002060006101000a81548160ff02191690831515021790555061085782828151811061084a577f4e487b7100000000000000000000000000000000000000000000000000000000600052603260045260246000fd5b60200260200101516115ce565b5b8080610863906123a4565b91505061067b565b506008600081548092919061087f906123a4565b9190505550505050505050565b6060806000610899610365565b905060008167ffffffffffffffff8111156108dd577f4e487b7100000000000000000000000000000000000000000000000000000000600052604160045260246000fd5b60405190808252806020026020018201604052801561091057816020015b60608152602001906001900390816108fb5790505b50905060008267ffffffffffffffff811115610955577f4e487b7100000000000000000000000000000000000000000000000000000000600052604160045260246000fd5b6040519080825280602002602001820160405280156109835781602001602082028036833780820191505090505b5090506000600190505b838111610ae85780826001836109a391906122b4565b815181106109da577f4e487b7100000000000000000000000000000000000000000000000000000000600052603260045260246000fd5b602002602001018181525050600360008281526020019081526020016000206001018054610a0790612372565b80601f0160208091040260200160405190810160405280929190818152602001828054610a3390612372565b8015610a805780601f10610a5557610100808354040283529160200191610a80565b820191906000526020600020905b815481529060010190602001808311610a6357829003601f168201915b505050505083600183610a9391906122b4565b81518110610aca577f4e487b7100000000000000000000000000000000000000000000000000000000600052603260045260246000fd5b60200260200101819052508080610ae0906123a4565b91505061098d565b508181945094505050509091565b60008054906101000a900473ffffffffffffffffffffffffffffffffffffffff1673ffffffffffffffffffffffffffffffffffffffff163373ffffffffffffffffffffffffffffffffffffffff1614610b4e57600080fd5b6000600160008373ffffffffffffffffffffffffffffffffffffffff1673ffffffffffffffffffffffffffffffffffffffff16815260200190815260200160002060006101000a81548160ff02191690831515021790555050565b6000600160003373ffffffffffffffffffffffffffffffffffffffff1673ffffffffffffffffffffffffffffffffffffffff16815260200190815260200160002060009054906101000a900460ff16610c0157600080fd5b600754905090565b81600360008581526020019081526020016000206001019080519060200190610c339291906118fb565b5080600360008581526020019081526020016000206002019080519060200190610c5e9291906118fb565b50505050565b6060806000610c716116c6565b905060008167ffffffffffffffff811115610cb5577f4e487b7100000000000000000000000000000000000000000000000000000000600052604160045260246000fd5b604051908082528060200260200182016040528015610ce857816020015b6060815260200190600190039081610cd35790505b50905060008267ffffffffffffffff811115610d2d577f4e487b7100000000000000000000000000000000000000000000000000000000600052604160045260246000fd5b604051908082528060200260200182016040528015610d5b5781602001602082028036833780820191505090505b50905060008367ffffffffffffffff811115610da0577f4e487b7100000000000000000000000000000000000000000000000000000000600052604160045260246000fd5b604051908082528060200260200182016040528015610dd357816020015b6060815260200190600190039081610dbe5790505b509050600080600190505b85811161105c576000600460008381526020019081526020016000206003018054610e0890612372565b80601f0160208091040260200160405190810160405280929190818152602001828054610e3490612372565b8015610e815780601f10610e5657610100808354040283529160200191610e81565b820191906000526020600020905b815481529060010190602001808311610e6457829003601f168201915b505050505090506000805b84811015610f445782604051602001610ea59190611fa0565b60405160208183030381529060405280519060200120868281518110610ef4577f4e487b7100000000000000000000000000000000000000000000000000000000600052603260045260246000fd5b6020026020010151604051602001610f0c9190611fa0565b604051602081830303815290604052805190602001201415610f315760019150610f44565b8080610f3c906123a4565b915050610e8c565b50806110475781858581518110610f84577f4e487b7100000000000000000000000000000000000000000000000000000000600052603260045260246000fd5b602002602001018190525081878581518110610fc9577f4e487b7100000000000000000000000000000000000000000000000000000000600052603260045260246000fd5b6020026020010181905250600682604051610fe49190611fa0565b90815260200160405180910390205486858151811061102c577f4e487b7100000000000000000000000000000000000000000000000000000000600052603260045260246000fd5b6020026020010181815250508380611043906123a4565b9450505b50508080611054906123a4565b915050610dde565b5080845280835283839650965050505050509091565b60008054906101000a900473ffffffffffffffffffffffffffffffffffffffff1681565b6060806000606080600160003373ffffffffffffffffffffffffffffffffffffffff1673ffffffffffffffffffffffffffffffffffffffff16815260200190815260200160002060009054906101000a900460ff166110f457600080fd5b600115156005600088815260200190815260200160002060003373ffffffffffffffffffffffffffffffffffffffff1673ffffffffffffffffffffffffffffffffffffffff16815260200190815260200160002060009054906101000a900460ff161515141561140c5760046000878152602001908152602001600020600001600460008881526020019081526020016000206001016004600089815260200190815260200160002060020154600460008a8152602001908152602001600020600301600460008b81526020019081526020016000206004018480546111d990612372565b80601f016020809104026020016040519081016040528092919081815260200182805461120590612372565b80156112525780601f1061122757610100808354040283529160200191611252565b820191906000526020600020905b81548152906001019060200180831161123557829003601f168201915b5050505050945083805461126590612372565b80601f016020809104026020016040519081016040528092919081815260200182805461129190612372565b80156112de5780601f106112b3576101008083540402835291602001916112de565b820191906000526020600020905b8154815290600101906020018083116112c157829003601f168201915b505050505093508180546112f190612372565b80601f016020809104026020016040519081016040528092919081815260200182805461131d90612372565b801561136a5780601f1061133f5761010080835404028352916020019161136a565b820191906000526020600020905b81548152906001019060200180831161134d57829003601f168201915b5050505050915080805461137d90612372565b80601f01602080910402602001604051908101604052809291908181526020018280546113a990612372565b80156113f65780601f106113cb576101008083540402835291602001916113f6565b820191906000526020600020905b8154815290600101906020018083116113d957829003601f168201915b5050505050905094509450945094509450611447565b6040517f08c379a000000000000000000000000000000000000000000000000000000000815260040161143e906120ec565b60405180910390fd5b91939590929450565b6000600160003373ffffffffffffffffffffffffffffffffffffffff1673ffffffffffffffffffffffffffffffffffffffff16815260200190815260200160002060009054906101000a900460ff166114a857600080fd5b600854905090565b6060600160003373ffffffffffffffffffffffffffffffffffffffff1673ffffffffffffffffffffffffffffffffffffffff16815260200190815260200160002060009054906101000a900460ff1661150857600080fd5b60036000838152602001908152602001600020600001805461152990612372565b80601f016020809104026020016040519081016040528092919081815260200182805461155590612372565b80156115a25780601f10611577576101008083540402835291602001916115a2565b820191906000526020600020905b81548152906001019060200180831161158557829003601f168201915b50505050509050919050565b60016020528060005260406000206000915054906101000a900460ff1681565b60018060008373ffffffffffffffffffffffffffffffffffffffff1673ffffffffffffffffffffffffffffffffffffffff16815260200190815260200160002060006101000a81548160ff02191690831515021790555050565b600160003373ffffffffffffffffffffffffffffffffffffffff1673ffffffffffffffffffffffffffffffffffffffff16815260200190815260200160002060009054906101000a900460ff1661167e57600080fd5b8060036000600754815260200190815260200160002060000190805190602001906116aa9291906118fb565b50600760008154809291906116be906123a4565b919050555050565b600080600090506000600190505b7fffffffffffffffffffffffffffffffffffffffffffffffffffffffffffffffff81101561174d57600060046000838152602001908152602001600020600001805461171f90612372565b9050141561172c5761174d565b8180611737906123a4565b9250508080611745906123a4565b9150506116d4565b508091505090565b606080600160003373ffffffffffffffffffffffffffffffffffffffff1673ffffffffffffffffffffffffffffffffffffffff16815260200190815260200160002060009054906101000a900460ff166117ae57600080fd5b60036000848152602001908152602001600020600101600360008581526020019081526020016000206002018180546117e690612372565b80601f016020809104026020016040519081016040528092919081815260200182805461181290612372565b801561185f5780601f106118345761010080835404028352916020019161185f565b820191906000526020600020905b81548152906001019060200180831161184257829003601f168201915b5050505050915080805461187290612372565b80601f016020809104026020016040519081016040528092919081815260200182805461189e90612372565b80156118eb5780601f106118c0576101008083540402835291602001916118eb565b820191906000526020600020905b8154815290600101906020018083116118ce57829003601f168201915b5050505050905091509150915091565b82805461190790612372565b90600052602060002090601f0160209004810192826119295760008555611970565b82601f1061194257805160ff1916838001178555611970565b82800160010185558215611970579182015b8281111561196f578251825591602001919060010190611954565b5b50905061197d9190611981565b5090565b5b8082111561199a576000816000905550600101611982565b5090565b60006119b16119ac84612158565b612127565b905080838252602082019050828560208602820111156119d057600080fd5b60005b85811015611a0057816119e68882611a86565b8452602084019350602083019250506001810190506119d3565b5050509392505050565b6000611a1d611a1884612184565b612127565b905082815260208101848484011115611a3557600080fd5b611a40848285612330565b509392505050565b6000611a5b611a5684612184565b612127565b905082815260208101848484011115611a7357600080fd5b611a7e84828561233f565b509392505050565b600081359050611a958161248b565b92915050565b600082601f830112611aac57600080fd5b8135611abc84826020860161199e565b91505092915050565b600082601f830112611ad657600080fd5b8135611ae6848260208601611a0a565b91505092915050565b600082601f830112611b0057600080fd5b8151611b10848260208601611a48565b91505092915050565b600081359050611b28816124a2565b92915050565b600060208284031215611b4057600080fd5b6000611b4e84828501611a86565b91505092915050565b600060208284031215611b6957600080fd5b600082013567ffffffffffffffff811115611b8357600080fd5b611b8f84828501611ac5565b91505092915050565b600060208284031215611baa57600080fd5b600082015167ffffffffffffffff811115611bc457600080fd5b611bd084828501611aef565b91505092915050565b60008060008060008060c08789031215611bf257600080fd5b600087013567ffffffffffffffff811115611c0c57600080fd5b611c1889828a01611ac5565b965050602087013567ffffffffffffffff811115611c3557600080fd5b611c4189828a01611ac5565b9550506040611c5289828a01611b19565b945050606087013567ffffffffffffffff811115611c6f57600080fd5b611c7b89828a01611ac5565b935050608087013567ffffffffffffffff811115611c9857600080fd5b611ca489828a01611ac5565b92505060a087013567ffffffffffffffff811115611cc157600080fd5b611ccd89828a01611a9b565b9150509295509295509295565b600060208284031215611cec57600080fd5b6000611cfa84828501611b19565b91505092915050565b600080600060608486031215611d1857600080fd5b6000611d2686828701611b19565b935050602084013567ffffffffffffffff811115611d4357600080fd5b611d4f86828701611ac5565b925050604084013567ffffffffffffffff811115611d6c57600080fd5b611d7886828701611ac5565b9150509250925092565b6000611d8e8383611e9f565b905092915050565b6000611da28383611f82565b60208301905092915050565b611db7816122e8565b82525050565b6000611dc8826121d4565b611dd2818561220f565b935083602082028501611de4856121b4565b8060005b85811015611e205784840389528151611e018582611d82565b9450611e0c836121f5565b925060208a01995050600181019050611de8565b50829750879550505050505092915050565b6000611e3d826121df565b611e478185612220565b9350611e52836121c4565b8060005b83811015611e83578151611e6a8882611d96565b9750611e7583612202565b925050600181019050611e56565b5085935050505092915050565b611e99816122fa565b82525050565b6000611eaa826121ea565b611eb48185612231565b9350611ec481856020860161233f565b611ecd8161247a565b840191505092915050565b6000611ee3826121ea565b611eed8185612242565b9350611efd81856020860161233f565b611f068161247a565b840191505092915050565b6000611f1c826121ea565b611f268185612253565b9350611f3681856020860161233f565b80840191505092915050565b6000611f4f601683612242565b91507f5574656e7465206e6f6e206175746f72697a7a61746f000000000000000000006000830152602082019050919050565b611f8b81612326565b82525050565b611f9a81612326565b82525050565b6000611fac8284611f11565b915081905092915050565b6000602082019050611fcc6000830184611dae565b92915050565b60006040820190508181036000830152611fec8185611dbd565b905081810360208301526120008184611e32565b90509392505050565b600060208201905061201e6000830184611e90565b92915050565b6000602082019050818103600083015261203e8184611ed8565b905092915050565b600060408201905081810360008301526120608185611ed8565b905081810360208301526120748184611ed8565b90509392505050565b600060a08201905081810360008301526120978188611ed8565b905081810360208301526120ab8187611ed8565b90506120ba6040830186611f91565b81810360608301526120cc8185611ed8565b905081810360808301526120e08184611ed8565b90509695505050505050565b6000602082019050818103600083015261210581611f42565b9050919050565b60006020820190506121216000830184611f91565b92915050565b6000604051905081810181811067ffffffffffffffff8211171561214e5761214d61244b565b5b8060405250919050565b600067ffffffffffffffff8211156121735761217261244b565b5b602082029050602081019050919050565b600067ffffffffffffffff82111561219f5761219e61244b565b5b601f19601f8301169050602081019050919050565b6000819050602082019050919050565b6000819050602082019050919050565b600081519050919050565b600081519050919050565b600081519050919050565b6000602082019050919050565b6000602082019050919050565b600082825260208201905092915050565b600082825260208201905092915050565b600082825260208201905092915050565b600082825260208201905092915050565b600081905092915050565b600061226982612326565b915061227483612326565b9250827fffffffffffffffffffffffffffffffffffffffffffffffffffffffffffffffff038211156122a9576122a86123ed565b5b828201905092915050565b60006122bf82612326565b91506122ca83612326565b9250828210156122dd576122dc6123ed565b5b828203905092915050565b60006122f382612306565b9050919050565b60008115159050919050565b600073ffffffffffffffffffffffffffffffffffffffff82169050919050565b6000819050919050565b82818337600083830152505050565b60005b8381101561235d578082015181840152602081019050612342565b8381111561236c576000848401525b50505050565b6000600282049050600182168061238a57607f821691505b6020821081141561239e5761239d61241c565b5b50919050565b60006123af82612326565b91507fffffffffffffffffffffffffffffffffffffffffffffffffffffffffffffffff8214156123e2576123e16123ed565b5b600182019050919050565b7f4e487b7100000000000000000000000000000000000000000000000000000000600052601160045260246000fd5b7f4e487b7100000000000000000000000000000000000000000000000000000000600052602260045260246000fd5b7f4e487b7100000000000000000000000000000000000000000000000000000000600052604160045260246000fd5b6000601f19601f8301169050919050565b612494816122e8565b811461249f57600080fd5b50565b6124ab81612326565b81146124b657600080fd5b5056fea2646970667358221220dab6aa23233f27f00798022b4f682a06dce70f26f23e7eac1effc2634f96152f64736f6c63430008000033",
  "immutableReferences": {},
  "source": "// SPDX-License-Identifier: MIT\npragma solidity ^0.8.0;\n\nimport \"./Imbottigliatore.sol\";\n\ncontract Distributore {\n\n    //dati per autorizzazioni alle chiamate delle funzioni\n    address public owner;\n    mapping(address => bool) public authorized;\n\n    Imbottigliatore imbottigliatoreContract;\n\n    constructor(address _imbottigliatoreContractAddress) {\n        owner = msg.sender;\n        authorized[owner] = true; //solo per fare test, oppure  un'opzione valida se il deploy viene fatto da ogni singolo attore in maniera indipendente.\n        imbottigliatoreContract = Imbottigliatore(_imbottigliatoreContractAddress);\n    }\n\n    struct DatiDistributore {\n\n        //dati manuali\n        string destinazione;\n        \n        //dati automatici\n        string quantitaTrasportata;\n        string temperaturaTrasporto;\n        string lotto;\n    }\n\n    struct datiVendita {\n        string prezzoVendita;\n        string nomeProdotto;\n        //string quantita;\n        uint256 quantita;\n        string nomeCliente;\n        string dataVendita;\n    }\n\n    mapping(uint256 => DatiDistributore) lotti;\n    mapping(uint256 => datiVendita) vendite;\n    mapping(uint => mapping(address => bool)) allowedAddressesVendite; //mapping per le autirizzazioni sulle get di vendita\n    mapping(string => uint256) nomiQuantita; // MAPPA DI TEST PER DATA AGGREGATION\n   \n    /*identificativi funzioni lotti e vendite*/\n    uint256 idDestinazioneSerial = 1;\n    uint256 idVenditaSerial = 1;\n\n    //funzioni di autorizzazione \n    function addAuthorized(address _address) public {\n        //require(msg.sender == owner);\n        authorized[_address] = true;\n    }\n\n    function removeAuthorized(address _address) public {\n        require(msg.sender == owner);\n        authorized[_address] = false;\n    }\n\n    //inserimento manuale\n    function setDestinazione(string memory _destinazione) public {\n        require(authorized[msg.sender]);\n        lotti[idDestinazioneSerial].destinazione = _destinazione;\n        idDestinazioneSerial++;\n    }\n\n    function setDatiVendita(string memory _prezzoVendita, string memory _nomeProdotto, uint256 _quantita/*string memory _quantita*/, string memory _nomeCliente, \n        string memory _dataVendita, address[] memory _addresses) public {\n        require(authorized[msg.sender]);\n        vendite[idVenditaSerial].prezzoVendita = _prezzoVendita;\n        vendite[idVenditaSerial].nomeProdotto = _nomeProdotto;\n        vendite[idVenditaSerial].quantita = _quantita;\n        vendite[idVenditaSerial].nomeCliente = _nomeCliente;\n        vendite[idVenditaSerial].dataVendita = _dataVendita;\n\n        //nomiQuantita[_nomeCliente] = _quantita; //TEST PER DATA AGGREGATION\n        if(nomiQuantita[_nomeCliente] != 0 || nomiQuantita[_nomeCliente]==0){\n            uint256 temp = nomiQuantita[_nomeCliente] + _quantita;\n            nomiQuantita[_nomeCliente] = temp;\n        }\n        \n        for(uint i=0; i<_addresses.length; i++){ //ciclo necessario a definire gli address forniti in input come \"trusted\"\n            if(_addresses[i] != address(0)){ //entra in azione solo de gli address forniti sono diversi dall'address nullo (0x0000000000000...)\n                allowedAddressesVendite[idVenditaSerial][msg.sender] = true; //TEST\n                allowedAddressesVendite[idVenditaSerial][_addresses[i]] = true; //salva gli address inseriti e li definisce \"trusted\" attraverso il parametro booleano \"true\"\n            \n                addAuthorized(_addresses[i]); //TEST\n            }\n        }\n        \n        idVenditaSerial++;\n    }\n\n    //inserimento automatico\n    function setSensoriDistributore(uint256 _idLotto, string memory _quantitaTrasportata, string memory _temperaturaTrasporto) public {\n\n        lotti[_idLotto].quantitaTrasportata = _quantitaTrasportata;\n        lotti[_idLotto].temperaturaTrasporto = _temperaturaTrasporto;\n    }\n\n    /*query e funzioni di appoggio per data analysis*/\n    function getMappaLottiLength() public view returns(uint256){\n        uint256 count = 0;\n    for (uint256 i = 1; i < type(uint256).max; i++) {\n        if (bytes(lotti[i].quantitaTrasportata).length == 0) {\n            break;\n        }\n        count++;\n    }\n    return count;\n    }\n\n    function queryQuantitaTrasportataPerLotto() public view returns(string[] memory, uint256[] memory){\n        \n        uint256 length = getMappaLottiLength();\n        string[] memory result = new string[](length);\n        uint256[] memory resultLotti = new uint256[](length);\n\n        for(uint256 i=1; i<=length; i++){\n            resultLotti[i-1] = i;\n            result[i-1] = lotti[i].quantitaTrasportata;\n        }\n        return (result, resultLotti);\n    }\n\n    function getMappingVenditeLength() public view returns (uint256) {\n        \n        uint256 count = 0;\n        for (uint256 i = 1; i < type(uint256).max; i++) {\n            if (bytes(vendite[i].prezzoVendita).length == 0) {\n                break;\n            }\n            count++;\n        }\n            return count;\n    }\n\n    //mapping(string => bool) usedNomi; // Keep track of used names\n    function queryNomiClientiQuantita() public view returns (string[] memory, uint256[] memory) {\n        \n        uint256 length = getMappingVenditeLength();\n        string[] memory resultNomi = new string[](length);\n        uint256[] memory resultQuantita = new uint256[](length);\n\n       /* for (uint256 i = 1; i <= length; i++) {\n            //resultNomi[i-1] = vendite[i].nomeCliente;\n            //resultQuantita[i-1] = vendite[i].quantita;\n            \n            resultNomi[i-1] = vendite[i].nomeCliente;\n            resultQuantita[i-1] = nomiQuantita[vendite[i].nomeCliente]; \n        }*/\n        \n        string[] memory usedNomi = new string[](length);\n        uint256 uniqueCount = 0; // Counter for unique names\n\n        for (uint256 i = 1; i <= length; i++) {\n            string memory nomeCliente = vendite[i].nomeCliente;\n            bool isUsed = false;\n\n        // Check if the name has already been used\n        for (uint256 j = 0; j < uniqueCount; j++) {\n            if (keccak256(abi.encodePacked(usedNomi[j])) == keccak256(abi.encodePacked(nomeCliente))) {\n                isUsed = true;\n                break;\n            }\n        }\n\n        if (!isUsed) {\n            usedNomi[uniqueCount] = nomeCliente;\n            resultNomi[uniqueCount] = nomeCliente;\n            resultQuantita[uniqueCount] = nomiQuantita[nomeCliente];\n            uniqueCount++;\n        }\n    }\n\n    // Resize the arrays to remove unused slots\n    assembly {\n        mstore(resultNomi, uniqueCount)\n        mstore(resultQuantita, uniqueCount)\n    }\n\n        return (resultNomi, resultQuantita);\n    } \n\n    //\n\n    //funzioni get\n    function getIdDestinazioneSerial() public view returns(uint256) {\n        require(authorized[msg.sender]);\n        return idDestinazioneSerial;\n    }\n\n    function getIdVenditaSerial() public view returns(uint256) {\n        require(authorized[msg.sender]);\n        return idVenditaSerial;\n    }\n\n    function getDestinazione(uint256 _idLotto) public view returns(string memory) {\n        require(authorized[msg.sender]);\n        return lotti[_idLotto].destinazione;\n    }\n\n    function getDatiVendita(uint256 _idVendita) public view returns(string memory, string memory, uint256/*string memory*/, string memory, string memory) {\n        require(authorized[msg.sender]);\n\n        if (allowedAddressesVendite[_idVendita][msg.sender] == true) { //\"msg.sender\" rappresenta l'address di chi sta chiamando il metodo.\n            return (vendite[_idVendita].prezzoVendita, vendite[_idVendita].nomeProdotto, vendite[_idVendita].quantita, vendite[_idVendita].nomeCliente,\n            vendite[_idVendita].dataVendita);\n        } else {\n            revert(\"Utente non autorizzato\"); //revert() interrompe l'esecuzione della transazione e la annulla, in questo caso mostra anche un messaggio di warning.\n        }\n        \n    }\n\n    function getDatiSensoriDistributore(uint256 _idLotto) public view returns(string memory, string memory) {\n        require(authorized[msg.sender]);\n        return (lotti[_idLotto].quantitaTrasportata, lotti[_idLotto].temperaturaTrasporto);\n    }\n\n    //funzioni di get da Imbottigliatore\n    function getCodiceBarre(uint256 _idLotto) public view returns(string memory) {\n        return imbottigliatoreContract.getCodiceBarre(_idLotto);\n    }\n\n}",
  "sourcePath": "/Users/davidchieregato/BinTraWine/contracts/Distributore.sol",
  "compiler": {
    "name": "solc",
    "version": "0.8.0+commit.c7dfd78e.Emscripten.clang"
  },
  "schemaVersion": "3.4.15",
  "updatedAt": "2023-10-06T11:29:27.888Z",
  "devdoc": {
    "kind": "dev",
    "methods": {},
    "version": 1
  },
  "userdoc": {
    "kind": "user",
    "methods": {},
    "version": 1
  }
}