{
  "contractName": "Distributore",
  "abi": [
    {
      "inputs": [
        {
          "internalType": "address",
          "name": "_imbottigliatoreContractAddress",
          "type": "address"
        }
      ],
      "stateMutability": "nonpayable",
      "type": "constructor"
    },
    {
      "inputs": [
        {
          "internalType": "address",
          "name": "",
          "type": "address"
        }
      ],
      "name": "authorized",
      "outputs": [
        {
          "internalType": "bool",
          "name": "",
          "type": "bool"
        }
      ],
      "stateMutability": "view",
      "type": "function",
      "constant": true
    },
    {
      "inputs": [],
      "name": "owner",
      "outputs": [
        {
          "internalType": "address",
          "name": "",
          "type": "address"
        }
      ],
      "stateMutability": "view",
      "type": "function",
      "constant": true
    },
    {
      "inputs": [
        {
          "internalType": "address",
          "name": "_address",
          "type": "address"
        }
      ],
      "name": "addAuthorized",
      "outputs": [],
      "stateMutability": "nonpayable",
      "type": "function"
    },
    {
      "inputs": [
        {
          "internalType": "address",
          "name": "_address",
          "type": "address"
        }
      ],
      "name": "removeAuthorized",
      "outputs": [],
      "stateMutability": "nonpayable",
      "type": "function"
    },
    {
      "inputs": [
        {
          "internalType": "string",
          "name": "_destinazione",
          "type": "string"
        }
      ],
      "name": "setDestinazione",
      "outputs": [],
      "stateMutability": "nonpayable",
      "type": "function"
    },
    {
      "inputs": [
        {
          "internalType": "string",
          "name": "_prezzoVendita",
          "type": "string"
        },
        {
          "internalType": "string",
          "name": "_nomeProdotto",
          "type": "string"
        },
        {
          "internalType": "string",
          "name": "_quantita",
          "type": "string"
        },
        {
          "internalType": "string",
          "name": "_nomeCliente",
          "type": "string"
        },
        {
          "internalType": "string",
          "name": "_dataVendita",
          "type": "string"
        },
        {
          "internalType": "address[]",
          "name": "_addresses",
          "type": "address[]"
        }
      ],
      "name": "setDatiVendita",
      "outputs": [],
      "stateMutability": "nonpayable",
      "type": "function"
    },
    {
      "inputs": [
        {
          "internalType": "uint256",
          "name": "_idLotto",
          "type": "uint256"
        },
        {
          "internalType": "string",
          "name": "_quantitaTrasportata",
          "type": "string"
        },
        {
          "internalType": "string",
          "name": "_temperaturaTrasporto",
          "type": "string"
        }
      ],
      "name": "setSensoriDistributore",
      "outputs": [],
      "stateMutability": "nonpayable",
      "type": "function"
    },
    {
      "inputs": [],
      "name": "getIdDestinazioneSerial",
      "outputs": [
        {
          "internalType": "uint256",
          "name": "",
          "type": "uint256"
        }
      ],
      "stateMutability": "view",
      "type": "function",
      "constant": true
    },
    {
      "inputs": [],
      "name": "getIdVenditaSerial",
      "outputs": [
        {
          "internalType": "uint256",
          "name": "",
          "type": "uint256"
        }
      ],
      "stateMutability": "view",
      "type": "function",
      "constant": true
    },
    {
      "inputs": [
        {
          "internalType": "uint256",
          "name": "_idLotto",
          "type": "uint256"
        }
      ],
      "name": "getDestinazione",
      "outputs": [
        {
          "internalType": "string",
          "name": "",
          "type": "string"
        }
      ],
      "stateMutability": "view",
      "type": "function",
      "constant": true
    },
    {
      "inputs": [
        {
          "internalType": "uint256",
          "name": "_idVendita",
          "type": "uint256"
        }
      ],
      "name": "getDatiVendita",
      "outputs": [
        {
          "internalType": "string",
          "name": "",
          "type": "string"
        },
        {
          "internalType": "string",
          "name": "",
          "type": "string"
        },
        {
          "internalType": "string",
          "name": "",
          "type": "string"
        },
        {
          "internalType": "string",
          "name": "",
          "type": "string"
        },
        {
          "internalType": "string",
          "name": "",
          "type": "string"
        }
      ],
      "stateMutability": "view",
      "type": "function",
      "constant": true
    },
    {
      "inputs": [
        {
          "internalType": "uint256",
          "name": "_idLotto",
          "type": "uint256"
        }
      ],
      "name": "getDatiSensoriDistributore",
      "outputs": [
        {
          "internalType": "string",
          "name": "",
          "type": "string"
        },
        {
          "internalType": "string",
          "name": "",
          "type": "string"
        }
      ],
      "stateMutability": "view",
      "type": "function",
      "constant": true
    },
    {
      "inputs": [
        {
          "internalType": "uint256",
          "name": "_idLotto",
          "type": "uint256"
        }
      ],
      "name": "getCodiceBarre",
      "outputs": [
        {
          "internalType": "string",
          "name": "",
          "type": "string"
        }
      ],
      "stateMutability": "view",
      "type": "function",
      "constant": true
    }
  ],
  "bytecode": "0x6080604052600160065560016007553480156200001b57600080fd5b5060405162001c3338038062001c338339818101604052810190620000419190620001e9565b336000806101000a81548173ffffffffffffffffffffffffffffffffffffffff021916908373ffffffffffffffffffffffffffffffffffffffff16021790555060018060008060009054906101000a900473ffffffffffffffffffffffffffffffffffffffff1673ffffffffffffffffffffffffffffffffffffffff1673ffffffffffffffffffffffffffffffffffffffff16815260200190815260200160002060006101000a81548160ff02191690831515021790555080600260006101000a81548173ffffffffffffffffffffffffffffffffffffffff021916908373ffffffffffffffffffffffffffffffffffffffff160217905550600260009054906101000a900473ffffffffffffffffffffffffffffffffffffffff1673ffffffffffffffffffffffffffffffffffffffff1663cf1c316a306040518263ffffffff1660e01b815260040162000197919062000226565b600060405180830381600087803b158015620001b257600080fd5b505af1158015620001c7573d6000803e3d6000fd5b505050505062000291565b600081519050620001e38162000277565b92915050565b600060208284031215620001fc57600080fd5b60006200020c84828501620001d2565b91505092915050565b620002208162000243565b82525050565b60006020820190506200023d600083018462000215565b92915050565b6000620002508262000257565b9050919050565b600073ffffffffffffffffffffffffffffffffffffffff82169050919050565b620002828162000243565b81146200028e57600080fd5b50565b61199280620002a16000396000f3fe608060405234801561001057600080fd5b50600436106100cf5760003560e01c8063a597e0071161008c578063cf1c316a11610066578063cf1c316a1461022a578063d4be0f2614610246578063ebd4f57f14610262578063f60e13061461027e576100cf565b8063a597e007146101ac578063ae0235d2146101ca578063b9181611146101fa576100cf565b80630da52d3c146100d4578063485d7d94146101045780635125419c1461012057806381da1b181461013e5780638da5cb5b1461015a5780639edd513f14610178575b600080fd5b6100ee60048036038101906100e99190611454565b6102af565b6040516100fb91906115d8565b60405180910390f35b61011e60048036038101906101199190611290565b610368565b005b61012861041b565b60405161013591906116c7565b60405180910390f35b6101586004803603810190610153919061147d565b61047b565b005b6101626104d6565b60405161016f91906115a2565b60405180910390f35b610192600480360381019061018d9190611454565b6104fa565b6040516101a3959493929190611631565b60405180910390f35b6101b461093f565b6040516101c191906116c7565b60405180910390f35b6101e460048036038101906101df9190611454565b61099f565b6040516101f191906115d8565b60405180910390f35b610214600480360381019061020f9190611290565b610a9d565b60405161022191906115bd565b60405180910390f35b610244600480360381019061023f9190611290565b610abd565b005b610260600480360381019061025b91906112b9565b610b17565b005b61027c6004803603810190610277919061133b565b610bb5565b005b61029860048036038101906102939190611454565b610eb7565b6040516102a69291906115fa565b60405180910390f35b6060600260009054906101000a900473ffffffffffffffffffffffffffffffffffffffff1673ffffffffffffffffffffffffffffffffffffffff16630da52d3c836040518263ffffffff1660e01b815260040161030c91906116c7565b60006040518083038186803b15801561032457600080fd5b505afa158015610338573d6000803e3d6000fd5b505050506040513d6000823e3d601f19601f8201168201806040525081019061036191906112fa565b9050919050565b60008054906101000a900473ffffffffffffffffffffffffffffffffffffffff1673ffffffffffffffffffffffffffffffffffffffff163373ffffffffffffffffffffffffffffffffffffffff16146103c057600080fd5b6000600160008373ffffffffffffffffffffffffffffffffffffffff1673ffffffffffffffffffffffffffffffffffffffff16815260200190815260200160002060006101000a81548160ff02191690831515021790555050565b6000600160003373ffffffffffffffffffffffffffffffffffffffff1673ffffffffffffffffffffffffffffffffffffffff16815260200190815260200160002060009054906101000a900460ff1661047357600080fd5b600654905090565b816003600085815260200190815260200160002060010190805190602001906104a592919061105d565b50806003600085815260200190815260200160002060020190805190602001906104d092919061105d565b50505050565b60008054906101000a900473ffffffffffffffffffffffffffffffffffffffff1681565b6060806060806060600160003373ffffffffffffffffffffffffffffffffffffffff1673ffffffffffffffffffffffffffffffffffffffff16815260200190815260200160002060009054906101000a900460ff1661055857600080fd5b600115156005600088815260200190815260200160002060003373ffffffffffffffffffffffffffffffffffffffff1673ffffffffffffffffffffffffffffffffffffffff16815260200190815260200160002060009054906101000a900460ff16151514156108fb57600460008781526020019081526020016000206000016004600088815260200190815260200160002060010160046000898152602001908152602001600020600201600460008a8152602001908152602001600020600301600460008b815260200190815260200160002060040184805461063c90611815565b80601f016020809104026020016040519081016040528092919081815260200182805461066890611815565b80156106b55780601f1061068a576101008083540402835291602001916106b5565b820191906000526020600020905b81548152906001019060200180831161069857829003601f168201915b505050505094508380546106c890611815565b80601f01602080910402602001604051908101604052809291908181526020018280546106f490611815565b80156107415780601f1061071657610100808354040283529160200191610741565b820191906000526020600020905b81548152906001019060200180831161072457829003601f168201915b5050505050935082805461075490611815565b80601f016020809104026020016040519081016040528092919081815260200182805461078090611815565b80156107cd5780601f106107a2576101008083540402835291602001916107cd565b820191906000526020600020905b8154815290600101906020018083116107b057829003601f168201915b505050505092508180546107e090611815565b80601f016020809104026020016040519081016040528092919081815260200182805461080c90611815565b80156108595780601f1061082e57610100808354040283529160200191610859565b820191906000526020600020905b81548152906001019060200180831161083c57829003601f168201915b5050505050915080805461086c90611815565b80601f016020809104026020016040519081016040528092919081815260200182805461089890611815565b80156108e55780601f106108ba576101008083540402835291602001916108e5565b820191906000526020600020905b8154815290600101906020018083116108c857829003601f168201915b5050505050905094509450945094509450610936565b6040517f08c379a000000000000000000000000000000000000000000000000000000000815260040161092d906116a7565b60405180910390fd5b91939590929450565b6000600160003373ffffffffffffffffffffffffffffffffffffffff1673ffffffffffffffffffffffffffffffffffffffff16815260200190815260200160002060009054906101000a900460ff1661099757600080fd5b600754905090565b6060600160003373ffffffffffffffffffffffffffffffffffffffff1673ffffffffffffffffffffffffffffffffffffffff16815260200190815260200160002060009054906101000a900460ff166109f757600080fd5b600360008381526020019081526020016000206000018054610a1890611815565b80601f0160208091040260200160405190810160405280929190818152602001828054610a4490611815565b8015610a915780601f10610a6657610100808354040283529160200191610a91565b820191906000526020600020905b815481529060010190602001808311610a7457829003601f168201915b50505050509050919050565b60016020528060005260406000206000915054906101000a900460ff1681565b60018060008373ffffffffffffffffffffffffffffffffffffffff1673ffffffffffffffffffffffffffffffffffffffff16815260200190815260200160002060006101000a81548160ff02191690831515021790555050565b600160003373ffffffffffffffffffffffffffffffffffffffff1673ffffffffffffffffffffffffffffffffffffffff16815260200190815260200160002060009054906101000a900460ff16610b6d57600080fd5b806003600060065481526020019081526020016000206000019080519060200190610b9992919061105d565b5060066000815480929190610bad90611847565b919050555050565b600160003373ffffffffffffffffffffffffffffffffffffffff1673ffffffffffffffffffffffffffffffffffffffff16815260200190815260200160002060009054906101000a900460ff16610c0b57600080fd5b856004600060075481526020019081526020016000206000019080519060200190610c3792919061105d565b50846004600060075481526020019081526020016000206001019080519060200190610c6492919061105d565b50836004600060075481526020019081526020016000206002019080519060200190610c9192919061105d565b50826004600060075481526020019081526020016000206003019080519060200190610cbe92919061105d565b50816004600060075481526020019081526020016000206004019080519060200190610ceb92919061105d565b5060005b8151811015610e9657600073ffffffffffffffffffffffffffffffffffffffff16828281518110610d49577f4e487b7100000000000000000000000000000000000000000000000000000000600052603260045260246000fd5b602002602001015173ffffffffffffffffffffffffffffffffffffffff1614610e8357600160056000600754815260200190815260200160002060003373ffffffffffffffffffffffffffffffffffffffff1673ffffffffffffffffffffffffffffffffffffffff16815260200190815260200160002060006101000a81548160ff02191690831515021790555060016005600060075481526020019081526020016000206000848481518110610e29577f4e487b7100000000000000000000000000000000000000000000000000000000600052603260045260246000fd5b602002602001015173ffffffffffffffffffffffffffffffffffffffff1673ffffffffffffffffffffffffffffffffffffffff16815260200190815260200160002060006101000a81548160ff0219169083151502179055505b8080610e8e90611847565b915050610cef565b5060076000815480929190610eaa90611847565b9190505550505050505050565b606080600160003373ffffffffffffffffffffffffffffffffffffffff1673ffffffffffffffffffffffffffffffffffffffff16815260200190815260200160002060009054906101000a900460ff16610f1057600080fd5b6003600084815260200190815260200160002060010160036000858152602001908152602001600020600201818054610f4890611815565b80601f0160208091040260200160405190810160405280929190818152602001828054610f7490611815565b8015610fc15780601f10610f9657610100808354040283529160200191610fc1565b820191906000526020600020905b815481529060010190602001808311610fa457829003601f168201915b50505050509150808054610fd490611815565b80601f016020809104026020016040519081016040528092919081815260200182805461100090611815565b801561104d5780601f106110225761010080835404028352916020019161104d565b820191906000526020600020905b81548152906001019060200180831161103057829003601f168201915b5050505050905091509150915091565b82805461106990611815565b90600052602060002090601f01602090048101928261108b57600085556110d2565b82601f106110a457805160ff19168380011785556110d2565b828001600101855582156110d2579182015b828111156110d15782518255916020019190600101906110b6565b5b5090506110df91906110e3565b5090565b5b808211156110fc5760008160009055506001016110e4565b5090565b600061111361110e84611713565b6116e2565b9050808382526020820190508285602086028201111561113257600080fd5b60005b85811015611162578161114888826111e8565b845260208401935060208301925050600181019050611135565b5050509392505050565b600061117f61117a8461173f565b6116e2565b90508281526020810184848401111561119757600080fd5b6111a28482856117d3565b509392505050565b60006111bd6111b88461173f565b6116e2565b9050828152602081018484840111156111d557600080fd5b6111e08482856117e2565b509392505050565b6000813590506111f78161192e565b92915050565b600082601f83011261120e57600080fd5b813561121e848260208601611100565b91505092915050565b600082601f83011261123857600080fd5b813561124884826020860161116c565b91505092915050565b600082601f83011261126257600080fd5b81516112728482602086016111aa565b91505092915050565b60008135905061128a81611945565b92915050565b6000602082840312156112a257600080fd5b60006112b0848285016111e8565b91505092915050565b6000602082840312156112cb57600080fd5b600082013567ffffffffffffffff8111156112e557600080fd5b6112f184828501611227565b91505092915050565b60006020828403121561130c57600080fd5b600082015167ffffffffffffffff81111561132657600080fd5b61133284828501611251565b91505092915050565b60008060008060008060c0878903121561135457600080fd5b600087013567ffffffffffffffff81111561136e57600080fd5b61137a89828a01611227565b965050602087013567ffffffffffffffff81111561139757600080fd5b6113a389828a01611227565b955050604087013567ffffffffffffffff8111156113c057600080fd5b6113cc89828a01611227565b945050606087013567ffffffffffffffff8111156113e957600080fd5b6113f589828a01611227565b935050608087013567ffffffffffffffff81111561141257600080fd5b61141e89828a01611227565b92505060a087013567ffffffffffffffff81111561143b57600080fd5b61144789828a016111fd565b9150509295509295509295565b60006020828403121561146657600080fd5b60006114748482850161127b565b91505092915050565b60008060006060848603121561149257600080fd5b60006114a08682870161127b565b935050602084013567ffffffffffffffff8111156114bd57600080fd5b6114c986828701611227565b925050604084013567ffffffffffffffff8111156114e657600080fd5b6114f286828701611227565b9150509250925092565b6115058161178b565b82525050565b6115148161179d565b82525050565b60006115258261176f565b61152f818561177a565b935061153f8185602086016117e2565b6115488161191d565b840191505092915050565b600061156060168361177a565b91507f5574656e7465206e6f6e206175746f72697a7a61746f000000000000000000006000830152602082019050919050565b61159c816117c9565b82525050565b60006020820190506115b760008301846114fc565b92915050565b60006020820190506115d2600083018461150b565b92915050565b600060208201905081810360008301526115f2818461151a565b905092915050565b60006040820190508181036000830152611614818561151a565b90508181036020830152611628818461151a565b90509392505050565b600060a082019050818103600083015261164b818861151a565b9050818103602083015261165f818761151a565b90508181036040830152611673818661151a565b90508181036060830152611687818561151a565b9050818103608083015261169b818461151a565b90509695505050505050565b600060208201905081810360008301526116c081611553565b9050919050565b60006020820190506116dc6000830184611593565b92915050565b6000604051905081810181811067ffffffffffffffff82111715611709576117086118ee565b5b8060405250919050565b600067ffffffffffffffff82111561172e5761172d6118ee565b5b602082029050602081019050919050565b600067ffffffffffffffff82111561175a576117596118ee565b5b601f19601f8301169050602081019050919050565b600081519050919050565b600082825260208201905092915050565b6000611796826117a9565b9050919050565b60008115159050919050565b600073ffffffffffffffffffffffffffffffffffffffff82169050919050565b6000819050919050565b82818337600083830152505050565b60005b838110156118005780820151818401526020810190506117e5565b8381111561180f576000848401525b50505050565b6000600282049050600182168061182d57607f821691505b60208210811415611841576118406118bf565b5b50919050565b6000611852826117c9565b91507fffffffffffffffffffffffffffffffffffffffffffffffffffffffffffffffff82141561188557611884611890565b5b600182019050919050565b7f4e487b7100000000000000000000000000000000000000000000000000000000600052601160045260246000fd5b7f4e487b7100000000000000000000000000000000000000000000000000000000600052602260045260246000fd5b7f4e487b7100000000000000000000000000000000000000000000000000000000600052604160045260246000fd5b6000601f19601f8301169050919050565b6119378161178b565b811461194257600080fd5b50565b61194e816117c9565b811461195957600080fd5b5056fea2646970667358221220256e42f15fcda628e1181f711878a1408b73909e9af6f7f3ccdb987cacbcfef864736f6c63430008000033",
  "immutableReferences": {},
  "source": "// SPDX-License-Identifier: MIT\r\npragma solidity ^0.8.0;\r\n\r\nimport \"./Imbottigliatore.sol\";\r\n\r\n\r\ncontract Distributore {\r\n\r\n    //dati per autorizzazioni alle chiamate delle funzioni\r\n    address public owner;\r\n    mapping(address => bool) public authorized;\r\n\r\n    Imbottigliatore imbottigliatoreContract;\r\n    \r\n\r\n    constructor(address _imbottigliatoreContractAddress)  {\r\n        owner = msg.sender;\r\n        authorized[owner] = true; //solo per fare test, oppure  un'opzione valida se il deploy viene fatto da ogni singolo attore in maniera indipendente.\r\n        imbottigliatoreContract = Imbottigliatore(_imbottigliatoreContractAddress);\r\n        imbottigliatoreContract.addAuthorized(address(this));\r\n    }\r\n\r\n    struct DatiDistributore {\r\n\r\n        //dati manuali\r\n        string destinazione;\r\n\r\n        //dati automatici\r\n        string quantitaTrasportata;\r\n        string temperaturaTrasporto;\r\n        string lotto;\r\n    }\r\n\r\n    struct datiVendita {\r\n        string prezzoVendita;\r\n        string nomeProdotto;\r\n        string quantita;\r\n        string nomeCliente;\r\n        string dataVendita;\r\n    }\r\n\r\n    mapping(uint256 => DatiDistributore) lotti;\r\n    mapping(uint256 => datiVendita) vendite;\r\n    mapping(uint => mapping(address => bool)) allowedAddressesVendite; //mapping per le autirizzazioni sulle get di vendita\r\n\r\n    /*identificativi funzioni lotti e vendite*/\r\n    uint256 idDestinazioneSerial = 1;\r\n    uint256 idVenditaSerial = 1;\r\n\r\n    //funzioni di autorizzazione\r\n    function addAuthorized(address _address) public {\r\n        //require(msg.sender == owner); Da tenere solo per testing e comodit, a lavoro definitivo va levata.\r\n        authorized[_address] = true;\r\n    }\r\n\r\n    function removeAuthorized(address _address) public {\r\n        require(msg.sender == owner);\r\n        authorized[_address] = false;\r\n    }\r\n\r\n    //inserimento manuale\r\n    function setDestinazione(string memory _destinazione) public {\r\n        require(authorized[msg.sender]);\r\n        lotti[idDestinazioneSerial].destinazione = _destinazione;\r\n        idDestinazioneSerial++;\r\n    }\r\n\r\n    function setDatiVendita(string memory _prezzoVendita, string memory _nomeProdotto, string memory _quantita, string memory _nomeCliente,\r\n        string memory _dataVendita, address[] memory _addresses) public {\r\n        require(authorized[msg.sender]);\r\n        vendite[idVenditaSerial].prezzoVendita = _prezzoVendita;\r\n        vendite[idVenditaSerial].nomeProdotto = _nomeProdotto;\r\n        vendite[idVenditaSerial].quantita = _quantita;\r\n        vendite[idVenditaSerial].nomeCliente = _nomeCliente;\r\n        vendite[idVenditaSerial].dataVendita = _dataVendita;\r\n\r\n         for(uint i=0; i<_addresses.length; i++){ //ciclo necessario a definire gli address forniti in input come \"trusted\"\r\n            if(_addresses[i] != address(0)){ //entra in azione solo de gli address forniti sono diversi dall'address nullo (0x0000000000000...)\r\n                allowedAddressesVendite[idVenditaSerial][msg.sender] = true; //TEST\r\n                allowedAddressesVendite[idVenditaSerial][_addresses[i]] = true; //salva gli address inseriti e li definisce \"trusted\" attraverso il parametro booleano \"true\"\r\n            }\r\n        }\r\n\r\n        idVenditaSerial++;\r\n    }\r\n\r\n    //inserimento automatico\r\n    function setSensoriDistributore(uint256 _idLotto, string memory _quantitaTrasportata, string memory _temperaturaTrasporto) public {\r\n\r\n        lotti[_idLotto].quantitaTrasportata = _quantitaTrasportata;\r\n        lotti[_idLotto].temperaturaTrasporto = _temperaturaTrasporto;\r\n        //customerContract.setTemperaturaTrasporto(_idLotto, _temperaturaTrasporto);\r\n    }\r\n\r\n    //funzioni get\r\n    function getIdDestinazioneSerial() public view returns(uint256) {\r\n        require(authorized[msg.sender]);\r\n        return idDestinazioneSerial;\r\n    }\r\n\r\n    function getIdVenditaSerial() public view returns(uint256) {\r\n        require(authorized[msg.sender]);\r\n        return idVenditaSerial;\r\n    }\r\n\r\n    function getDestinazione(uint256 _idLotto) public view returns(string memory) {\r\n        require(authorized[msg.sender]);\r\n        return lotti[_idLotto].destinazione;\r\n    }\r\n\r\n    function getDatiVendita(uint256 _idVendita) public view returns(string memory, string memory, string memory, string memory, string memory) {\r\n        require(authorized[msg.sender]);\r\n        \r\n        if (allowedAddressesVendite[_idVendita][msg.sender] == true) { //\"msg.sender\" rappresenta l'address di chi sta chiamando il metodo.\r\n            return (vendite[_idVendita].prezzoVendita, vendite[_idVendita].nomeProdotto, vendite[_idVendita].quantita, vendite[_idVendita].nomeCliente,\r\n            vendite[_idVendita].dataVendita);\r\n        } else {\r\n            revert(\"Utente non autorizzato\"); //revert() interrompe l'esecuzione della transazione e la annulla, in questo caso mostra anche un messaggio di warning.\r\n        }\r\n    }\r\n\r\n    function getDatiSensoriDistributore(uint256 _idLotto) public view returns(string memory, string memory) {\r\n        require(authorized[msg.sender]);\r\n        return (lotti[_idLotto].quantitaTrasportata, lotti[_idLotto].temperaturaTrasporto);\r\n    }\r\n\r\n    //funzioni di get da Imbottigliatore\r\n    function getCodiceBarre(uint256 _idLotto) public view returns(string memory) {\r\n        return imbottigliatoreContract.getCodiceBarre(_idLotto);\r\n    }\r\n\r\n}\r\n",
  "sourcePath": "C:\\Users\\Erman\\OneDrive\\BinTraWine_github\\BinTraWine\\contracts\\Distributore.sol",
  "compiler": {
    "name": "solc",
    "version": "0.8.0+commit.c7dfd78e.Emscripten.clang"
  },
  "schemaVersion": "3.4.13",
  "updatedAt": "2023-07-03T12:40:13.316Z",
  "networkType": "quorum",
  "devdoc": {
    "kind": "dev",
    "methods": {},
    "version": 1
  },
  "userdoc": {
    "kind": "user",
    "methods": {},
    "version": 1
  }
}