{
  "contractName": "Distributore",
  "abi": [
    {
      "inputs": [
        {
          "internalType": "address",
          "name": "_imbottigliatoreContractAddress",
          "type": "address"
        }
      ],
      "stateMutability": "nonpayable",
      "type": "constructor"
    },
    {
      "inputs": [
        {
          "internalType": "address",
          "name": "",
          "type": "address"
        }
      ],
      "name": "authorized",
      "outputs": [
        {
          "internalType": "bool",
          "name": "",
          "type": "bool"
        }
      ],
      "stateMutability": "view",
      "type": "function",
      "constant": true
    },
    {
      "inputs": [],
      "name": "owner",
      "outputs": [
        {
          "internalType": "address",
          "name": "",
          "type": "address"
        }
      ],
      "stateMutability": "view",
      "type": "function",
      "constant": true
    },
    {
      "inputs": [
        {
          "internalType": "address",
          "name": "_address",
          "type": "address"
        }
      ],
      "name": "addAuthorized",
      "outputs": [],
      "stateMutability": "nonpayable",
      "type": "function"
    },
    {
      "inputs": [
        {
          "internalType": "address",
          "name": "_address",
          "type": "address"
        }
      ],
      "name": "removeAuthorized",
      "outputs": [],
      "stateMutability": "nonpayable",
      "type": "function"
    },
    {
      "inputs": [
        {
          "internalType": "string",
          "name": "_destinazione",
          "type": "string"
        }
      ],
      "name": "setDestinazione",
      "outputs": [],
      "stateMutability": "nonpayable",
      "type": "function"
    },
    {
      "inputs": [
        {
          "internalType": "string",
          "name": "_prezzoVendita",
          "type": "string"
        },
        {
          "internalType": "string",
          "name": "_nomeProdotto",
          "type": "string"
        },
        {
          "internalType": "uint256",
          "name": "_quantita",
          "type": "uint256"
        },
        {
          "internalType": "string",
          "name": "_nomeCliente",
          "type": "string"
        },
        {
          "internalType": "string",
          "name": "_dataVendita",
          "type": "string"
        },
        {
          "internalType": "address[]",
          "name": "_addresses",
          "type": "address[]"
        }
      ],
      "name": "setDatiVendita",
      "outputs": [],
      "stateMutability": "nonpayable",
      "type": "function"
    },
    {
      "inputs": [
        {
          "internalType": "uint256",
          "name": "_idLotto",
          "type": "uint256"
        },
        {
          "internalType": "string",
          "name": "_quantitaTrasportata",
          "type": "string"
        },
        {
          "internalType": "string",
          "name": "_temperaturaTrasporto",
          "type": "string"
        }
      ],
      "name": "setSensoriDistributore",
      "outputs": [],
      "stateMutability": "nonpayable",
      "type": "function"
    },
    {
      "inputs": [],
      "name": "getMappaLottiLength",
      "outputs": [
        {
          "internalType": "uint256",
          "name": "",
          "type": "uint256"
        }
      ],
      "stateMutability": "view",
      "type": "function",
      "constant": true
    },
    {
      "inputs": [],
      "name": "queryQuantitaTrasportataPerLotto",
      "outputs": [
        {
          "internalType": "string[]",
          "name": "",
          "type": "string[]"
        },
        {
          "internalType": "uint256[]",
          "name": "",
          "type": "uint256[]"
        }
      ],
      "stateMutability": "view",
      "type": "function",
      "constant": true
    },
    {
      "inputs": [],
      "name": "getMappingVenditeLength",
      "outputs": [
        {
          "internalType": "uint256",
          "name": "",
          "type": "uint256"
        }
      ],
      "stateMutability": "view",
      "type": "function",
      "constant": true
    },
    {
      "inputs": [],
      "name": "queryNomiClientiQuantita",
      "outputs": [
        {
          "internalType": "string[]",
          "name": "",
          "type": "string[]"
        },
        {
          "internalType": "uint256[]",
          "name": "",
          "type": "uint256[]"
        }
      ],
      "stateMutability": "view",
      "type": "function",
      "constant": true
    },
    {
      "inputs": [],
      "name": "getIdDestinazioneSerial",
      "outputs": [
        {
          "internalType": "uint256",
          "name": "",
          "type": "uint256"
        }
      ],
      "stateMutability": "view",
      "type": "function",
      "constant": true
    },
    {
      "inputs": [],
      "name": "getIdVenditaSerial",
      "outputs": [
        {
          "internalType": "uint256",
          "name": "",
          "type": "uint256"
        }
      ],
      "stateMutability": "view",
      "type": "function",
      "constant": true
    },
    {
      "inputs": [
        {
          "internalType": "uint256",
          "name": "_idLotto",
          "type": "uint256"
        }
      ],
      "name": "getDestinazione",
      "outputs": [
        {
          "internalType": "string",
          "name": "",
          "type": "string"
        }
      ],
      "stateMutability": "view",
      "type": "function",
      "constant": true
    },
    {
      "inputs": [
        {
          "internalType": "uint256",
          "name": "_idVendita",
          "type": "uint256"
        }
      ],
      "name": "getDatiVendita",
      "outputs": [
        {
          "internalType": "string",
          "name": "",
          "type": "string"
        },
        {
          "internalType": "string",
          "name": "",
          "type": "string"
        },
        {
          "internalType": "uint256",
          "name": "",
          "type": "uint256"
        },
        {
          "internalType": "string",
          "name": "",
          "type": "string"
        },
        {
          "internalType": "string",
          "name": "",
          "type": "string"
        }
      ],
      "stateMutability": "view",
      "type": "function",
      "constant": true
    },
    {
      "inputs": [
        {
          "internalType": "uint256",
          "name": "_idLotto",
          "type": "uint256"
        }
      ],
      "name": "getDatiSensoriDistributore",
      "outputs": [
        {
          "internalType": "string",
          "name": "",
          "type": "string"
        },
        {
          "internalType": "string",
          "name": "",
          "type": "string"
        }
      ],
      "stateMutability": "view",
      "type": "function",
      "constant": true
    },
    {
      "inputs": [
        {
          "internalType": "uint256",
          "name": "_idLotto",
          "type": "uint256"
        }
      ],
      "name": "getCodiceBarre",
      "outputs": [
        {
          "internalType": "string",
          "name": "",
          "type": "string"
        }
      ],
      "stateMutability": "view",
      "type": "function",
      "constant": true
    }
  ],
  "bytecode": "0x6080604052600160075560016008553480156200001b57600080fd5b506040516200261d3803806200261d833981810160405281019062000041919062000158565b336000806101000a81548173ffffffffffffffffffffffffffffffffffffffff021916908373ffffffffffffffffffffffffffffffffffffffff16021790555060018060008060009054906101000a900473ffffffffffffffffffffffffffffffffffffffff1673ffffffffffffffffffffffffffffffffffffffff1673ffffffffffffffffffffffffffffffffffffffff16815260200190815260200160002060006101000a81548160ff02191690831515021790555080600260006101000a81548173ffffffffffffffffffffffffffffffffffffffff021916908373ffffffffffffffffffffffffffffffffffffffff16021790555050620001d2565b6000815190506200015281620001b8565b92915050565b6000602082840312156200016b57600080fd5b60006200017b8482850162000141565b91505092915050565b6000620001918262000198565b9050919050565b600073ffffffffffffffffffffffffffffffffffffffff82169050919050565b620001c38162000184565b8114620001cf57600080fd5b50565b61243b80620001e26000396000f3fe608060405234801561001057600080fd5b506004361061010b5760003560e01c80638da5cb5b116100a2578063b918161111610071578063b9181611146102ae578063cf1c316a146102de578063d4be0f26146102fa578063eaed363514610316578063f60e1306146103345761010b565b80638da5cb5b1461020e5780639edd513f1461022c578063a597e00714610260578063ae0235d21461027e5761010b565b8063485d7d94116100de578063485d7d94146101995780635125419c146101b557806381da1b18146101d35780638ae35336146101ef5761010b565b806303747a47146101105780630da52d3c1461012e578063198b51751461015e57806338a776341461017a575b600080fd5b610118610365565b6040516101259190612058565b60405180910390f35b61014860048036038101906101439190611c26565b6103f4565b6040516101559190611f70565b60405180910390f35b61017860048036038101906101739190611b25565b6104ad565b005b6101826107d8565b604051610190929190611f1e565b60405180910390f35b6101b360048036038101906101ae9190611a7a565b610a42565b005b6101bd610af5565b6040516101ca9190612058565b60405180910390f35b6101ed60048036038101906101e89190611c4f565b610b55565b005b6101f7610bb0565b604051610205929190611f1e565b60405180910390f35b610216610fbe565b6040516102239190611f03565b60405180910390f35b61024660048036038101906102419190611c26565b610fe2565b604051610257959493929190611fc9565b60405180910390f35b61026861139c565b6040516102759190612058565b60405180910390f35b61029860048036038101906102939190611c26565b6113fc565b6040516102a59190611f70565b60405180910390f35b6102c860048036038101906102c39190611a7a565b6114fa565b6040516102d59190611f55565b60405180910390f35b6102f860048036038101906102f39190611a7a565b61151a565b005b610314600480360381019061030f9190611aa3565b611574565b005b61031e611612565b60405161032b9190612058565b60405180910390f35b61034e60048036038101906103499190611c26565b6116a1565b60405161035c929190611f92565b60405180910390f35b600080600090506000600190505b7fffffffffffffffffffffffffffffffffffffffffffffffffffffffffffffffff8110156103ec5760006003600083815260200190815260200160002060010180546103be906122be565b905014156103cb576103ec565b81806103d6906122f0565b92505080806103e4906122f0565b915050610373565b508091505090565b6060600260009054906101000a900473ffffffffffffffffffffffffffffffffffffffff1673ffffffffffffffffffffffffffffffffffffffff16630da52d3c836040518263ffffffff1660e01b81526004016104519190612058565b60006040518083038186803b15801561046957600080fd5b505afa15801561047d573d6000803e3d6000fd5b505050506040513d6000823e3d601f19601f820116820180604052508101906104a69190611ae4565b9050919050565b600160003373ffffffffffffffffffffffffffffffffffffffff1673ffffffffffffffffffffffffffffffffffffffff16815260200190815260200160002060009054906101000a900460ff1661050357600080fd5b85600460006008548152602001908152602001600020600001908051906020019061052f929190611847565b5084600460006008548152602001908152602001600020600101908051906020019061055c929190611847565b5083600460006008548152602001908152602001600020600201819055508260046000600854815260200190815260200160002060030190805190602001906105a6929190611847565b508160046000600854815260200190815260200160002060040190805190602001906105d3929190611847565b5060006006846040516105e69190611eec565b9081526020016040518091039020541415806106205750600060068460405161060f9190611eec565b908152602001604051809103902054145b15610678576000846006856040516106389190611eec565b90815260200160405180910390205461065191906121aa565b9050806006856040516106649190611eec565b908152602001604051809103902081905550505b60005b81518110156107b757600073ffffffffffffffffffffffffffffffffffffffff168282815181106106d5577f4e487b7100000000000000000000000000000000000000000000000000000000600052603260045260246000fd5b602002602001015173ffffffffffffffffffffffffffffffffffffffff16146107a4576001600560006008548152602001908152602001600020600084848151811061074a577f4e487b7100000000000000000000000000000000000000000000000000000000600052603260045260246000fd5b602002602001015173ffffffffffffffffffffffffffffffffffffffff1673ffffffffffffffffffffffffffffffffffffffff16815260200190815260200160002060006101000a81548160ff0219169083151502179055505b80806107af906122f0565b91505061067b565b50600860008154809291906107cb906122f0565b9190505550505050505050565b60608060006107e5610365565b905060008167ffffffffffffffff811115610829577f4e487b7100000000000000000000000000000000000000000000000000000000600052604160045260246000fd5b60405190808252806020026020018201604052801561085c57816020015b60608152602001906001900390816108475790505b50905060008267ffffffffffffffff8111156108a1577f4e487b7100000000000000000000000000000000000000000000000000000000600052604160045260246000fd5b6040519080825280602002602001820160405280156108cf5781602001602082028036833780820191505090505b5090506000600190505b838111610a345780826001836108ef9190612200565b81518110610926577f4e487b7100000000000000000000000000000000000000000000000000000000600052603260045260246000fd5b602002602001018181525050600360008281526020019081526020016000206001018054610953906122be565b80601f016020809104026020016040519081016040528092919081815260200182805461097f906122be565b80156109cc5780601f106109a1576101008083540402835291602001916109cc565b820191906000526020600020905b8154815290600101906020018083116109af57829003601f168201915b5050505050836001836109df9190612200565b81518110610a16577f4e487b7100000000000000000000000000000000000000000000000000000000600052603260045260246000fd5b60200260200101819052508080610a2c906122f0565b9150506108d9565b508181945094505050509091565b60008054906101000a900473ffffffffffffffffffffffffffffffffffffffff1673ffffffffffffffffffffffffffffffffffffffff163373ffffffffffffffffffffffffffffffffffffffff1614610a9a57600080fd5b6000600160008373ffffffffffffffffffffffffffffffffffffffff1673ffffffffffffffffffffffffffffffffffffffff16815260200190815260200160002060006101000a81548160ff02191690831515021790555050565b6000600160003373ffffffffffffffffffffffffffffffffffffffff1673ffffffffffffffffffffffffffffffffffffffff16815260200190815260200160002060009054906101000a900460ff16610b4d57600080fd5b600754905090565b81600360008581526020019081526020016000206001019080519060200190610b7f929190611847565b5080600360008581526020019081526020016000206002019080519060200190610baa929190611847565b50505050565b6060806000610bbd611612565b905060008167ffffffffffffffff811115610c01577f4e487b7100000000000000000000000000000000000000000000000000000000600052604160045260246000fd5b604051908082528060200260200182016040528015610c3457816020015b6060815260200190600190039081610c1f5790505b50905060008267ffffffffffffffff811115610c79577f4e487b7100000000000000000000000000000000000000000000000000000000600052604160045260246000fd5b604051908082528060200260200182016040528015610ca75781602001602082028036833780820191505090505b50905060008367ffffffffffffffff811115610cec577f4e487b7100000000000000000000000000000000000000000000000000000000600052604160045260246000fd5b604051908082528060200260200182016040528015610d1f57816020015b6060815260200190600190039081610d0a5790505b509050600080600190505b858111610fa8576000600460008381526020019081526020016000206003018054610d54906122be565b80601f0160208091040260200160405190810160405280929190818152602001828054610d80906122be565b8015610dcd5780601f10610da257610100808354040283529160200191610dcd565b820191906000526020600020905b815481529060010190602001808311610db057829003601f168201915b505050505090506000805b84811015610e905782604051602001610df19190611eec565b60405160208183030381529060405280519060200120868281518110610e40577f4e487b7100000000000000000000000000000000000000000000000000000000600052603260045260246000fd5b6020026020010151604051602001610e589190611eec565b604051602081830303815290604052805190602001201415610e7d5760019150610e90565b8080610e88906122f0565b915050610dd8565b5080610f935781858581518110610ed0577f4e487b7100000000000000000000000000000000000000000000000000000000600052603260045260246000fd5b602002602001018190525081878581518110610f15577f4e487b7100000000000000000000000000000000000000000000000000000000600052603260045260246000fd5b6020026020010181905250600682604051610f309190611eec565b908152602001604051809103902054868581518110610f78577f4e487b7100000000000000000000000000000000000000000000000000000000600052603260045260246000fd5b6020026020010181815250508380610f8f906122f0565b9450505b50508080610fa0906122f0565b915050610d2a565b5080845280835283839650965050505050509091565b60008054906101000a900473ffffffffffffffffffffffffffffffffffffffff1681565b6060806000606080600160003373ffffffffffffffffffffffffffffffffffffffff1673ffffffffffffffffffffffffffffffffffffffff16815260200190815260200160002060009054906101000a900460ff1661104057600080fd5b600115156005600088815260200190815260200160002060003373ffffffffffffffffffffffffffffffffffffffff1673ffffffffffffffffffffffffffffffffffffffff16815260200190815260200160002060009054906101000a900460ff16151514156113585760046000878152602001908152602001600020600001600460008881526020019081526020016000206001016004600089815260200190815260200160002060020154600460008a8152602001908152602001600020600301600460008b8152602001908152602001600020600401848054611125906122be565b80601f0160208091040260200160405190810160405280929190818152602001828054611151906122be565b801561119e5780601f106111735761010080835404028352916020019161119e565b820191906000526020600020905b81548152906001019060200180831161118157829003601f168201915b505050505094508380546111b1906122be565b80601f01602080910402602001604051908101604052809291908181526020018280546111dd906122be565b801561122a5780601f106111ff5761010080835404028352916020019161122a565b820191906000526020600020905b81548152906001019060200180831161120d57829003601f168201915b5050505050935081805461123d906122be565b80601f0160208091040260200160405190810160405280929190818152602001828054611269906122be565b80156112b65780601f1061128b576101008083540402835291602001916112b6565b820191906000526020600020905b81548152906001019060200180831161129957829003601f168201915b505050505091508080546112c9906122be565b80601f01602080910402602001604051908101604052809291908181526020018280546112f5906122be565b80156113425780601f1061131757610100808354040283529160200191611342565b820191906000526020600020905b81548152906001019060200180831161132557829003601f168201915b5050505050905094509450945094509450611393565b6040517f08c379a000000000000000000000000000000000000000000000000000000000815260040161138a90612038565b60405180910390fd5b91939590929450565b6000600160003373ffffffffffffffffffffffffffffffffffffffff1673ffffffffffffffffffffffffffffffffffffffff16815260200190815260200160002060009054906101000a900460ff166113f457600080fd5b600854905090565b6060600160003373ffffffffffffffffffffffffffffffffffffffff1673ffffffffffffffffffffffffffffffffffffffff16815260200190815260200160002060009054906101000a900460ff1661145457600080fd5b600360008381526020019081526020016000206000018054611475906122be565b80601f01602080910402602001604051908101604052809291908181526020018280546114a1906122be565b80156114ee5780601f106114c3576101008083540402835291602001916114ee565b820191906000526020600020905b8154815290600101906020018083116114d157829003601f168201915b50505050509050919050565b60016020528060005260406000206000915054906101000a900460ff1681565b60018060008373ffffffffffffffffffffffffffffffffffffffff1673ffffffffffffffffffffffffffffffffffffffff16815260200190815260200160002060006101000a81548160ff02191690831515021790555050565b600160003373ffffffffffffffffffffffffffffffffffffffff1673ffffffffffffffffffffffffffffffffffffffff16815260200190815260200160002060009054906101000a900460ff166115ca57600080fd5b8060036000600754815260200190815260200160002060000190805190602001906115f6929190611847565b506007600081548092919061160a906122f0565b919050555050565b600080600090506000600190505b7fffffffffffffffffffffffffffffffffffffffffffffffffffffffffffffffff81101561169957600060046000838152602001908152602001600020600001805461166b906122be565b9050141561167857611699565b8180611683906122f0565b9250508080611691906122f0565b915050611620565b508091505090565b606080600160003373ffffffffffffffffffffffffffffffffffffffff1673ffffffffffffffffffffffffffffffffffffffff16815260200190815260200160002060009054906101000a900460ff166116fa57600080fd5b6003600084815260200190815260200160002060010160036000858152602001908152602001600020600201818054611732906122be565b80601f016020809104026020016040519081016040528092919081815260200182805461175e906122be565b80156117ab5780601f10611780576101008083540402835291602001916117ab565b820191906000526020600020905b81548152906001019060200180831161178e57829003601f168201915b505050505091508080546117be906122be565b80601f01602080910402602001604051908101604052809291908181526020018280546117ea906122be565b80156118375780601f1061180c57610100808354040283529160200191611837565b820191906000526020600020905b81548152906001019060200180831161181a57829003601f168201915b5050505050905091509150915091565b828054611853906122be565b90600052602060002090601f01602090048101928261187557600085556118bc565b82601f1061188e57805160ff19168380011785556118bc565b828001600101855582156118bc579182015b828111156118bb5782518255916020019190600101906118a0565b5b5090506118c991906118cd565b5090565b5b808211156118e65760008160009055506001016118ce565b5090565b60006118fd6118f8846120a4565b612073565b9050808382526020820190508285602086028201111561191c57600080fd5b60005b8581101561194c578161193288826119d2565b84526020840193506020830192505060018101905061191f565b5050509392505050565b6000611969611964846120d0565b612073565b90508281526020810184848401111561198157600080fd5b61198c84828561227c565b509392505050565b60006119a76119a2846120d0565b612073565b9050828152602081018484840111156119bf57600080fd5b6119ca84828561228b565b509392505050565b6000813590506119e1816123d7565b92915050565b600082601f8301126119f857600080fd5b8135611a088482602086016118ea565b91505092915050565b600082601f830112611a2257600080fd5b8135611a32848260208601611956565b91505092915050565b600082601f830112611a4c57600080fd5b8151611a5c848260208601611994565b91505092915050565b600081359050611a74816123ee565b92915050565b600060208284031215611a8c57600080fd5b6000611a9a848285016119d2565b91505092915050565b600060208284031215611ab557600080fd5b600082013567ffffffffffffffff811115611acf57600080fd5b611adb84828501611a11565b91505092915050565b600060208284031215611af657600080fd5b600082015167ffffffffffffffff811115611b1057600080fd5b611b1c84828501611a3b565b91505092915050565b60008060008060008060c08789031215611b3e57600080fd5b600087013567ffffffffffffffff811115611b5857600080fd5b611b6489828a01611a11565b965050602087013567ffffffffffffffff811115611b8157600080fd5b611b8d89828a01611a11565b9550506040611b9e89828a01611a65565b945050606087013567ffffffffffffffff811115611bbb57600080fd5b611bc789828a01611a11565b935050608087013567ffffffffffffffff811115611be457600080fd5b611bf089828a01611a11565b92505060a087013567ffffffffffffffff811115611c0d57600080fd5b611c1989828a016119e7565b9150509295509295509295565b600060208284031215611c3857600080fd5b6000611c4684828501611a65565b91505092915050565b600080600060608486031215611c6457600080fd5b6000611c7286828701611a65565b935050602084013567ffffffffffffffff811115611c8f57600080fd5b611c9b86828701611a11565b925050604084013567ffffffffffffffff811115611cb857600080fd5b611cc486828701611a11565b9150509250925092565b6000611cda8383611deb565b905092915050565b6000611cee8383611ece565b60208301905092915050565b611d0381612234565b82525050565b6000611d1482612120565b611d1e818561215b565b935083602082028501611d3085612100565b8060005b85811015611d6c5784840389528151611d4d8582611cce565b9450611d5883612141565b925060208a01995050600181019050611d34565b50829750879550505050505092915050565b6000611d898261212b565b611d93818561216c565b9350611d9e83612110565b8060005b83811015611dcf578151611db68882611ce2565b9750611dc18361214e565b925050600181019050611da2565b5085935050505092915050565b611de581612246565b82525050565b6000611df682612136565b611e00818561217d565b9350611e1081856020860161228b565b611e19816123c6565b840191505092915050565b6000611e2f82612136565b611e39818561218e565b9350611e4981856020860161228b565b611e52816123c6565b840191505092915050565b6000611e6882612136565b611e72818561219f565b9350611e8281856020860161228b565b80840191505092915050565b6000611e9b60168361218e565b91507f5574656e7465206e6f6e206175746f72697a7a61746f000000000000000000006000830152602082019050919050565b611ed781612272565b82525050565b611ee681612272565b82525050565b6000611ef88284611e5d565b915081905092915050565b6000602082019050611f186000830184611cfa565b92915050565b60006040820190508181036000830152611f388185611d09565b90508181036020830152611f4c8184611d7e565b90509392505050565b6000602082019050611f6a6000830184611ddc565b92915050565b60006020820190508181036000830152611f8a8184611e24565b905092915050565b60006040820190508181036000830152611fac8185611e24565b90508181036020830152611fc08184611e24565b90509392505050565b600060a0820190508181036000830152611fe38188611e24565b90508181036020830152611ff78187611e24565b90506120066040830186611edd565b81810360608301526120188185611e24565b9050818103608083015261202c8184611e24565b90509695505050505050565b6000602082019050818103600083015261205181611e8e565b9050919050565b600060208201905061206d6000830184611edd565b92915050565b6000604051905081810181811067ffffffffffffffff8211171561209a57612099612397565b5b8060405250919050565b600067ffffffffffffffff8211156120bf576120be612397565b5b602082029050602081019050919050565b600067ffffffffffffffff8211156120eb576120ea612397565b5b601f19601f8301169050602081019050919050565b6000819050602082019050919050565b6000819050602082019050919050565b600081519050919050565b600081519050919050565b600081519050919050565b6000602082019050919050565b6000602082019050919050565b600082825260208201905092915050565b600082825260208201905092915050565b600082825260208201905092915050565b600082825260208201905092915050565b600081905092915050565b60006121b582612272565b91506121c083612272565b9250827fffffffffffffffffffffffffffffffffffffffffffffffffffffffffffffffff038211156121f5576121f4612339565b5b828201905092915050565b600061220b82612272565b915061221683612272565b92508282101561222957612228612339565b5b828203905092915050565b600061223f82612252565b9050919050565b60008115159050919050565b600073ffffffffffffffffffffffffffffffffffffffff82169050919050565b6000819050919050565b82818337600083830152505050565b60005b838110156122a957808201518184015260208101905061228e565b838111156122b8576000848401525b50505050565b600060028204905060018216806122d657607f821691505b602082108114156122ea576122e9612368565b5b50919050565b60006122fb82612272565b91507fffffffffffffffffffffffffffffffffffffffffffffffffffffffffffffffff82141561232e5761232d612339565b5b600182019050919050565b7f4e487b7100000000000000000000000000000000000000000000000000000000600052601160045260246000fd5b7f4e487b7100000000000000000000000000000000000000000000000000000000600052602260045260246000fd5b7f4e487b7100000000000000000000000000000000000000000000000000000000600052604160045260246000fd5b6000601f19601f8301169050919050565b6123e081612234565b81146123eb57600080fd5b50565b6123f781612272565b811461240257600080fd5b5056fea2646970667358221220da930f8259e86e9fd5fc995da4c6130bbfd6bd140e0c655b4505df77b598bde164736f6c63430008000033",
  "immutableReferences": {},
  "source": "// SPDX-License-Identifier: MIT\r\npragma solidity ^0.8.0;\r\n\r\nimport \"./Imbottigliatore.sol\";\r\n\r\ncontract Distributore {\r\n\r\n    //dati per autorizzazioni alle chiamate delle funzioni\r\n    address public owner;\r\n    mapping(address => bool) public authorized;\r\n\r\n    Imbottigliatore imbottigliatoreContract;\r\n\r\n    constructor(address _imbottigliatoreContractAddress) {\r\n        owner = msg.sender;\r\n        authorized[owner] = true; //solo per fare test, oppure  un'opzione valida se il deploy viene fatto da ogni singolo attore in maniera indipendente.\r\n        imbottigliatoreContract = Imbottigliatore(_imbottigliatoreContractAddress);\r\n    }\r\n\r\n    struct DatiDistributore {\r\n\r\n        //dati manuali\r\n        string destinazione;\r\n        \r\n        //dati automatici\r\n        string quantitaTrasportata;\r\n        string temperaturaTrasporto;\r\n        string lotto;\r\n    }\r\n\r\n    struct datiVendita {\r\n        string prezzoVendita;\r\n        string nomeProdotto;\r\n        //string quantita;\r\n        uint256 quantita;\r\n        string nomeCliente;\r\n        string dataVendita;\r\n    }\r\n\r\n    mapping(uint256 => DatiDistributore) lotti;\r\n    mapping(uint256 => datiVendita) vendite;\r\n    mapping(uint => mapping(address => bool)) allowedAddressesVendite; //mapping per le autirizzazioni sulle get di vendita\r\n    mapping(string => uint256) nomiQuantita; // MAPPA DI TEST PER DATA AGGREGATION\r\n   \r\n    /*identificativi funzioni lotti e vendite*/\r\n    uint256 idDestinazioneSerial = 1;\r\n    uint256 idVenditaSerial = 1;\r\n\r\n    //funzioni di autorizzazione \r\n    function addAuthorized(address _address) public {\r\n        //require(msg.sender == owner);\r\n        authorized[_address] = true;\r\n    }\r\n\r\n    function removeAuthorized(address _address) public {\r\n        require(msg.sender == owner);\r\n        authorized[_address] = false;\r\n    }\r\n\r\n    //inserimento manuale\r\n    function setDestinazione(string memory _destinazione) public {\r\n        require(authorized[msg.sender]);\r\n        lotti[idDestinazioneSerial].destinazione = _destinazione;\r\n        idDestinazioneSerial++;\r\n    }\r\n\r\n    function setDatiVendita(string memory _prezzoVendita, string memory _nomeProdotto, uint256 _quantita/*string memory _quantita*/, string memory _nomeCliente, \r\n        string memory _dataVendita, address[] memory _addresses) public {\r\n        require(authorized[msg.sender]);\r\n        vendite[idVenditaSerial].prezzoVendita = _prezzoVendita;\r\n        vendite[idVenditaSerial].nomeProdotto = _nomeProdotto;\r\n        vendite[idVenditaSerial].quantita = _quantita;\r\n        vendite[idVenditaSerial].nomeCliente = _nomeCliente;\r\n        vendite[idVenditaSerial].dataVendita = _dataVendita;\r\n\r\n        //nomiQuantita[_nomeCliente] = _quantita; //TEST PER DATA AGGREGATION\r\n        if(nomiQuantita[_nomeCliente] != 0 || nomiQuantita[_nomeCliente]==0){\r\n            uint256 temp = nomiQuantita[_nomeCliente] + _quantita;\r\n            nomiQuantita[_nomeCliente] = temp;\r\n        }\r\n        \r\n        for(uint i=0; i<_addresses.length; i++){ //ciclo necessario a definire gli address forniti in input come \"trusted\"\r\n            if(_addresses[i] != address(0)){ //entra in azione solo de gli address forniti sono diversi dall'address nullo (0x0000000000000...)\r\n                allowedAddressesVendite[idVenditaSerial][_addresses[i]] = true; //salva gli address inseriti e li definisce \"trusted\" attraverso il parametro booleano \"true\"\r\n            }\r\n        }\r\n        \r\n        idVenditaSerial++;\r\n    }\r\n\r\n    //inserimento automatico\r\n    function setSensoriDistributore(uint256 _idLotto, string memory _quantitaTrasportata, string memory _temperaturaTrasporto) public {\r\n\r\n        lotti[_idLotto].quantitaTrasportata = _quantitaTrasportata;\r\n        lotti[_idLotto].temperaturaTrasporto = _temperaturaTrasporto;\r\n    }\r\n\r\n    /*query e funzioni di appoggio per data analysis*/\r\n    function getMappaLottiLength() public view returns(uint256){\r\n        uint256 count = 0;\r\n    for (uint256 i = 1; i < type(uint256).max; i++) {\r\n        if (bytes(lotti[i].quantitaTrasportata).length == 0) {\r\n            break;\r\n        }\r\n        count++;\r\n    }\r\n    return count;\r\n    }\r\n\r\n    function queryQuantitaTrasportataPerLotto() public view returns(string[] memory, uint256[] memory){\r\n        \r\n        uint256 length = getMappaLottiLength();\r\n        string[] memory result = new string[](length);\r\n        uint256[] memory resultLotti = new uint256[](length);\r\n\r\n        for(uint256 i=1; i<=length; i++){\r\n            resultLotti[i-1] = i;\r\n            result[i-1] = lotti[i].quantitaTrasportata;\r\n        }\r\n        return (result, resultLotti);\r\n    }\r\n\r\n    function getMappingVenditeLength() public view returns (uint256) {\r\n        \r\n        uint256 count = 0;\r\n        for (uint256 i = 1; i < type(uint256).max; i++) {\r\n            if (bytes(vendite[i].prezzoVendita).length == 0) {\r\n                break;\r\n            }\r\n            count++;\r\n        }\r\n            return count;\r\n    }\r\n\r\n    //mapping(string => bool) usedNomi; // Keep track of used names\r\n    function queryNomiClientiQuantita() public view returns (string[] memory, uint256[] memory) {\r\n        \r\n        uint256 length = getMappingVenditeLength();\r\n        string[] memory resultNomi = new string[](length);\r\n        uint256[] memory resultQuantita = new uint256[](length);\r\n\r\n       /* for (uint256 i = 1; i <= length; i++) {\r\n            //resultNomi[i-1] = vendite[i].nomeCliente;\r\n            //resultQuantita[i-1] = vendite[i].quantita;\r\n            \r\n            resultNomi[i-1] = vendite[i].nomeCliente;\r\n            resultQuantita[i-1] = nomiQuantita[vendite[i].nomeCliente]; \r\n        }*/\r\n        \r\n        string[] memory usedNomi = new string[](length);\r\n        uint256 uniqueCount = 0; // Counter for unique names\r\n\r\n        for (uint256 i = 1; i <= length; i++) {\r\n            string memory nomeCliente = vendite[i].nomeCliente;\r\n            bool isUsed = false;\r\n\r\n        // Check if the name has already been used\r\n        for (uint256 j = 0; j < uniqueCount; j++) {\r\n            if (keccak256(abi.encodePacked(usedNomi[j])) == keccak256(abi.encodePacked(nomeCliente))) {\r\n                isUsed = true;\r\n                break;\r\n            }\r\n        }\r\n\r\n        if (!isUsed) {\r\n            usedNomi[uniqueCount] = nomeCliente;\r\n            resultNomi[uniqueCount] = nomeCliente;\r\n            resultQuantita[uniqueCount] = nomiQuantita[nomeCliente];\r\n            uniqueCount++;\r\n        }\r\n    }\r\n\r\n    // Resize the arrays to remove unused slots\r\n    assembly {\r\n        mstore(resultNomi, uniqueCount)\r\n        mstore(resultQuantita, uniqueCount)\r\n    }\r\n\r\n        return (resultNomi, resultQuantita);\r\n    } \r\n\r\n    //\r\n\r\n    //funzioni get\r\n    function getIdDestinazioneSerial() public view returns(uint256) {\r\n        require(authorized[msg.sender]);\r\n        return idDestinazioneSerial;\r\n    }\r\n\r\n    function getIdVenditaSerial() public view returns(uint256) {\r\n        require(authorized[msg.sender]);\r\n        return idVenditaSerial;\r\n    }\r\n\r\n    function getDestinazione(uint256 _idLotto) public view returns(string memory) {\r\n        require(authorized[msg.sender]);\r\n        return lotti[_idLotto].destinazione;\r\n    }\r\n\r\n    function getDatiVendita(uint256 _idVendita) public view returns(string memory, string memory, uint256/*string memory*/, string memory, string memory) {\r\n        require(authorized[msg.sender]);\r\n\r\n        if (allowedAddressesVendite[_idVendita][msg.sender] == true) { //\"msg.sender\" rappresenta l'address di chi sta chiamando il metodo.\r\n            return (vendite[_idVendita].prezzoVendita, vendite[_idVendita].nomeProdotto, vendite[_idVendita].quantita, vendite[_idVendita].nomeCliente,\r\n            vendite[_idVendita].dataVendita);\r\n        } else {\r\n            revert(\"Utente non autorizzato\"); //revert() interrompe l'esecuzione della transazione e la annulla, in questo caso mostra anche un messaggio di warning.\r\n        }\r\n        \r\n    }\r\n\r\n    function getDatiSensoriDistributore(uint256 _idLotto) public view returns(string memory, string memory) {\r\n        require(authorized[msg.sender]);\r\n        return (lotti[_idLotto].quantitaTrasportata, lotti[_idLotto].temperaturaTrasporto);\r\n    }\r\n\r\n    //funzioni di get da Imbottigliatore\r\n    function getCodiceBarre(uint256 _idLotto) public view returns(string memory) {\r\n        return imbottigliatoreContract.getCodiceBarre(_idLotto);\r\n    }\r\n\r\n}",
  "sourcePath": "C:\\Users\\Erman\\OneDrive\\BinTraWine_github\\BinTraWine\\contracts\\Distributore.sol",
  "compiler": {
    "name": "solc",
    "version": "0.8.0+commit.c7dfd78e.Emscripten.clang"
  },
  "schemaVersion": "3.4.13",
  "updatedAt": "2023-08-29T10:52:24.372Z",
  "networkType": "quorum",
  "devdoc": {
    "kind": "dev",
    "methods": {},
    "version": 1
  },
  "userdoc": {
    "kind": "user",
    "methods": {},
    "version": 1
  }
}