{
  "contractName": "EnteCertificatore",
  "abi": [
    {
      "inputs": [
        {
          "internalType": "address",
          "name": "agronomoContractAddr",
          "type": "address"
        },
        {
          "internalType": "address",
          "name": "viticoltoreContractAddr",
          "type": "address"
        },
        {
          "internalType": "address",
          "name": "produttoreContractAddr",
          "type": "address"
        },
        {
          "internalType": "address",
          "name": "imbottigliatoreContractAddr",
          "type": "address"
        },
        {
          "internalType": "address",
          "name": "distributoreContractAddr",
          "type": "address"
        },
        {
          "internalType": "address",
          "name": "rivenditoreContractAddr",
          "type": "address"
        }
      ],
      "stateMutability": "nonpayable",
      "type": "constructor"
    },
    {
      "inputs": [
        {
          "internalType": "address",
          "name": "",
          "type": "address"
        }
      ],
      "name": "authorized",
      "outputs": [
        {
          "internalType": "bool",
          "name": "",
          "type": "bool"
        }
      ],
      "stateMutability": "view",
      "type": "function",
      "constant": true
    },
    {
      "inputs": [],
      "name": "owner",
      "outputs": [
        {
          "internalType": "address",
          "name": "",
          "type": "address"
        }
      ],
      "stateMutability": "view",
      "type": "function",
      "constant": true
    },
    {
      "inputs": [
        {
          "internalType": "address",
          "name": "_address",
          "type": "address"
        }
      ],
      "name": "addAuthorized",
      "outputs": [],
      "stateMutability": "nonpayable",
      "type": "function"
    },
    {
      "inputs": [
        {
          "internalType": "address",
          "name": "_address",
          "type": "address"
        }
      ],
      "name": "removeAuthorized",
      "outputs": [],
      "stateMutability": "nonpayable",
      "type": "function"
    },
    {
      "inputs": [
        {
          "internalType": "string",
          "name": "_validazione",
          "type": "string"
        }
      ],
      "name": "setValidazione",
      "outputs": [],
      "stateMutability": "nonpayable",
      "type": "function"
    },
    {
      "inputs": [
        {
          "internalType": "string",
          "name": "_certificazione",
          "type": "string"
        }
      ],
      "name": "setCertificazione",
      "outputs": [],
      "stateMutability": "nonpayable",
      "type": "function"
    },
    {
      "inputs": [],
      "name": "getIdValidazioneSerial",
      "outputs": [
        {
          "internalType": "uint256",
          "name": "",
          "type": "uint256"
        }
      ],
      "stateMutability": "view",
      "type": "function",
      "constant": true
    },
    {
      "inputs": [],
      "name": "getIdCertificazioneSerial",
      "outputs": [
        {
          "internalType": "uint256",
          "name": "",
          "type": "uint256"
        }
      ],
      "stateMutability": "view",
      "type": "function",
      "constant": true
    },
    {
      "inputs": [
        {
          "internalType": "uint256",
          "name": "_idLotto",
          "type": "uint256"
        }
      ],
      "name": "getValidazione",
      "outputs": [
        {
          "internalType": "string",
          "name": "",
          "type": "string"
        }
      ],
      "stateMutability": "view",
      "type": "function",
      "constant": true
    },
    {
      "inputs": [
        {
          "internalType": "uint256",
          "name": "_idLotto",
          "type": "uint256"
        }
      ],
      "name": "getCertificazione",
      "outputs": [
        {
          "internalType": "string",
          "name": "",
          "type": "string"
        }
      ],
      "stateMutability": "view",
      "type": "function",
      "constant": true
    },
    {
      "inputs": [
        {
          "internalType": "uint256",
          "name": "_idTerreno",
          "type": "uint256"
        }
      ],
      "name": "getAnalisiQualitaProdotto",
      "outputs": [
        {
          "internalType": "string",
          "name": "",
          "type": "string"
        }
      ],
      "stateMutability": "view",
      "type": "function",
      "constant": true
    },
    {
      "inputs": [
        {
          "internalType": "uint256",
          "name": "_idTerreno",
          "type": "uint256"
        }
      ],
      "name": "getCertificazioneUvaAppezzamento",
      "outputs": [
        {
          "internalType": "string",
          "name": "",
          "type": "string"
        }
      ],
      "stateMutability": "view",
      "type": "function",
      "constant": true
    },
    {
      "inputs": [
        {
          "internalType": "uint256",
          "name": "_idTerreno",
          "type": "uint256"
        }
      ],
      "name": "getDatiSensoriAgronomo",
      "outputs": [
        {
          "internalType": "string",
          "name": "",
          "type": "string"
        },
        {
          "internalType": "string",
          "name": "",
          "type": "string"
        },
        {
          "internalType": "string",
          "name": "",
          "type": "string"
        },
        {
          "internalType": "string",
          "name": "",
          "type": "string"
        }
      ],
      "stateMutability": "view",
      "type": "function",
      "constant": true
    },
    {
      "inputs": [
        {
          "internalType": "uint256",
          "name": "_idTerreno",
          "type": "uint256"
        }
      ],
      "name": "getDataRaccolta",
      "outputs": [
        {
          "internalType": "string",
          "name": "",
          "type": "string"
        }
      ],
      "stateMutability": "view",
      "type": "function",
      "constant": true
    },
    {
      "inputs": [
        {
          "internalType": "uint256",
          "name": "_idTerreno",
          "type": "uint256"
        }
      ],
      "name": "getDatiForniture",
      "outputs": [
        {
          "internalType": "string",
          "name": "",
          "type": "string"
        }
      ],
      "stateMutability": "view",
      "type": "function",
      "constant": true
    },
    {
      "inputs": [
        {
          "internalType": "uint256",
          "name": "_idTerreno",
          "type": "uint256"
        }
      ],
      "name": "getDestinazioneUva",
      "outputs": [
        {
          "internalType": "string",
          "name": "",
          "type": "string"
        }
      ],
      "stateMutability": "view",
      "type": "function",
      "constant": true
    },
    {
      "inputs": [
        {
          "internalType": "uint256",
          "name": "_idTerreno",
          "type": "uint256"
        }
      ],
      "name": "getDatiVenditaViticoltore",
      "outputs": [
        {
          "internalType": "string",
          "name": "",
          "type": "string"
        },
        {
          "internalType": "string",
          "name": "",
          "type": "string"
        },
        {
          "internalType": "string",
          "name": "",
          "type": "string"
        },
        {
          "internalType": "string",
          "name": "",
          "type": "string"
        },
        {
          "internalType": "string",
          "name": "",
          "type": "string"
        }
      ],
      "stateMutability": "view",
      "type": "function",
      "constant": true
    },
    {
      "inputs": [
        {
          "internalType": "uint256",
          "name": "_idTerreno",
          "type": "uint256"
        }
      ],
      "name": "getDatiSensoriViticoltore",
      "outputs": [
        {
          "internalType": "string",
          "name": "",
          "type": "string"
        },
        {
          "internalType": "string",
          "name": "",
          "type": "string"
        },
        {
          "internalType": "string",
          "name": "",
          "type": "string"
        },
        {
          "internalType": "string",
          "name": "",
          "type": "string"
        },
        {
          "internalType": "string",
          "name": "",
          "type": "string"
        }
      ],
      "stateMutability": "view",
      "type": "function",
      "constant": true
    },
    {
      "inputs": [
        {
          "internalType": "uint256",
          "name": "_idLotto",
          "type": "uint256"
        }
      ],
      "name": "getProdottiVinificazione",
      "outputs": [
        {
          "internalType": "string",
          "name": "",
          "type": "string"
        }
      ],
      "stateMutability": "view",
      "type": "function",
      "constant": true
    },
    {
      "inputs": [
        {
          "internalType": "uint256",
          "name": "_idLotto",
          "type": "uint256"
        }
      ],
      "name": "getQuantitaVinoOttenuto",
      "outputs": [
        {
          "internalType": "string",
          "name": "",
          "type": "string"
        }
      ],
      "stateMutability": "view",
      "type": "function",
      "constant": true
    },
    {
      "inputs": [
        {
          "internalType": "uint256",
          "name": "_idLotto",
          "type": "uint256"
        }
      ],
      "name": "getQuantitaVinoRivendicato",
      "outputs": [
        {
          "internalType": "string",
          "name": "",
          "type": "string"
        }
      ],
      "stateMutability": "view",
      "type": "function",
      "constant": true
    },
    {
      "inputs": [
        {
          "internalType": "uint256",
          "name": "_idLotto",
          "type": "uint256"
        }
      ],
      "name": "getDatiSensoriProduttore",
      "outputs": [
        {
          "internalType": "string",
          "name": "",
          "type": "string"
        },
        {
          "internalType": "string",
          "name": "",
          "type": "string"
        },
        {
          "internalType": "string",
          "name": "",
          "type": "string"
        },
        {
          "internalType": "string",
          "name": "",
          "type": "string"
        }
      ],
      "stateMutability": "view",
      "type": "function",
      "constant": true
    },
    {
      "inputs": [
        {
          "internalType": "uint256",
          "name": "_idLotto",
          "type": "uint256"
        }
      ],
      "name": "getSolfiti",
      "outputs": [
        {
          "internalType": "string",
          "name": "",
          "type": "string"
        }
      ],
      "stateMutability": "view",
      "type": "function",
      "constant": true
    },
    {
      "inputs": [
        {
          "internalType": "uint256",
          "name": "_idLotto",
          "type": "uint256"
        }
      ],
      "name": "getAllergeni",
      "outputs": [
        {
          "internalType": "string",
          "name": "",
          "type": "string"
        }
      ],
      "stateMutability": "view",
      "type": "function",
      "constant": true
    },
    {
      "inputs": [
        {
          "internalType": "uint256",
          "name": "_idLotto",
          "type": "uint256"
        }
      ],
      "name": "getlocalitaUve",
      "outputs": [
        {
          "internalType": "string",
          "name": "",
          "type": "string"
        }
      ],
      "stateMutability": "view",
      "type": "function",
      "constant": true
    },
    {
      "inputs": [
        {
          "internalType": "uint256",
          "name": "_idLotto",
          "type": "uint256"
        }
      ],
      "name": "getCodiceBarre",
      "outputs": [
        {
          "internalType": "string",
          "name": "",
          "type": "string"
        }
      ],
      "stateMutability": "view",
      "type": "function",
      "constant": true
    },
    {
      "inputs": [
        {
          "internalType": "uint256",
          "name": "_idLotto",
          "type": "uint256"
        }
      ],
      "name": "getDatiSensoriImbottigliatore",
      "outputs": [
        {
          "internalType": "string",
          "name": "",
          "type": "string"
        },
        {
          "internalType": "string",
          "name": "",
          "type": "string"
        },
        {
          "internalType": "string",
          "name": "",
          "type": "string"
        }
      ],
      "stateMutability": "view",
      "type": "function",
      "constant": true
    },
    {
      "inputs": [
        {
          "internalType": "uint256",
          "name": "_idLotto",
          "type": "uint256"
        }
      ],
      "name": "getDestinazione",
      "outputs": [
        {
          "internalType": "string",
          "name": "",
          "type": "string"
        }
      ],
      "stateMutability": "view",
      "type": "function",
      "constant": true
    },
    {
      "inputs": [
        {
          "internalType": "uint256",
          "name": "_idLotto",
          "type": "uint256"
        }
      ],
      "name": "getDatiVenditaDistributore",
      "outputs": [
        {
          "internalType": "string",
          "name": "",
          "type": "string"
        },
        {
          "internalType": "string",
          "name": "",
          "type": "string"
        },
        {
          "internalType": "string",
          "name": "",
          "type": "string"
        },
        {
          "internalType": "string",
          "name": "",
          "type": "string"
        },
        {
          "internalType": "string",
          "name": "",
          "type": "string"
        }
      ],
      "stateMutability": "view",
      "type": "function",
      "constant": true
    },
    {
      "inputs": [
        {
          "internalType": "uint256",
          "name": "_idLotto",
          "type": "uint256"
        }
      ],
      "name": "getDatiSensoriDistributore",
      "outputs": [
        {
          "internalType": "string",
          "name": "",
          "type": "string"
        },
        {
          "internalType": "string",
          "name": "",
          "type": "string"
        }
      ],
      "stateMutability": "view",
      "type": "function",
      "constant": true
    },
    {
      "inputs": [
        {
          "internalType": "uint256",
          "name": "_idLotto",
          "type": "uint256"
        }
      ],
      "name": "getDatiSensoriRivenditore",
      "outputs": [
        {
          "internalType": "string",
          "name": "",
          "type": "string"
        }
      ],
      "stateMutability": "view",
      "type": "function",
      "constant": true
    }
  ],
  "bytecode": "0x60806040526001600a556001600b553480156200001b57600080fd5b50604051620033d8380380620033d8833981810160405281019062000041919062000608565b336000806101000a81548173ffffffffffffffffffffffffffffffffffffffff021916908373ffffffffffffffffffffffffffffffffffffffff16021790555060018060008060009054906101000a900473ffffffffffffffffffffffffffffffffffffffff1673ffffffffffffffffffffffffffffffffffffffff1673ffffffffffffffffffffffffffffffffffffffff16815260200190815260200160002060006101000a81548160ff02191690831515021790555085600260006101000a81548173ffffffffffffffffffffffffffffffffffffffff021916908373ffffffffffffffffffffffffffffffffffffffff16021790555084600360006101000a81548173ffffffffffffffffffffffffffffffffffffffff021916908373ffffffffffffffffffffffffffffffffffffffff16021790555083600460006101000a81548173ffffffffffffffffffffffffffffffffffffffff021916908373ffffffffffffffffffffffffffffffffffffffff16021790555082600560006101000a81548173ffffffffffffffffffffffffffffffffffffffff021916908373ffffffffffffffffffffffffffffffffffffffff16021790555081600660006101000a81548173ffffffffffffffffffffffffffffffffffffffff021916908373ffffffffffffffffffffffffffffffffffffffff16021790555080600760006101000a81548173ffffffffffffffffffffffffffffffffffffffff021916908373ffffffffffffffffffffffffffffffffffffffff160217905550600260009054906101000a900473ffffffffffffffffffffffffffffffffffffffff1673ffffffffffffffffffffffffffffffffffffffff1663cf1c316a306040518263ffffffff1660e01b8152600401620002dc9190620006af565b600060405180830381600087803b158015620002f757600080fd5b505af11580156200030c573d6000803e3d6000fd5b50505050600360009054906101000a900473ffffffffffffffffffffffffffffffffffffffff1673ffffffffffffffffffffffffffffffffffffffff1663cf1c316a306040518263ffffffff1660e01b81526004016200036d9190620006af565b600060405180830381600087803b1580156200038857600080fd5b505af11580156200039d573d6000803e3d6000fd5b50505050600460009054906101000a900473ffffffffffffffffffffffffffffffffffffffff1673ffffffffffffffffffffffffffffffffffffffff1663cf1c316a306040518263ffffffff1660e01b8152600401620003fe9190620006af565b600060405180830381600087803b1580156200041957600080fd5b505af11580156200042e573d6000803e3d6000fd5b50505050600560009054906101000a900473ffffffffffffffffffffffffffffffffffffffff1673ffffffffffffffffffffffffffffffffffffffff1663cf1c316a306040518263ffffffff1660e01b81526004016200048f9190620006af565b600060405180830381600087803b158015620004aa57600080fd5b505af1158015620004bf573d6000803e3d6000fd5b50505050600660009054906101000a900473ffffffffffffffffffffffffffffffffffffffff1673ffffffffffffffffffffffffffffffffffffffff1663cf1c316a306040518263ffffffff1660e01b8152600401620005209190620006af565b600060405180830381600087803b1580156200053b57600080fd5b505af115801562000550573d6000803e3d6000fd5b50505050600760009054906101000a900473ffffffffffffffffffffffffffffffffffffffff1673ffffffffffffffffffffffffffffffffffffffff1663cf1c316a306040518263ffffffff1660e01b8152600401620005b19190620006af565b600060405180830381600087803b158015620005cc57600080fd5b505af1158015620005e1573d6000803e3d6000fd5b505050505050505050506200071a565b600081519050620006028162000700565b92915050565b60008060008060008060c087890312156200062257600080fd5b60006200063289828a01620005f1565b96505060206200064589828a01620005f1565b95505060406200065889828a01620005f1565b94505060606200066b89828a01620005f1565b93505060806200067e89828a01620005f1565b92505060a06200069189828a01620005f1565b9150509295509295509295565b620006a981620006cc565b82525050565b6000602082019050620006c660008301846200069e565b92915050565b6000620006d982620006e0565b9050919050565b600073ffffffffffffffffffffffffffffffffffffffff82169050919050565b6200070b81620006cc565b81146200071757600080fd5b50565b612cae806200072a6000396000f3fe608060405234801561001057600080fd5b50600436106101e55760003560e01c806393e617731161010f578063b5c77406116100a2578063d7f0663c11610071578063d7f0663c14610696578063d939881a146106ca578063e5288d35146106fa578063f60e130614610718576101e5565b8063b5c77406146105fe578063b91816111461062e578063c02a7b011461065e578063cf1c316a1461067a576101e5565b8063ae0235d2116100de578063ae0235d21461053e578063b1689d401461056e578063b17e97301461059e578063b1b02a6e146105ce576101e5565b806393e617731461047a5780639e78ddfa146104ae5780639f09e11c146104de578063a1fabe791461050e576101e5565b80633df6d06a116101875780635df6ec33116101565780635df6ec33146103db578063635b75cb1461040e57806385c3435a1461043e5780638da5cb5b1461045c576101e5565b80633df6d06a14610341578063411967f814610373578063485d7d941461038f57806357bd5df1146103ab576101e5565b80630da52d3c116101c35780630da52d3c1461027a57806313a4db7b146102aa5780632f33114f146102de57806337051aec1461030e576101e5565b806304f78e15146101ea57806305edddca1461021a578063095482f31461024a575b600080fd5b61020460048036038101906101ff91906127ce565b610749565b6040516102119190612893565b60405180910390f35b610234600480360381019061022f91906127ce565b610858565b6040516102419190612893565b60405180910390f35b610264600480360381019061025f91906127ce565b610967565b6040516102719190612893565b60405180910390f35b610294600480360381019061028f91906127ce565b610a76565b6040516102a19190612893565b60405180910390f35b6102c460048036038101906102bf91906127ce565b610b85565b6040516102d5959493929190612999565b60405180910390f35b6102f860048036038101906102f391906127ce565b610ca6565b6040516103059190612893565b60405180910390f35b610328600480360381019061032391906127ce565b610da4565b6040516103389493929190612938565b60405180910390f35b61035b600480360381019061035691906127ce565b610ebf565b60405161036a939291906128ec565b60405180910390f35b61038d60048036038101906103889190612497565b610fd7565b005b6103a960048036038101906103a4919061246e565b611075565b005b6103c560048036038101906103c091906127ce565b611128565b6040516103d29190612893565b60405180910390f35b6103f560048036038101906103f091906127ce565b611237565b6040516104059493929190612938565b60405180910390f35b610428600480360381019061042391906127ce565b611352565b6040516104359190612893565b60405180910390f35b610446611461565b6040516104539190612a0f565b60405180910390f35b6104646114c1565b604051610471919061285d565b60405180910390f35b610494600480360381019061048f91906127ce565b6114e5565b6040516104a5959493929190612999565b60405180910390f35b6104c860048036038101906104c391906127ce565b611606565b6040516104d59190612893565b60405180910390f35b6104f860048036038101906104f391906127ce565b611704565b6040516105059190612893565b60405180910390f35b610528600480360381019061052391906127ce565b611813565b6040516105359190612893565b60405180910390f35b610558600480360381019061055391906127ce565b611922565b6040516105659190612893565b60405180910390f35b610588600480360381019061058391906127ce565b611a31565b6040516105959190612893565b60405180910390f35b6105b860048036038101906105b391906127ce565b611b40565b6040516105c59190612893565b60405180910390f35b6105e860048036038101906105e391906127ce565b611c4f565b6040516105f59190612893565b60405180910390f35b610618600480360381019061061391906127ce565b611d5e565b6040516106259190612893565b60405180910390f35b6106486004803603810190610643919061246e565b611e6d565b6040516106559190612878565b60405180910390f35b61067860048036038101906106739190612497565b611e8d565b005b610694600480360381019061068f919061246e565b611f2b565b005b6106b060048036038101906106ab91906127ce565b611f85565b6040516106c1959493929190612999565b60405180910390f35b6106e460048036038101906106df91906127ce565b612050565b6040516106f19190612893565b60405180910390f35b61070261215f565b60405161070f9190612a0f565b60405180910390f35b610732600480360381019061072d91906127ce565b6121bf565b6040516107409291906128b5565b60405180910390f35b6060600160003373ffffffffffffffffffffffffffffffffffffffff1673ffffffffffffffffffffffffffffffffffffffff16815260200190815260200160002060009054906101000a900460ff166107a157600080fd5b600560009054906101000a900473ffffffffffffffffffffffffffffffffffffffff1673ffffffffffffffffffffffffffffffffffffffff166304f78e15836040518263ffffffff1660e01b81526004016107fc9190612a0f565b60006040518083038186803b15801561081457600080fd5b505afa158015610828573d6000803e3d6000fd5b505050506040513d6000823e3d601f19601f8201168201806040525081019061085191906124d8565b9050919050565b6060600160003373ffffffffffffffffffffffffffffffffffffffff1673ffffffffffffffffffffffffffffffffffffffff16815260200190815260200160002060009054906101000a900460ff166108b057600080fd5b600560009054906101000a900473ffffffffffffffffffffffffffffffffffffffff1673ffffffffffffffffffffffffffffffffffffffff166305edddca836040518263ffffffff1660e01b815260040161090b9190612a0f565b60006040518083038186803b15801561092357600080fd5b505afa158015610937573d6000803e3d6000fd5b505050506040513d6000823e3d601f19601f8201168201806040525081019061096091906124d8565b9050919050565b6060600160003373ffffffffffffffffffffffffffffffffffffffff1673ffffffffffffffffffffffffffffffffffffffff16815260200190815260200160002060009054906101000a900460ff166109bf57600080fd5b600460009054906101000a900473ffffffffffffffffffffffffffffffffffffffff1673ffffffffffffffffffffffffffffffffffffffff1663095482f3836040518263ffffffff1660e01b8152600401610a1a9190612a0f565b60006040518083038186803b158015610a3257600080fd5b505afa158015610a46573d6000803e3d6000fd5b505050506040513d6000823e3d601f19601f82011682018060405250810190610a6f91906124d8565b9050919050565b6060600160003373ffffffffffffffffffffffffffffffffffffffff1673ffffffffffffffffffffffffffffffffffffffff16815260200190815260200160002060009054906101000a900460ff16610ace57600080fd5b600560009054906101000a900473ffffffffffffffffffffffffffffffffffffffff1673ffffffffffffffffffffffffffffffffffffffff16630da52d3c836040518263ffffffff1660e01b8152600401610b299190612a0f565b60006040518083038186803b158015610b4157600080fd5b505afa158015610b55573d6000803e3d6000fd5b505050506040513d6000823e3d601f19601f82011682018060405250810190610b7e91906124d8565b9050919050565b6060806060806060600160003373ffffffffffffffffffffffffffffffffffffffff1673ffffffffffffffffffffffffffffffffffffffff16815260200190815260200160002060009054906101000a900460ff16610be357600080fd5b600360009054906101000a900473ffffffffffffffffffffffffffffffffffffffff1673ffffffffffffffffffffffffffffffffffffffff166313a4db7b876040518263ffffffff1660e01b8152600401610c3e9190612a0f565b60006040518083038186803b158015610c5657600080fd5b505afa158015610c6a573d6000803e3d6000fd5b505050506040513d6000823e3d601f19601f82011682018060405250810190610c9391906126df565b9450945094509450945091939590929450565b6060600160003373ffffffffffffffffffffffffffffffffffffffff1673ffffffffffffffffffffffffffffffffffffffff16815260200190815260200160002060009054906101000a900460ff16610cfe57600080fd5b600960008381526020019081526020016000206001018054610d1f90612b31565b80601f0160208091040260200160405190810160405280929190818152602001828054610d4b90612b31565b8015610d985780601f10610d6d57610100808354040283529160200191610d98565b820191906000526020600020905b815481529060010190602001808311610d7b57829003601f168201915b50505050509050919050565b606080606080600160003373ffffffffffffffffffffffffffffffffffffffff1673ffffffffffffffffffffffffffffffffffffffff16815260200190815260200160002060009054906101000a900460ff16610e0057600080fd5b600460009054906101000a900473ffffffffffffffffffffffffffffffffffffffff1673ffffffffffffffffffffffffffffffffffffffff166337051aec866040518263ffffffff1660e01b8152600401610e5b9190612a0f565b60006040518083038186803b158015610e7357600080fd5b505afa158015610e87573d6000803e3d6000fd5b505050506040513d6000823e3d601f19601f82011682018060405250810190610eb0919061261c565b93509350935093509193509193565b6060806060600160003373ffffffffffffffffffffffffffffffffffffffff1673ffffffffffffffffffffffffffffffffffffffff16815260200190815260200160002060009054906101000a900460ff16610f1a57600080fd5b600560009054906101000a900473ffffffffffffffffffffffffffffffffffffffff1673ffffffffffffffffffffffffffffffffffffffff16633df6d06a856040518263ffffffff1660e01b8152600401610f759190612a0f565b60006040518083038186803b158015610f8d57600080fd5b505afa158015610fa1573d6000803e3d6000fd5b505050506040513d6000823e3d601f19601f82011682018060405250810190610fca9190612585565b9250925092509193909250565b600160003373ffffffffffffffffffffffffffffffffffffffff1673ffffffffffffffffffffffffffffffffffffffff16815260200190815260200160002060009054906101000a900460ff1661102d57600080fd5b8060096000600b54815260200190815260200160002060010190805190602001906110599291906122d1565b50600b600081548092919061106d90612b63565b919050555050565b60008054906101000a900473ffffffffffffffffffffffffffffffffffffffff1673ffffffffffffffffffffffffffffffffffffffff163373ffffffffffffffffffffffffffffffffffffffff16146110cd57600080fd5b6000600160008373ffffffffffffffffffffffffffffffffffffffff1673ffffffffffffffffffffffffffffffffffffffff16815260200190815260200160002060006101000a81548160ff02191690831515021790555050565b6060600160003373ffffffffffffffffffffffffffffffffffffffff1673ffffffffffffffffffffffffffffffffffffffff16815260200190815260200160002060009054906101000a900460ff1661118057600080fd5b600260009054906101000a900473ffffffffffffffffffffffffffffffffffffffff1673ffffffffffffffffffffffffffffffffffffffff166357bd5df1836040518263ffffffff1660e01b81526004016111db9190612a0f565b60006040518083038186803b1580156111f357600080fd5b505afa158015611207573d6000803e3d6000fd5b505050506040513d6000823e3d601f19601f8201168201806040525081019061123091906124d8565b9050919050565b606080606080600160003373ffffffffffffffffffffffffffffffffffffffff1673ffffffffffffffffffffffffffffffffffffffff16815260200190815260200160002060009054906101000a900460ff1661129357600080fd5b600260009054906101000a900473ffffffffffffffffffffffffffffffffffffffff1673ffffffffffffffffffffffffffffffffffffffff16635df6ec33866040518263ffffffff1660e01b81526004016112ee9190612a0f565b60006040518083038186803b15801561130657600080fd5b505afa15801561131a573d6000803e3d6000fd5b505050506040513d6000823e3d601f19601f82011682018060405250810190611343919061261c565b93509350935093509193509193565b6060600160003373ffffffffffffffffffffffffffffffffffffffff1673ffffffffffffffffffffffffffffffffffffffff16815260200190815260200160002060009054906101000a900460ff166113aa57600080fd5b600460009054906101000a900473ffffffffffffffffffffffffffffffffffffffff1673ffffffffffffffffffffffffffffffffffffffff1663635b75cb836040518263ffffffff1660e01b81526004016114059190612a0f565b60006040518083038186803b15801561141d57600080fd5b505afa158015611431573d6000803e3d6000fd5b505050506040513d6000823e3d601f19601f8201168201806040525081019061145a91906124d8565b9050919050565b6000600160003373ffffffffffffffffffffffffffffffffffffffff1673ffffffffffffffffffffffffffffffffffffffff16815260200190815260200160002060009054906101000a900460ff166114b957600080fd5b600a54905090565b60008054906101000a900473ffffffffffffffffffffffffffffffffffffffff1681565b6060806060806060600160003373ffffffffffffffffffffffffffffffffffffffff1673ffffffffffffffffffffffffffffffffffffffff16815260200190815260200160002060009054906101000a900460ff1661154357600080fd5b600360009054906101000a900473ffffffffffffffffffffffffffffffffffffffff1673ffffffffffffffffffffffffffffffffffffffff16639edd513f876040518263ffffffff1660e01b815260040161159e9190612a0f565b60006040518083038186803b1580156115b657600080fd5b505afa1580156115ca573d6000803e3d6000fd5b505050506040513d6000823e3d601f19601f820116820180604052508101906115f391906126df565b9450945094509450945091939590929450565b6060600160003373ffffffffffffffffffffffffffffffffffffffff1673ffffffffffffffffffffffffffffffffffffffff16815260200190815260200160002060009054906101000a900460ff1661165e57600080fd5b60096000838152602001908152602001600020600001805461167f90612b31565b80601f01602080910402602001604051908101604052809291908181526020018280546116ab90612b31565b80156116f85780601f106116cd576101008083540402835291602001916116f8565b820191906000526020600020905b8154815290600101906020018083116116db57829003601f168201915b50505050509050919050565b6060600160003373ffffffffffffffffffffffffffffffffffffffff1673ffffffffffffffffffffffffffffffffffffffff16815260200190815260200160002060009054906101000a900460ff1661175c57600080fd5b600360009054906101000a900473ffffffffffffffffffffffffffffffffffffffff1673ffffffffffffffffffffffffffffffffffffffff16639f09e11c836040518263ffffffff1660e01b81526004016117b79190612a0f565b60006040518083038186803b1580156117cf57600080fd5b505afa1580156117e3573d6000803e3d6000fd5b505050506040513d6000823e3d601f19601f8201168201806040525081019061180c91906124d8565b9050919050565b6060600160003373ffffffffffffffffffffffffffffffffffffffff1673ffffffffffffffffffffffffffffffffffffffff16815260200190815260200160002060009054906101000a900460ff1661186b57600080fd5b600260009054906101000a900473ffffffffffffffffffffffffffffffffffffffff1673ffffffffffffffffffffffffffffffffffffffff1663a1fabe79836040518263ffffffff1660e01b81526004016118c69190612a0f565b60006040518083038186803b1580156118de57600080fd5b505afa1580156118f2573d6000803e3d6000fd5b505050506040513d6000823e3d601f19601f8201168201806040525081019061191b91906124d8565b9050919050565b6060600160003373ffffffffffffffffffffffffffffffffffffffff1673ffffffffffffffffffffffffffffffffffffffff16815260200190815260200160002060009054906101000a900460ff1661197a57600080fd5b600660009054906101000a900473ffffffffffffffffffffffffffffffffffffffff1673ffffffffffffffffffffffffffffffffffffffff1663ae0235d2836040518263ffffffff1660e01b81526004016119d59190612a0f565b60006040518083038186803b1580156119ed57600080fd5b505afa158015611a01573d6000803e3d6000fd5b505050506040513d6000823e3d601f19601f82011682018060405250810190611a2a91906124d8565b9050919050565b6060600160003373ffffffffffffffffffffffffffffffffffffffff1673ffffffffffffffffffffffffffffffffffffffff16815260200190815260200160002060009054906101000a900460ff16611a8957600080fd5b600360009054906101000a900473ffffffffffffffffffffffffffffffffffffffff1673ffffffffffffffffffffffffffffffffffffffff1663b1689d40836040518263ffffffff1660e01b8152600401611ae49190612a0f565b60006040518083038186803b158015611afc57600080fd5b505afa158015611b10573d6000803e3d6000fd5b505050506040513d6000823e3d601f19601f82011682018060405250810190611b3991906124d8565b9050919050565b6060600160003373ffffffffffffffffffffffffffffffffffffffff1673ffffffffffffffffffffffffffffffffffffffff16815260200190815260200160002060009054906101000a900460ff16611b9857600080fd5b600360009054906101000a900473ffffffffffffffffffffffffffffffffffffffff1673ffffffffffffffffffffffffffffffffffffffff1663b17e9730836040518263ffffffff1660e01b8152600401611bf39190612a0f565b60006040518083038186803b158015611c0b57600080fd5b505afa158015611c1f573d6000803e3d6000fd5b505050506040513d6000823e3d601f19601f82011682018060405250810190611c4891906124d8565b9050919050565b6060600160003373ffffffffffffffffffffffffffffffffffffffff1673ffffffffffffffffffffffffffffffffffffffff16815260200190815260200160002060009054906101000a900460ff16611ca757600080fd5b600460009054906101000a900473ffffffffffffffffffffffffffffffffffffffff1673ffffffffffffffffffffffffffffffffffffffff1663b1b02a6e836040518263ffffffff1660e01b8152600401611d029190612a0f565b60006040518083038186803b158015611d1a57600080fd5b505afa158015611d2e573d6000803e3d6000fd5b505050506040513d6000823e3d601f19601f82011682018060405250810190611d5791906124d8565b9050919050565b6060600160003373ffffffffffffffffffffffffffffffffffffffff1673ffffffffffffffffffffffffffffffffffffffff16815260200190815260200160002060009054906101000a900460ff16611db657600080fd5b600760009054906101000a900473ffffffffffffffffffffffffffffffffffffffff1673ffffffffffffffffffffffffffffffffffffffff1663b5c77406836040518263ffffffff1660e01b8152600401611e119190612a0f565b60006040518083038186803b158015611e2957600080fd5b505afa158015611e3d573d6000803e3d6000fd5b505050506040513d6000823e3d601f19601f82011682018060405250810190611e6691906124d8565b9050919050565b60016020528060005260406000206000915054906101000a900460ff1681565b600160003373ffffffffffffffffffffffffffffffffffffffff1673ffffffffffffffffffffffffffffffffffffffff16815260200190815260200160002060009054906101000a900460ff16611ee357600080fd5b8060096000600a5481526020019081526020016000206000019080519060200190611f0f9291906122d1565b50600a6000815480929190611f2390612b63565b919050555050565b60018060008373ffffffffffffffffffffffffffffffffffffffff1673ffffffffffffffffffffffffffffffffffffffff16815260200190815260200160002060006101000a81548160ff02191690831515021790555050565b6060806060806060600660009054906101000a900473ffffffffffffffffffffffffffffffffffffffff1673ffffffffffffffffffffffffffffffffffffffff16639edd513f876040518263ffffffff1660e01b8152600401611fe89190612a0f565b60006040518083038186803b15801561200057600080fd5b505afa158015612014573d6000803e3d6000fd5b505050506040513d6000823e3d601f19601f8201168201806040525081019061203d91906126df565b9450945094509450945091939590929450565b6060600160003373ffffffffffffffffffffffffffffffffffffffff1673ffffffffffffffffffffffffffffffffffffffff16815260200190815260200160002060009054906101000a900460ff166120a857600080fd5b600560009054906101000a900473ffffffffffffffffffffffffffffffffffffffff1673ffffffffffffffffffffffffffffffffffffffff1663d939881a836040518263ffffffff1660e01b81526004016121039190612a0f565b60006040518083038186803b15801561211b57600080fd5b505afa15801561212f573d6000803e3d6000fd5b505050506040513d6000823e3d601f19601f8201168201806040525081019061215891906124d8565b9050919050565b6000600160003373ffffffffffffffffffffffffffffffffffffffff1673ffffffffffffffffffffffffffffffffffffffff16815260200190815260200160002060009054906101000a900460ff166121b757600080fd5b600b54905090565b606080600160003373ffffffffffffffffffffffffffffffffffffffff1673ffffffffffffffffffffffffffffffffffffffff16815260200190815260200160002060009054906101000a900460ff1661221857600080fd5b600660009054906101000a900473ffffffffffffffffffffffffffffffffffffffff1673ffffffffffffffffffffffffffffffffffffffff1663f60e1306846040518263ffffffff1660e01b81526004016122739190612a0f565b60006040518083038186803b15801561228b57600080fd5b505afa15801561229f573d6000803e3d6000fd5b505050506040513d6000823e3d601f19601f820116820180604052508101906122c89190612519565b91509150915091565b8280546122dd90612b31565b90600052602060002090601f0160209004810192826122ff5760008555612346565b82601f1061231857805160ff1916838001178555612346565b82800160010185558215612346579182015b8281111561234557825182559160200191906001019061232a565b5b5090506123539190612357565b5090565b5b80821115612370576000816000905550600101612358565b5090565b600061238761238284612a5b565b612a2a565b90508281526020810184848401111561239f57600080fd5b6123aa848285612aef565b509392505050565b60006123c56123c084612a5b565b612a2a565b9050828152602081018484840111156123dd57600080fd5b6123e8848285612afe565b509392505050565b6000813590506123ff81612c4a565b92915050565b600082601f83011261241657600080fd5b8135612426848260208601612374565b91505092915050565b600082601f83011261244057600080fd5b81516124508482602086016123b2565b91505092915050565b60008135905061246881612c61565b92915050565b60006020828403121561248057600080fd5b600061248e848285016123f0565b91505092915050565b6000602082840312156124a957600080fd5b600082013567ffffffffffffffff8111156124c357600080fd5b6124cf84828501612405565b91505092915050565b6000602082840312156124ea57600080fd5b600082015167ffffffffffffffff81111561250457600080fd5b6125108482850161242f565b91505092915050565b6000806040838503121561252c57600080fd5b600083015167ffffffffffffffff81111561254657600080fd5b6125528582860161242f565b925050602083015167ffffffffffffffff81111561256f57600080fd5b61257b8582860161242f565b9150509250929050565b60008060006060848603121561259a57600080fd5b600084015167ffffffffffffffff8111156125b457600080fd5b6125c08682870161242f565b935050602084015167ffffffffffffffff8111156125dd57600080fd5b6125e98682870161242f565b925050604084015167ffffffffffffffff81111561260657600080fd5b6126128682870161242f565b9150509250925092565b6000806000806080858703121561263257600080fd5b600085015167ffffffffffffffff81111561264c57600080fd5b6126588782880161242f565b945050602085015167ffffffffffffffff81111561267557600080fd5b6126818782880161242f565b935050604085015167ffffffffffffffff81111561269e57600080fd5b6126aa8782880161242f565b925050606085015167ffffffffffffffff8111156126c757600080fd5b6126d38782880161242f565b91505092959194509250565b600080600080600060a086880312156126f757600080fd5b600086015167ffffffffffffffff81111561271157600080fd5b61271d8882890161242f565b955050602086015167ffffffffffffffff81111561273a57600080fd5b6127468882890161242f565b945050604086015167ffffffffffffffff81111561276357600080fd5b61276f8882890161242f565b935050606086015167ffffffffffffffff81111561278c57600080fd5b6127988882890161242f565b925050608086015167ffffffffffffffff8111156127b557600080fd5b6127c18882890161242f565b9150509295509295909350565b6000602082840312156127e057600080fd5b60006127ee84828501612459565b91505092915050565b61280081612aa7565b82525050565b61280f81612ab9565b82525050565b600061282082612a8b565b61282a8185612a96565b935061283a818560208601612afe565b61284381612c39565b840191505092915050565b61285781612ae5565b82525050565b600060208201905061287260008301846127f7565b92915050565b600060208201905061288d6000830184612806565b92915050565b600060208201905081810360008301526128ad8184612815565b905092915050565b600060408201905081810360008301526128cf8185612815565b905081810360208301526128e38184612815565b90509392505050565b600060608201905081810360008301526129068186612815565b9050818103602083015261291a8185612815565b9050818103604083015261292e8184612815565b9050949350505050565b600060808201905081810360008301526129528187612815565b905081810360208301526129668186612815565b9050818103604083015261297a8185612815565b9050818103606083015261298e8184612815565b905095945050505050565b600060a08201905081810360008301526129b38188612815565b905081810360208301526129c78187612815565b905081810360408301526129db8186612815565b905081810360608301526129ef8185612815565b90508181036080830152612a038184612815565b90509695505050505050565b6000602082019050612a24600083018461284e565b92915050565b6000604051905081810181811067ffffffffffffffff82111715612a5157612a50612c0a565b5b8060405250919050565b600067ffffffffffffffff821115612a7657612a75612c0a565b5b601f19601f8301169050602081019050919050565b600081519050919050565b600082825260208201905092915050565b6000612ab282612ac5565b9050919050565b60008115159050919050565b600073ffffffffffffffffffffffffffffffffffffffff82169050919050565b6000819050919050565b82818337600083830152505050565b60005b83811015612b1c578082015181840152602081019050612b01565b83811115612b2b576000848401525b50505050565b60006002820490506001821680612b4957607f821691505b60208210811415612b5d57612b5c612bdb565b5b50919050565b6000612b6e82612ae5565b91507fffffffffffffffffffffffffffffffffffffffffffffffffffffffffffffffff821415612ba157612ba0612bac565b5b600182019050919050565b7f4e487b7100000000000000000000000000000000000000000000000000000000600052601160045260246000fd5b7f4e487b7100000000000000000000000000000000000000000000000000000000600052602260045260246000fd5b7f4e487b7100000000000000000000000000000000000000000000000000000000600052604160045260246000fd5b6000601f19601f8301169050919050565b612c5381612aa7565b8114612c5e57600080fd5b50565b612c6a81612ae5565b8114612c7557600080fd5b5056fea26469706673582212202c870c998d226818c33960c7ae8999d6ed54bd9c16a10c3bb1daf0904917b2da64736f6c63430008000033",
  "immutableReferences": {},
  "source": "// SPDX-License-Identifier: MIT\r\npragma solidity ^0.8.0;\r\n\r\nimport \"./Agronomo.sol\";\r\nimport \"./Viticoltore.sol\";\r\nimport \"./Produttore.sol\";\r\nimport \"./Imbottigliatore.sol\";\r\nimport \"./Distributore.sol\";\r\nimport \"./Rivenditore.sol\";\r\nimport \"./Customer.sol\";\r\n\r\ncontract EnteCertificatore {\r\n\r\n    //dati per autorizzazioni alle chiamate delle funzioni\r\n    address public owner;\r\n    mapping(address => bool) public authorized;\r\n\r\n    constructor(address agronomoContractAddr, address viticoltoreContractAddr, address produttoreContractAddr, address imbottigliatoreContractAddr,\r\n    address distributoreContractAddr, address rivenditoreContractAddr/*, address customerContractAddr*/)  {\r\n\r\n        owner = msg.sender;\r\n        authorized[owner] = true; //solo per fare test, oppure  un'opzione valida se il deploy viene fatto da ogni singolo attore in maniera indipendente.\r\n\r\n        agronomoContract = Agronomo(agronomoContractAddr);\r\n        viticoltoreContract = Viticoltore(viticoltoreContractAddr);\r\n        produttoreContract = Produttore(produttoreContractAddr);\r\n        imbottigliatoreContract = Imbottigliatore(imbottigliatoreContractAddr);\r\n        distributoreContract = Distributore(distributoreContractAddr);\r\n        rivenditoreContract = Rivenditore(rivenditoreContractAddr);\r\n        //customerContract = Customer(customerContractAddr);\r\n        agronomoContract.addAuthorized(address(this));\r\n        viticoltoreContract.addAuthorized(address(this));\r\n        produttoreContract.addAuthorized(address(this));\r\n        imbottigliatoreContract.addAuthorized(address(this));\r\n        distributoreContract.addAuthorized(address(this));\r\n        rivenditoreContract.addAuthorized(address(this));\r\n\r\n    }\r\n\r\n    Agronomo agronomoContract;\r\n    Viticoltore viticoltoreContract;\r\n    Produttore produttoreContract;\r\n    Imbottigliatore imbottigliatoreContract;\r\n    Distributore distributoreContract;\r\n    Rivenditore rivenditoreContract;\r\n    Customer customerContract;\r\n\r\n    struct DatiEnteCertificatore {\r\n    //dati manuali\r\n    string validazione;\r\n    string certificazione;\r\n\r\n    }\r\n\r\n    mapping(uint256 => DatiEnteCertificatore) lotti;\r\n\r\n    /*identificatori funzioni lotti*/\r\n    uint256 idValidazioneSerial = 1;\r\n    uint256 idCertificazioneSerial = 1;\r\n\r\n    //funzioni di autorizzazione\r\n    function addAuthorized(address _address) public {\r\n        //require(msg.sender == owner); Da tenere solo per testing e comodit, a lavoro definitivo va levata.\r\n        authorized[_address] = true;\r\n    }\r\n\r\n    function removeAuthorized(address _address) public {\r\n        require(msg.sender == owner);\r\n        authorized[_address] = false;\r\n    }\r\n\r\n    //inserimento dati manuali\r\n    function setValidazione(string memory _validazione) public {\r\n        require(authorized[msg.sender]);\r\n        lotti[idValidazioneSerial].validazione = _validazione;\r\n        //customerContract.setValidazione(idValidazioneSerial, _validazione);\r\n        idValidazioneSerial++;\r\n    }\r\n\r\n    function setCertificazione(string memory _certificazione) public {\r\n        require(authorized[msg.sender]);\r\n        lotti[idCertificazioneSerial].certificazione = _certificazione;\r\n        //customerContract.setCertificazione(idCertificazioneSerial, _certificazione);\r\n        idCertificazioneSerial++;\r\n    }\r\n\r\n    //funzioni get\r\n    function getIdValidazioneSerial() public view returns(uint256) {\r\n        require(authorized[msg.sender]);\r\n        return idValidazioneSerial;\r\n    }\r\n\r\n    function getIdCertificazioneSerial() public view returns(uint256) {\r\n        require(authorized[msg.sender]);\r\n        return idCertificazioneSerial;\r\n    }\r\n\r\n    function getValidazione(uint256 _idLotto) public view returns(string memory) {\r\n        require(authorized[msg.sender]);\r\n        return lotti[_idLotto].validazione;\r\n    }\r\n\r\n    function getCertificazione(uint256 _idLotto) public view returns(string memory) {\r\n        require(authorized[msg.sender]);\r\n        return lotti[_idLotto].certificazione;\r\n    }\r\n\r\n    /*Funzioni GET degli altri attori (L'Ente Certificatore deve poter vedere tutto da tutti)*/\r\n    //GET informazioni Agronomo\r\n    function getAnalisiQualitaProdotto(uint256 _idTerreno) public view returns(string memory) {\r\n        require(authorized[msg.sender]);\r\n        return agronomoContract.getAnalisiQualitaProdotto(_idTerreno);\r\n    }\r\n\r\n    function getCertificazioneUvaAppezzamento(uint256 _idTerreno) public view returns(string memory) {\r\n       require(authorized[msg.sender]);\r\n       return agronomoContract.getCertificazioneUvaAppezzamento(_idTerreno);\r\n\r\n    }\r\n\r\n    function getDatiSensoriAgronomo(uint256 _idTerreno) public view returns(string memory, string memory, string memory, string memory) {\r\n        require(authorized[msg.sender]);\r\n        return agronomoContract.getDatiSensoriAgronomo(_idTerreno);\r\n\r\n    }\r\n\r\n    //GET funzioni Viticoltore\r\n    function getDataRaccolta(uint256 _idTerreno) public view returns(string memory) {\r\n        require(authorized[msg.sender]);\r\n        return viticoltoreContract.getDataRaccolta(_idTerreno);\r\n    }\r\n\r\n    function getDatiForniture(uint256 _idTerreno) public view returns(string memory) {\r\n        require(authorized[msg.sender]);\r\n        return viticoltoreContract.getDatiForniture(_idTerreno);\r\n    }\r\n\r\n    function getDestinazioneUva(uint256 _idTerreno) public view returns(string memory) {\r\n        require(authorized[msg.sender]);\r\n        return viticoltoreContract.getDestinazioneUva(_idTerreno);\r\n    }\r\n\r\n    function getDatiVenditaViticoltore(uint256 _idTerreno) public view returns(string memory, string memory, string memory, string memory, string memory) {\r\n        require(authorized[msg.sender]);\r\n        return viticoltoreContract.getDatiVendita(_idTerreno);\r\n    }\r\n\r\n    function getDatiSensoriViticoltore(uint256 _idTerreno) public view returns(string memory, string memory, string memory, string memory, string memory) {\r\n        require(authorized[msg.sender]);\r\n        return viticoltoreContract.getDatiSensoriViticoltore(_idTerreno);\r\n    }\r\n\r\n    //GET funzioni Produttore\r\n    function getProdottiVinificazione(uint256 _idLotto) public view returns(string memory) {\r\n        require(authorized[msg.sender]);\r\n        return produttoreContract.getProdottiVinificazione(_idLotto);\r\n    }\r\n\r\n    function getQuantitaVinoOttenuto(uint256 _idLotto) public view returns(string memory) {\r\n        require(authorized[msg.sender]);\r\n        return produttoreContract.getQuantitaVinoOttenuto(_idLotto);\r\n    }\r\n\r\n    function getQuantitaVinoRivendicato(uint256 _idLotto) public view returns(string memory) {\r\n        require(authorized[msg.sender]);\r\n        return produttoreContract.getQuantitaVinoRivendicato(_idLotto);\r\n    }\r\n\r\n    function getDatiSensoriProduttore(uint256 _idLotto) public view returns(string memory, string memory, string memory, string memory) {\r\n        require(authorized[msg.sender]);\r\n        return produttoreContract.getDatiSensoriProduttore(_idLotto);\r\n    }\r\n\r\n    //GET funzioni Imbottigliatore\r\n    function getSolfiti(uint256 _idLotto) public view returns(string memory) {\r\n        require(authorized[msg.sender]);\r\n        return imbottigliatoreContract.getSolfiti(_idLotto);\r\n    }\r\n\r\n    function getAllergeni(uint256 _idLotto) public view returns(string memory) {\r\n        require(authorized[msg.sender]);\r\n        return imbottigliatoreContract.getAllergeni(_idLotto);\r\n    }\r\n\r\n    function getlocalitaUve(uint256 _idLotto) public view returns(string memory) {\r\n        require(authorized[msg.sender]);\r\n        return imbottigliatoreContract.getlocalitaUve(_idLotto);\r\n    }\r\n\r\n    function getCodiceBarre(uint256 _idLotto) public view returns(string memory) {\r\n        require(authorized[msg.sender]);\r\n        return imbottigliatoreContract.getCodiceBarre(_idLotto);\r\n    }\r\n\r\n    function getDatiSensoriImbottigliatore(uint256 _idLotto) public view returns(string memory, string memory, string memory) {\r\n        require(authorized[msg.sender]);\r\n        return imbottigliatoreContract.getDatiSensoriImbottigliatore(_idLotto);\r\n    }\r\n\r\n    //GET funzioni Distributore\r\n    function getDestinazione(uint256 _idLotto) public view returns(string memory) {\r\n        require(authorized[msg.sender]);\r\n        return distributoreContract.getDestinazione(_idLotto);\r\n    }\r\n\r\n    function getDatiVenditaDistributore(uint256 _idLotto) public view returns(string memory, string memory, string memory, string memory, string memory) {\r\n        return distributoreContract.getDatiVendita(_idLotto);\r\n    }\r\n\r\n    function getDatiSensoriDistributore(uint256 _idLotto) public view returns(string memory, string memory) {\r\n        require(authorized[msg.sender]);\r\n        return distributoreContract.getDatiSensoriDistributore(_idLotto);\r\n    }\r\n\r\n    //GET funzioni Rivenditore\r\n    function getDatiSensoriRivenditore(uint256 _idLotto) public view returns(string memory) {\r\n        require(authorized[msg.sender]);\r\n        return rivenditoreContract.getDatiSensoriRivenditore(_idLotto);\r\n    }\r\n}\r\n",
  "sourcePath": "C:\\Users\\Erman\\OneDrive\\BinTraWine_github\\BinTraWine\\contracts\\EnteCertificatore.sol",
  "compiler": {
    "name": "solc",
    "version": "0.8.0+commit.c7dfd78e.Emscripten.clang"
  },
  "schemaVersion": "3.4.13",
  "updatedAt": "2023-06-25T15:06:34.435Z",
  "networkType": "quorum",
  "devdoc": {
    "kind": "dev",
    "methods": {},
    "version": 1
  },
  "userdoc": {
    "kind": "user",
    "methods": {},
    "version": 1
  }
}