{
  "contractName": "Imbottigliatore",
  "abi": [
    {
      "inputs": [
        {
          "internalType": "address",
          "name": "_produttoreContractAddress",
          "type": "address"
        },
        {
          "internalType": "address",
          "name": "_viticoltoreContractAddress",
          "type": "address"
        }
      ],
      "stateMutability": "nonpayable",
      "type": "constructor"
    },
    {
      "inputs": [
        {
          "internalType": "address",
          "name": "",
          "type": "address"
        }
      ],
      "name": "authorized",
      "outputs": [
        {
          "internalType": "bool",
          "name": "",
          "type": "bool"
        }
      ],
      "stateMutability": "view",
      "type": "function",
      "constant": true
    },
    {
      "inputs": [],
      "name": "owner",
      "outputs": [
        {
          "internalType": "address",
          "name": "",
          "type": "address"
        }
      ],
      "stateMutability": "view",
      "type": "function",
      "constant": true
    },
    {
      "inputs": [
        {
          "internalType": "address",
          "name": "_address",
          "type": "address"
        }
      ],
      "name": "addAuthorized",
      "outputs": [],
      "stateMutability": "nonpayable",
      "type": "function"
    },
    {
      "inputs": [
        {
          "internalType": "address",
          "name": "_address",
          "type": "address"
        }
      ],
      "name": "removeAuthorized",
      "outputs": [],
      "stateMutability": "nonpayable",
      "type": "function"
    },
    {
      "inputs": [
        {
          "internalType": "string",
          "name": "_solfiti",
          "type": "string"
        }
      ],
      "name": "setSolfiti",
      "outputs": [],
      "stateMutability": "nonpayable",
      "type": "function"
    },
    {
      "inputs": [
        {
          "internalType": "string",
          "name": "_allergeni",
          "type": "string"
        }
      ],
      "name": "setAllergeni",
      "outputs": [],
      "stateMutability": "nonpayable",
      "type": "function"
    },
    {
      "inputs": [
        {
          "internalType": "string",
          "name": "_localitaUve",
          "type": "string"
        }
      ],
      "name": "setLocalitaUve",
      "outputs": [],
      "stateMutability": "nonpayable",
      "type": "function"
    },
    {
      "inputs": [
        {
          "internalType": "string",
          "name": "_codiceBarre",
          "type": "string"
        }
      ],
      "name": "setCodiceBarre",
      "outputs": [],
      "stateMutability": "nonpayable",
      "type": "function"
    },
    {
      "inputs": [
        {
          "internalType": "uint256",
          "name": "_idLotto",
          "type": "uint256"
        },
        {
          "internalType": "string",
          "name": "_quantitaProdottoRicevuta",
          "type": "string"
        },
        {
          "internalType": "string",
          "name": "_quantitaVinoImbottigliata",
          "type": "string"
        },
        {
          "internalType": "string",
          "name": "_gradazioneAlcolica",
          "type": "string"
        }
      ],
      "name": "setSensoriImbottigliatore",
      "outputs": [],
      "stateMutability": "nonpayable",
      "type": "function"
    },
    {
      "inputs": [],
      "name": "getMappaLottiLength",
      "outputs": [
        {
          "internalType": "uint256",
          "name": "",
          "type": "uint256"
        }
      ],
      "stateMutability": "view",
      "type": "function",
      "constant": true
    },
    {
      "inputs": [],
      "name": "queryQuantitaProdottoRicevutaPerLotto",
      "outputs": [
        {
          "internalType": "string[]",
          "name": "",
          "type": "string[]"
        },
        {
          "internalType": "uint256[]",
          "name": "",
          "type": "uint256[]"
        }
      ],
      "stateMutability": "view",
      "type": "function",
      "constant": true
    },
    {
      "inputs": [],
      "name": "queryQuantitaVinoImbottigliataPerLotto",
      "outputs": [
        {
          "internalType": "string[]",
          "name": "",
          "type": "string[]"
        },
        {
          "internalType": "uint256[]",
          "name": "",
          "type": "uint256[]"
        }
      ],
      "stateMutability": "view",
      "type": "function",
      "constant": true
    },
    {
      "inputs": [],
      "name": "getIdSolfitiSerial",
      "outputs": [
        {
          "internalType": "uint256",
          "name": "",
          "type": "uint256"
        }
      ],
      "stateMutability": "view",
      "type": "function",
      "constant": true
    },
    {
      "inputs": [],
      "name": "getIdAllergeniSerial",
      "outputs": [
        {
          "internalType": "uint256",
          "name": "",
          "type": "uint256"
        }
      ],
      "stateMutability": "view",
      "type": "function",
      "constant": true
    },
    {
      "inputs": [],
      "name": "getIdLocalitaUveSerial",
      "outputs": [
        {
          "internalType": "uint256",
          "name": "",
          "type": "uint256"
        }
      ],
      "stateMutability": "view",
      "type": "function",
      "constant": true
    },
    {
      "inputs": [],
      "name": "getIdCodiceBarreSerial",
      "outputs": [
        {
          "internalType": "uint256",
          "name": "",
          "type": "uint256"
        }
      ],
      "stateMutability": "view",
      "type": "function",
      "constant": true
    },
    {
      "inputs": [
        {
          "internalType": "uint256",
          "name": "_idLotto",
          "type": "uint256"
        }
      ],
      "name": "getSolfiti",
      "outputs": [
        {
          "internalType": "string",
          "name": "",
          "type": "string"
        }
      ],
      "stateMutability": "view",
      "type": "function",
      "constant": true
    },
    {
      "inputs": [
        {
          "internalType": "uint256",
          "name": "_idLotto",
          "type": "uint256"
        }
      ],
      "name": "getAllergeni",
      "outputs": [
        {
          "internalType": "string",
          "name": "",
          "type": "string"
        }
      ],
      "stateMutability": "view",
      "type": "function",
      "constant": true
    },
    {
      "inputs": [
        {
          "internalType": "uint256",
          "name": "_idLotto",
          "type": "uint256"
        }
      ],
      "name": "getlocalitaUve",
      "outputs": [
        {
          "internalType": "string",
          "name": "",
          "type": "string"
        }
      ],
      "stateMutability": "view",
      "type": "function",
      "constant": true
    },
    {
      "inputs": [
        {
          "internalType": "uint256",
          "name": "_idLotto",
          "type": "uint256"
        }
      ],
      "name": "getCodiceBarre",
      "outputs": [
        {
          "internalType": "string",
          "name": "",
          "type": "string"
        }
      ],
      "stateMutability": "view",
      "type": "function",
      "constant": true
    },
    {
      "inputs": [
        {
          "internalType": "uint256",
          "name": "_idLotto",
          "type": "uint256"
        }
      ],
      "name": "getDatiSensoriImbottigliatore",
      "outputs": [
        {
          "internalType": "string",
          "name": "",
          "type": "string"
        },
        {
          "internalType": "string",
          "name": "",
          "type": "string"
        },
        {
          "internalType": "string",
          "name": "",
          "type": "string"
        }
      ],
      "stateMutability": "view",
      "type": "function",
      "constant": true
    },
    {
      "inputs": [
        {
          "internalType": "uint256",
          "name": "_idLotto",
          "type": "uint256"
        }
      ],
      "name": "getListaProdottiVinificazione",
      "outputs": [
        {
          "internalType": "string",
          "name": "",
          "type": "string"
        }
      ],
      "stateMutability": "view",
      "type": "function",
      "constant": true
    },
    {
      "inputs": [
        {
          "internalType": "uint256",
          "name": "_idLotto",
          "type": "uint256"
        }
      ],
      "name": "getDestinazioneUva",
      "outputs": [
        {
          "internalType": "string",
          "name": "",
          "type": "string"
        }
      ],
      "stateMutability": "view",
      "type": "function",
      "constant": true
    }
  ],
  "bytecode": "0x608060405260016005556001600655600160075560016008553480156200002557600080fd5b50604051620022b2380380620022b283398181016040528101906200004b9190620001a4565b336000806101000a81548173ffffffffffffffffffffffffffffffffffffffff021916908373ffffffffffffffffffffffffffffffffffffffff16021790555060018060008060009054906101000a900473ffffffffffffffffffffffffffffffffffffffff1673ffffffffffffffffffffffffffffffffffffffff1673ffffffffffffffffffffffffffffffffffffffff16815260200190815260200160002060006101000a81548160ff02191690831515021790555081600260006101000a81548173ffffffffffffffffffffffffffffffffffffffff021916908373ffffffffffffffffffffffffffffffffffffffff16021790555080600360006101000a81548173ffffffffffffffffffffffffffffffffffffffff021916908373ffffffffffffffffffffffffffffffffffffffff160217905550505062000233565b6000815190506200019e8162000219565b92915050565b60008060408385031215620001b857600080fd5b6000620001c8858286016200018d565b9250506020620001db858286016200018d565b9150509250929050565b6000620001f282620001f9565b9050919050565b600073ffffffffffffffffffffffffffffffffffffffff82169050919050565b6200022481620001e5565b81146200023057600080fd5b50565b61206f80620002436000396000f3fe608060405234801561001057600080fd5b506004361061014d5760003560e01c8063485d7d94116100c3578063b91816111161007c578063b9181611146103a1578063b9e67142146103d1578063c5fe6af4146103ef578063cf1c316a1461041f578063d939881a1461043b578063ec422e4f1461046b5761014d565b8063485d7d94146102e35780634c4c2054146102ff5780636f036a9b1461031b5780638da5cb5b146103375780639d740b1a14610355578063b1689d40146103715761014d565b806318775bdf1161011557806318775bdf1461021c5780632a2a0b351461023a57806330d381d31461025957806331c82f60146102775780633a86803e146102955780633df6d06a146102b15761014d565b806303747a471461015257806304f78e151461017057806305edddca146101a05780630da52d3c146101d0578063129e0c5a14610200575b600080fd5b61015a61048a565b6040516101679190611d19565b60405180910390f35b61018a600480360381019061018591906119bd565b610519565b6040516101979190611cab565b60405180910390f35b6101ba60048036038101906101b591906119bd565b610617565b6040516101c79190611cab565b60405180910390f35b6101ea60048036038101906101e591906119bd565b610715565b6040516101f79190611cab565b60405180910390f35b61021a6004803603810190610215919061193b565b610813565b005b6102246108b1565b6040516102319190611d19565b60405180910390f35b610242610911565b604051610250929190611c59565b60405180910390f35b610261610b7b565b60405161026e9190611d19565b60405180910390f35b61027f610bdb565b60405161028c9190611d19565b60405180910390f35b6102af60048036038101906102aa91906119e6565b610c3b565b005b6102cb60048036038101906102c691906119bd565b610cc2565b6040516102da93929190611ccd565b60405180910390f35b6102fd60048036038101906102f89190611912565b610f10565b005b6103196004803603810190610314919061193b565b610fc3565b005b6103356004803603810190610330919061193b565b611061565b005b61033f6110ff565b60405161034c9190611c3e565b60405180910390f35b61036f600480360381019061036a919061193b565b611123565b005b61038b600480360381019061038691906119bd565b6111c1565b6040516103989190611cab565b60405180910390f35b6103bb60048036038101906103b69190611912565b61127a565b6040516103c89190611c90565b60405180910390f35b6103d961129a565b6040516103e69190611d19565b60405180910390f35b610409600480360381019061040491906119bd565b6112fa565b6040516104169190611cab565b60405180910390f35b61043960048036038101906104349190611912565b6113b3565b005b610455600480360381019061045091906119bd565b61140d565b6040516104629190611cab565b60405180910390f35b61047361150b565b604051610481929190611c59565b60405180910390f35b600080600090506000600190505b7fffffffffffffffffffffffffffffffffffffffffffffffffffffffffffffffff8110156105115760006004600083815260200190815260200160002060040180546104e390611ef2565b905014156104f057610511565b81806104fb90611f24565b925050808061050990611f24565b915050610498565b508091505090565b6060600160003373ffffffffffffffffffffffffffffffffffffffff1673ffffffffffffffffffffffffffffffffffffffff16815260200190815260200160002060009054906101000a900460ff1661057157600080fd5b60046000838152602001908152602001600020600201805461059290611ef2565b80601f01602080910402602001604051908101604052809291908181526020018280546105be90611ef2565b801561060b5780601f106105e05761010080835404028352916020019161060b565b820191906000526020600020905b8154815290600101906020018083116105ee57829003601f168201915b50505050509050919050565b6060600160003373ffffffffffffffffffffffffffffffffffffffff1673ffffffffffffffffffffffffffffffffffffffff16815260200190815260200160002060009054906101000a900460ff1661066f57600080fd5b60046000838152602001908152602001600020600101805461069090611ef2565b80601f01602080910402602001604051908101604052809291908181526020018280546106bc90611ef2565b80156107095780601f106106de57610100808354040283529160200191610709565b820191906000526020600020905b8154815290600101906020018083116106ec57829003601f168201915b50505050509050919050565b6060600160003373ffffffffffffffffffffffffffffffffffffffff1673ffffffffffffffffffffffffffffffffffffffff16815260200190815260200160002060009054906101000a900460ff1661076d57600080fd5b60046000838152602001908152602001600020600301805461078e90611ef2565b80601f01602080910402602001604051908101604052809291908181526020018280546107ba90611ef2565b80156108075780601f106107dc57610100808354040283529160200191610807565b820191906000526020600020905b8154815290600101906020018083116107ea57829003601f168201915b50505050509050919050565b600160003373ffffffffffffffffffffffffffffffffffffffff1673ffffffffffffffffffffffffffffffffffffffff16815260200190815260200160002060009054906101000a900460ff1661086957600080fd5b806004600060065481526020019081526020016000206001019080519060200190610895929190611775565b50600660008154809291906108a990611f24565b919050555050565b6000600160003373ffffffffffffffffffffffffffffffffffffffff1673ffffffffffffffffffffffffffffffffffffffff16815260200190815260200160002060009054906101000a900460ff1661090957600080fd5b600854905090565b606080600061091e61048a565b905060008167ffffffffffffffff811115610962577f4e487b7100000000000000000000000000000000000000000000000000000000600052604160045260246000fd5b60405190808252806020026020018201604052801561099557816020015b60608152602001906001900390816109805790505b50905060008267ffffffffffffffff8111156109da577f4e487b7100000000000000000000000000000000000000000000000000000000600052604160045260246000fd5b604051908082528060200260200182016040528015610a085781602001602082028036833780820191505090505b5090506000600190505b838111610b6d578082600183610a289190611e34565b81518110610a5f577f4e487b7100000000000000000000000000000000000000000000000000000000600052603260045260246000fd5b602002602001018181525050600460008281526020019081526020016000206005018054610a8c90611ef2565b80601f0160208091040260200160405190810160405280929190818152602001828054610ab890611ef2565b8015610b055780601f10610ada57610100808354040283529160200191610b05565b820191906000526020600020905b815481529060010190602001808311610ae857829003601f168201915b505050505083600183610b189190611e34565b81518110610b4f577f4e487b7100000000000000000000000000000000000000000000000000000000600052603260045260246000fd5b60200260200101819052508080610b6590611f24565b915050610a12565b508181945094505050509091565b6000600160003373ffffffffffffffffffffffffffffffffffffffff1673ffffffffffffffffffffffffffffffffffffffff16815260200190815260200160002060009054906101000a900460ff16610bd357600080fd5b600754905090565b6000600160003373ffffffffffffffffffffffffffffffffffffffff1673ffffffffffffffffffffffffffffffffffffffff16815260200190815260200160002060009054906101000a900460ff16610c3357600080fd5b600654905090565b82600460008681526020019081526020016000206004019080519060200190610c65929190611775565b5081600460008681526020019081526020016000206005019080519060200190610c90929190611775565b5080600460008681526020019081526020016000206006019080519060200190610cbb929190611775565b5050505050565b6060806060600160003373ffffffffffffffffffffffffffffffffffffffff1673ffffffffffffffffffffffffffffffffffffffff16815260200190815260200160002060009054906101000a900460ff16610d1d57600080fd5b600460008581526020019081526020016000206004016004600086815260200190815260200160002060050160046000878152602001908152602001600020600601828054610d6b90611ef2565b80601f0160208091040260200160405190810160405280929190818152602001828054610d9790611ef2565b8015610de45780601f10610db957610100808354040283529160200191610de4565b820191906000526020600020905b815481529060010190602001808311610dc757829003601f168201915b50505050509250818054610df790611ef2565b80601f0160208091040260200160405190810160405280929190818152602001828054610e2390611ef2565b8015610e705780601f10610e4557610100808354040283529160200191610e70565b820191906000526020600020905b815481529060010190602001808311610e5357829003601f168201915b50505050509150808054610e8390611ef2565b80601f0160208091040260200160405190810160405280929190818152602001828054610eaf90611ef2565b8015610efc5780601f10610ed157610100808354040283529160200191610efc565b820191906000526020600020905b815481529060010190602001808311610edf57829003601f168201915b505050505090509250925092509193909250565b60008054906101000a900473ffffffffffffffffffffffffffffffffffffffff1673ffffffffffffffffffffffffffffffffffffffff163373ffffffffffffffffffffffffffffffffffffffff1614610f6857600080fd5b6000600160008373ffffffffffffffffffffffffffffffffffffffff1673ffffffffffffffffffffffffffffffffffffffff16815260200190815260200160002060006101000a81548160ff02191690831515021790555050565b600160003373ffffffffffffffffffffffffffffffffffffffff1673ffffffffffffffffffffffffffffffffffffffff16815260200190815260200160002060009054906101000a900460ff1661101957600080fd5b806004600060085481526020019081526020016000206003019080519060200190611045929190611775565b506008600081548092919061105990611f24565b919050555050565b600160003373ffffffffffffffffffffffffffffffffffffffff1673ffffffffffffffffffffffffffffffffffffffff16815260200190815260200160002060009054906101000a900460ff166110b757600080fd5b8060046000600554815260200190815260200160002060000190805190602001906110e3929190611775565b50600560008154809291906110f790611f24565b919050555050565b60008054906101000a900473ffffffffffffffffffffffffffffffffffffffff1681565b600160003373ffffffffffffffffffffffffffffffffffffffff1673ffffffffffffffffffffffffffffffffffffffff16815260200190815260200160002060009054906101000a900460ff1661117957600080fd5b8060046000600754815260200190815260200160002060020190805190602001906111a5929190611775565b50600760008154809291906111b990611f24565b919050555050565b6060600360009054906101000a900473ffffffffffffffffffffffffffffffffffffffff1673ffffffffffffffffffffffffffffffffffffffff1663b1689d40836040518263ffffffff1660e01b815260040161121e9190611d19565b60006040518083038186803b15801561123657600080fd5b505afa15801561124a573d6000803e3d6000fd5b505050506040513d6000823e3d601f19601f82011682018060405250810190611273919061197c565b9050919050565b60016020528060005260406000206000915054906101000a900460ff1681565b6000600160003373ffffffffffffffffffffffffffffffffffffffff1673ffffffffffffffffffffffffffffffffffffffff16815260200190815260200160002060009054906101000a900460ff166112f257600080fd5b600554905090565b6060600260009054906101000a900473ffffffffffffffffffffffffffffffffffffffff1673ffffffffffffffffffffffffffffffffffffffff1663635b75cb836040518263ffffffff1660e01b81526004016113579190611d19565b60006040518083038186803b15801561136f57600080fd5b505afa158015611383573d6000803e3d6000fd5b505050506040513d6000823e3d601f19601f820116820180604052508101906113ac919061197c565b9050919050565b60018060008373ffffffffffffffffffffffffffffffffffffffff1673ffffffffffffffffffffffffffffffffffffffff16815260200190815260200160002060006101000a81548160ff02191690831515021790555050565b6060600160003373ffffffffffffffffffffffffffffffffffffffff1673ffffffffffffffffffffffffffffffffffffffff16815260200190815260200160002060009054906101000a900460ff1661146557600080fd5b60046000838152602001908152602001600020600001805461148690611ef2565b80601f01602080910402602001604051908101604052809291908181526020018280546114b290611ef2565b80156114ff5780601f106114d4576101008083540402835291602001916114ff565b820191906000526020600020905b8154815290600101906020018083116114e257829003601f168201915b50505050509050919050565b606080600061151861048a565b905060008167ffffffffffffffff81111561155c577f4e487b7100000000000000000000000000000000000000000000000000000000600052604160045260246000fd5b60405190808252806020026020018201604052801561158f57816020015b606081526020019060019003908161157a5790505b50905060008267ffffffffffffffff8111156115d4577f4e487b7100000000000000000000000000000000000000000000000000000000600052604160045260246000fd5b6040519080825280602002602001820160405280156116025781602001602082028036833780820191505090505b5090506000600190505b8381116117675780826001836116229190611e34565b81518110611659577f4e487b7100000000000000000000000000000000000000000000000000000000600052603260045260246000fd5b60200260200101818152505060046000828152602001908152602001600020600401805461168690611ef2565b80601f01602080910402602001604051908101604052809291908181526020018280546116b290611ef2565b80156116ff5780601f106116d4576101008083540402835291602001916116ff565b820191906000526020600020905b8154815290600101906020018083116116e257829003601f168201915b5050505050836001836117129190611e34565b81518110611749577f4e487b7100000000000000000000000000000000000000000000000000000000600052603260045260246000fd5b6020026020010181905250808061175f90611f24565b91505061160c565b508181945094505050509091565b82805461178190611ef2565b90600052602060002090601f0160209004810192826117a357600085556117ea565b82601f106117bc57805160ff19168380011785556117ea565b828001600101855582156117ea579182015b828111156117e95782518255916020019190600101906117ce565b5b5090506117f791906117fb565b5090565b5b808211156118145760008160009055506001016117fc565b5090565b600061182b61182684611d65565b611d34565b90508281526020810184848401111561184357600080fd5b61184e848285611eb0565b509392505050565b600061186961186484611d65565b611d34565b90508281526020810184848401111561188157600080fd5b61188c848285611ebf565b509392505050565b6000813590506118a38161200b565b92915050565b600082601f8301126118ba57600080fd5b81356118ca848260208601611818565b91505092915050565b600082601f8301126118e457600080fd5b81516118f4848260208601611856565b91505092915050565b60008135905061190c81612022565b92915050565b60006020828403121561192457600080fd5b600061193284828501611894565b91505092915050565b60006020828403121561194d57600080fd5b600082013567ffffffffffffffff81111561196757600080fd5b611973848285016118a9565b91505092915050565b60006020828403121561198e57600080fd5b600082015167ffffffffffffffff8111156119a857600080fd5b6119b4848285016118d3565b91505092915050565b6000602082840312156119cf57600080fd5b60006119dd848285016118fd565b91505092915050565b600080600080608085870312156119fc57600080fd5b6000611a0a878288016118fd565b945050602085013567ffffffffffffffff811115611a2757600080fd5b611a33878288016118a9565b935050604085013567ffffffffffffffff811115611a5057600080fd5b611a5c878288016118a9565b925050606085013567ffffffffffffffff811115611a7957600080fd5b611a85878288016118a9565b91505092959194509250565b6000611a9d8383611bae565b905092915050565b6000611ab18383611c20565b60208301905092915050565b611ac681611e68565b82525050565b6000611ad782611db5565b611ae18185611df0565b935083602082028501611af385611d95565b8060005b85811015611b2f5784840389528151611b108582611a91565b9450611b1b83611dd6565b925060208a01995050600181019050611af7565b50829750879550505050505092915050565b6000611b4c82611dc0565b611b568185611e01565b9350611b6183611da5565b8060005b83811015611b92578151611b798882611aa5565b9750611b8483611de3565b925050600181019050611b65565b5085935050505092915050565b611ba881611e7a565b82525050565b6000611bb982611dcb565b611bc38185611e12565b9350611bd3818560208601611ebf565b611bdc81611ffa565b840191505092915050565b6000611bf282611dcb565b611bfc8185611e23565b9350611c0c818560208601611ebf565b611c1581611ffa565b840191505092915050565b611c2981611ea6565b82525050565b611c3881611ea6565b82525050565b6000602082019050611c536000830184611abd565b92915050565b60006040820190508181036000830152611c738185611acc565b90508181036020830152611c878184611b41565b90509392505050565b6000602082019050611ca56000830184611b9f565b92915050565b60006020820190508181036000830152611cc58184611be7565b905092915050565b60006060820190508181036000830152611ce78186611be7565b90508181036020830152611cfb8185611be7565b90508181036040830152611d0f8184611be7565b9050949350505050565b6000602082019050611d2e6000830184611c2f565b92915050565b6000604051905081810181811067ffffffffffffffff82111715611d5b57611d5a611fcb565b5b8060405250919050565b600067ffffffffffffffff821115611d8057611d7f611fcb565b5b601f19601f8301169050602081019050919050565b6000819050602082019050919050565b6000819050602082019050919050565b600081519050919050565b600081519050919050565b600081519050919050565b6000602082019050919050565b6000602082019050919050565b600082825260208201905092915050565b600082825260208201905092915050565b600082825260208201905092915050565b600082825260208201905092915050565b6000611e3f82611ea6565b9150611e4a83611ea6565b925082821015611e5d57611e5c611f6d565b5b828203905092915050565b6000611e7382611e86565b9050919050565b60008115159050919050565b600073ffffffffffffffffffffffffffffffffffffffff82169050919050565b6000819050919050565b82818337600083830152505050565b60005b83811015611edd578082015181840152602081019050611ec2565b83811115611eec576000848401525b50505050565b60006002820490506001821680611f0a57607f821691505b60208210811415611f1e57611f1d611f9c565b5b50919050565b6000611f2f82611ea6565b91507fffffffffffffffffffffffffffffffffffffffffffffffffffffffffffffffff821415611f6257611f61611f6d565b5b600182019050919050565b7f4e487b7100000000000000000000000000000000000000000000000000000000600052601160045260246000fd5b7f4e487b7100000000000000000000000000000000000000000000000000000000600052602260045260246000fd5b7f4e487b7100000000000000000000000000000000000000000000000000000000600052604160045260246000fd5b6000601f19601f8301169050919050565b61201481611e68565b811461201f57600080fd5b50565b61202b81611ea6565b811461203657600080fd5b5056fea264697066735822122079360e5e0d875f163ddeec5912a64873959239db743b0499a235d2550913027e64736f6c63430008000033",
  "immutableReferences": {},
  "source": "// SPDX-License-Identifier: MIT\r\npragma solidity ^0.8.0;\r\n\r\nimport \"./Produttore.sol\";\r\nimport \"./Viticoltore.sol\";\r\n\r\ncontract Imbottigliatore {\r\n\r\n    //dati per autorizzazioni alle chiamate delle funzioni\r\n    address public owner;\r\n    mapping(address => bool) public authorized;\r\n\r\n    Produttore produttoreContract;\r\n    Viticoltore viticoltoreContract;\r\n\r\n    constructor(address _produttoreContractAddress, address _viticoltoreContractAddress) {\r\n        owner = msg.sender;\r\n        authorized[owner] = true; //solo per fare test, oppure  un'opzione valida se il deploy viene fatto da ogni singolo attore in maniera indipendente.\r\n        produttoreContract = Produttore(_produttoreContractAddress);\r\n        viticoltoreContract = Viticoltore(_viticoltoreContractAddress);\r\n    }\r\n\r\n    struct DatiImbottigliatore {\r\n\r\n        //dati manuali\r\n        string solfiti;\r\n        string allergeni;\r\n        string localitaUve;\r\n        string codiceBarre;\r\n\r\n        //dati automatici\r\n        string quantitaProdottoRicevuta;\r\n        string quantitaVinoImbottigliata;\r\n        string gradazioneAlcolica;\r\n    }\r\n\r\n    mapping(uint256 => DatiImbottigliatore) lotti;\r\n\r\n    /*identificazione funzioni lotti*/\r\n    uint256 idSolfitiSerial = 1;\r\n    uint256 idAllergeniSerial = 1;\r\n    uint256 idLocalitaUveSerial = 1;\r\n    uint256 idCodiceBarreSerial = 1;\r\n\r\n    //funzioni di autorizzazione \r\n    function addAuthorized(address _address) public {\r\n        //require(msg.sender == owner);\r\n        authorized[_address] = true;\r\n    }\r\n\r\n    function removeAuthorized(address _address) public {\r\n        require(msg.sender == owner);\r\n        authorized[_address] = false;\r\n    }\r\n\r\n    //inserimento manuale\r\n    function setSolfiti(string memory _solfiti) public {\r\n        require(authorized[msg.sender]);\r\n        lotti[idSolfitiSerial].solfiti = _solfiti;\r\n        idSolfitiSerial++;\r\n    }\r\n\r\n    function setAllergeni(string memory _allergeni) public {\r\n        require(authorized[msg.sender]);\r\n        lotti[idAllergeniSerial].allergeni = _allergeni;\r\n        idAllergeniSerial++;\r\n    }\r\n\r\n    function setLocalitaUve(string memory _localitaUve) public {\r\n        require(authorized[msg.sender]);\r\n        lotti[idLocalitaUveSerial].localitaUve = _localitaUve;\r\n        idLocalitaUveSerial++;\r\n    }\r\n\r\n    function setCodiceBarre(string memory _codiceBarre) public {\r\n        require(authorized[msg.sender]);\r\n        lotti[idCodiceBarreSerial].codiceBarre = _codiceBarre;\r\n        idCodiceBarreSerial++;\r\n    }\r\n\r\n    //inserimento automatico\r\n    function setSensoriImbottigliatore(uint256 _idLotto, string memory _quantitaProdottoRicevuta, string memory _quantitaVinoImbottigliata, string memory _gradazioneAlcolica) public {\r\n\r\n        lotti[_idLotto].quantitaProdottoRicevuta = _quantitaProdottoRicevuta;\r\n        lotti[_idLotto].quantitaVinoImbottigliata = _quantitaVinoImbottigliata;\r\n        lotti[_idLotto].gradazioneAlcolica = _gradazioneAlcolica;\r\n    }\r\n\r\n    /*query e metodi di appoggio per data analysis*/\r\n    function getMappaLottiLength() public view returns(uint256){\r\n        uint256 count = 0;\r\n    for (uint256 i = 1; i < type(uint256).max; i++) {\r\n        if (bytes(lotti[i].quantitaProdottoRicevuta).length == 0) {\r\n            break;\r\n        }\r\n        count++;\r\n    }\r\n    return count;\r\n    }\r\n\r\n    function queryQuantitaProdottoRicevutaPerLotto() public view returns(string[] memory, uint256[] memory){\r\n        \r\n        uint256 length = getMappaLottiLength();\r\n        string[] memory result = new string[](length);\r\n        uint256[] memory resultLotti = new uint256[](length);\r\n\r\n        for(uint256 i=1; i<=length; i++){\r\n            resultLotti[i-1] = i;\r\n            result[i-1] = lotti[i].quantitaProdottoRicevuta;\r\n        }\r\n        return (result, resultLotti);\r\n    }\r\n\r\n    function queryQuantitaVinoImbottigliataPerLotto() public view returns(string[] memory, uint256[] memory){\r\n        \r\n        uint256 length = getMappaLottiLength();\r\n        string[] memory result = new string[](length);\r\n        uint256[] memory resultLotti = new uint256[](length);\r\n\r\n        for(uint256 i=1; i<=length; i++){\r\n            resultLotti[i-1] = i;\r\n            result[i-1] = lotti[i].quantitaVinoImbottigliata;\r\n        }\r\n        return (result, resultLotti);\r\n    }\r\n    \r\n    //\r\n\r\n    //funzioni get\r\n    function getIdSolfitiSerial() public view returns(uint256) {\r\n        require(authorized[msg.sender]);\r\n        return idSolfitiSerial;\r\n    }\r\n\r\n    function getIdAllergeniSerial() public view returns(uint256) {\r\n        require(authorized[msg.sender]);\r\n        return idAllergeniSerial;\r\n    }\r\n\r\n    function getIdLocalitaUveSerial() public view returns(uint256) {\r\n        require(authorized[msg.sender]);\r\n        return idLocalitaUveSerial;\r\n    }\r\n\r\n    function getIdCodiceBarreSerial() public view returns(uint256) {\r\n        require(authorized[msg.sender]);\r\n        return idCodiceBarreSerial;\r\n    }\r\n\r\n    function getSolfiti(uint256 _idLotto) public view returns(string memory) {\r\n        require(authorized[msg.sender]);\r\n        return lotti[_idLotto].solfiti;\r\n    }\r\n\r\n    function getAllergeni(uint256 _idLotto) public view returns(string memory) {\r\n        require(authorized[msg.sender]);\r\n        return lotti[_idLotto].allergeni;\r\n    }\r\n\r\n    function getlocalitaUve(uint256 _idLotto) public view returns(string memory) {\r\n        require(authorized[msg.sender]);\r\n        return lotti[_idLotto].localitaUve;\r\n    }\r\n\r\n    function getCodiceBarre(uint256 _idLotto) public view returns(string memory) {\r\n        require(authorized[msg.sender]);\r\n        return lotti[_idLotto].codiceBarre;\r\n    }\r\n\r\n    function getDatiSensoriImbottigliatore(uint256 _idLotto) public view returns(string memory, string memory, string memory) {\r\n        require(authorized[msg.sender]);\r\n        return (lotti[_idLotto].quantitaProdottoRicevuta, lotti[_idLotto].quantitaVinoImbottigliata, lotti[_idLotto].gradazioneAlcolica);\r\n    }\r\n\r\n    //funzioni di get Da Produttore\r\n    function getListaProdottiVinificazione(uint256 _idLotto) public view returns(string memory) {\r\n        return produttoreContract.getProdottiVinificazione(_idLotto);\r\n    }\r\n\r\n    //funzioni di get da Viticoltore\r\n    function getDestinazioneUva(uint256 _idLotto) public view returns(string memory) {\r\n        return viticoltoreContract.getDestinazioneUva(_idLotto);\r\n    }\r\n\r\n}",
  "sourcePath": "C:\\Users\\Erman\\OneDrive\\BinTraWine_github\\BinTraWine\\contracts\\Imbottigliatore.sol",
  "compiler": {
    "name": "solc",
    "version": "0.8.0+commit.c7dfd78e.Emscripten.clang"
  },
  "schemaVersion": "3.4.13",
  "updatedAt": "2023-08-29T10:52:24.342Z",
  "networkType": "quorum",
  "devdoc": {
    "kind": "dev",
    "methods": {},
    "version": 1
  },
  "userdoc": {
    "kind": "user",
    "methods": {},
    "version": 1
  }
}