{
  "contractName": "Imbottigliatore",
  "abi": [
    {
      "inputs": [
        {
          "internalType": "address",
          "name": "_produttoreContractAddress",
          "type": "address"
        },
        {
          "internalType": "address",
          "name": "_viticoltoreContractAddress",
          "type": "address"
        }
      ],
      "stateMutability": "nonpayable",
      "type": "constructor"
    },
    {
      "inputs": [
        {
          "internalType": "address",
          "name": "",
          "type": "address"
        }
      ],
      "name": "authorized",
      "outputs": [
        {
          "internalType": "bool",
          "name": "",
          "type": "bool"
        }
      ],
      "stateMutability": "view",
      "type": "function",
      "constant": true
    },
    {
      "inputs": [],
      "name": "owner",
      "outputs": [
        {
          "internalType": "address",
          "name": "",
          "type": "address"
        }
      ],
      "stateMutability": "view",
      "type": "function",
      "constant": true
    },
    {
      "inputs": [
        {
          "internalType": "address",
          "name": "_address",
          "type": "address"
        }
      ],
      "name": "addAuthorized",
      "outputs": [],
      "stateMutability": "nonpayable",
      "type": "function"
    },
    {
      "inputs": [
        {
          "internalType": "address",
          "name": "_address",
          "type": "address"
        }
      ],
      "name": "removeAuthorized",
      "outputs": [],
      "stateMutability": "nonpayable",
      "type": "function"
    },
    {
      "inputs": [
        {
          "internalType": "string",
          "name": "_solfiti",
          "type": "string"
        }
      ],
      "name": "setSolfiti",
      "outputs": [],
      "stateMutability": "nonpayable",
      "type": "function"
    },
    {
      "inputs": [
        {
          "internalType": "string",
          "name": "_allergeni",
          "type": "string"
        }
      ],
      "name": "setAllergeni",
      "outputs": [],
      "stateMutability": "nonpayable",
      "type": "function"
    },
    {
      "inputs": [
        {
          "internalType": "string",
          "name": "_localitaUve",
          "type": "string"
        }
      ],
      "name": "setLocalitaUve",
      "outputs": [],
      "stateMutability": "nonpayable",
      "type": "function"
    },
    {
      "inputs": [
        {
          "internalType": "string",
          "name": "_codiceBarre",
          "type": "string"
        }
      ],
      "name": "setCodiceBarre",
      "outputs": [],
      "stateMutability": "nonpayable",
      "type": "function"
    },
    {
      "inputs": [
        {
          "internalType": "uint256",
          "name": "_idLotto",
          "type": "uint256"
        },
        {
          "internalType": "string",
          "name": "_quantitaProdottoRicevuta",
          "type": "string"
        },
        {
          "internalType": "string",
          "name": "_quantitaVinoImbottigliata",
          "type": "string"
        },
        {
          "internalType": "string",
          "name": "_gradazioneAlcolica",
          "type": "string"
        }
      ],
      "name": "setSensoriImbottigliatore",
      "outputs": [],
      "stateMutability": "nonpayable",
      "type": "function"
    },
    {
      "inputs": [],
      "name": "getIdSolfitiSerial",
      "outputs": [
        {
          "internalType": "uint256",
          "name": "",
          "type": "uint256"
        }
      ],
      "stateMutability": "view",
      "type": "function",
      "constant": true
    },
    {
      "inputs": [],
      "name": "getIdAllergeniSerial",
      "outputs": [
        {
          "internalType": "uint256",
          "name": "",
          "type": "uint256"
        }
      ],
      "stateMutability": "view",
      "type": "function",
      "constant": true
    },
    {
      "inputs": [],
      "name": "getIdLocalitaUveSerial",
      "outputs": [
        {
          "internalType": "uint256",
          "name": "",
          "type": "uint256"
        }
      ],
      "stateMutability": "view",
      "type": "function",
      "constant": true
    },
    {
      "inputs": [],
      "name": "getIdCodiceBarreSerial",
      "outputs": [
        {
          "internalType": "uint256",
          "name": "",
          "type": "uint256"
        }
      ],
      "stateMutability": "view",
      "type": "function",
      "constant": true
    },
    {
      "inputs": [
        {
          "internalType": "uint256",
          "name": "_idLotto",
          "type": "uint256"
        }
      ],
      "name": "getSolfiti",
      "outputs": [
        {
          "internalType": "string",
          "name": "",
          "type": "string"
        }
      ],
      "stateMutability": "view",
      "type": "function",
      "constant": true
    },
    {
      "inputs": [
        {
          "internalType": "uint256",
          "name": "_idLotto",
          "type": "uint256"
        }
      ],
      "name": "getAllergeni",
      "outputs": [
        {
          "internalType": "string",
          "name": "",
          "type": "string"
        }
      ],
      "stateMutability": "view",
      "type": "function",
      "constant": true
    },
    {
      "inputs": [
        {
          "internalType": "uint256",
          "name": "_idLotto",
          "type": "uint256"
        }
      ],
      "name": "getlocalitaUve",
      "outputs": [
        {
          "internalType": "string",
          "name": "",
          "type": "string"
        }
      ],
      "stateMutability": "view",
      "type": "function",
      "constant": true
    },
    {
      "inputs": [
        {
          "internalType": "uint256",
          "name": "_idLotto",
          "type": "uint256"
        }
      ],
      "name": "getCodiceBarre",
      "outputs": [
        {
          "internalType": "string",
          "name": "",
          "type": "string"
        }
      ],
      "stateMutability": "view",
      "type": "function",
      "constant": true
    },
    {
      "inputs": [
        {
          "internalType": "uint256",
          "name": "_idLotto",
          "type": "uint256"
        }
      ],
      "name": "getDatiSensoriImbottigliatore",
      "outputs": [
        {
          "internalType": "string",
          "name": "",
          "type": "string"
        },
        {
          "internalType": "string",
          "name": "",
          "type": "string"
        },
        {
          "internalType": "string",
          "name": "",
          "type": "string"
        }
      ],
      "stateMutability": "view",
      "type": "function",
      "constant": true
    },
    {
      "inputs": [
        {
          "internalType": "uint256",
          "name": "_idLotto",
          "type": "uint256"
        }
      ],
      "name": "getListaProdottiVinificazione",
      "outputs": [
        {
          "internalType": "string",
          "name": "",
          "type": "string"
        }
      ],
      "stateMutability": "view",
      "type": "function",
      "constant": true
    },
    {
      "inputs": [
        {
          "internalType": "uint256",
          "name": "_idLotto",
          "type": "uint256"
        }
      ],
      "name": "getDestinazioneUva",
      "outputs": [
        {
          "internalType": "string",
          "name": "",
          "type": "string"
        }
      ],
      "stateMutability": "view",
      "type": "function",
      "constant": true
    }
  ],
  "bytecode": "0x608060405260016006556001600755600160085560016009553480156200002557600080fd5b5060405162001bed38038062001bed83398181016040528101906200004b9190620002c6565b336000806101000a81548173ffffffffffffffffffffffffffffffffffffffff021916908373ffffffffffffffffffffffffffffffffffffffff16021790555060018060008060009054906101000a900473ffffffffffffffffffffffffffffffffffffffff1673ffffffffffffffffffffffffffffffffffffffff1673ffffffffffffffffffffffffffffffffffffffff16815260200190815260200160002060006101000a81548160ff02191690831515021790555081600260006101000a81548173ffffffffffffffffffffffffffffffffffffffff021916908373ffffffffffffffffffffffffffffffffffffffff16021790555080600360006101000a81548173ffffffffffffffffffffffffffffffffffffffff021916908373ffffffffffffffffffffffffffffffffffffffff160217905550600260009054906101000a900473ffffffffffffffffffffffffffffffffffffffff1673ffffffffffffffffffffffffffffffffffffffff1663cf1c316a306040518263ffffffff1660e01b8152600401620001e2919062000318565b600060405180830381600087803b158015620001fd57600080fd5b505af115801562000212573d6000803e3d6000fd5b50505050600360009054906101000a900473ffffffffffffffffffffffffffffffffffffffff1673ffffffffffffffffffffffffffffffffffffffff1663cf1c316a306040518263ffffffff1660e01b815260040162000273919062000318565b600060405180830381600087803b1580156200028e57600080fd5b505af1158015620002a3573d6000803e3d6000fd5b50505050505062000383565b600081519050620002c08162000369565b92915050565b60008060408385031215620002da57600080fd5b6000620002ea85828601620002af565b9250506020620002fd85828601620002af565b9150509250929050565b620003128162000335565b82525050565b60006020820190506200032f600083018462000307565b92915050565b6000620003428262000349565b9050919050565b600073ffffffffffffffffffffffffffffffffffffffff82169050919050565b620003748162000335565b81146200038057600080fd5b50565b61185a80620003936000396000f3fe608060405234801561001057600080fd5b506004361061012c5760003560e01c80634c4c2054116100ad578063b918161111610071578063b918161114610343578063b9e6714214610373578063c5fe6af414610391578063cf1c316a146103c1578063d939881a146103dd5761012c565b80634c4c2054146102a15780636f036a9b146102bd5780638da5cb5b146102d95780639d740b1a146102f7578063b1689d40146103135761012c565b806330d381d3116100f457806330d381d3146101fb57806331c82f60146102195780633a86803e146102375780633df6d06a14610253578063485d7d94146102855761012c565b806304f78e151461013157806305edddca146101615780630da52d3c14610191578063129e0c5a146101c157806318775bdf146101dd575b600080fd5b61014b600480360381019061014691906113dd565b61040d565b604051610158919061154d565b60405180910390f35b61017b600480360381019061017691906113dd565b61050b565b604051610188919061154d565b60405180910390f35b6101ab60048036038101906101a691906113dd565b610609565b6040516101b8919061154d565b60405180910390f35b6101db60048036038101906101d6919061135b565b610707565b005b6101e56107a5565b6040516101f291906115bb565b60405180910390f35b610203610805565b60405161021091906115bb565b60405180910390f35b610221610865565b60405161022e91906115bb565b60405180910390f35b610251600480360381019061024c9190611406565b6108c5565b005b61026d600480360381019061026891906113dd565b61094c565b60405161027c9392919061156f565b60405180910390f35b61029f600480360381019061029a9190611332565b610b9a565b005b6102bb60048036038101906102b6919061135b565b610c4d565b005b6102d760048036038101906102d2919061135b565b610ceb565b005b6102e1610d89565b6040516102ee9190611517565b60405180910390f35b610311600480360381019061030c919061135b565b610dad565b005b61032d600480360381019061032891906113dd565b610e4b565b60405161033a919061154d565b60405180910390f35b61035d60048036038101906103589190611332565b610f04565b60405161036a9190611532565b60405180910390f35b61037b610f24565b60405161038891906115bb565b60405180910390f35b6103ab60048036038101906103a691906113dd565b610f84565b6040516103b8919061154d565b60405180910390f35b6103db60048036038101906103d69190611332565b61103d565b005b6103f760048036038101906103f291906113dd565b611097565b604051610404919061154d565b60405180910390f35b6060600160003373ffffffffffffffffffffffffffffffffffffffff1673ffffffffffffffffffffffffffffffffffffffff16815260200190815260200160002060009054906101000a900460ff1661046557600080fd5b600560008381526020019081526020016000206002018054610486906116dd565b80601f01602080910402602001604051908101604052809291908181526020018280546104b2906116dd565b80156104ff5780601f106104d4576101008083540402835291602001916104ff565b820191906000526020600020905b8154815290600101906020018083116104e257829003601f168201915b50505050509050919050565b6060600160003373ffffffffffffffffffffffffffffffffffffffff1673ffffffffffffffffffffffffffffffffffffffff16815260200190815260200160002060009054906101000a900460ff1661056357600080fd5b600560008381526020019081526020016000206001018054610584906116dd565b80601f01602080910402602001604051908101604052809291908181526020018280546105b0906116dd565b80156105fd5780601f106105d2576101008083540402835291602001916105fd565b820191906000526020600020905b8154815290600101906020018083116105e057829003601f168201915b50505050509050919050565b6060600160003373ffffffffffffffffffffffffffffffffffffffff1673ffffffffffffffffffffffffffffffffffffffff16815260200190815260200160002060009054906101000a900460ff1661066157600080fd5b600560008381526020019081526020016000206003018054610682906116dd565b80601f01602080910402602001604051908101604052809291908181526020018280546106ae906116dd565b80156106fb5780601f106106d0576101008083540402835291602001916106fb565b820191906000526020600020905b8154815290600101906020018083116106de57829003601f168201915b50505050509050919050565b600160003373ffffffffffffffffffffffffffffffffffffffff1673ffffffffffffffffffffffffffffffffffffffff16815260200190815260200160002060009054906101000a900460ff1661075d57600080fd5b806005600060075481526020019081526020016000206001019080519060200190610789929190611195565b506007600081548092919061079d9061170f565b919050555050565b6000600160003373ffffffffffffffffffffffffffffffffffffffff1673ffffffffffffffffffffffffffffffffffffffff16815260200190815260200160002060009054906101000a900460ff166107fd57600080fd5b600954905090565b6000600160003373ffffffffffffffffffffffffffffffffffffffff1673ffffffffffffffffffffffffffffffffffffffff16815260200190815260200160002060009054906101000a900460ff1661085d57600080fd5b600854905090565b6000600160003373ffffffffffffffffffffffffffffffffffffffff1673ffffffffffffffffffffffffffffffffffffffff16815260200190815260200160002060009054906101000a900460ff166108bd57600080fd5b600754905090565b826005600086815260200190815260200160002060040190805190602001906108ef929190611195565b508160056000868152602001908152602001600020600501908051906020019061091a929190611195565b5080600560008681526020019081526020016000206006019080519060200190610945929190611195565b5050505050565b6060806060600160003373ffffffffffffffffffffffffffffffffffffffff1673ffffffffffffffffffffffffffffffffffffffff16815260200190815260200160002060009054906101000a900460ff166109a757600080fd5b6005600085815260200190815260200160002060040160056000868152602001908152602001600020600501600560008781526020019081526020016000206006018280546109f5906116dd565b80601f0160208091040260200160405190810160405280929190818152602001828054610a21906116dd565b8015610a6e5780601f10610a4357610100808354040283529160200191610a6e565b820191906000526020600020905b815481529060010190602001808311610a5157829003601f168201915b50505050509250818054610a81906116dd565b80601f0160208091040260200160405190810160405280929190818152602001828054610aad906116dd565b8015610afa5780601f10610acf57610100808354040283529160200191610afa565b820191906000526020600020905b815481529060010190602001808311610add57829003601f168201915b50505050509150808054610b0d906116dd565b80601f0160208091040260200160405190810160405280929190818152602001828054610b39906116dd565b8015610b865780601f10610b5b57610100808354040283529160200191610b86565b820191906000526020600020905b815481529060010190602001808311610b6957829003601f168201915b505050505090509250925092509193909250565b60008054906101000a900473ffffffffffffffffffffffffffffffffffffffff1673ffffffffffffffffffffffffffffffffffffffff163373ffffffffffffffffffffffffffffffffffffffff1614610bf257600080fd5b6000600160008373ffffffffffffffffffffffffffffffffffffffff1673ffffffffffffffffffffffffffffffffffffffff16815260200190815260200160002060006101000a81548160ff02191690831515021790555050565b600160003373ffffffffffffffffffffffffffffffffffffffff1673ffffffffffffffffffffffffffffffffffffffff16815260200190815260200160002060009054906101000a900460ff16610ca357600080fd5b806005600060095481526020019081526020016000206003019080519060200190610ccf929190611195565b5060096000815480929190610ce39061170f565b919050555050565b600160003373ffffffffffffffffffffffffffffffffffffffff1673ffffffffffffffffffffffffffffffffffffffff16815260200190815260200160002060009054906101000a900460ff16610d4157600080fd5b806005600060065481526020019081526020016000206000019080519060200190610d6d929190611195565b5060066000815480929190610d819061170f565b919050555050565b60008054906101000a900473ffffffffffffffffffffffffffffffffffffffff1681565b600160003373ffffffffffffffffffffffffffffffffffffffff1673ffffffffffffffffffffffffffffffffffffffff16815260200190815260200160002060009054906101000a900460ff16610e0357600080fd5b806005600060085481526020019081526020016000206002019080519060200190610e2f929190611195565b5060086000815480929190610e439061170f565b919050555050565b6060600360009054906101000a900473ffffffffffffffffffffffffffffffffffffffff1673ffffffffffffffffffffffffffffffffffffffff1663b1689d40836040518263ffffffff1660e01b8152600401610ea891906115bb565b60006040518083038186803b158015610ec057600080fd5b505afa158015610ed4573d6000803e3d6000fd5b505050506040513d6000823e3d601f19601f82011682018060405250810190610efd919061139c565b9050919050565b60016020528060005260406000206000915054906101000a900460ff1681565b6000600160003373ffffffffffffffffffffffffffffffffffffffff1673ffffffffffffffffffffffffffffffffffffffff16815260200190815260200160002060009054906101000a900460ff16610f7c57600080fd5b600654905090565b6060600260009054906101000a900473ffffffffffffffffffffffffffffffffffffffff1673ffffffffffffffffffffffffffffffffffffffff1663635b75cb836040518263ffffffff1660e01b8152600401610fe191906115bb565b60006040518083038186803b158015610ff957600080fd5b505afa15801561100d573d6000803e3d6000fd5b505050506040513d6000823e3d601f19601f82011682018060405250810190611036919061139c565b9050919050565b60018060008373ffffffffffffffffffffffffffffffffffffffff1673ffffffffffffffffffffffffffffffffffffffff16815260200190815260200160002060006101000a81548160ff02191690831515021790555050565b6060600160003373ffffffffffffffffffffffffffffffffffffffff1673ffffffffffffffffffffffffffffffffffffffff16815260200190815260200160002060009054906101000a900460ff166110ef57600080fd5b600560008381526020019081526020016000206000018054611110906116dd565b80601f016020809104026020016040519081016040528092919081815260200182805461113c906116dd565b80156111895780601f1061115e57610100808354040283529160200191611189565b820191906000526020600020905b81548152906001019060200180831161116c57829003601f168201915b50505050509050919050565b8280546111a1906116dd565b90600052602060002090601f0160209004810192826111c3576000855561120a565b82601f106111dc57805160ff191683800117855561120a565b8280016001018555821561120a579182015b828111156112095782518255916020019190600101906111ee565b5b509050611217919061121b565b5090565b5b8082111561123457600081600090555060010161121c565b5090565b600061124b61124684611607565b6115d6565b90508281526020810184848401111561126357600080fd5b61126e84828561169b565b509392505050565b600061128961128484611607565b6115d6565b9050828152602081018484840111156112a157600080fd5b6112ac8482856116aa565b509392505050565b6000813590506112c3816117f6565b92915050565b600082601f8301126112da57600080fd5b81356112ea848260208601611238565b91505092915050565b600082601f83011261130457600080fd5b8151611314848260208601611276565b91505092915050565b60008135905061132c8161180d565b92915050565b60006020828403121561134457600080fd5b6000611352848285016112b4565b91505092915050565b60006020828403121561136d57600080fd5b600082013567ffffffffffffffff81111561138757600080fd5b611393848285016112c9565b91505092915050565b6000602082840312156113ae57600080fd5b600082015167ffffffffffffffff8111156113c857600080fd5b6113d4848285016112f3565b91505092915050565b6000602082840312156113ef57600080fd5b60006113fd8482850161131d565b91505092915050565b6000806000806080858703121561141c57600080fd5b600061142a8782880161131d565b945050602085013567ffffffffffffffff81111561144757600080fd5b611453878288016112c9565b935050604085013567ffffffffffffffff81111561147057600080fd5b61147c878288016112c9565b925050606085013567ffffffffffffffff81111561149957600080fd5b6114a5878288016112c9565b91505092959194509250565b6114ba81611653565b82525050565b6114c981611665565b82525050565b60006114da82611637565b6114e48185611642565b93506114f48185602086016116aa565b6114fd816117e5565b840191505092915050565b61151181611691565b82525050565b600060208201905061152c60008301846114b1565b92915050565b600060208201905061154760008301846114c0565b92915050565b6000602082019050818103600083015261156781846114cf565b905092915050565b6000606082019050818103600083015261158981866114cf565b9050818103602083015261159d81856114cf565b905081810360408301526115b181846114cf565b9050949350505050565b60006020820190506115d06000830184611508565b92915050565b6000604051905081810181811067ffffffffffffffff821117156115fd576115fc6117b6565b5b8060405250919050565b600067ffffffffffffffff821115611622576116216117b6565b5b601f19601f8301169050602081019050919050565b600081519050919050565b600082825260208201905092915050565b600061165e82611671565b9050919050565b60008115159050919050565b600073ffffffffffffffffffffffffffffffffffffffff82169050919050565b6000819050919050565b82818337600083830152505050565b60005b838110156116c85780820151818401526020810190506116ad565b838111156116d7576000848401525b50505050565b600060028204905060018216806116f557607f821691505b6020821081141561170957611708611787565b5b50919050565b600061171a82611691565b91507fffffffffffffffffffffffffffffffffffffffffffffffffffffffffffffffff82141561174d5761174c611758565b5b600182019050919050565b7f4e487b7100000000000000000000000000000000000000000000000000000000600052601160045260246000fd5b7f4e487b7100000000000000000000000000000000000000000000000000000000600052602260045260246000fd5b7f4e487b7100000000000000000000000000000000000000000000000000000000600052604160045260246000fd5b6000601f19601f8301169050919050565b6117ff81611653565b811461180a57600080fd5b50565b61181681611691565b811461182157600080fd5b5056fea2646970667358221220e46bf976a81a23972c32672243e306faa1ecf53616c41128c00930bd2c4bc38264736f6c63430008000033",
  "immutableReferences": {},
  "source": "// SPDX-License-Identifier: MIT\r\npragma solidity ^0.8.0;\r\n\r\nimport \"./Produttore.sol\";\r\nimport \"./Viticoltore.sol\";\r\nimport \"./Customer.sol\";\r\n\r\ncontract Imbottigliatore {\r\n\r\n    //dati per autorizzazioni alle chiamate delle funzioni\r\n    address public owner;\r\n    mapping(address => bool) public authorized;\r\n\r\n    Produttore produttoreContract;\r\n    Viticoltore viticoltoreContract;\r\n    Customer customerContract;\r\n\r\n    constructor(address _produttoreContractAddress, address _viticoltoreContractAddress/*, address _customerContractAddress*/)  {\r\n        owner = msg.sender;\r\n        authorized[owner] = true; //solo per fare test, oppure  un'opzione valida se il deploy viene fatto da ogni singolo attore in maniera indipendente.\r\n        produttoreContract = Produttore(_produttoreContractAddress);\r\n        viticoltoreContract = Viticoltore(_viticoltoreContractAddress);\r\n        //customerContract = Customer(_customerContractAddress);\r\n        produttoreContract.addAuthorized(address(this));\r\n        viticoltoreContract.addAuthorized(address(this));\r\n    }\r\n\r\n    struct DatiImbottigliatore {\r\n\r\n        //dati manuali\r\n        string solfiti;\r\n        string allergeni;\r\n        string localitaUve;\r\n        string codiceBarre;\r\n\r\n        //dati automatici\r\n        string quantitaProdottoRicevuta;\r\n        string quantitaVinoImbottigliata;\r\n        string gradazioneAlcolica;\r\n    }\r\n\r\n    mapping(uint256 => DatiImbottigliatore) lotti;\r\n\r\n    /*identificazione funzioni lotti*/\r\n    uint256 idSolfitiSerial = 1;\r\n    uint256 idAllergeniSerial = 1;\r\n    uint256 idLocalitaUveSerial = 1;\r\n    uint256 idCodiceBarreSerial = 1;\r\n\r\n    //funzioni di autorizzazione\r\n    function addAuthorized(address _address) public {\r\n        //require(msg.sender == owner); Da tenere solo per testing e comodit, a lavoro definitivo va levata.\r\n        authorized[_address] = true;\r\n    }\r\n\r\n    function removeAuthorized(address _address) public {\r\n        require(msg.sender == owner);\r\n        authorized[_address] = false;\r\n    }\r\n\r\n    //inserimento manuale\r\n    function setSolfiti(string memory _solfiti) public {\r\n        require(authorized[msg.sender]);\r\n        lotti[idSolfitiSerial].solfiti = _solfiti;\r\n        //customerContract.setSolfiti(idSolfitiSerial, _solfiti);\r\n        idSolfitiSerial++;\r\n    }\r\n\r\n    function setAllergeni(string memory _allergeni) public {\r\n        require(authorized[msg.sender]);\r\n        lotti[idAllergeniSerial].allergeni = _allergeni;\r\n        //customerContract.setAllergeni(idAllergeniSerial, _allergeni);\r\n        idAllergeniSerial++;\r\n    }\r\n\r\n    function setLocalitaUve(string memory _localitaUve) public {\r\n        require(authorized[msg.sender]);\r\n        lotti[idLocalitaUveSerial].localitaUve = _localitaUve;\r\n        //customerContract.setLocalitaUve(idLocalitaUveSerial, _localitaUve);\r\n        idLocalitaUveSerial++;\r\n    }\r\n\r\n    function setCodiceBarre(string memory _codiceBarre) public {\r\n        require(authorized[msg.sender]);\r\n        lotti[idCodiceBarreSerial].codiceBarre = _codiceBarre;\r\n        idCodiceBarreSerial++;\r\n    }\r\n\r\n    //inserimento automatico\r\n    function setSensoriImbottigliatore(uint256 _idLotto, string memory _quantitaProdottoRicevuta, string memory _quantitaVinoImbottigliata, string memory _gradazioneAlcolica) public {\r\n\r\n        lotti[_idLotto].quantitaProdottoRicevuta = _quantitaProdottoRicevuta;\r\n        lotti[_idLotto].quantitaVinoImbottigliata = _quantitaVinoImbottigliata;\r\n        lotti[_idLotto].gradazioneAlcolica = _gradazioneAlcolica;\r\n        //customerContract.setGradazioneAlcolica(_idLotto, _gradazioneAlcolica);\r\n    }\r\n\r\n    //funzioni get\r\n    function getIdSolfitiSerial() public view returns(uint256) {\r\n        require(authorized[msg.sender]);\r\n        return idSolfitiSerial;\r\n    }\r\n\r\n    function getIdAllergeniSerial() public view returns(uint256) {\r\n        require(authorized[msg.sender]);\r\n        return idAllergeniSerial;\r\n    }\r\n\r\n    function getIdLocalitaUveSerial() public view returns(uint256) {\r\n        require(authorized[msg.sender]);\r\n        return idLocalitaUveSerial;\r\n    }\r\n\r\n    function getIdCodiceBarreSerial() public view returns(uint256) {\r\n        require(authorized[msg.sender]);\r\n        return idCodiceBarreSerial;\r\n    }\r\n\r\n    function getSolfiti(uint256 _idLotto) public view returns(string memory) {\r\n        require(authorized[msg.sender]);\r\n        return lotti[_idLotto].solfiti;\r\n    }\r\n\r\n    function getAllergeni(uint256 _idLotto) public view returns(string memory) {\r\n        require(authorized[msg.sender]);\r\n        return lotti[_idLotto].allergeni;\r\n    }\r\n\r\n    function getlocalitaUve(uint256 _idLotto) public view returns(string memory) {\r\n        require(authorized[msg.sender]);\r\n        return lotti[_idLotto].localitaUve;\r\n    }\r\n\r\n    function getCodiceBarre(uint256 _idLotto) public view returns(string memory) {\r\n        require(authorized[msg.sender]);\r\n        return lotti[_idLotto].codiceBarre;\r\n    }\r\n\r\n    function getDatiSensoriImbottigliatore(uint256 _idLotto) public view returns(string memory, string memory, string memory) {\r\n        require(authorized[msg.sender]);\r\n        return (lotti[_idLotto].quantitaProdottoRicevuta, lotti[_idLotto].quantitaVinoImbottigliata, lotti[_idLotto].gradazioneAlcolica);\r\n    }\r\n\r\n    //funzioni di get Da Produttore\r\n    function getListaProdottiVinificazione(uint256 _idLotto) public view returns(string memory) {\r\n        return produttoreContract.getProdottiVinificazione(_idLotto);\r\n    }\r\n\r\n    //funzioni di get da Viticoltore\r\n    function getDestinazioneUva(uint256 _idLotto) public view returns(string memory) {\r\n        return viticoltoreContract.getDestinazioneUva(_idLotto);\r\n    }\r\n\r\n}\r\n",
  "sourcePath": "C:\\Users\\Erman\\OneDrive\\BinTraWine_github\\BinTraWine\\contracts\\Imbottigliatore.sol",
  "compiler": {
    "name": "solc",
    "version": "0.8.0+commit.c7dfd78e.Emscripten.clang"
  },
  "schemaVersion": "3.4.13",
  "updatedAt": "2023-06-25T15:06:34.402Z",
  "networkType": "quorum",
  "devdoc": {
    "kind": "dev",
    "methods": {},
    "version": 1
  },
  "userdoc": {
    "kind": "user",
    "methods": {},
    "version": 1
  }
}