{
  "contractName": "Imbottigliatore",
  "abi": [
    {
      "inputs": [
        {
          "internalType": "address",
          "name": "_produttoreContractAddress",
          "type": "address"
        },
        {
          "internalType": "address",
          "name": "_viticoltoreContractAddress",
          "type": "address"
        }
      ],
      "stateMutability": "nonpayable",
      "type": "constructor"
    },
    {
      "inputs": [
        {
          "internalType": "address",
          "name": "",
          "type": "address"
        }
      ],
      "name": "authorized",
      "outputs": [
        {
          "internalType": "bool",
          "name": "",
          "type": "bool"
        }
      ],
      "stateMutability": "view",
      "type": "function",
      "constant": true
    },
    {
      "inputs": [],
      "name": "owner",
      "outputs": [
        {
          "internalType": "address",
          "name": "",
          "type": "address"
        }
      ],
      "stateMutability": "view",
      "type": "function",
      "constant": true
    },
    {
      "inputs": [
        {
          "internalType": "address",
          "name": "_address",
          "type": "address"
        }
      ],
      "name": "addAuthorized",
      "outputs": [],
      "stateMutability": "nonpayable",
      "type": "function"
    },
    {
      "inputs": [
        {
          "internalType": "address",
          "name": "_address",
          "type": "address"
        }
      ],
      "name": "removeAuthorized",
      "outputs": [],
      "stateMutability": "nonpayable",
      "type": "function"
    },
    {
      "inputs": [
        {
          "internalType": "string",
          "name": "_solfiti",
          "type": "string"
        }
      ],
      "name": "setSolfiti",
      "outputs": [],
      "stateMutability": "nonpayable",
      "type": "function"
    },
    {
      "inputs": [
        {
          "internalType": "string",
          "name": "_allergeni",
          "type": "string"
        }
      ],
      "name": "setAllergeni",
      "outputs": [],
      "stateMutability": "nonpayable",
      "type": "function"
    },
    {
      "inputs": [
        {
          "internalType": "string",
          "name": "_localitaUve",
          "type": "string"
        }
      ],
      "name": "setLocalitaUve",
      "outputs": [],
      "stateMutability": "nonpayable",
      "type": "function"
    },
    {
      "inputs": [
        {
          "internalType": "string",
          "name": "_codiceBarre",
          "type": "string"
        }
      ],
      "name": "setCodiceBarre",
      "outputs": [],
      "stateMutability": "nonpayable",
      "type": "function"
    },
    {
      "inputs": [
        {
          "internalType": "uint256",
          "name": "_idLotto",
          "type": "uint256"
        },
        {
          "internalType": "string",
          "name": "_quantitaProdottoRicevuta",
          "type": "string"
        },
        {
          "internalType": "string",
          "name": "_quantitaVinoImbottigliata",
          "type": "string"
        },
        {
          "internalType": "string",
          "name": "_gradazioneAlcolica",
          "type": "string"
        }
      ],
      "name": "setSensoriImbottigliatore",
      "outputs": [],
      "stateMutability": "nonpayable",
      "type": "function"
    },
    {
      "inputs": [],
      "name": "getMappaLottiLength",
      "outputs": [
        {
          "internalType": "uint256",
          "name": "",
          "type": "uint256"
        }
      ],
      "stateMutability": "view",
      "type": "function",
      "constant": true
    },
    {
      "inputs": [],
      "name": "queryQuantitaProdottoRicevutaPerLotto",
      "outputs": [
        {
          "internalType": "string[]",
          "name": "",
          "type": "string[]"
        },
        {
          "internalType": "uint256[]",
          "name": "",
          "type": "uint256[]"
        }
      ],
      "stateMutability": "view",
      "type": "function",
      "constant": true
    },
    {
      "inputs": [],
      "name": "queryQuantitaVinoImbottigliataPerLotto",
      "outputs": [
        {
          "internalType": "string[]",
          "name": "",
          "type": "string[]"
        },
        {
          "internalType": "uint256[]",
          "name": "",
          "type": "uint256[]"
        }
      ],
      "stateMutability": "view",
      "type": "function",
      "constant": true
    },
    {
      "inputs": [],
      "name": "getIdSolfitiSerial",
      "outputs": [
        {
          "internalType": "uint256",
          "name": "",
          "type": "uint256"
        }
      ],
      "stateMutability": "view",
      "type": "function",
      "constant": true
    },
    {
      "inputs": [],
      "name": "getIdAllergeniSerial",
      "outputs": [
        {
          "internalType": "uint256",
          "name": "",
          "type": "uint256"
        }
      ],
      "stateMutability": "view",
      "type": "function",
      "constant": true
    },
    {
      "inputs": [],
      "name": "getIdLocalitaUveSerial",
      "outputs": [
        {
          "internalType": "uint256",
          "name": "",
          "type": "uint256"
        }
      ],
      "stateMutability": "view",
      "type": "function",
      "constant": true
    },
    {
      "inputs": [],
      "name": "getIdCodiceBarreSerial",
      "outputs": [
        {
          "internalType": "uint256",
          "name": "",
          "type": "uint256"
        }
      ],
      "stateMutability": "view",
      "type": "function",
      "constant": true
    },
    {
      "inputs": [
        {
          "internalType": "uint256",
          "name": "_idLotto",
          "type": "uint256"
        }
      ],
      "name": "getSolfiti",
      "outputs": [
        {
          "internalType": "string",
          "name": "",
          "type": "string"
        }
      ],
      "stateMutability": "view",
      "type": "function",
      "constant": true
    },
    {
      "inputs": [
        {
          "internalType": "uint256",
          "name": "_idLotto",
          "type": "uint256"
        }
      ],
      "name": "getAllergeni",
      "outputs": [
        {
          "internalType": "string",
          "name": "",
          "type": "string"
        }
      ],
      "stateMutability": "view",
      "type": "function",
      "constant": true
    },
    {
      "inputs": [
        {
          "internalType": "uint256",
          "name": "_idLotto",
          "type": "uint256"
        }
      ],
      "name": "getlocalitaUve",
      "outputs": [
        {
          "internalType": "string",
          "name": "",
          "type": "string"
        }
      ],
      "stateMutability": "view",
      "type": "function",
      "constant": true
    },
    {
      "inputs": [
        {
          "internalType": "uint256",
          "name": "_idLotto",
          "type": "uint256"
        }
      ],
      "name": "getCodiceBarre",
      "outputs": [
        {
          "internalType": "string",
          "name": "",
          "type": "string"
        }
      ],
      "stateMutability": "view",
      "type": "function",
      "constant": true
    },
    {
      "inputs": [
        {
          "internalType": "uint256",
          "name": "_idLotto",
          "type": "uint256"
        }
      ],
      "name": "getDatiSensoriImbottigliatore",
      "outputs": [
        {
          "internalType": "string",
          "name": "",
          "type": "string"
        },
        {
          "internalType": "string",
          "name": "",
          "type": "string"
        },
        {
          "internalType": "string",
          "name": "",
          "type": "string"
        }
      ],
      "stateMutability": "view",
      "type": "function",
      "constant": true
    },
    {
      "inputs": [
        {
          "internalType": "uint256",
          "name": "_idLotto",
          "type": "uint256"
        }
      ],
      "name": "getListaProdottiVinificazione",
      "outputs": [
        {
          "internalType": "string",
          "name": "",
          "type": "string"
        }
      ],
      "stateMutability": "view",
      "type": "function",
      "constant": true
    },
    {
      "inputs": [
        {
          "internalType": "uint256",
          "name": "_idLotto",
          "type": "uint256"
        }
      ],
      "name": "getDestinazioneUva",
      "outputs": [
        {
          "internalType": "string",
          "name": "",
          "type": "string"
        }
      ],
      "stateMutability": "view",
      "type": "function",
      "constant": true
    }
  ],
  "bytecode": "0x608060405260016005556001600655600160075560016008553480156200002557600080fd5b50604051620023ac380380620023ac83398181016040528101906200004b9190620002c6565b336000806101000a81548173ffffffffffffffffffffffffffffffffffffffff021916908373ffffffffffffffffffffffffffffffffffffffff16021790555060018060008060009054906101000a900473ffffffffffffffffffffffffffffffffffffffff1673ffffffffffffffffffffffffffffffffffffffff1673ffffffffffffffffffffffffffffffffffffffff16815260200190815260200160002060006101000a81548160ff02191690831515021790555081600260006101000a81548173ffffffffffffffffffffffffffffffffffffffff021916908373ffffffffffffffffffffffffffffffffffffffff16021790555080600360006101000a81548173ffffffffffffffffffffffffffffffffffffffff021916908373ffffffffffffffffffffffffffffffffffffffff160217905550600260009054906101000a900473ffffffffffffffffffffffffffffffffffffffff1673ffffffffffffffffffffffffffffffffffffffff1663cf1c316a306040518263ffffffff1660e01b8152600401620001e2919062000318565b600060405180830381600087803b158015620001fd57600080fd5b505af115801562000212573d6000803e3d6000fd5b50505050600360009054906101000a900473ffffffffffffffffffffffffffffffffffffffff1673ffffffffffffffffffffffffffffffffffffffff1663cf1c316a306040518263ffffffff1660e01b815260040162000273919062000318565b600060405180830381600087803b1580156200028e57600080fd5b505af1158015620002a3573d6000803e3d6000fd5b50505050505062000383565b600081519050620002c08162000369565b92915050565b60008060408385031215620002da57600080fd5b6000620002ea85828601620002af565b9250506020620002fd85828601620002af565b9150509250929050565b620003128162000335565b82525050565b60006020820190506200032f600083018462000307565b92915050565b6000620003428262000349565b9050919050565b600073ffffffffffffffffffffffffffffffffffffffff82169050919050565b620003748162000335565b81146200038057600080fd5b50565b61201980620003936000396000f3fe608060405234801561001057600080fd5b506004361061014d5760003560e01c8063485d7d94116100c3578063b91816111161007c578063b9181611146103a1578063b9e67142146103d1578063c5fe6af4146103ef578063cf1c316a1461041f578063d939881a1461043b578063ec422e4f1461046b5761014d565b8063485d7d94146102e35780634c4c2054146102ff5780636f036a9b1461031b5780638da5cb5b146103375780639d740b1a14610355578063b1689d40146103715761014d565b806318775bdf1161011557806318775bdf1461021c5780632a2a0b351461023a57806330d381d31461025957806331c82f60146102775780633a86803e146102955780633df6d06a146102b15761014d565b806303747a471461015257806304f78e151461017057806305edddca146101a05780630da52d3c146101d0578063129e0c5a14610200575b600080fd5b61015a61048a565b6040516101679190611cc3565b60405180910390f35b61018a60048036038101906101859190611967565b610519565b6040516101979190611c55565b60405180910390f35b6101ba60048036038101906101b59190611967565b610617565b6040516101c79190611c55565b60405180910390f35b6101ea60048036038101906101e59190611967565b610715565b6040516101f79190611c55565b60405180910390f35b61021a600480360381019061021591906118e5565b6107bd565b005b61022461085b565b6040516102319190611cc3565b60405180910390f35b6102426108bb565b604051610250929190611c03565b60405180910390f35b610261610b25565b60405161026e9190611cc3565b60405180910390f35b61027f610b85565b60405161028c9190611cc3565b60405180910390f35b6102af60048036038101906102aa9190611990565b610be5565b005b6102cb60048036038101906102c69190611967565b610c6c565b6040516102da93929190611c77565b60405180910390f35b6102fd60048036038101906102f891906118bc565b610eba565b005b610319600480360381019061031491906118e5565b610f6d565b005b610335600480360381019061033091906118e5565b61100b565b005b61033f6110a9565b60405161034c9190611be8565b60405180910390f35b61036f600480360381019061036a91906118e5565b6110cd565b005b61038b60048036038101906103869190611967565b61116b565b6040516103989190611c55565b60405180910390f35b6103bb60048036038101906103b691906118bc565b611224565b6040516103c89190611c3a565b60405180910390f35b6103d9611244565b6040516103e69190611cc3565b60405180910390f35b61040960048036038101906104049190611967565b6112a4565b6040516104169190611c55565b60405180910390f35b610439600480360381019061043491906118bc565b61135d565b005b61045560048036038101906104509190611967565b6113b7565b6040516104629190611c55565b60405180910390f35b6104736114b5565b604051610481929190611c03565b60405180910390f35b600080600090506000600190505b7fffffffffffffffffffffffffffffffffffffffffffffffffffffffffffffffff8110156105115760006004600083815260200190815260200160002060040180546104e390611e9c565b905014156104f057610511565b81806104fb90611ece565b925050808061050990611ece565b915050610498565b508091505090565b6060600160003373ffffffffffffffffffffffffffffffffffffffff1673ffffffffffffffffffffffffffffffffffffffff16815260200190815260200160002060009054906101000a900460ff1661057157600080fd5b60046000838152602001908152602001600020600201805461059290611e9c565b80601f01602080910402602001604051908101604052809291908181526020018280546105be90611e9c565b801561060b5780601f106105e05761010080835404028352916020019161060b565b820191906000526020600020905b8154815290600101906020018083116105ee57829003601f168201915b50505050509050919050565b6060600160003373ffffffffffffffffffffffffffffffffffffffff1673ffffffffffffffffffffffffffffffffffffffff16815260200190815260200160002060009054906101000a900460ff1661066f57600080fd5b60046000838152602001908152602001600020600101805461069090611e9c565b80601f01602080910402602001604051908101604052809291908181526020018280546106bc90611e9c565b80156107095780601f106106de57610100808354040283529160200191610709565b820191906000526020600020905b8154815290600101906020018083116106ec57829003601f168201915b50505050509050919050565b606060046000838152602001908152602001600020600301805461073890611e9c565b80601f016020809104026020016040519081016040528092919081815260200182805461076490611e9c565b80156107b15780601f10610786576101008083540402835291602001916107b1565b820191906000526020600020905b81548152906001019060200180831161079457829003601f168201915b50505050509050919050565b600160003373ffffffffffffffffffffffffffffffffffffffff1673ffffffffffffffffffffffffffffffffffffffff16815260200190815260200160002060009054906101000a900460ff1661081357600080fd5b80600460006006548152602001908152602001600020600101908051906020019061083f92919061171f565b506006600081548092919061085390611ece565b919050555050565b6000600160003373ffffffffffffffffffffffffffffffffffffffff1673ffffffffffffffffffffffffffffffffffffffff16815260200190815260200160002060009054906101000a900460ff166108b357600080fd5b600854905090565b60608060006108c861048a565b905060008167ffffffffffffffff81111561090c577f4e487b7100000000000000000000000000000000000000000000000000000000600052604160045260246000fd5b60405190808252806020026020018201604052801561093f57816020015b606081526020019060019003908161092a5790505b50905060008267ffffffffffffffff811115610984577f4e487b7100000000000000000000000000000000000000000000000000000000600052604160045260246000fd5b6040519080825280602002602001820160405280156109b25781602001602082028036833780820191505090505b5090506000600190505b838111610b175780826001836109d29190611dde565b81518110610a09577f4e487b7100000000000000000000000000000000000000000000000000000000600052603260045260246000fd5b602002602001018181525050600460008281526020019081526020016000206005018054610a3690611e9c565b80601f0160208091040260200160405190810160405280929190818152602001828054610a6290611e9c565b8015610aaf5780601f10610a8457610100808354040283529160200191610aaf565b820191906000526020600020905b815481529060010190602001808311610a9257829003601f168201915b505050505083600183610ac29190611dde565b81518110610af9577f4e487b7100000000000000000000000000000000000000000000000000000000600052603260045260246000fd5b60200260200101819052508080610b0f90611ece565b9150506109bc565b508181945094505050509091565b6000600160003373ffffffffffffffffffffffffffffffffffffffff1673ffffffffffffffffffffffffffffffffffffffff16815260200190815260200160002060009054906101000a900460ff16610b7d57600080fd5b600754905090565b6000600160003373ffffffffffffffffffffffffffffffffffffffff1673ffffffffffffffffffffffffffffffffffffffff16815260200190815260200160002060009054906101000a900460ff16610bdd57600080fd5b600654905090565b82600460008681526020019081526020016000206004019080519060200190610c0f92919061171f565b5081600460008681526020019081526020016000206005019080519060200190610c3a92919061171f565b5080600460008681526020019081526020016000206006019080519060200190610c6592919061171f565b5050505050565b6060806060600160003373ffffffffffffffffffffffffffffffffffffffff1673ffffffffffffffffffffffffffffffffffffffff16815260200190815260200160002060009054906101000a900460ff16610cc757600080fd5b600460008581526020019081526020016000206004016004600086815260200190815260200160002060050160046000878152602001908152602001600020600601828054610d1590611e9c565b80601f0160208091040260200160405190810160405280929190818152602001828054610d4190611e9c565b8015610d8e5780601f10610d6357610100808354040283529160200191610d8e565b820191906000526020600020905b815481529060010190602001808311610d7157829003601f168201915b50505050509250818054610da190611e9c565b80601f0160208091040260200160405190810160405280929190818152602001828054610dcd90611e9c565b8015610e1a5780601f10610def57610100808354040283529160200191610e1a565b820191906000526020600020905b815481529060010190602001808311610dfd57829003601f168201915b50505050509150808054610e2d90611e9c565b80601f0160208091040260200160405190810160405280929190818152602001828054610e5990611e9c565b8015610ea65780601f10610e7b57610100808354040283529160200191610ea6565b820191906000526020600020905b815481529060010190602001808311610e8957829003601f168201915b505050505090509250925092509193909250565b60008054906101000a900473ffffffffffffffffffffffffffffffffffffffff1673ffffffffffffffffffffffffffffffffffffffff163373ffffffffffffffffffffffffffffffffffffffff1614610f1257600080fd5b6000600160008373ffffffffffffffffffffffffffffffffffffffff1673ffffffffffffffffffffffffffffffffffffffff16815260200190815260200160002060006101000a81548160ff02191690831515021790555050565b600160003373ffffffffffffffffffffffffffffffffffffffff1673ffffffffffffffffffffffffffffffffffffffff16815260200190815260200160002060009054906101000a900460ff16610fc357600080fd5b806004600060085481526020019081526020016000206003019080519060200190610fef92919061171f565b506008600081548092919061100390611ece565b919050555050565b600160003373ffffffffffffffffffffffffffffffffffffffff1673ffffffffffffffffffffffffffffffffffffffff16815260200190815260200160002060009054906101000a900460ff1661106157600080fd5b80600460006005548152602001908152602001600020600001908051906020019061108d92919061171f565b50600560008154809291906110a190611ece565b919050555050565b60008054906101000a900473ffffffffffffffffffffffffffffffffffffffff1681565b600160003373ffffffffffffffffffffffffffffffffffffffff1673ffffffffffffffffffffffffffffffffffffffff16815260200190815260200160002060009054906101000a900460ff1661112357600080fd5b80600460006007548152602001908152602001600020600201908051906020019061114f92919061171f565b506007600081548092919061116390611ece565b919050555050565b6060600360009054906101000a900473ffffffffffffffffffffffffffffffffffffffff1673ffffffffffffffffffffffffffffffffffffffff1663b1689d40836040518263ffffffff1660e01b81526004016111c89190611cc3565b60006040518083038186803b1580156111e057600080fd5b505afa1580156111f4573d6000803e3d6000fd5b505050506040513d6000823e3d601f19601f8201168201806040525081019061121d9190611926565b9050919050565b60016020528060005260406000206000915054906101000a900460ff1681565b6000600160003373ffffffffffffffffffffffffffffffffffffffff1673ffffffffffffffffffffffffffffffffffffffff16815260200190815260200160002060009054906101000a900460ff1661129c57600080fd5b600554905090565b6060600260009054906101000a900473ffffffffffffffffffffffffffffffffffffffff1673ffffffffffffffffffffffffffffffffffffffff1663635b75cb836040518263ffffffff1660e01b81526004016113019190611cc3565b60006040518083038186803b15801561131957600080fd5b505afa15801561132d573d6000803e3d6000fd5b505050506040513d6000823e3d601f19601f820116820180604052508101906113569190611926565b9050919050565b60018060008373ffffffffffffffffffffffffffffffffffffffff1673ffffffffffffffffffffffffffffffffffffffff16815260200190815260200160002060006101000a81548160ff02191690831515021790555050565b6060600160003373ffffffffffffffffffffffffffffffffffffffff1673ffffffffffffffffffffffffffffffffffffffff16815260200190815260200160002060009054906101000a900460ff1661140f57600080fd5b60046000838152602001908152602001600020600001805461143090611e9c565b80601f016020809104026020016040519081016040528092919081815260200182805461145c90611e9c565b80156114a95780601f1061147e576101008083540402835291602001916114a9565b820191906000526020600020905b81548152906001019060200180831161148c57829003601f168201915b50505050509050919050565b60608060006114c261048a565b905060008167ffffffffffffffff811115611506577f4e487b7100000000000000000000000000000000000000000000000000000000600052604160045260246000fd5b60405190808252806020026020018201604052801561153957816020015b60608152602001906001900390816115245790505b50905060008267ffffffffffffffff81111561157e577f4e487b7100000000000000000000000000000000000000000000000000000000600052604160045260246000fd5b6040519080825280602002602001820160405280156115ac5781602001602082028036833780820191505090505b5090506000600190505b8381116117115780826001836115cc9190611dde565b81518110611603577f4e487b7100000000000000000000000000000000000000000000000000000000600052603260045260246000fd5b60200260200101818152505060046000828152602001908152602001600020600401805461163090611e9c565b80601f016020809104026020016040519081016040528092919081815260200182805461165c90611e9c565b80156116a95780601f1061167e576101008083540402835291602001916116a9565b820191906000526020600020905b81548152906001019060200180831161168c57829003601f168201915b5050505050836001836116bc9190611dde565b815181106116f3577f4e487b7100000000000000000000000000000000000000000000000000000000600052603260045260246000fd5b6020026020010181905250808061170990611ece565b9150506115b6565b508181945094505050509091565b82805461172b90611e9c565b90600052602060002090601f01602090048101928261174d5760008555611794565b82601f1061176657805160ff1916838001178555611794565b82800160010185558215611794579182015b82811115611793578251825591602001919060010190611778565b5b5090506117a191906117a5565b5090565b5b808211156117be5760008160009055506001016117a6565b5090565b60006117d56117d084611d0f565b611cde565b9050828152602081018484840111156117ed57600080fd5b6117f8848285611e5a565b509392505050565b600061181361180e84611d0f565b611cde565b90508281526020810184848401111561182b57600080fd5b611836848285611e69565b509392505050565b60008135905061184d81611fb5565b92915050565b600082601f83011261186457600080fd5b81356118748482602086016117c2565b91505092915050565b600082601f83011261188e57600080fd5b815161189e848260208601611800565b91505092915050565b6000813590506118b681611fcc565b92915050565b6000602082840312156118ce57600080fd5b60006118dc8482850161183e565b91505092915050565b6000602082840312156118f757600080fd5b600082013567ffffffffffffffff81111561191157600080fd5b61191d84828501611853565b91505092915050565b60006020828403121561193857600080fd5b600082015167ffffffffffffffff81111561195257600080fd5b61195e8482850161187d565b91505092915050565b60006020828403121561197957600080fd5b6000611987848285016118a7565b91505092915050565b600080600080608085870312156119a657600080fd5b60006119b4878288016118a7565b945050602085013567ffffffffffffffff8111156119d157600080fd5b6119dd87828801611853565b935050604085013567ffffffffffffffff8111156119fa57600080fd5b611a0687828801611853565b925050606085013567ffffffffffffffff811115611a2357600080fd5b611a2f87828801611853565b91505092959194509250565b6000611a478383611b58565b905092915050565b6000611a5b8383611bca565b60208301905092915050565b611a7081611e12565b82525050565b6000611a8182611d5f565b611a8b8185611d9a565b935083602082028501611a9d85611d3f565b8060005b85811015611ad95784840389528151611aba8582611a3b565b9450611ac583611d80565b925060208a01995050600181019050611aa1565b50829750879550505050505092915050565b6000611af682611d6a565b611b008185611dab565b9350611b0b83611d4f565b8060005b83811015611b3c578151611b238882611a4f565b9750611b2e83611d8d565b925050600181019050611b0f565b5085935050505092915050565b611b5281611e24565b82525050565b6000611b6382611d75565b611b6d8185611dbc565b9350611b7d818560208601611e69565b611b8681611fa4565b840191505092915050565b6000611b9c82611d75565b611ba68185611dcd565b9350611bb6818560208601611e69565b611bbf81611fa4565b840191505092915050565b611bd381611e50565b82525050565b611be281611e50565b82525050565b6000602082019050611bfd6000830184611a67565b92915050565b60006040820190508181036000830152611c1d8185611a76565b90508181036020830152611c318184611aeb565b90509392505050565b6000602082019050611c4f6000830184611b49565b92915050565b60006020820190508181036000830152611c6f8184611b91565b905092915050565b60006060820190508181036000830152611c918186611b91565b90508181036020830152611ca58185611b91565b90508181036040830152611cb98184611b91565b9050949350505050565b6000602082019050611cd86000830184611bd9565b92915050565b6000604051905081810181811067ffffffffffffffff82111715611d0557611d04611f75565b5b8060405250919050565b600067ffffffffffffffff821115611d2a57611d29611f75565b5b601f19601f8301169050602081019050919050565b6000819050602082019050919050565b6000819050602082019050919050565b600081519050919050565b600081519050919050565b600081519050919050565b6000602082019050919050565b6000602082019050919050565b600082825260208201905092915050565b600082825260208201905092915050565b600082825260208201905092915050565b600082825260208201905092915050565b6000611de982611e50565b9150611df483611e50565b925082821015611e0757611e06611f17565b5b828203905092915050565b6000611e1d82611e30565b9050919050565b60008115159050919050565b600073ffffffffffffffffffffffffffffffffffffffff82169050919050565b6000819050919050565b82818337600083830152505050565b60005b83811015611e87578082015181840152602081019050611e6c565b83811115611e96576000848401525b50505050565b60006002820490506001821680611eb457607f821691505b60208210811415611ec857611ec7611f46565b5b50919050565b6000611ed982611e50565b91507fffffffffffffffffffffffffffffffffffffffffffffffffffffffffffffffff821415611f0c57611f0b611f17565b5b600182019050919050565b7f4e487b7100000000000000000000000000000000000000000000000000000000600052601160045260246000fd5b7f4e487b7100000000000000000000000000000000000000000000000000000000600052602260045260246000fd5b7f4e487b7100000000000000000000000000000000000000000000000000000000600052604160045260246000fd5b6000601f19601f8301169050919050565b611fbe81611e12565b8114611fc957600080fd5b50565b611fd581611e50565b8114611fe057600080fd5b5056fea2646970667358221220a24bc70b4e37f941aca26e99a63e07a0c17459b549d30153a1d100c320a6144064736f6c63430008000033",
  "immutableReferences": {},
  "source": "// SPDX-License-Identifier: MIT\r\npragma solidity ^0.8.0;\r\n\r\nimport \"./Produttore.sol\";\r\nimport \"./Viticoltore.sol\";\r\n\r\ncontract Imbottigliatore {\r\n\r\n    //dati per autorizzazioni alle chiamate delle funzioni\r\n    address public owner;\r\n    mapping(address => bool) public authorized;\r\n\r\n    Produttore produttoreContract;\r\n    Viticoltore viticoltoreContract;\r\n\r\n    constructor(address _produttoreContractAddress, address _viticoltoreContractAddress) {\r\n        owner = msg.sender;\r\n        authorized[owner] = true; //solo per fare test, oppure  un'opzione valida se il deploy viene fatto da ogni singolo attore in maniera indipendente.\r\n        produttoreContract = Produttore(_produttoreContractAddress);\r\n        viticoltoreContract = Viticoltore(_viticoltoreContractAddress);\r\n\r\n        //TESTING\r\n        produttoreContract.addAuthorized(address(this));\r\n        viticoltoreContract.addAuthorized(address(this));\r\n    }\r\n\r\n    struct DatiImbottigliatore {\r\n\r\n        //dati manuali\r\n        string solfiti;\r\n        string allergeni;\r\n        string localitaUve;\r\n        string codiceBarre;\r\n\r\n        //dati automatici\r\n        string quantitaProdottoRicevuta;\r\n        string quantitaVinoImbottigliata;\r\n        string gradazioneAlcolica;\r\n    }\r\n\r\n    mapping(uint256 => DatiImbottigliatore) lotti;\r\n\r\n    /*identificazione funzioni lotti*/\r\n    uint256 idSolfitiSerial = 1;\r\n    uint256 idAllergeniSerial = 1;\r\n    uint256 idLocalitaUveSerial = 1;\r\n    uint256 idCodiceBarreSerial = 1;\r\n\r\n    //funzioni di autorizzazione \r\n    function addAuthorized(address _address) public {\r\n        //require(msg.sender == owner);\r\n        authorized[_address] = true;\r\n    }\r\n\r\n    function removeAuthorized(address _address) public {\r\n        require(msg.sender == owner);\r\n        authorized[_address] = false;\r\n    }\r\n\r\n    //inserimento manuale\r\n    function setSolfiti(string memory _solfiti) public {\r\n        require(authorized[msg.sender]);\r\n        lotti[idSolfitiSerial].solfiti = _solfiti;\r\n        idSolfitiSerial++;\r\n    }\r\n\r\n    function setAllergeni(string memory _allergeni) public {\r\n        require(authorized[msg.sender]);\r\n        lotti[idAllergeniSerial].allergeni = _allergeni;\r\n        idAllergeniSerial++;\r\n    }\r\n\r\n    function setLocalitaUve(string memory _localitaUve) public {\r\n        require(authorized[msg.sender]);\r\n        lotti[idLocalitaUveSerial].localitaUve = _localitaUve;\r\n        idLocalitaUveSerial++;\r\n    }\r\n\r\n    function setCodiceBarre(string memory _codiceBarre) public {\r\n        require(authorized[msg.sender]);\r\n        lotti[idCodiceBarreSerial].codiceBarre = _codiceBarre;\r\n        idCodiceBarreSerial++;\r\n    }\r\n\r\n    //inserimento automatico\r\n    function setSensoriImbottigliatore(uint256 _idLotto, string memory _quantitaProdottoRicevuta, string memory _quantitaVinoImbottigliata, string memory _gradazioneAlcolica) public {\r\n\r\n        lotti[_idLotto].quantitaProdottoRicevuta = _quantitaProdottoRicevuta;\r\n        lotti[_idLotto].quantitaVinoImbottigliata = _quantitaVinoImbottigliata;\r\n        lotti[_idLotto].gradazioneAlcolica = _gradazioneAlcolica;\r\n    }\r\n\r\n    /*query e metodi di appoggio per data analysis*/\r\n    function getMappaLottiLength() public view returns(uint256){\r\n        uint256 count = 0;\r\n    for (uint256 i = 1; i < type(uint256).max; i++) {\r\n        if (bytes(lotti[i].quantitaProdottoRicevuta).length == 0) {\r\n            break;\r\n        }\r\n        count++;\r\n    }\r\n    return count;\r\n    }\r\n\r\n    function queryQuantitaProdottoRicevutaPerLotto() public view returns(string[] memory, uint256[] memory){\r\n        \r\n        uint256 length = getMappaLottiLength();\r\n        string[] memory result = new string[](length);\r\n        uint256[] memory resultLotti = new uint256[](length);\r\n\r\n        for(uint256 i=1; i<=length; i++){\r\n            resultLotti[i-1] = i;\r\n            result[i-1] = lotti[i].quantitaProdottoRicevuta;\r\n        }\r\n        return (result, resultLotti);\r\n    }\r\n\r\n    function queryQuantitaVinoImbottigliataPerLotto() public view returns(string[] memory, uint256[] memory){\r\n        \r\n        uint256 length = getMappaLottiLength();\r\n        string[] memory result = new string[](length);\r\n        uint256[] memory resultLotti = new uint256[](length);\r\n\r\n        for(uint256 i=1; i<=length; i++){\r\n            resultLotti[i-1] = i;\r\n            result[i-1] = lotti[i].quantitaVinoImbottigliata;\r\n        }\r\n        return (result, resultLotti);\r\n    }\r\n    \r\n    //\r\n\r\n    //funzioni get\r\n    function getIdSolfitiSerial() public view returns(uint256) {\r\n        require(authorized[msg.sender]);\r\n        return idSolfitiSerial;\r\n    }\r\n\r\n    function getIdAllergeniSerial() public view returns(uint256) {\r\n        require(authorized[msg.sender]);\r\n        return idAllergeniSerial;\r\n    }\r\n\r\n    function getIdLocalitaUveSerial() public view returns(uint256) {\r\n        require(authorized[msg.sender]);\r\n        return idLocalitaUveSerial;\r\n    }\r\n\r\n    function getIdCodiceBarreSerial() public view returns(uint256) {\r\n        require(authorized[msg.sender]);\r\n        return idCodiceBarreSerial;\r\n    }\r\n\r\n    function getSolfiti(uint256 _idLotto) public view returns(string memory) {\r\n        require(authorized[msg.sender]);\r\n        return lotti[_idLotto].solfiti;\r\n    }\r\n\r\n    function getAllergeni(uint256 _idLotto) public view returns(string memory) {\r\n        require(authorized[msg.sender]);\r\n        return lotti[_idLotto].allergeni;\r\n    }\r\n\r\n    function getlocalitaUve(uint256 _idLotto) public view returns(string memory) {\r\n        require(authorized[msg.sender]);\r\n        return lotti[_idLotto].localitaUve;\r\n    }\r\n\r\n    function getCodiceBarre(uint256 _idLotto) public view returns(string memory) {\r\n        //require(authorized[msg.sender]); TEST\r\n        return lotti[_idLotto].codiceBarre;\r\n    }\r\n\r\n    function getDatiSensoriImbottigliatore(uint256 _idLotto) public view returns(string memory, string memory, string memory) {\r\n        require(authorized[msg.sender]);\r\n        return (lotti[_idLotto].quantitaProdottoRicevuta, lotti[_idLotto].quantitaVinoImbottigliata, lotti[_idLotto].gradazioneAlcolica);\r\n    }\r\n\r\n    //funzioni di get Da Produttore\r\n    function getListaProdottiVinificazione(uint256 _idLotto) public view returns(string memory) {\r\n        return produttoreContract.getProdottiVinificazione(_idLotto);\r\n    }\r\n\r\n    //funzioni di get da Viticoltore\r\n    function getDestinazioneUva(uint256 _idLotto) public view returns(string memory) {\r\n        return viticoltoreContract.getDestinazioneUva(_idLotto);\r\n    }\r\n\r\n}",
  "sourcePath": "C:\\Users\\Erman\\OneDrive\\BinTraWine_github\\BinTraWine\\contracts\\Imbottigliatore.sol",
  "compiler": {
    "name": "solc",
    "version": "0.8.0+commit.c7dfd78e.Emscripten.clang"
  },
  "schemaVersion": "3.4.13",
  "updatedAt": "2023-09-29T13:56:18.266Z",
  "networkType": "quorum",
  "devdoc": {
    "kind": "dev",
    "methods": {},
    "version": 1
  },
  "userdoc": {
    "kind": "user",
    "methods": {},
    "version": 1
  }
}