{
  "contractName": "Produttore",
  "abi": [
    {
      "inputs": [
        {
          "internalType": "address",
          "name": "_viticoltoreContractAddress",
          "type": "address"
        }
      ],
      "stateMutability": "nonpayable",
      "type": "constructor"
    },
    {
      "inputs": [
        {
          "internalType": "address",
          "name": "",
          "type": "address"
        }
      ],
      "name": "authorized",
      "outputs": [
        {
          "internalType": "bool",
          "name": "",
          "type": "bool"
        }
      ],
      "stateMutability": "view",
      "type": "function",
      "constant": true
    },
    {
      "inputs": [],
      "name": "owner",
      "outputs": [
        {
          "internalType": "address",
          "name": "",
          "type": "address"
        }
      ],
      "stateMutability": "view",
      "type": "function",
      "constant": true
    },
    {
      "inputs": [
        {
          "internalType": "address",
          "name": "_address",
          "type": "address"
        }
      ],
      "name": "addAuthorized",
      "outputs": [],
      "stateMutability": "nonpayable",
      "type": "function"
    },
    {
      "inputs": [
        {
          "internalType": "address",
          "name": "_address",
          "type": "address"
        }
      ],
      "name": "removeAuthorized",
      "outputs": [],
      "stateMutability": "nonpayable",
      "type": "function"
    },
    {
      "inputs": [
        {
          "internalType": "string",
          "name": "_prodottiVinificazione",
          "type": "string"
        }
      ],
      "name": "setProdottiVinificazione",
      "outputs": [],
      "stateMutability": "nonpayable",
      "type": "function"
    },
    {
      "inputs": [
        {
          "internalType": "string",
          "name": "_quantitaVinoOttenuto",
          "type": "string"
        }
      ],
      "name": "setQuantitaVinoOttenuto",
      "outputs": [],
      "stateMutability": "nonpayable",
      "type": "function"
    },
    {
      "inputs": [
        {
          "internalType": "string",
          "name": "_quantitaVinoRivendicato",
          "type": "string"
        }
      ],
      "name": "setQuantitaVinoRivendicato",
      "outputs": [],
      "stateMutability": "nonpayable",
      "type": "function"
    },
    {
      "inputs": [
        {
          "internalType": "uint256",
          "name": "_idLotto",
          "type": "uint256"
        },
        {
          "internalType": "string",
          "name": "_pesoArrivo",
          "type": "string"
        },
        {
          "internalType": "string",
          "name": "_pesoProdottoFinito",
          "type": "string"
        },
        {
          "internalType": "string",
          "name": "_idContainer",
          "type": "string"
        },
        {
          "internalType": "string",
          "name": "_temperaturaContainer",
          "type": "string"
        }
      ],
      "name": "setSensoriProduttore",
      "outputs": [],
      "stateMutability": "nonpayable",
      "type": "function"
    },
    {
      "inputs": [],
      "name": "getMappaLottiLength",
      "outputs": [
        {
          "internalType": "uint256",
          "name": "",
          "type": "uint256"
        }
      ],
      "stateMutability": "view",
      "type": "function",
      "constant": true
    },
    {
      "inputs": [],
      "name": "queryVinoOttenutoPerLotto",
      "outputs": [
        {
          "internalType": "string[]",
          "name": "",
          "type": "string[]"
        },
        {
          "internalType": "uint256[]",
          "name": "",
          "type": "uint256[]"
        }
      ],
      "stateMutability": "view",
      "type": "function",
      "constant": true
    },
    {
      "inputs": [],
      "name": "queryVinoRivendicatoPerLotto",
      "outputs": [
        {
          "internalType": "string[]",
          "name": "",
          "type": "string[]"
        },
        {
          "internalType": "uint256[]",
          "name": "",
          "type": "uint256[]"
        }
      ],
      "stateMutability": "view",
      "type": "function",
      "constant": true
    },
    {
      "inputs": [],
      "name": "getIdProdottiVinificazioneSerial",
      "outputs": [
        {
          "internalType": "uint256",
          "name": "",
          "type": "uint256"
        }
      ],
      "stateMutability": "view",
      "type": "function",
      "constant": true
    },
    {
      "inputs": [],
      "name": "getIdQuantitaVinoOttenutoSerial",
      "outputs": [
        {
          "internalType": "uint256",
          "name": "",
          "type": "uint256"
        }
      ],
      "stateMutability": "view",
      "type": "function",
      "constant": true
    },
    {
      "inputs": [],
      "name": "getIdQuantitaVinoRivendicatoSerial",
      "outputs": [
        {
          "internalType": "uint256",
          "name": "",
          "type": "uint256"
        }
      ],
      "stateMutability": "view",
      "type": "function",
      "constant": true
    },
    {
      "inputs": [
        {
          "internalType": "uint256",
          "name": "_idLotto",
          "type": "uint256"
        }
      ],
      "name": "getProdottiVinificazione",
      "outputs": [
        {
          "internalType": "string",
          "name": "",
          "type": "string"
        }
      ],
      "stateMutability": "view",
      "type": "function",
      "constant": true
    },
    {
      "inputs": [
        {
          "internalType": "uint256",
          "name": "_idLotto",
          "type": "uint256"
        }
      ],
      "name": "getQuantitaVinoOttenuto",
      "outputs": [
        {
          "internalType": "string",
          "name": "",
          "type": "string"
        }
      ],
      "stateMutability": "view",
      "type": "function",
      "constant": true
    },
    {
      "inputs": [
        {
          "internalType": "uint256",
          "name": "_idLotto",
          "type": "uint256"
        }
      ],
      "name": "getQuantitaVinoRivendicato",
      "outputs": [
        {
          "internalType": "string",
          "name": "",
          "type": "string"
        }
      ],
      "stateMutability": "view",
      "type": "function",
      "constant": true
    },
    {
      "inputs": [
        {
          "internalType": "uint256",
          "name": "_idLotto",
          "type": "uint256"
        }
      ],
      "name": "getDatiSensoriProduttore",
      "outputs": [
        {
          "internalType": "string",
          "name": "",
          "type": "string"
        },
        {
          "internalType": "string",
          "name": "",
          "type": "string"
        },
        {
          "internalType": "string",
          "name": "",
          "type": "string"
        },
        {
          "internalType": "string",
          "name": "",
          "type": "string"
        }
      ],
      "stateMutability": "view",
      "type": "function",
      "constant": true
    },
    {
      "inputs": [
        {
          "internalType": "uint256",
          "name": "_idLotto",
          "type": "uint256"
        }
      ],
      "name": "getDatiVendita",
      "outputs": [
        {
          "internalType": "string",
          "name": "",
          "type": "string"
        },
        {
          "internalType": "string",
          "name": "",
          "type": "string"
        },
        {
          "internalType": "string",
          "name": "",
          "type": "string"
        },
        {
          "internalType": "string",
          "name": "",
          "type": "string"
        },
        {
          "internalType": "string",
          "name": "",
          "type": "string"
        }
      ],
      "stateMutability": "view",
      "type": "function",
      "constant": true
    },
    {
      "inputs": [
        {
          "internalType": "uint256",
          "name": "_idLotto",
          "type": "uint256"
        }
      ],
      "name": "getPesoViticoltore",
      "outputs": [
        {
          "internalType": "string",
          "name": "",
          "type": "string"
        }
      ],
      "stateMutability": "view",
      "type": "function",
      "constant": true
    },
    {
      "inputs": [
        {
          "internalType": "uint256",
          "name": "_idLotto",
          "type": "uint256"
        }
      ],
      "name": "getDataRaccolta",
      "outputs": [
        {
          "internalType": "string",
          "name": "",
          "type": "string"
        }
      ],
      "stateMutability": "view",
      "type": "function",
      "constant": true
    },
    {
      "inputs": [
        {
          "internalType": "uint256",
          "name": "_idLotto",
          "type": "uint256"
        }
      ],
      "name": "getDestinazioneUva",
      "outputs": [
        {
          "internalType": "string",
          "name": "",
          "type": "string"
        }
      ],
      "stateMutability": "view",
      "type": "function",
      "constant": true
    },
    {
      "inputs": [
        {
          "internalType": "uint256",
          "name": "_idLotto",
          "type": "uint256"
        }
      ],
      "name": "getTipologiaUva",
      "outputs": [
        {
          "internalType": "string",
          "name": "",
          "type": "string"
        }
      ],
      "stateMutability": "view",
      "type": "function",
      "constant": true
    }
  ],
  "bytecode": "0x60806040526001600455600160055560016006553480156200002057600080fd5b50604051620026fb380380620026fb83398181016040528101906200004691906200015d565b336000806101000a81548173ffffffffffffffffffffffffffffffffffffffff021916908373ffffffffffffffffffffffffffffffffffffffff16021790555060018060008060009054906101000a900473ffffffffffffffffffffffffffffffffffffffff1673ffffffffffffffffffffffffffffffffffffffff1673ffffffffffffffffffffffffffffffffffffffff16815260200190815260200160002060006101000a81548160ff02191690831515021790555080600260006101000a81548173ffffffffffffffffffffffffffffffffffffffff021916908373ffffffffffffffffffffffffffffffffffffffff16021790555050620001d7565b6000815190506200015781620001bd565b92915050565b6000602082840312156200017057600080fd5b6000620001808482850162000146565b91505092915050565b600062000196826200019d565b9050919050565b600073ffffffffffffffffffffffffffffffffffffffff82169050919050565b620001c88162000189565b8114620001d457600080fd5b50565b61251480620001e76000396000f3fe608060405234801561001057600080fd5b506004361061014d5760003560e01c80637cdf0404116100c3578063a7de4ef71161007c578063a7de4ef7146103bd578063b1689d40146103d9578063b17e973014610409578063b1b02a6e14610439578063b918161114610469578063cf1c316a146104995761014d565b80637cdf0404146102d1578063875693cd146102ef5780638a23f0df1461031f5780638da5cb5b1461033b5780639edd513f14610359578063a679f04d1461038d5761014d565b80631bbc236f116101155780631bbc236f146101f957806337051aec14610217578063485d7d941461024a578063635b75cb1461026657806364d421c11461029657806375870cbe146102b25761014d565b80630338951b1461015257806303747a471461017157806305a680c01461018f57806306fe3d9f146101ab578063095482f3146101c9575b600080fd5b61015a6104b5565b604051610168929190612073565b60405180910390f35b61017961071f565b60405161018691906121be565b60405180910390f35b6101a960048036038101906101a49190611c3a565b6107ae565b005b6101b361084c565b6040516101c091906121be565b60405180910390f35b6101e360048036038101906101de9190611dab565b6108ac565b6040516101f091906120c5565b60405180910390f35b6102016109aa565b60405161020e91906121be565b60405180910390f35b610231600480360381019061022c9190611dab565b610a0a565b60405161024194939291906120e7565b60405180910390f35b610264600480360381019061025f9190611c11565b610cfd565b005b610280600480360381019061027b9190611dab565b610db0565b60405161028d91906120c5565b60405180910390f35b6102b060048036038101906102ab9190611dd4565b610eae565b005b6102ba610f61565b6040516102c8929190612073565b60405180910390f35b6102d96111cb565b6040516102e691906121be565b60405180910390f35b61030960048036038101906103049190611dab565b61122b565b60405161031691906120c5565b60405180910390f35b61033960048036038101906103349190611c3a565b611344565b005b6103436113e2565b6040516103509190612058565b60405180910390f35b610373600480360381019061036e9190611dab565b611406565b604051610384959493929190612148565b60405180910390f35b6103a760048036038101906103a29190611dab565b611527565b6040516103b491906120c5565b60405180910390f35b6103d760048036038101906103d29190611c3a565b611640565b005b6103f360048036038101906103ee9190611dab565b6116de565b60405161040091906120c5565b60405180910390f35b610423600480360381019061041e9190611dab565b6117ed565b60405161043091906120c5565b60405180910390f35b610453600480360381019061044e9190611dab565b6118fc565b60405161046091906120c5565b60405180910390f35b610483600480360381019061047e9190611c11565b6119fa565b60405161049091906120aa565b60405180910390f35b6104b360048036038101906104ae9190611c11565b611a1a565b005b60608060006104c261071f565b905060008167ffffffffffffffff811115610506577f4e487b7100000000000000000000000000000000000000000000000000000000600052604160045260246000fd5b60405190808252806020026020018201604052801561053957816020015b60608152602001906001900390816105245790505b50905060008267ffffffffffffffff81111561057e577f4e487b7100000000000000000000000000000000000000000000000000000000600052604160045260246000fd5b6040519080825280602002602001820160405280156105ac5781602001602082028036833780820191505090505b5090506000600190505b8381116107115780826001836105cc91906122d9565b81518110610603577f4e487b7100000000000000000000000000000000000000000000000000000000600052603260045260246000fd5b60200260200101818152505060036000828152602001908152602001600020600101805461063090612397565b80601f016020809104026020016040519081016040528092919081815260200182805461065c90612397565b80156106a95780601f1061067e576101008083540402835291602001916106a9565b820191906000526020600020905b81548152906001019060200180831161068c57829003601f168201915b5050505050836001836106bc91906122d9565b815181106106f3577f4e487b7100000000000000000000000000000000000000000000000000000000600052603260045260246000fd5b60200260200101819052508080610709906123c9565b9150506105b6565b508181945094505050509091565b600080600090506000600190505b7fffffffffffffffffffffffffffffffffffffffffffffffffffffffffffffffff8110156107a657600060036000838152602001908152602001600020600101805461077890612397565b90501415610785576107a6565b8180610790906123c9565b925050808061079e906123c9565b91505061072d565b508091505090565b600160003373ffffffffffffffffffffffffffffffffffffffff1673ffffffffffffffffffffffffffffffffffffffff16815260200190815260200160002060009054906101000a900460ff1661080457600080fd5b806003600060045481526020019081526020016000206000019080519060200190610830929190611a74565b5060046000815480929190610844906123c9565b919050555050565b6000600160003373ffffffffffffffffffffffffffffffffffffffff1673ffffffffffffffffffffffffffffffffffffffff16815260200190815260200160002060009054906101000a900460ff166108a457600080fd5b600554905090565b6060600160003373ffffffffffffffffffffffffffffffffffffffff1673ffffffffffffffffffffffffffffffffffffffff16815260200190815260200160002060009054906101000a900460ff1661090457600080fd5b60036000838152602001908152602001600020600101805461092590612397565b80601f016020809104026020016040519081016040528092919081815260200182805461095190612397565b801561099e5780601f106109735761010080835404028352916020019161099e565b820191906000526020600020905b81548152906001019060200180831161098157829003601f168201915b50505050509050919050565b6000600160003373ffffffffffffffffffffffffffffffffffffffff1673ffffffffffffffffffffffffffffffffffffffff16815260200190815260200160002060009054906101000a900460ff16610a0257600080fd5b600454905090565b606080606080600160003373ffffffffffffffffffffffffffffffffffffffff1673ffffffffffffffffffffffffffffffffffffffff16815260200190815260200160002060009054906101000a900460ff16610a6657600080fd5b60036000868152602001908152602001600020600301600360008781526020019081526020016000206004016003600088815260200190815260200160002060050160036000898152602001908152602001600020600601838054610aca90612397565b80601f0160208091040260200160405190810160405280929190818152602001828054610af690612397565b8015610b435780601f10610b1857610100808354040283529160200191610b43565b820191906000526020600020905b815481529060010190602001808311610b2657829003601f168201915b50505050509350828054610b5690612397565b80601f0160208091040260200160405190810160405280929190818152602001828054610b8290612397565b8015610bcf5780601f10610ba457610100808354040283529160200191610bcf565b820191906000526020600020905b815481529060010190602001808311610bb257829003601f168201915b50505050509250818054610be290612397565b80601f0160208091040260200160405190810160405280929190818152602001828054610c0e90612397565b8015610c5b5780601f10610c3057610100808354040283529160200191610c5b565b820191906000526020600020905b815481529060010190602001808311610c3e57829003601f168201915b50505050509150808054610c6e90612397565b80601f0160208091040260200160405190810160405280929190818152602001828054610c9a90612397565b8015610ce75780601f10610cbc57610100808354040283529160200191610ce7565b820191906000526020600020905b815481529060010190602001808311610cca57829003601f168201915b5050505050905093509350935093509193509193565b60008054906101000a900473ffffffffffffffffffffffffffffffffffffffff1673ffffffffffffffffffffffffffffffffffffffff163373ffffffffffffffffffffffffffffffffffffffff1614610d5557600080fd5b6000600160008373ffffffffffffffffffffffffffffffffffffffff1673ffffffffffffffffffffffffffffffffffffffff16815260200190815260200160002060006101000a81548160ff02191690831515021790555050565b6060600160003373ffffffffffffffffffffffffffffffffffffffff1673ffffffffffffffffffffffffffffffffffffffff16815260200190815260200160002060009054906101000a900460ff16610e0857600080fd5b600360008381526020019081526020016000206000018054610e2990612397565b80601f0160208091040260200160405190810160405280929190818152602001828054610e5590612397565b8015610ea25780601f10610e7757610100808354040283529160200191610ea2565b820191906000526020600020905b815481529060010190602001808311610e8557829003601f168201915b50505050509050919050565b83600360008781526020019081526020016000206003019080519060200190610ed8929190611a74565b5082600360008781526020019081526020016000206004019080519060200190610f03929190611a74565b5081600360008781526020019081526020016000206005019080519060200190610f2e929190611a74565b5080600360008781526020019081526020016000206006019080519060200190610f59929190611a74565b505050505050565b6060806000610f6e61071f565b905060008167ffffffffffffffff811115610fb2577f4e487b7100000000000000000000000000000000000000000000000000000000600052604160045260246000fd5b604051908082528060200260200182016040528015610fe557816020015b6060815260200190600190039081610fd05790505b50905060008267ffffffffffffffff81111561102a577f4e487b7100000000000000000000000000000000000000000000000000000000600052604160045260246000fd5b6040519080825280602002602001820160405280156110585781602001602082028036833780820191505090505b5090506000600190505b8381116111bd57808260018361107891906122d9565b815181106110af577f4e487b7100000000000000000000000000000000000000000000000000000000600052603260045260246000fd5b6020026020010181815250506003600082815260200190815260200160002060020180546110dc90612397565b80601f016020809104026020016040519081016040528092919081815260200182805461110890612397565b80156111555780601f1061112a57610100808354040283529160200191611155565b820191906000526020600020905b81548152906001019060200180831161113857829003601f168201915b50505050508360018361116891906122d9565b8151811061119f577f4e487b7100000000000000000000000000000000000000000000000000000000600052603260045260246000fd5b602002602001018190525080806111b5906123c9565b915050611062565b508181945094505050509091565b6000600160003373ffffffffffffffffffffffffffffffffffffffff1673ffffffffffffffffffffffffffffffffffffffff16815260200190815260200160002060009054906101000a900460ff1661122357600080fd5b600654905090565b6060600160003373ffffffffffffffffffffffffffffffffffffffff1673ffffffffffffffffffffffffffffffffffffffff16815260200190815260200160002060009054906101000a900460ff1661128357600080fd5b6000600260009054906101000a900473ffffffffffffffffffffffffffffffffffffffff1673ffffffffffffffffffffffffffffffffffffffff166313a4db7b846040518263ffffffff1660e01b81526004016112e091906121be565b60006040518083038186803b1580156112f857600080fd5b505afa15801561130c573d6000803e3d6000fd5b505050506040513d6000823e3d601f19601f820116820180604052508101906113359190611cbc565b50505050905080915050919050565b600160003373ffffffffffffffffffffffffffffffffffffffff1673ffffffffffffffffffffffffffffffffffffffff16815260200190815260200160002060009054906101000a900460ff1661139a57600080fd5b8060036000600654815260200190815260200160002060020190805190602001906113c6929190611a74565b50600660008154809291906113da906123c9565b919050555050565b60008054906101000a900473ffffffffffffffffffffffffffffffffffffffff1681565b6060806060806060600160003373ffffffffffffffffffffffffffffffffffffffff1673ffffffffffffffffffffffffffffffffffffffff16815260200190815260200160002060009054906101000a900460ff1661146457600080fd5b600260009054906101000a900473ffffffffffffffffffffffffffffffffffffffff1673ffffffffffffffffffffffffffffffffffffffff16639edd513f876040518263ffffffff1660e01b81526004016114bf91906121be565b60006040518083038186803b1580156114d757600080fd5b505afa1580156114eb573d6000803e3d6000fd5b505050506040513d6000823e3d601f19601f820116820180604052508101906115149190611cbc565b9450945094509450945091939590929450565b6060600160003373ffffffffffffffffffffffffffffffffffffffff1673ffffffffffffffffffffffffffffffffffffffff16815260200190815260200160002060009054906101000a900460ff1661157f57600080fd5b6000600260009054906101000a900473ffffffffffffffffffffffffffffffffffffffff1673ffffffffffffffffffffffffffffffffffffffff166313a4db7b846040518263ffffffff1660e01b81526004016115dc91906121be565b60006040518083038186803b1580156115f457600080fd5b505afa158015611608573d6000803e3d6000fd5b505050506040513d6000823e3d601f19601f820116820180604052508101906116319190611cbc565b50505091505080915050919050565b600160003373ffffffffffffffffffffffffffffffffffffffff1673ffffffffffffffffffffffffffffffffffffffff16815260200190815260200160002060009054906101000a900460ff1661169657600080fd5b8060036000600554815260200190815260200160002060010190805190602001906116c2929190611a74565b50600560008154809291906116d6906123c9565b919050555050565b6060600160003373ffffffffffffffffffffffffffffffffffffffff1673ffffffffffffffffffffffffffffffffffffffff16815260200190815260200160002060009054906101000a900460ff1661173657600080fd5b600260009054906101000a900473ffffffffffffffffffffffffffffffffffffffff1673ffffffffffffffffffffffffffffffffffffffff1663b1689d40836040518263ffffffff1660e01b815260040161179191906121be565b60006040518083038186803b1580156117a957600080fd5b505afa1580156117bd573d6000803e3d6000fd5b505050506040513d6000823e3d601f19601f820116820180604052508101906117e69190611c7b565b9050919050565b6060600160003373ffffffffffffffffffffffffffffffffffffffff1673ffffffffffffffffffffffffffffffffffffffff16815260200190815260200160002060009054906101000a900460ff1661184557600080fd5b600260009054906101000a900473ffffffffffffffffffffffffffffffffffffffff1673ffffffffffffffffffffffffffffffffffffffff1663b17e9730836040518263ffffffff1660e01b81526004016118a091906121be565b60006040518083038186803b1580156118b857600080fd5b505afa1580156118cc573d6000803e3d6000fd5b505050506040513d6000823e3d601f19601f820116820180604052508101906118f59190611c7b565b9050919050565b6060600160003373ffffffffffffffffffffffffffffffffffffffff1673ffffffffffffffffffffffffffffffffffffffff16815260200190815260200160002060009054906101000a900460ff1661195457600080fd5b60036000838152602001908152602001600020600201805461197590612397565b80601f01602080910402602001604051908101604052809291908181526020018280546119a190612397565b80156119ee5780601f106119c3576101008083540402835291602001916119ee565b820191906000526020600020905b8154815290600101906020018083116119d157829003601f168201915b50505050509050919050565b60016020528060005260406000206000915054906101000a900460ff1681565b60018060008373ffffffffffffffffffffffffffffffffffffffff1673ffffffffffffffffffffffffffffffffffffffff16815260200190815260200160002060006101000a81548160ff02191690831515021790555050565b828054611a8090612397565b90600052602060002090601f016020900481019282611aa25760008555611ae9565b82601f10611abb57805160ff1916838001178555611ae9565b82800160010185558215611ae9579182015b82811115611ae8578251825591602001919060010190611acd565b5b509050611af69190611afa565b5090565b5b80821115611b13576000816000905550600101611afb565b5090565b6000611b2a611b258461220a565b6121d9565b905082815260208101848484011115611b4257600080fd5b611b4d848285612355565b509392505050565b6000611b68611b638461220a565b6121d9565b905082815260208101848484011115611b8057600080fd5b611b8b848285612364565b509392505050565b600081359050611ba2816124b0565b92915050565b600082601f830112611bb957600080fd5b8135611bc9848260208601611b17565b91505092915050565b600082601f830112611be357600080fd5b8151611bf3848260208601611b55565b91505092915050565b600081359050611c0b816124c7565b92915050565b600060208284031215611c2357600080fd5b6000611c3184828501611b93565b91505092915050565b600060208284031215611c4c57600080fd5b600082013567ffffffffffffffff811115611c6657600080fd5b611c7284828501611ba8565b91505092915050565b600060208284031215611c8d57600080fd5b600082015167ffffffffffffffff811115611ca757600080fd5b611cb384828501611bd2565b91505092915050565b600080600080600060a08688031215611cd457600080fd5b600086015167ffffffffffffffff811115611cee57600080fd5b611cfa88828901611bd2565b955050602086015167ffffffffffffffff811115611d1757600080fd5b611d2388828901611bd2565b945050604086015167ffffffffffffffff811115611d4057600080fd5b611d4c88828901611bd2565b935050606086015167ffffffffffffffff811115611d6957600080fd5b611d7588828901611bd2565b925050608086015167ffffffffffffffff811115611d9257600080fd5b611d9e88828901611bd2565b9150509295509295909350565b600060208284031215611dbd57600080fd5b6000611dcb84828501611bfc565b91505092915050565b600080600080600060a08688031215611dec57600080fd5b6000611dfa88828901611bfc565b955050602086013567ffffffffffffffff811115611e1757600080fd5b611e2388828901611ba8565b945050604086013567ffffffffffffffff811115611e4057600080fd5b611e4c88828901611ba8565b935050606086013567ffffffffffffffff811115611e6957600080fd5b611e7588828901611ba8565b925050608086013567ffffffffffffffff811115611e9257600080fd5b611e9e88828901611ba8565b9150509295509295909350565b6000611eb78383611fc8565b905092915050565b6000611ecb838361203a565b60208301905092915050565b611ee08161230d565b82525050565b6000611ef18261225a565b611efb8185612295565b935083602082028501611f0d8561223a565b8060005b85811015611f495784840389528151611f2a8582611eab565b9450611f358361227b565b925060208a01995050600181019050611f11565b50829750879550505050505092915050565b6000611f6682612265565b611f7081856122a6565b9350611f7b8361224a565b8060005b83811015611fac578151611f938882611ebf565b9750611f9e83612288565b925050600181019050611f7f565b5085935050505092915050565b611fc28161231f565b82525050565b6000611fd382612270565b611fdd81856122b7565b9350611fed818560208601612364565b611ff68161249f565b840191505092915050565b600061200c82612270565b61201681856122c8565b9350612026818560208601612364565b61202f8161249f565b840191505092915050565b6120438161234b565b82525050565b6120528161234b565b82525050565b600060208201905061206d6000830184611ed7565b92915050565b6000604082019050818103600083015261208d8185611ee6565b905081810360208301526120a18184611f5b565b90509392505050565b60006020820190506120bf6000830184611fb9565b92915050565b600060208201905081810360008301526120df8184612001565b905092915050565b600060808201905081810360008301526121018187612001565b905081810360208301526121158186612001565b905081810360408301526121298185612001565b9050818103606083015261213d8184612001565b905095945050505050565b600060a08201905081810360008301526121628188612001565b905081810360208301526121768187612001565b9050818103604083015261218a8186612001565b9050818103606083015261219e8185612001565b905081810360808301526121b28184612001565b90509695505050505050565b60006020820190506121d36000830184612049565b92915050565b6000604051905081810181811067ffffffffffffffff82111715612200576121ff612470565b5b8060405250919050565b600067ffffffffffffffff82111561222557612224612470565b5b601f19601f8301169050602081019050919050565b6000819050602082019050919050565b6000819050602082019050919050565b600081519050919050565b600081519050919050565b600081519050919050565b6000602082019050919050565b6000602082019050919050565b600082825260208201905092915050565b600082825260208201905092915050565b600082825260208201905092915050565b600082825260208201905092915050565b60006122e48261234b565b91506122ef8361234b565b92508282101561230257612301612412565b5b828203905092915050565b60006123188261232b565b9050919050565b60008115159050919050565b600073ffffffffffffffffffffffffffffffffffffffff82169050919050565b6000819050919050565b82818337600083830152505050565b60005b83811015612382578082015181840152602081019050612367565b83811115612391576000848401525b50505050565b600060028204905060018216806123af57607f821691505b602082108114156123c3576123c2612441565b5b50919050565b60006123d48261234b565b91507fffffffffffffffffffffffffffffffffffffffffffffffffffffffffffffffff82141561240757612406612412565b5b600182019050919050565b7f4e487b7100000000000000000000000000000000000000000000000000000000600052601160045260246000fd5b7f4e487b7100000000000000000000000000000000000000000000000000000000600052602260045260246000fd5b7f4e487b7100000000000000000000000000000000000000000000000000000000600052604160045260246000fd5b6000601f19601f8301169050919050565b6124b98161230d565b81146124c457600080fd5b50565b6124d08161234b565b81146124db57600080fd5b5056fea264697066735822122091fe056dc0018d1e4170b217bf929b3098f6b334b41348c849133c2b2246b37a64736f6c63430008000033",
  "immutableReferences": {},
  "source": "// SPDX-License-Identifier: MIT\r\npragma solidity ^0.8.0;\r\n\r\nimport \"./Viticoltore.sol\";\r\n\r\ncontract Produttore {\r\n\r\n    //dati per autorizzazioni alle chiamate delle funzioni\r\n    address public owner;\r\n    mapping(address => bool) public authorized;\r\n\r\n    Viticoltore viticoltoreContract;\r\n\r\n    constructor(address _viticoltoreContractAddress) {\r\n        owner = msg.sender;\r\n        authorized[owner] = true; //solo per fare test, oppure  un'opzione valida se il deploy viene fatto da ogni singolo attore in maniera indipendente.\r\n        viticoltoreContract = Viticoltore(_viticoltoreContractAddress);\r\n    }\r\n\r\n    struct DatiProduttore {\r\n        //inserimento manuale\r\n        string prodottiVinificazione;\r\n        string quantitaVinoOttenuto;\r\n        string quantitaVinoRivendicato;\r\n\r\n        //inserimento automatico\r\n        string pesoArrivo;\r\n        string pesoProdottoFinito;\r\n        string idContainer;\r\n        string temperaturaContainer;\r\n    }\r\n\r\n    mapping(uint256 => DatiProduttore) lotti;\r\n\r\n    /*identificatori funzioni lotti*/\r\n    uint256 idProdottiVinificazioneSerial = 1;\r\n    uint256 idQuantitaVinoOttenutoSerial = 1;\r\n    uint256 idQuantitaVinoRivendicatoSerial = 1;\r\n\r\n    //funzioni di autorizzazione \r\n    function addAuthorized(address _address) public {\r\n        //require(msg.sender == owner);\r\n        authorized[_address] = true;\r\n    }\r\n\r\n    function removeAuthorized(address _address) public {\r\n        require(msg.sender == owner);\r\n        authorized[_address] = false;\r\n    }\r\n\r\n    //funzioni manuali\r\n    function setProdottiVinificazione(string memory _prodottiVinificazione) public {\r\n        require(authorized[msg.sender]);\r\n        lotti[idProdottiVinificazioneSerial].prodottiVinificazione = _prodottiVinificazione;\r\n        idProdottiVinificazioneSerial++;\r\n    }\r\n\r\n    function setQuantitaVinoOttenuto(string memory _quantitaVinoOttenuto) public {\r\n        require(authorized[msg.sender]);\r\n        lotti[idQuantitaVinoOttenutoSerial].quantitaVinoOttenuto = _quantitaVinoOttenuto;\r\n        idQuantitaVinoOttenutoSerial++;\r\n    }\r\n\r\n    function setQuantitaVinoRivendicato(string memory _quantitaVinoRivendicato) public {\r\n        require(authorized[msg.sender]);\r\n        lotti[idQuantitaVinoRivendicatoSerial].quantitaVinoRivendicato = _quantitaVinoRivendicato;\r\n        idQuantitaVinoRivendicatoSerial++;\r\n    }\r\n\r\n    //funzioni automatiche\r\n    function setSensoriProduttore(uint256 _idLotto, string memory _pesoArrivo, string memory _pesoProdottoFinito, string memory _idContainer, string memory _temperaturaContainer) public {\r\n\r\n        lotti[_idLotto].pesoArrivo = _pesoArrivo;\r\n        lotti[_idLotto].pesoProdottoFinito = _pesoProdottoFinito;\r\n        lotti[_idLotto].idContainer = _idContainer;\r\n        lotti[_idLotto].temperaturaContainer = _temperaturaContainer;\r\n    }\r\n\r\n    /*funzioni e metodi di appoggio per data analysis*/\r\n    function getMappaLottiLength() public view returns(uint256){\r\n        uint256 count = 0;\r\n        for (uint256 i = 1; i < type(uint256).max; i++) {\r\n            if (bytes(lotti[i].quantitaVinoOttenuto).length == 0) {\r\n             break;\r\n            }\r\n                count++;\r\n        }\r\n             return count;\r\n    }   \r\n\r\n    function queryVinoOttenutoPerLotto() public view returns(string[] memory, uint256[] memory){\r\n        \r\n        uint256 length = getMappaLottiLength();\r\n        string[] memory result = new string[](length);\r\n        uint256[] memory resultLotti = new uint256[](length);\r\n\r\n        for(uint256 i=1; i <= length; i++){\r\n            resultLotti[i-1] = i;\r\n            result[i-1] = lotti[i].quantitaVinoOttenuto;\r\n        }\r\n        return (result, resultLotti);\r\n    }\r\n\r\n    function queryVinoRivendicatoPerLotto() public view returns(string[] memory, uint256[] memory){\r\n\r\n        uint256 length = getMappaLottiLength();\r\n        string[] memory result = new string[](length);\r\n        uint256[] memory resultLotti = new uint256[](length);\r\n\r\n        for(uint256 i = 1; i <= length; i++){\r\n            resultLotti[i-1] = i;\r\n            result[i-1] = lotti[i].quantitaVinoRivendicato;\r\n        }\r\n        return (result, resultLotti);\r\n    }\r\n    \r\n    //\r\n\r\n    //funioni get\r\n    function getIdProdottiVinificazioneSerial() public view returns(uint256) {\r\n        require(authorized[msg.sender]);\r\n        return idProdottiVinificazioneSerial;\r\n    }\r\n\r\n    function getIdQuantitaVinoOttenutoSerial() public view returns(uint256) {\r\n        require(authorized[msg.sender]);\r\n        return idQuantitaVinoOttenutoSerial;\r\n    }\r\n\r\n    function getIdQuantitaVinoRivendicatoSerial() public view returns(uint256) {\r\n        require(authorized[msg.sender]);\r\n        return idQuantitaVinoRivendicatoSerial;\r\n    }\r\n\r\n    function getProdottiVinificazione(uint256 _idLotto) public view returns(string memory) {\r\n        require(authorized[msg.sender]);\r\n        return lotti[_idLotto].prodottiVinificazione;\r\n    }\r\n\r\n    function getQuantitaVinoOttenuto(uint256 _idLotto) public view returns(string memory) {\r\n        require(authorized[msg.sender]);\r\n        return lotti[_idLotto].quantitaVinoOttenuto;\r\n    }\r\n\r\n    function getQuantitaVinoRivendicato(uint256 _idLotto) public view returns(string memory) {\r\n        require(authorized[msg.sender]);\r\n        return lotti[_idLotto].quantitaVinoRivendicato;\r\n    }\r\n\r\n    function getDatiSensoriProduttore(uint256 _idLotto) public view returns(string memory, string memory, string memory, string memory) {\r\n        require(authorized[msg.sender]);\r\n        return (lotti[_idLotto].pesoArrivo, lotti[_idLotto].pesoProdottoFinito, lotti[_idLotto].idContainer, lotti[_idLotto].temperaturaContainer);\r\n    }\r\n\r\n    //funzioni di get da Viticoltore\r\n    function getDatiVendita(uint256 _idLotto) public view returns(string memory, string memory, string memory, string memory, string memory) {\r\n        /*devo provare a permissionare queste get*/\r\n        require(authorized[msg.sender]);\r\n        return viticoltoreContract.getDatiVendita(_idLotto);\r\n    }\r\n\r\n    function getPesoViticoltore(uint256 _idLotto) public view returns(string memory) {\r\n        require(authorized[msg.sender]);\r\n        (string memory pesoViticoltore,,,,) = viticoltoreContract.getDatiSensoriViticoltore(_idLotto);\r\n        return pesoViticoltore;\r\n    }\r\n\r\n    function getDataRaccolta(uint256 _idLotto) public view returns(string memory) {\r\n        require(authorized[msg.sender]);\r\n        return viticoltoreContract.getDataRaccolta(_idLotto);\r\n    }\r\n\r\n    function getDestinazioneUva(uint256 _idLotto) public view returns(string memory) {\r\n        require(authorized[msg.sender]);\r\n        return viticoltoreContract.getDestinazioneUva(_idLotto);\r\n    }\r\n\r\n    function getTipologiaUva(uint256 _idLotto) public view returns(string memory) {\r\n        require(authorized[msg.sender]);\r\n        (,string memory tipologiaUva,,,) = viticoltoreContract.getDatiSensoriViticoltore(_idLotto);\r\n        return tipologiaUva;\r\n    }\r\n\r\n}",
  "sourcePath": "C:\\Users\\Erman\\OneDrive\\BinTraWine_github\\BinTraWine\\contracts\\Produttore.sol",
  "compiler": {
    "name": "solc",
    "version": "0.8.0+commit.c7dfd78e.Emscripten.clang"
  },
  "schemaVersion": "3.4.13",
  "updatedAt": "2023-08-29T10:52:24.309Z",
  "networkType": "quorum",
  "devdoc": {
    "kind": "dev",
    "methods": {},
    "version": 1
  },
  "userdoc": {
    "kind": "user",
    "methods": {},
    "version": 1
  }
}