{
  "contractName": "Produttore",
  "abi": [
    {
      "inputs": [
        {
          "internalType": "address",
          "name": "_viticoltoreContractAddress",
          "type": "address"
        }
      ],
      "stateMutability": "nonpayable",
      "type": "constructor"
    },
    {
      "inputs": [
        {
          "internalType": "address",
          "name": "",
          "type": "address"
        }
      ],
      "name": "authorized",
      "outputs": [
        {
          "internalType": "bool",
          "name": "",
          "type": "bool"
        }
      ],
      "stateMutability": "view",
      "type": "function",
      "constant": true
    },
    {
      "inputs": [],
      "name": "owner",
      "outputs": [
        {
          "internalType": "address",
          "name": "",
          "type": "address"
        }
      ],
      "stateMutability": "view",
      "type": "function",
      "constant": true
    },
    {
      "inputs": [
        {
          "internalType": "address",
          "name": "_address",
          "type": "address"
        }
      ],
      "name": "addAuthorized",
      "outputs": [],
      "stateMutability": "nonpayable",
      "type": "function"
    },
    {
      "inputs": [
        {
          "internalType": "address",
          "name": "_address",
          "type": "address"
        }
      ],
      "name": "removeAuthorized",
      "outputs": [],
      "stateMutability": "nonpayable",
      "type": "function"
    },
    {
      "inputs": [
        {
          "internalType": "string",
          "name": "_prodottiVinificazione",
          "type": "string"
        }
      ],
      "name": "setProdottiVinificazione",
      "outputs": [],
      "stateMutability": "nonpayable",
      "type": "function"
    },
    {
      "inputs": [
        {
          "internalType": "string",
          "name": "_quantitaVinoOttenuto",
          "type": "string"
        }
      ],
      "name": "setQuantitaVinoOttenuto",
      "outputs": [],
      "stateMutability": "nonpayable",
      "type": "function"
    },
    {
      "inputs": [
        {
          "internalType": "string",
          "name": "_quantitaVinoRivendicato",
          "type": "string"
        }
      ],
      "name": "setQuantitaVinoRivendicato",
      "outputs": [],
      "stateMutability": "nonpayable",
      "type": "function"
    },
    {
      "inputs": [
        {
          "internalType": "uint256",
          "name": "_idLotto",
          "type": "uint256"
        },
        {
          "internalType": "string",
          "name": "_pesoArrivo",
          "type": "string"
        },
        {
          "internalType": "string",
          "name": "_pesoProdottoFinito",
          "type": "string"
        },
        {
          "internalType": "string",
          "name": "_idContainer",
          "type": "string"
        },
        {
          "internalType": "string",
          "name": "_temperaturaContainer",
          "type": "string"
        }
      ],
      "name": "setSensoriProduttore",
      "outputs": [],
      "stateMutability": "nonpayable",
      "type": "function"
    },
    {
      "inputs": [],
      "name": "getIdProdottiVinificazioneSerial",
      "outputs": [
        {
          "internalType": "uint256",
          "name": "",
          "type": "uint256"
        }
      ],
      "stateMutability": "view",
      "type": "function",
      "constant": true
    },
    {
      "inputs": [],
      "name": "getIdQuantitaVinoOttenutoSerial",
      "outputs": [
        {
          "internalType": "uint256",
          "name": "",
          "type": "uint256"
        }
      ],
      "stateMutability": "view",
      "type": "function",
      "constant": true
    },
    {
      "inputs": [],
      "name": "getIdQuantitaVinoRivendicatoSerial",
      "outputs": [
        {
          "internalType": "uint256",
          "name": "",
          "type": "uint256"
        }
      ],
      "stateMutability": "view",
      "type": "function",
      "constant": true
    },
    {
      "inputs": [
        {
          "internalType": "uint256",
          "name": "_idLotto",
          "type": "uint256"
        }
      ],
      "name": "getProdottiVinificazione",
      "outputs": [
        {
          "internalType": "string",
          "name": "",
          "type": "string"
        }
      ],
      "stateMutability": "view",
      "type": "function",
      "constant": true
    },
    {
      "inputs": [
        {
          "internalType": "uint256",
          "name": "_idLotto",
          "type": "uint256"
        }
      ],
      "name": "getQuantitaVinoOttenuto",
      "outputs": [
        {
          "internalType": "string",
          "name": "",
          "type": "string"
        }
      ],
      "stateMutability": "view",
      "type": "function",
      "constant": true
    },
    {
      "inputs": [
        {
          "internalType": "uint256",
          "name": "_idLotto",
          "type": "uint256"
        }
      ],
      "name": "getQuantitaVinoRivendicato",
      "outputs": [
        {
          "internalType": "string",
          "name": "",
          "type": "string"
        }
      ],
      "stateMutability": "view",
      "type": "function",
      "constant": true
    },
    {
      "inputs": [
        {
          "internalType": "uint256",
          "name": "_idLotto",
          "type": "uint256"
        }
      ],
      "name": "getDatiSensoriProduttore",
      "outputs": [
        {
          "internalType": "string",
          "name": "",
          "type": "string"
        },
        {
          "internalType": "string",
          "name": "",
          "type": "string"
        },
        {
          "internalType": "string",
          "name": "",
          "type": "string"
        },
        {
          "internalType": "string",
          "name": "",
          "type": "string"
        }
      ],
      "stateMutability": "view",
      "type": "function",
      "constant": true
    },
    {
      "inputs": [
        {
          "internalType": "uint256",
          "name": "_idLotto",
          "type": "uint256"
        }
      ],
      "name": "getDatiVendita",
      "outputs": [
        {
          "internalType": "string",
          "name": "",
          "type": "string"
        },
        {
          "internalType": "string",
          "name": "",
          "type": "string"
        },
        {
          "internalType": "string",
          "name": "",
          "type": "string"
        },
        {
          "internalType": "string",
          "name": "",
          "type": "string"
        },
        {
          "internalType": "string",
          "name": "",
          "type": "string"
        }
      ],
      "stateMutability": "view",
      "type": "function",
      "constant": true
    },
    {
      "inputs": [
        {
          "internalType": "uint256",
          "name": "_idLotto",
          "type": "uint256"
        }
      ],
      "name": "getPesoViticoltore",
      "outputs": [
        {
          "internalType": "string",
          "name": "",
          "type": "string"
        }
      ],
      "stateMutability": "view",
      "type": "function",
      "constant": true
    },
    {
      "inputs": [
        {
          "internalType": "uint256",
          "name": "_idLotto",
          "type": "uint256"
        }
      ],
      "name": "getDataRaccolta",
      "outputs": [
        {
          "internalType": "string",
          "name": "",
          "type": "string"
        }
      ],
      "stateMutability": "view",
      "type": "function",
      "constant": true
    },
    {
      "inputs": [
        {
          "internalType": "uint256",
          "name": "_idLotto",
          "type": "uint256"
        }
      ],
      "name": "getDestinazioneUva",
      "outputs": [
        {
          "internalType": "string",
          "name": "",
          "type": "string"
        }
      ],
      "stateMutability": "view",
      "type": "function",
      "constant": true
    },
    {
      "inputs": [
        {
          "internalType": "uint256",
          "name": "_idLotto",
          "type": "uint256"
        }
      ],
      "name": "getTipologiaUva",
      "outputs": [
        {
          "internalType": "string",
          "name": "",
          "type": "string"
        }
      ],
      "stateMutability": "view",
      "type": "function",
      "constant": true
    }
  ],
  "bytecode": "0x60806040526001600555600160065560016007553480156200002057600080fd5b5060405162001fa538038062001fa58339818101604052810190620000469190620001ee565b336000806101000a81548173ffffffffffffffffffffffffffffffffffffffff021916908373ffffffffffffffffffffffffffffffffffffffff16021790555060018060008060009054906101000a900473ffffffffffffffffffffffffffffffffffffffff1673ffffffffffffffffffffffffffffffffffffffff1673ffffffffffffffffffffffffffffffffffffffff16815260200190815260200160002060006101000a81548160ff02191690831515021790555080600260006101000a81548173ffffffffffffffffffffffffffffffffffffffff021916908373ffffffffffffffffffffffffffffffffffffffff160217905550600260009054906101000a900473ffffffffffffffffffffffffffffffffffffffff1673ffffffffffffffffffffffffffffffffffffffff1663cf1c316a306040518263ffffffff1660e01b81526004016200019c91906200022b565b600060405180830381600087803b158015620001b757600080fd5b505af1158015620001cc573d6000803e3d6000fd5b505050505062000296565b600081519050620001e8816200027c565b92915050565b6000602082840312156200020157600080fd5b60006200021184828501620001d7565b91505092915050565b620002258162000248565b82525050565b60006020820190506200024260008301846200021a565b92915050565b600062000255826200025c565b9050919050565b600073ffffffffffffffffffffffffffffffffffffffff82169050919050565b620002878162000248565b81146200029357600080fd5b50565b611cff80620002a66000396000f3fe608060405234801561001057600080fd5b506004361061012c5760003560e01c80638a23f0df116100ad578063b1689d4011610071578063b1689d401461035c578063b17e97301461038c578063b1b02a6e146103bc578063b9181611146103ec578063cf1c316a1461041c5761012c565b80638a23f0df146102a25780638da5cb5b146102be5780639edd513f146102dc578063a679f04d14610310578063a7de4ef7146103405761012c565b8063485d7d94116100f4578063485d7d94146101ec578063635b75cb1461020857806364d421c1146102385780637cdf040414610254578063875693cd146102725761012c565b806305a680c01461013157806306fe3d9f1461014d578063095482f31461016b5780631bbc236f1461019b57806337051aec146101b9575b600080fd5b61014b6004803603810190610146919061165a565b610438565b005b6101556104d6565b6040516101629190611a60565b60405180910390f35b610185600480360381019061018091906117cb565b610536565b6040516101929190611967565b60405180910390f35b6101a3610634565b6040516101b09190611a60565b60405180910390f35b6101d360048036038101906101ce91906117cb565b610694565b6040516101e39493929190611989565b60405180910390f35b61020660048036038101906102019190611631565b610987565b005b610222600480360381019061021d91906117cb565b610a3a565b60405161022f9190611967565b60405180910390f35b610252600480360381019061024d91906117f4565b610b38565b005b61025c610beb565b6040516102699190611a60565b60405180910390f35b61028c600480360381019061028791906117cb565b610c4b565b6040516102999190611967565b60405180910390f35b6102bc60048036038101906102b7919061165a565b610d64565b005b6102c6610e02565b6040516102d39190611931565b60405180910390f35b6102f660048036038101906102f191906117cb565b610e26565b6040516103079594939291906119ea565b60405180910390f35b61032a600480360381019061032591906117cb565b610f47565b6040516103379190611967565b60405180910390f35b61035a6004803603810190610355919061165a565b611060565b005b610376600480360381019061037191906117cb565b6110fe565b6040516103839190611967565b60405180910390f35b6103a660048036038101906103a191906117cb565b61120d565b6040516103b39190611967565b60405180910390f35b6103d660048036038101906103d191906117cb565b61131c565b6040516103e39190611967565b60405180910390f35b61040660048036038101906104019190611631565b61141a565b604051610413919061194c565b60405180910390f35b61043660048036038101906104319190611631565b61143a565b005b600160003373ffffffffffffffffffffffffffffffffffffffff1673ffffffffffffffffffffffffffffffffffffffff16815260200190815260200160002060009054906101000a900460ff1661048e57600080fd5b8060046000600554815260200190815260200160002060000190805190602001906104ba929190611494565b50600560008154809291906104ce90611bb4565b919050555050565b6000600160003373ffffffffffffffffffffffffffffffffffffffff1673ffffffffffffffffffffffffffffffffffffffff16815260200190815260200160002060009054906101000a900460ff1661052e57600080fd5b600654905090565b6060600160003373ffffffffffffffffffffffffffffffffffffffff1673ffffffffffffffffffffffffffffffffffffffff16815260200190815260200160002060009054906101000a900460ff1661058e57600080fd5b6004600083815260200190815260200160002060010180546105af90611b82565b80601f01602080910402602001604051908101604052809291908181526020018280546105db90611b82565b80156106285780601f106105fd57610100808354040283529160200191610628565b820191906000526020600020905b81548152906001019060200180831161060b57829003601f168201915b50505050509050919050565b6000600160003373ffffffffffffffffffffffffffffffffffffffff1673ffffffffffffffffffffffffffffffffffffffff16815260200190815260200160002060009054906101000a900460ff1661068c57600080fd5b600554905090565b606080606080600160003373ffffffffffffffffffffffffffffffffffffffff1673ffffffffffffffffffffffffffffffffffffffff16815260200190815260200160002060009054906101000a900460ff166106f057600080fd5b6004600086815260200190815260200160002060030160046000878152602001908152602001600020600401600460008881526020019081526020016000206005016004600089815260200190815260200160002060060183805461075490611b82565b80601f016020809104026020016040519081016040528092919081815260200182805461078090611b82565b80156107cd5780601f106107a2576101008083540402835291602001916107cd565b820191906000526020600020905b8154815290600101906020018083116107b057829003601f168201915b505050505093508280546107e090611b82565b80601f016020809104026020016040519081016040528092919081815260200182805461080c90611b82565b80156108595780601f1061082e57610100808354040283529160200191610859565b820191906000526020600020905b81548152906001019060200180831161083c57829003601f168201915b5050505050925081805461086c90611b82565b80601f016020809104026020016040519081016040528092919081815260200182805461089890611b82565b80156108e55780601f106108ba576101008083540402835291602001916108e5565b820191906000526020600020905b8154815290600101906020018083116108c857829003601f168201915b505050505091508080546108f890611b82565b80601f016020809104026020016040519081016040528092919081815260200182805461092490611b82565b80156109715780601f1061094657610100808354040283529160200191610971565b820191906000526020600020905b81548152906001019060200180831161095457829003601f168201915b5050505050905093509350935093509193509193565b60008054906101000a900473ffffffffffffffffffffffffffffffffffffffff1673ffffffffffffffffffffffffffffffffffffffff163373ffffffffffffffffffffffffffffffffffffffff16146109df57600080fd5b6000600160008373ffffffffffffffffffffffffffffffffffffffff1673ffffffffffffffffffffffffffffffffffffffff16815260200190815260200160002060006101000a81548160ff02191690831515021790555050565b6060600160003373ffffffffffffffffffffffffffffffffffffffff1673ffffffffffffffffffffffffffffffffffffffff16815260200190815260200160002060009054906101000a900460ff16610a9257600080fd5b600460008381526020019081526020016000206000018054610ab390611b82565b80601f0160208091040260200160405190810160405280929190818152602001828054610adf90611b82565b8015610b2c5780601f10610b0157610100808354040283529160200191610b2c565b820191906000526020600020905b815481529060010190602001808311610b0f57829003601f168201915b50505050509050919050565b83600460008781526020019081526020016000206003019080519060200190610b62929190611494565b5082600460008781526020019081526020016000206004019080519060200190610b8d929190611494565b5081600460008781526020019081526020016000206005019080519060200190610bb8929190611494565b5080600460008781526020019081526020016000206006019080519060200190610be3929190611494565b505050505050565b6000600160003373ffffffffffffffffffffffffffffffffffffffff1673ffffffffffffffffffffffffffffffffffffffff16815260200190815260200160002060009054906101000a900460ff16610c4357600080fd5b600754905090565b6060600160003373ffffffffffffffffffffffffffffffffffffffff1673ffffffffffffffffffffffffffffffffffffffff16815260200190815260200160002060009054906101000a900460ff16610ca357600080fd5b6000600260009054906101000a900473ffffffffffffffffffffffffffffffffffffffff1673ffffffffffffffffffffffffffffffffffffffff166313a4db7b846040518263ffffffff1660e01b8152600401610d009190611a60565b60006040518083038186803b158015610d1857600080fd5b505afa158015610d2c573d6000803e3d6000fd5b505050506040513d6000823e3d601f19601f82011682018060405250810190610d5591906116dc565b50505050905080915050919050565b600160003373ffffffffffffffffffffffffffffffffffffffff1673ffffffffffffffffffffffffffffffffffffffff16815260200190815260200160002060009054906101000a900460ff16610dba57600080fd5b806004600060075481526020019081526020016000206002019080519060200190610de6929190611494565b5060076000815480929190610dfa90611bb4565b919050555050565b60008054906101000a900473ffffffffffffffffffffffffffffffffffffffff1681565b6060806060806060600160003373ffffffffffffffffffffffffffffffffffffffff1673ffffffffffffffffffffffffffffffffffffffff16815260200190815260200160002060009054906101000a900460ff16610e8457600080fd5b600260009054906101000a900473ffffffffffffffffffffffffffffffffffffffff1673ffffffffffffffffffffffffffffffffffffffff16639edd513f876040518263ffffffff1660e01b8152600401610edf9190611a60565b60006040518083038186803b158015610ef757600080fd5b505afa158015610f0b573d6000803e3d6000fd5b505050506040513d6000823e3d601f19601f82011682018060405250810190610f3491906116dc565b9450945094509450945091939590929450565b6060600160003373ffffffffffffffffffffffffffffffffffffffff1673ffffffffffffffffffffffffffffffffffffffff16815260200190815260200160002060009054906101000a900460ff16610f9f57600080fd5b6000600260009054906101000a900473ffffffffffffffffffffffffffffffffffffffff1673ffffffffffffffffffffffffffffffffffffffff166313a4db7b846040518263ffffffff1660e01b8152600401610ffc9190611a60565b60006040518083038186803b15801561101457600080fd5b505afa158015611028573d6000803e3d6000fd5b505050506040513d6000823e3d601f19601f8201168201806040525081019061105191906116dc565b50505091505080915050919050565b600160003373ffffffffffffffffffffffffffffffffffffffff1673ffffffffffffffffffffffffffffffffffffffff16815260200190815260200160002060009054906101000a900460ff166110b657600080fd5b8060046000600654815260200190815260200160002060010190805190602001906110e2929190611494565b50600660008154809291906110f690611bb4565b919050555050565b6060600160003373ffffffffffffffffffffffffffffffffffffffff1673ffffffffffffffffffffffffffffffffffffffff16815260200190815260200160002060009054906101000a900460ff1661115657600080fd5b600260009054906101000a900473ffffffffffffffffffffffffffffffffffffffff1673ffffffffffffffffffffffffffffffffffffffff1663b1689d40836040518263ffffffff1660e01b81526004016111b19190611a60565b60006040518083038186803b1580156111c957600080fd5b505afa1580156111dd573d6000803e3d6000fd5b505050506040513d6000823e3d601f19601f82011682018060405250810190611206919061169b565b9050919050565b6060600160003373ffffffffffffffffffffffffffffffffffffffff1673ffffffffffffffffffffffffffffffffffffffff16815260200190815260200160002060009054906101000a900460ff1661126557600080fd5b600260009054906101000a900473ffffffffffffffffffffffffffffffffffffffff1673ffffffffffffffffffffffffffffffffffffffff1663b17e9730836040518263ffffffff1660e01b81526004016112c09190611a60565b60006040518083038186803b1580156112d857600080fd5b505afa1580156112ec573d6000803e3d6000fd5b505050506040513d6000823e3d601f19601f82011682018060405250810190611315919061169b565b9050919050565b6060600160003373ffffffffffffffffffffffffffffffffffffffff1673ffffffffffffffffffffffffffffffffffffffff16815260200190815260200160002060009054906101000a900460ff1661137457600080fd5b60046000838152602001908152602001600020600201805461139590611b82565b80601f01602080910402602001604051908101604052809291908181526020018280546113c190611b82565b801561140e5780601f106113e35761010080835404028352916020019161140e565b820191906000526020600020905b8154815290600101906020018083116113f157829003601f168201915b50505050509050919050565b60016020528060005260406000206000915054906101000a900460ff1681565b60018060008373ffffffffffffffffffffffffffffffffffffffff1673ffffffffffffffffffffffffffffffffffffffff16815260200190815260200160002060006101000a81548160ff02191690831515021790555050565b8280546114a090611b82565b90600052602060002090601f0160209004810192826114c25760008555611509565b82601f106114db57805160ff1916838001178555611509565b82800160010185558215611509579182015b828111156115085782518255916020019190600101906114ed565b5b509050611516919061151a565b5090565b5b8082111561153357600081600090555060010161151b565b5090565b600061154a61154584611aac565b611a7b565b90508281526020810184848401111561156257600080fd5b61156d848285611b40565b509392505050565b600061158861158384611aac565b611a7b565b9050828152602081018484840111156115a057600080fd5b6115ab848285611b4f565b509392505050565b6000813590506115c281611c9b565b92915050565b600082601f8301126115d957600080fd5b81356115e9848260208601611537565b91505092915050565b600082601f83011261160357600080fd5b8151611613848260208601611575565b91505092915050565b60008135905061162b81611cb2565b92915050565b60006020828403121561164357600080fd5b6000611651848285016115b3565b91505092915050565b60006020828403121561166c57600080fd5b600082013567ffffffffffffffff81111561168657600080fd5b611692848285016115c8565b91505092915050565b6000602082840312156116ad57600080fd5b600082015167ffffffffffffffff8111156116c757600080fd5b6116d3848285016115f2565b91505092915050565b600080600080600060a086880312156116f457600080fd5b600086015167ffffffffffffffff81111561170e57600080fd5b61171a888289016115f2565b955050602086015167ffffffffffffffff81111561173757600080fd5b611743888289016115f2565b945050604086015167ffffffffffffffff81111561176057600080fd5b61176c888289016115f2565b935050606086015167ffffffffffffffff81111561178957600080fd5b611795888289016115f2565b925050608086015167ffffffffffffffff8111156117b257600080fd5b6117be888289016115f2565b9150509295509295909350565b6000602082840312156117dd57600080fd5b60006117eb8482850161161c565b91505092915050565b600080600080600060a0868803121561180c57600080fd5b600061181a8882890161161c565b955050602086013567ffffffffffffffff81111561183757600080fd5b611843888289016115c8565b945050604086013567ffffffffffffffff81111561186057600080fd5b61186c888289016115c8565b935050606086013567ffffffffffffffff81111561188957600080fd5b611895888289016115c8565b925050608086013567ffffffffffffffff8111156118b257600080fd5b6118be888289016115c8565b9150509295509295909350565b6118d481611af8565b82525050565b6118e381611b0a565b82525050565b60006118f482611adc565b6118fe8185611ae7565b935061190e818560208601611b4f565b61191781611c8a565b840191505092915050565b61192b81611b36565b82525050565b600060208201905061194660008301846118cb565b92915050565b600060208201905061196160008301846118da565b92915050565b6000602082019050818103600083015261198181846118e9565b905092915050565b600060808201905081810360008301526119a381876118e9565b905081810360208301526119b781866118e9565b905081810360408301526119cb81856118e9565b905081810360608301526119df81846118e9565b905095945050505050565b600060a0820190508181036000830152611a0481886118e9565b90508181036020830152611a1881876118e9565b90508181036040830152611a2c81866118e9565b90508181036060830152611a4081856118e9565b90508181036080830152611a5481846118e9565b90509695505050505050565b6000602082019050611a756000830184611922565b92915050565b6000604051905081810181811067ffffffffffffffff82111715611aa257611aa1611c5b565b5b8060405250919050565b600067ffffffffffffffff821115611ac757611ac6611c5b565b5b601f19601f8301169050602081019050919050565b600081519050919050565b600082825260208201905092915050565b6000611b0382611b16565b9050919050565b60008115159050919050565b600073ffffffffffffffffffffffffffffffffffffffff82169050919050565b6000819050919050565b82818337600083830152505050565b60005b83811015611b6d578082015181840152602081019050611b52565b83811115611b7c576000848401525b50505050565b60006002820490506001821680611b9a57607f821691505b60208210811415611bae57611bad611c2c565b5b50919050565b6000611bbf82611b36565b91507fffffffffffffffffffffffffffffffffffffffffffffffffffffffffffffffff821415611bf257611bf1611bfd565b5b600182019050919050565b7f4e487b7100000000000000000000000000000000000000000000000000000000600052601160045260246000fd5b7f4e487b7100000000000000000000000000000000000000000000000000000000600052602260045260246000fd5b7f4e487b7100000000000000000000000000000000000000000000000000000000600052604160045260246000fd5b6000601f19601f8301169050919050565b611ca481611af8565b8114611caf57600080fd5b50565b611cbb81611b36565b8114611cc657600080fd5b5056fea264697066735822122041348f8a0402154145aa8d24be7155475c9f36786f5a80e7555b2a842c342a2864736f6c63430008000033",
  "immutableReferences": {},
  "source": "// SPDX-License-Identifier: MIT\r\npragma solidity ^0.8.0;\r\n\r\nimport \"./Viticoltore.sol\";\r\nimport \"./Customer.sol\";\r\n\r\ncontract Produttore {\r\n\r\n    //dati per autorizzazioni alle chiamate delle funzioni\r\n    address public owner;\r\n    mapping(address => bool) public authorized;\r\n\r\n    Viticoltore viticoltoreContract;\r\n    Customer customerContract;\r\n\r\n    constructor(address _viticoltoreContractAddress/*, address _customerContractAddress*/)  {\r\n        owner = msg.sender;\r\n        authorized[owner] = true; //solo per fare test, oppure  un'opzione valida se il deploy viene fatto da ogni singolo attore in maniera indipendente.\r\n        viticoltoreContract = Viticoltore(_viticoltoreContractAddress);\r\n        //customerContract = Customer(_customerContractAddress);\r\n        viticoltoreContract.addAuthorized(address(this));\r\n    }\r\n\r\n    struct DatiProduttore {\r\n        //inserimento manuale\r\n        string prodottiVinificazione;\r\n        string quantitaVinoOttenuto;\r\n        string quantitaVinoRivendicato;\r\n\r\n        //inserimento automatico\r\n        string pesoArrivo;\r\n        string pesoProdottoFinito;\r\n        string idContainer;\r\n        string temperaturaContainer;\r\n    }\r\n\r\n    mapping(uint256 => DatiProduttore) lotti;\r\n\r\n    /*identificatori funzioni lotti*/\r\n    uint256 idProdottiVinificazioneSerial = 1;\r\n    uint256 idQuantitaVinoOttenutoSerial = 1;\r\n    uint256 idQuantitaVinoRivendicatoSerial = 1;\r\n\r\n    //funzioni di autorizzazione\r\n    function addAuthorized(address _address) public {\r\n        //require(msg.sender == owner); Da tenere solo per testing e comodit, a lavoro definitivo va levata.\r\n        authorized[_address] = true;\r\n    }\r\n\r\n    function removeAuthorized(address _address) public {\r\n        require(msg.sender == owner);\r\n        authorized[_address] = false;\r\n    }\r\n\r\n    //funzioni manuali\r\n    function setProdottiVinificazione(string memory _prodottiVinificazione) public {\r\n        require(authorized[msg.sender]);\r\n        lotti[idProdottiVinificazioneSerial].prodottiVinificazione = _prodottiVinificazione;\r\n        //customerContract.setProdottiVinificazione(idProdottiVinificazioneSerial, _prodottiVinificazione);\r\n        idProdottiVinificazioneSerial++;\r\n    }\r\n\r\n    function setQuantitaVinoOttenuto(string memory _quantitaVinoOttenuto) public {\r\n        require(authorized[msg.sender]);\r\n        lotti[idQuantitaVinoOttenutoSerial].quantitaVinoOttenuto = _quantitaVinoOttenuto;\r\n        idQuantitaVinoOttenutoSerial++;\r\n    }\r\n\r\n    function setQuantitaVinoRivendicato(string memory _quantitaVinoRivendicato) public {\r\n        require(authorized[msg.sender]);\r\n        lotti[idQuantitaVinoRivendicatoSerial].quantitaVinoRivendicato = _quantitaVinoRivendicato;\r\n        idQuantitaVinoRivendicatoSerial++;\r\n    }\r\n\r\n    //funzioni automatiche\r\n    function setSensoriProduttore(uint256 _idLotto, string memory _pesoArrivo, string memory _pesoProdottoFinito, string memory _idContainer, string memory _temperaturaContainer) public {\r\n\r\n        lotti[_idLotto].pesoArrivo = _pesoArrivo;\r\n        lotti[_idLotto].pesoProdottoFinito = _pesoProdottoFinito;\r\n        lotti[_idLotto].idContainer = _idContainer;\r\n        lotti[_idLotto].temperaturaContainer = _temperaturaContainer;\r\n    }\r\n\r\n    //funioni get\r\n    function getIdProdottiVinificazioneSerial() public view returns(uint256) {\r\n        require(authorized[msg.sender]);\r\n        return idProdottiVinificazioneSerial;\r\n    }\r\n\r\n    function getIdQuantitaVinoOttenutoSerial() public view returns(uint256) {\r\n        require(authorized[msg.sender]);\r\n        return idQuantitaVinoOttenutoSerial;\r\n    }\r\n\r\n    function getIdQuantitaVinoRivendicatoSerial() public view returns(uint256) {\r\n        require(authorized[msg.sender]);\r\n        return idQuantitaVinoRivendicatoSerial;\r\n    }\r\n\r\n    function getProdottiVinificazione(uint256 _idLotto) public view returns(string memory) {\r\n        require(authorized[msg.sender]);\r\n        return lotti[_idLotto].prodottiVinificazione;\r\n    }\r\n\r\n    function getQuantitaVinoOttenuto(uint256 _idLotto) public view returns(string memory) {\r\n        require(authorized[msg.sender]);\r\n        return lotti[_idLotto].quantitaVinoOttenuto;\r\n    }\r\n\r\n    function getQuantitaVinoRivendicato(uint256 _idLotto) public view returns(string memory) {\r\n        require(authorized[msg.sender]);\r\n        return lotti[_idLotto].quantitaVinoRivendicato;\r\n    }\r\n\r\n    function getDatiSensoriProduttore(uint256 _idLotto) public view returns(string memory, string memory, string memory, string memory) {\r\n        require(authorized[msg.sender]);\r\n        return (lotti[_idLotto].pesoArrivo, lotti[_idLotto].pesoProdottoFinito, lotti[_idLotto].idContainer, lotti[_idLotto].temperaturaContainer);\r\n    }\r\n\r\n    //funzioni di get da Viticoltore\r\n    function getDatiVendita(uint256 _idLotto) public view returns(string memory, string memory, string memory, string memory, string memory) {\r\n        /*devo provare a permissionare queste get*/\r\n        require(authorized[msg.sender]);\r\n        return viticoltoreContract.getDatiVendita(_idLotto);\r\n    }\r\n\r\n    function getPesoViticoltore(uint256 _idLotto) public view returns(string memory) {\r\n        require(authorized[msg.sender]);\r\n        (string memory pesoViticoltore,,,,) = viticoltoreContract.getDatiSensoriViticoltore(_idLotto);\r\n        return pesoViticoltore;\r\n    }\r\n\r\n    function getDataRaccolta(uint256 _idLotto) public view returns(string memory) {\r\n        require(authorized[msg.sender]);\r\n        return viticoltoreContract.getDataRaccolta(_idLotto);\r\n    }\r\n\r\n    function getDestinazioneUva(uint256 _idLotto) public view returns(string memory) {\r\n        require(authorized[msg.sender]);\r\n        return viticoltoreContract.getDestinazioneUva(_idLotto);\r\n    }\r\n\r\n    function getTipologiaUva(uint256 _idLotto) public view returns(string memory) {\r\n        require(authorized[msg.sender]);\r\n        (,string memory tipologiaUva,,,) = viticoltoreContract.getDatiSensoriViticoltore(_idLotto);\r\n        return tipologiaUva;\r\n    }\r\n\r\n}\r\n",
  "sourcePath": "C:\\Users\\Erman\\OneDrive\\BinTraWine_github\\BinTraWine\\contracts\\Produttore.sol",
  "compiler": {
    "name": "solc",
    "version": "0.8.0+commit.c7dfd78e.Emscripten.clang"
  },
  "schemaVersion": "3.4.13",
  "updatedAt": "2023-06-25T15:06:34.388Z",
  "networkType": "quorum",
  "devdoc": {
    "kind": "dev",
    "methods": {},
    "version": 1
  },
  "userdoc": {
    "kind": "user",
    "methods": {},
    "version": 1
  }
}