{
  "contractName": "Rivenditore",
  "abi": [
    {
      "inputs": [
        {
          "internalType": "address",
          "name": "_distributoreContractAddress",
          "type": "address"
        }
      ],
      "stateMutability": "nonpayable",
      "type": "constructor"
    },
    {
      "inputs": [
        {
          "internalType": "address",
          "name": "",
          "type": "address"
        }
      ],
      "name": "authorized",
      "outputs": [
        {
          "internalType": "bool",
          "name": "",
          "type": "bool"
        }
      ],
      "stateMutability": "view",
      "type": "function",
      "constant": true
    },
    {
      "inputs": [],
      "name": "owner",
      "outputs": [
        {
          "internalType": "address",
          "name": "",
          "type": "address"
        }
      ],
      "stateMutability": "view",
      "type": "function",
      "constant": true
    },
    {
      "inputs": [
        {
          "internalType": "address",
          "name": "_address",
          "type": "address"
        }
      ],
      "name": "addAuthorized",
      "outputs": [],
      "stateMutability": "nonpayable",
      "type": "function"
    },
    {
      "inputs": [
        {
          "internalType": "address",
          "name": "_address",
          "type": "address"
        }
      ],
      "name": "removeAuthorized",
      "outputs": [],
      "stateMutability": "nonpayable",
      "type": "function"
    },
    {
      "inputs": [
        {
          "internalType": "uint256",
          "name": "_idLotto",
          "type": "uint256"
        },
        {
          "internalType": "string",
          "name": "_tipologiaQuantita",
          "type": "string"
        }
      ],
      "name": "setSensoriRivenditore",
      "outputs": [],
      "stateMutability": "nonpayable",
      "type": "function"
    },
    {
      "inputs": [
        {
          "internalType": "uint256",
          "name": "_idLotto",
          "type": "uint256"
        }
      ],
      "name": "getDatiSensoriRivenditore",
      "outputs": [
        {
          "internalType": "string",
          "name": "",
          "type": "string"
        }
      ],
      "stateMutability": "view",
      "type": "function",
      "constant": true
    },
    {
      "inputs": [
        {
          "internalType": "uint256",
          "name": "_idLotto",
          "type": "uint256"
        }
      ],
      "name": "getDatiVendita",
      "outputs": [
        {
          "internalType": "string",
          "name": "",
          "type": "string"
        },
        {
          "internalType": "string",
          "name": "",
          "type": "string"
        },
        {
          "internalType": "uint256",
          "name": "",
          "type": "uint256"
        },
        {
          "internalType": "string",
          "name": "",
          "type": "string"
        },
        {
          "internalType": "string",
          "name": "",
          "type": "string"
        }
      ],
      "stateMutability": "view",
      "type": "function",
      "constant": true
    },
    {
      "inputs": [
        {
          "internalType": "string",
          "name": "input",
          "type": "string"
        }
      ],
      "name": "splitString",
      "outputs": [],
      "stateMutability": "nonpayable",
      "type": "function"
    },
    {
      "inputs": [
        {
          "internalType": "uint256",
          "name": "index",
          "type": "uint256"
        }
      ],
      "name": "getResult",
      "outputs": [
        {
          "internalType": "string",
          "name": "",
          "type": "string"
        },
        {
          "internalType": "string",
          "name": "",
          "type": "string"
        }
      ],
      "stateMutability": "view",
      "type": "function",
      "constant": true
    },
    {
      "inputs": [],
      "name": "getSerial",
      "outputs": [
        {
          "internalType": "uint256",
          "name": "",
          "type": "uint256"
        }
      ],
      "stateMutability": "view",
      "type": "function",
      "constant": true
    },
    {
      "inputs": [],
      "name": "getMappaLottiLength",
      "outputs": [
        {
          "internalType": "uint256",
          "name": "",
          "type": "uint256"
        }
      ],
      "stateMutability": "view",
      "type": "function",
      "constant": true
    },
    {
      "inputs": [],
      "name": "queryTipologiaQuantita",
      "outputs": [
        {
          "internalType": "string[]",
          "name": "",
          "type": "string[]"
        },
        {
          "internalType": "string[]",
          "name": "",
          "type": "string[]"
        }
      ],
      "stateMutability": "view",
      "type": "function",
      "constant": true
    }
  ],
  "bytecode": "0x6080604052600160045560016008553480156200001b57600080fd5b50604051620021c6380380620021c6833981810160405281019062000041919062000158565b336000806101000a81548173ffffffffffffffffffffffffffffffffffffffff021916908373ffffffffffffffffffffffffffffffffffffffff16021790555060018060008060009054906101000a900473ffffffffffffffffffffffffffffffffffffffff1673ffffffffffffffffffffffffffffffffffffffff1673ffffffffffffffffffffffffffffffffffffffff16815260200190815260200160002060006101000a81548160ff02191690831515021790555080600260006101000a81548173ffffffffffffffffffffffffffffffffffffffff021916908373ffffffffffffffffffffffffffffffffffffffff16021790555050620001d2565b6000815190506200015281620001b8565b92915050565b6000602082840312156200016b57600080fd5b60006200017b8482850162000141565b91505092915050565b6000620001918262000198565b9050919050565b600073ffffffffffffffffffffffffffffffffffffffff82169050919050565b620001c38162000184565b8114620001cf57600080fd5b50565b611fe480620001e26000396000f3fe608060405234801561001057600080fd5b50600436106100b45760003560e01c8063995e433911610071578063995e43391461016a5780639a66542f1461019b5780639edd513f146101b7578063b5c77406146101eb578063b91816111461021b578063cf1c316a1461024b576100b4565b806303747a47146100b9578063080cea7a146100d7578063485d7d94146100f35780635aafe4091461010f5780638da5cb5b1461012d57806398e3e9841461014b575b600080fd5b6100c1610267565b6040516100ce9190611b3c565b60405180910390f35b6100f160048036038101906100ec91906115ac565b6102f6565b005b61010d60048036038101906101089190611583565b6103fc565b005b6101176104af565b6040516101249190611b3c565b60405180910390f35b6101356104b9565b60405161014291906119c7565b60405180910390f35b6101536104dd565b6040516101619291906119e2565b60405180910390f35b610184600480360381019061017f91906116c4565b6108f4565b604051610192929190611a56565b60405180910390f35b6101b560048036038101906101b091906116ed565b610a3e565b005b6101d160048036038101906101cc91906116c4565b610c27565b6040516101e2959493929190611a8d565b60405180910390f35b610205600480360381019061020091906116c4565b610d48565b6040516102129190611a34565b60405180910390f35b61023560048036038101906102309190611583565b610e46565b6040516102429190611a19565b60405180910390f35b61026560048036038101906102609190611583565b610e66565b005b600080600090506000600190505b7fffffffffffffffffffffffffffffffffffffffffffffffffffffffffffffffff8110156102ee5760006003600083815260200190815260200160002060000180546102c090611e07565b905014156102cd576102ee565b81806102d890611e39565b92505080806102e690611e39565b915050610275565b508091505090565b600061030182610ec0565b905060008111801561031f57506001825161031c9190611d1f565b81105b61035e576040517f08c379a000000000000000000000000000000000000000000000000000000000815260040161035590611b1c565b60405180910390fd5b600061036c83600084610faa565b90506000610388846002856103819190611c3e565b8651610faa565b90508160056000600854815260200190815260200160002090805190602001906103b39291906113d1565b508060066000600854815260200190815260200160002090805190602001906103dd9291906113d1565b50600860008154809291906103f190611e39565b919050555050505050565b60008054906101000a900473ffffffffffffffffffffffffffffffffffffffff1673ffffffffffffffffffffffffffffffffffffffff163373ffffffffffffffffffffffffffffffffffffffff161461045457600080fd5b6000600160008373ffffffffffffffffffffffffffffffffffffffff1673ffffffffffffffffffffffffffffffffffffffff16815260200190815260200160002060006101000a81548160ff02191690831515021790555050565b6000600854905090565b60008054906101000a900473ffffffffffffffffffffffffffffffffffffffff1681565b60608060006104ea610267565b905060008167ffffffffffffffff81111561052e577f4e487b7100000000000000000000000000000000000000000000000000000000600052604160045260246000fd5b60405190808252806020026020018201604052801561056157816020015b606081526020019060019003908161054c5790505b50905060008267ffffffffffffffff8111156105a6577f4e487b7100000000000000000000000000000000000000000000000000000000600052604160045260246000fd5b6040519080825280602002602001820160405280156105d957816020015b60608152602001906001900390816105c45790505b50905060008367ffffffffffffffff81111561061e577f4e487b7100000000000000000000000000000000000000000000000000000000600052604160045260246000fd5b60405190808252806020026020018201604052801561065157816020015b606081526020019060019003908161063c5790505b509050600080600190505b8581116108de57600060056000838152602001908152602001600020805461068390611e07565b80601f01602080910402602001604051908101604052809291908181526020018280546106af90611e07565b80156106fc5780601f106106d1576101008083540402835291602001916106fc565b820191906000526020600020905b8154815290600101906020018083116106df57829003601f168201915b505050505090506000805b848110156107bf57826040516020016107209190611999565b6040516020818303038152906040528051906020012086828151811061076f577f4e487b7100000000000000000000000000000000000000000000000000000000600052603260045260246000fd5b60200260200101516040516020016107879190611999565b6040516020818303038152906040528051906020012014156107ac57600191506107bf565b80806107b790611e39565b915050610707565b50806108c957818585815181106107ff577f4e487b7100000000000000000000000000000000000000000000000000000000600052603260045260246000fd5b602002602001018190525081878581518110610844577f4e487b7100000000000000000000000000000000000000000000000000000000600052603260045260246000fd5b60200260200101819052506108766007836040516108629190611999565b908152602001604051809103902054611167565b8685815181106108af577f4e487b7100000000000000000000000000000000000000000000000000000000600052603260045260246000fd5b602002602001018190525083806108c590611e39565b9450505b505080806108d690611e39565b91505061065c565b5080845280835283839650965050505050509091565b606080600560008481526020019081526020016000206006600085815260200190815260200160002081805461092990611e07565b80601f016020809104026020016040519081016040528092919081815260200182805461095590611e07565b80156109a25780601f10610977576101008083540402835291602001916109a2565b820191906000526020600020905b81548152906001019060200180831161098557829003601f168201915b505050505091508080546109b590611e07565b80601f01602080910402602001604051908101604052809291908181526020018280546109e190611e07565b8015610a2e5780601f10610a0357610100808354040283529160200191610a2e565b820191906000526020600020905b815481529060010190602001808311610a1157829003601f168201915b5050505050905091509150915091565b80600360008481526020019081526020016000206000019080519060200190610a689291906113d1565b50610a72816102f6565b60006007600560006004548152602001908152602001600020604051610a9891906119b0565b908152602001604051809103902054141580610ae6575060006007600560006004548152602001908152602001600020604051610ad591906119b0565b908152602001604051809103902054145b15610c0b576000610b936006600060045481526020019081526020016000208054610b1090611e07565b80601f0160208091040260200160405190810160405280929190818152602001828054610b3c90611e07565b8015610b895780601f10610b5e57610100808354040283529160200191610b89565b820191906000526020600020905b815481529060010190602001808311610b6c57829003601f168201915b5050505050611313565b6007600560006004548152602001908152602001600020604051610bb791906119b0565b908152602001604051809103902054610bd09190611c3e565b9050806007600560006004548152602001908152602001600020604051610bf791906119b0565b908152602001604051809103902081905550505b60046000815480929190610c1e90611e39565b91905055505050565b6060806000606080600160003373ffffffffffffffffffffffffffffffffffffffff1673ffffffffffffffffffffffffffffffffffffffff16815260200190815260200160002060009054906101000a900460ff16610c8557600080fd5b600260009054906101000a900473ffffffffffffffffffffffffffffffffffffffff1673ffffffffffffffffffffffffffffffffffffffff16639edd513f876040518263ffffffff1660e01b8152600401610ce09190611b3c565b60006040518083038186803b158015610cf857600080fd5b505afa158015610d0c573d6000803e3d6000fd5b505050506040513d6000823e3d601f19601f82011682018060405250810190610d3591906115ed565b9450945094509450945091939590929450565b6060600160003373ffffffffffffffffffffffffffffffffffffffff1673ffffffffffffffffffffffffffffffffffffffff16815260200190815260200160002060009054906101000a900460ff16610da057600080fd5b600360008381526020019081526020016000206000018054610dc190611e07565b80601f0160208091040260200160405190810160405280929190818152602001828054610ded90611e07565b8015610e3a5780601f10610e0f57610100808354040283529160200191610e3a565b820191906000526020600020905b815481529060010190602001808311610e1d57829003601f168201915b50505050509050919050565b60016020528060005260406000206000915054906101000a900460ff1681565b60018060008373ffffffffffffffffffffffffffffffffffffffff1673ffffffffffffffffffffffffffffffffffffffff16815260200190815260200160002060006101000a81548160ff02191690831515021790555050565b60008082905060005b8151811015610f9e577f2c000000000000000000000000000000000000000000000000000000000000007effffffffffffffffffffffffffffffffffffffffffffffffffffffffffffff1916828281518110610f4e577f4e487b7100000000000000000000000000000000000000000000000000000000600052603260045260246000fd5b602001015160f81c60f81b7effffffffffffffffffffffffffffffffffffffffffffffffffffffffffffff19161415610f8b578092505050610fa5565b8080610f9690611e39565b915050610ec9565b5060009150505b919050565b606060008490508284108015610fc1575080518311155b611000576040517f08c379a0000000000000000000000000000000000000000000000000000000008152600401610ff790611afc565b60405180910390fd5b6000848461100e9190611d1f565b67ffffffffffffffff81111561104d577f4e487b7100000000000000000000000000000000000000000000000000000000600052604160045260246000fd5b6040519080825280601f01601f19166020018201604052801561107f5781602001600182028036833780820191505090505b50905060008590505b8481101561115a578281815181106110c9577f4e487b7100000000000000000000000000000000000000000000000000000000600052603260045260246000fd5b602001015160f81c60f81b8287836110e19190611d1f565b81518110611118577f4e487b7100000000000000000000000000000000000000000000000000000000600052603260045260246000fd5b60200101907effffffffffffffffffffffffffffffffffffffffffffffffffffffffffffff1916908160001a905350808061115290611e39565b915050611088565b5080925050509392505050565b606060008214156111af576040518060400160405280600181526020017f3000000000000000000000000000000000000000000000000000000000000000815250905061130e565b600082905060005b600082146111e15780806111ca90611e39565b915050600a826111da9190611c94565b91506111b7565b60008167ffffffffffffffff811115611223577f4e487b7100000000000000000000000000000000000000000000000000000000600052604160045260246000fd5b6040519080825280601f01601f1916602001820160405280156112555781602001600182028036833780820191505090505b5090505b6000851461130757818061126c90611ddd565b925050600a8561127c9190611e82565b60306112889190611c3e565b60f81b8183815181106112c4577f4e487b7100000000000000000000000000000000000000000000000000000000600052603260045260246000fd5b60200101907effffffffffffffffffffffffffffffffffffffffffffffffffffffffffffff1916908160001a905350600a856113009190611c94565b9450611259565b8093505050505b919050565b6000808290506000805b82518110156113c6576000838281518110611361577f4e487b7100000000000000000000000000000000000000000000000000000000600052603260045260246000fd5b602001015160f81c60f81b60f81c60ff16905060308110158015611386575060398111155b156113b2576030816113989190611d1f565b600a846113a59190611cc5565b6113af9190611c3e565b92505b5080806113be90611e39565b91505061131d565b508092505050919050565b8280546113dd90611e07565b90600052602060002090601f0160209004810192826113ff5760008555611446565b82601f1061141857805160ff1916838001178555611446565b82800160010185558215611446579182015b8281111561144557825182559160200191906001019061142a565b5b5090506114539190611457565b5090565b5b80821115611470576000816000905550600101611458565b5090565b600061148761148284611b88565b611b57565b90508281526020810184848401111561149f57600080fd5b6114aa848285611d9b565b509392505050565b60006114c56114c084611b88565b611b57565b9050828152602081018484840111156114dd57600080fd5b6114e8848285611daa565b509392505050565b6000813590506114ff81611f80565b92915050565b600082601f83011261151657600080fd5b8135611526848260208601611474565b91505092915050565b600082601f83011261154057600080fd5b81516115508482602086016114b2565b91505092915050565b60008135905061156881611f97565b92915050565b60008151905061157d81611f97565b92915050565b60006020828403121561159557600080fd5b60006115a3848285016114f0565b91505092915050565b6000602082840312156115be57600080fd5b600082013567ffffffffffffffff8111156115d857600080fd5b6115e484828501611505565b91505092915050565b600080600080600060a0868803121561160557600080fd5b600086015167ffffffffffffffff81111561161f57600080fd5b61162b8882890161152f565b955050602086015167ffffffffffffffff81111561164857600080fd5b6116548882890161152f565b94505060406116658882890161156e565b935050606086015167ffffffffffffffff81111561168257600080fd5b61168e8882890161152f565b925050608086015167ffffffffffffffff8111156116ab57600080fd5b6116b78882890161152f565b9150509295509295909350565b6000602082840312156116d657600080fd5b60006116e484828501611559565b91505092915050565b6000806040838503121561170057600080fd5b600061170e85828601611559565b925050602083013567ffffffffffffffff81111561172b57600080fd5b61173785828601611505565b9150509250929050565b600061174d83836117e8565b905092915050565b61175e81611d53565b82525050565b600061176f82611bdd565b6117798185611c00565b93508360208202850161178b85611bb8565b8060005b858110156117c757848403895281516117a88582611741565b94506117b383611bf3565b925060208a0199505060018101905061178f565b50829750879550505050505092915050565b6117e281611d65565b82525050565b60006117f382611be8565b6117fd8185611c11565b935061180d818560208601611daa565b61181681611f6f565b840191505092915050565b600061182c82611be8565b6118368185611c22565b9350611846818560208601611daa565b61184f81611f6f565b840191505092915050565b600061186582611be8565b61186f8185611c33565b935061187f818560208601611daa565b80840191505092915050565b6000815461189881611e07565b6118a28186611c33565b945060018216600081146118bd57600181146118ce57611901565b60ff19831686528186019350611901565b6118d785611bc8565b60005b838110156118f9578154818901526001820191506020810190506118da565b838801955050505b50505092915050565b6000611917601983611c22565b91507f496e76616c696420737562737472696e6720696e6469636573000000000000006000830152602082019050919050565b6000611957601583611c22565b91507f496e76616c696420737472696e6720666f726d617400000000000000000000006000830152602082019050919050565b61199381611d91565b82525050565b60006119a5828461185a565b915081905092915050565b60006119bc828461188b565b915081905092915050565b60006020820190506119dc6000830184611755565b92915050565b600060408201905081810360008301526119fc8185611764565b90508181036020830152611a108184611764565b90509392505050565b6000602082019050611a2e60008301846117d9565b92915050565b60006020820190508181036000830152611a4e8184611821565b905092915050565b60006040820190508181036000830152611a708185611821565b90508181036020830152611a848184611821565b90509392505050565b600060a0820190508181036000830152611aa78188611821565b90508181036020830152611abb8187611821565b9050611aca604083018661198a565b8181036060830152611adc8185611821565b90508181036080830152611af08184611821565b90509695505050505050565b60006020820190508181036000830152611b158161190a565b9050919050565b60006020820190508181036000830152611b358161194a565b9050919050565b6000602082019050611b51600083018461198a565b92915050565b6000604051905081810181811067ffffffffffffffff82111715611b7e57611b7d611f40565b5b8060405250919050565b600067ffffffffffffffff821115611ba357611ba2611f40565b5b601f19601f8301169050602081019050919050565b6000819050602082019050919050565b60008190508160005260206000209050919050565b600081519050919050565b600081519050919050565b6000602082019050919050565b600082825260208201905092915050565b600082825260208201905092915050565b600082825260208201905092915050565b600081905092915050565b6000611c4982611d91565b9150611c5483611d91565b9250827fffffffffffffffffffffffffffffffffffffffffffffffffffffffffffffffff03821115611c8957611c88611eb3565b5b828201905092915050565b6000611c9f82611d91565b9150611caa83611d91565b925082611cba57611cb9611ee2565b5b828204905092915050565b6000611cd082611d91565b9150611cdb83611d91565b9250817fffffffffffffffffffffffffffffffffffffffffffffffffffffffffffffffff0483118215151615611d1457611d13611eb3565b5b828202905092915050565b6000611d2a82611d91565b9150611d3583611d91565b925082821015611d4857611d47611eb3565b5b828203905092915050565b6000611d5e82611d71565b9050919050565b60008115159050919050565b600073ffffffffffffffffffffffffffffffffffffffff82169050919050565b6000819050919050565b82818337600083830152505050565b60005b83811015611dc8578082015181840152602081019050611dad565b83811115611dd7576000848401525b50505050565b6000611de882611d91565b91506000821415611dfc57611dfb611eb3565b5b600182039050919050565b60006002820490506001821680611e1f57607f821691505b60208210811415611e3357611e32611f11565b5b50919050565b6000611e4482611d91565b91507fffffffffffffffffffffffffffffffffffffffffffffffffffffffffffffffff821415611e7757611e76611eb3565b5b600182019050919050565b6000611e8d82611d91565b9150611e9883611d91565b925082611ea857611ea7611ee2565b5b828206905092915050565b7f4e487b7100000000000000000000000000000000000000000000000000000000600052601160045260246000fd5b7f4e487b7100000000000000000000000000000000000000000000000000000000600052601260045260246000fd5b7f4e487b7100000000000000000000000000000000000000000000000000000000600052602260045260246000fd5b7f4e487b7100000000000000000000000000000000000000000000000000000000600052604160045260246000fd5b6000601f19601f8301169050919050565b611f8981611d53565b8114611f9457600080fd5b50565b611fa081611d91565b8114611fab57600080fd5b5056fea26469706673582212203d4ccaecf3494b6e8aedb75882560eb07c59e130986f02268ced648403d8817e64736f6c63430008000033",
  "immutableReferences": {},
  "source": "// SPDX-License-Identifier: MIT\r\npragma solidity ^0.8.0;\r\n\r\nimport \"./Distributore.sol\";\r\n\r\ncontract Rivenditore {\r\n\r\n    //dati per autorizzazioni alle chiamate delle funzioni\r\n    address public owner;\r\n    mapping(address => bool) public authorized;\r\n\r\n    Distributore distributoreContract;\r\n\r\n    constructor(address _distributoreContractAddress) {\r\n        owner = msg.sender;\r\n        authorized[owner] = true; //solo per fare test, oppure  un'opzione valida se il deploy viene fatto da ogni singolo attore in maniera indipendente.\r\n        distributoreContract = Distributore(_distributoreContractAddress);\r\n    }\r\n\r\n    struct DatiRivenditore {\r\n\r\n        //inserimento automatico\r\n        string tipologiaQuantita;\r\n    }\r\n\r\n    mapping(uint256 => DatiRivenditore) lotti;\r\n\r\n    //funzioni di autorizzazione \r\n    function addAuthorized(address _address) public {\r\n        //require(msg.sender == owner);\r\n        authorized[_address] = true;\r\n    }\r\n\r\n    function removeAuthorized(address _address) public {\r\n        require(msg.sender == owner);\r\n        authorized[_address] = false;\r\n    }\r\n\r\n    uint256 serialtest = 1;\r\n    //inserimento automatico\r\n    function setSensoriRivenditore(uint256 _idLotto, string memory _tipologiaQuantita) public {\r\n\r\n        lotti[_idLotto].tipologiaQuantita = _tipologiaQuantita;\r\n        splitString(_tipologiaQuantita);\r\n        if(tipologieQuantita[splitType[serialtest]] != 0 || tipologieQuantita[splitType[serialtest]]==0){\r\n            uint256 temp = tipologieQuantita[splitType[serialtest]] + stringToUint(splitQuantity[serialtest]); /*_quantita;*/\r\n            tipologieQuantita[splitType[serialtest]] = temp;\r\n        }\r\n\r\n        serialtest++;\r\n        \r\n    }\r\n\r\n    //funzioni get\r\n    function getDatiSensoriRivenditore(uint256 _idLotto) public view returns(string memory) {\r\n        require(authorized[msg.sender]);\r\n        return lotti[_idLotto].tipologiaQuantita;\r\n    }\r\n\r\n    //funzioni get da Distributore\r\n    function getDatiVendita(uint256 _idLotto) public view returns(string memory, string memory, /*string memory*/uint256, string memory, string memory) {\r\n        require(authorized[msg.sender]);\r\n        return distributoreContract.getDatiVendita(_idLotto);\r\n    }\r\n\r\n    /* supporto per data aggregation*/\r\n    struct SplitResult {\r\n        string firstPart;\r\n        string secondPart;\r\n    }\r\n\r\n    //SplitResult[] splits;\r\n    mapping(uint256=>string) splitType;\r\n    mapping(uint256=>string) splitQuantity;\r\n    mapping(string=>uint256) tipologieQuantita;\r\n    uint256 serial = 1;\r\n    \r\n    function splitString(string memory input) public {\r\n        \r\n        uint256 commaIndex = findCommaIndex(input);\r\n        require(commaIndex > 0 && commaIndex < bytes(input).length - 1, \"Invalid string format\");\r\n\r\n        string memory firstPart = substring(input, 0, commaIndex);\r\n        string memory secondPart = substring(input, commaIndex + 2, bytes(input).length);\r\n\r\n        splitType[serial] = firstPart;\r\n        splitQuantity[serial] = secondPart;\r\n\r\n        serial++;\r\n        /*SplitResult memory result;\r\n        result.firstPart = firstPart;\r\n        result.secondPart = secondPart;\r\n        splits.push(result);*/\r\n    }\r\n\r\n    function findCommaIndex(string memory input) private pure returns (uint256) {\r\n        bytes memory inputBytes = bytes(input);\r\n        for (uint256 i = 0; i < inputBytes.length; i++) {\r\n            if (inputBytes[i] == bytes1(',')) {\r\n                return i;\r\n            }\r\n        }\r\n        return 0;\r\n    }\r\n\r\n    function substring(string memory input, uint256 startIndex, uint256 endIndex) private pure returns (string memory) {\r\n        bytes memory inputBytes = bytes(input);\r\n        require(startIndex < endIndex && endIndex <= inputBytes.length, \"Invalid substring indices\");\r\n\r\n        bytes memory result = new bytes(endIndex - startIndex);\r\n        for (uint256 i = startIndex; i < endIndex; i++) {\r\n            result[i - startIndex] = inputBytes[i];\r\n        }\r\n\r\n        return string(result);\r\n    }\r\n    \r\n    function getResult(uint256 index) public view returns (string memory, string memory) {\r\n        //require(index < splits.length, \"Invalid index\");\r\n        //return (splits[index].firstPart, splits[index].secondPart);\r\n        return(splitType[index], splitQuantity[index]);\r\n    }\r\n\r\n    function getSerial() public view returns(uint256){\r\n        return serial;\r\n    }\r\n\r\n    function stringToUint(string memory s) internal pure returns (uint256) {\r\n    bytes memory b = bytes(s);\r\n    uint256 result = 0;\r\n    for (uint256 i = 0; i < b.length; i++) {\r\n        uint256 c = uint256(uint8(b[i]));\r\n        if (c >= 48 && c <= 57) {\r\n            result = result * 10 + (c - 48);\r\n        }\r\n    }\r\n    return result;\r\n    }\r\n\r\n    function uintToString(uint256 value) internal pure returns (string memory) {\r\n    if (value == 0) {\r\n        return \"0\";\r\n    }\r\n    uint256 temp = value;\r\n    uint256 digits;\r\n    while (temp != 0) {\r\n        digits++;\r\n        temp /= 10;\r\n    }\r\n    bytes memory buffer = new bytes(digits);\r\n    while (value != 0) {\r\n        digits--;\r\n        buffer[digits] = bytes1(uint8(48 + value % 10));\r\n        value /= 10;\r\n    }\r\n    return string(buffer);\r\n    }\r\n\r\n    function getMappaLottiLength() public view returns(uint256){\r\n        uint256 count = 0;\r\n    for (uint256 i = 1; i < type(uint256).max; i++) {\r\n        if (bytes(lotti[i].tipologiaQuantita).length == 0) {\r\n            break;\r\n        }\r\n        count++;\r\n    }\r\n    return count;\r\n    }\r\n\r\n    function queryTipologiaQuantita() public view returns (string[] memory, string[] memory) {\r\n        \r\n        uint256 length = getMappaLottiLength();\r\n        string[] memory resultTipologia = new string[](length);\r\n        string[] memory resultQuantita = new string[](length);\r\n\r\n        string[] memory usedTipologia = new string[](length);\r\n        uint256 uniqueCount = 0; // Counter for unique names\r\n\r\n        for (uint256 i = 1; i <= length; i++) {\r\n            string memory nomeTipologia = splitType[i];\r\n            bool isUsed = false;\r\n\r\n        // Check if the name has already been used\r\n        for (uint256 j = 0; j < uniqueCount; j++) {\r\n            if (keccak256(abi.encodePacked(usedTipologia[j])) == keccak256(abi.encodePacked(nomeTipologia))) {\r\n                isUsed = true;\r\n                break;\r\n            }\r\n        }\r\n\r\n        if (!isUsed) {\r\n            usedTipologia[uniqueCount] = nomeTipologia;\r\n            resultTipologia[uniqueCount] = nomeTipologia;\r\n            resultQuantita[uniqueCount] = uintToString(tipologieQuantita[nomeTipologia]);/*splitQuantity[uniqueCount+1];*/\r\n            uniqueCount++;\r\n        }\r\n    }\r\n\r\n    // Resize the arrays to remove unused slots\r\n    assembly {\r\n        mstore(resultTipologia, uniqueCount)\r\n        mstore(resultQuantita, uniqueCount)\r\n    }\r\n\r\n        return (resultTipologia, resultQuantita);\r\n    }     \r\n\r\n}",
  "sourcePath": "C:\\Users\\Erman\\OneDrive\\BinTraWine_github\\BinTraWine\\contracts\\Rivenditore.sol",
  "compiler": {
    "name": "solc",
    "version": "0.8.0+commit.c7dfd78e.Emscripten.clang"
  },
  "schemaVersion": "3.4.13",
  "updatedAt": "2023-09-29T13:56:18.292Z",
  "networkType": "quorum",
  "devdoc": {
    "kind": "dev",
    "methods": {},
    "version": 1
  },
  "userdoc": {
    "kind": "user",
    "methods": {},
    "version": 1
  }
}