{
  "contractName": "Rivenditore",
  "abi": [
    {
      "inputs": [
        {
          "internalType": "address",
          "name": "_distributoreContractAddress",
          "type": "address"
        }
      ],
      "stateMutability": "nonpayable",
      "type": "constructor"
    },
    {
      "inputs": [
        {
          "internalType": "address",
          "name": "",
          "type": "address"
        }
      ],
      "name": "authorized",
      "outputs": [
        {
          "internalType": "bool",
          "name": "",
          "type": "bool"
        }
      ],
      "stateMutability": "view",
      "type": "function",
      "constant": true
    },
    {
      "inputs": [],
      "name": "owner",
      "outputs": [
        {
          "internalType": "address",
          "name": "",
          "type": "address"
        }
      ],
      "stateMutability": "view",
      "type": "function",
      "constant": true
    },
    {
      "inputs": [
        {
          "internalType": "address",
          "name": "_address",
          "type": "address"
        }
      ],
      "name": "addAuthorized",
      "outputs": [],
      "stateMutability": "nonpayable",
      "type": "function"
    },
    {
      "inputs": [
        {
          "internalType": "address",
          "name": "_address",
          "type": "address"
        }
      ],
      "name": "removeAuthorized",
      "outputs": [],
      "stateMutability": "nonpayable",
      "type": "function"
    },
    {
      "inputs": [
        {
          "internalType": "uint256",
          "name": "_idLotto",
          "type": "uint256"
        },
        {
          "internalType": "string",
          "name": "_tipologiaQuantita",
          "type": "string"
        }
      ],
      "name": "setSensoriRivenditore",
      "outputs": [],
      "stateMutability": "nonpayable",
      "type": "function"
    },
    {
      "inputs": [
        {
          "internalType": "uint256",
          "name": "_idLotto",
          "type": "uint256"
        }
      ],
      "name": "getDatiSensoriRivenditore",
      "outputs": [
        {
          "internalType": "string",
          "name": "",
          "type": "string"
        }
      ],
      "stateMutability": "view",
      "type": "function",
      "constant": true
    },
    {
      "inputs": [
        {
          "internalType": "uint256",
          "name": "_idLotto",
          "type": "uint256"
        }
      ],
      "name": "getDatiVendita",
      "outputs": [
        {
          "internalType": "string",
          "name": "",
          "type": "string"
        },
        {
          "internalType": "string",
          "name": "",
          "type": "string"
        },
        {
          "internalType": "string",
          "name": "",
          "type": "string"
        },
        {
          "internalType": "string",
          "name": "",
          "type": "string"
        },
        {
          "internalType": "string",
          "name": "",
          "type": "string"
        }
      ],
      "stateMutability": "view",
      "type": "function",
      "constant": true
    }
  ],
  "bytecode": "0x60806040523480156200001157600080fd5b5060405162000e4b38038062000e4b8339818101604052810190620000379190620001df565b336000806101000a81548173ffffffffffffffffffffffffffffffffffffffff021916908373ffffffffffffffffffffffffffffffffffffffff16021790555060018060008060009054906101000a900473ffffffffffffffffffffffffffffffffffffffff1673ffffffffffffffffffffffffffffffffffffffff1673ffffffffffffffffffffffffffffffffffffffff16815260200190815260200160002060006101000a81548160ff02191690831515021790555080600260006101000a81548173ffffffffffffffffffffffffffffffffffffffff021916908373ffffffffffffffffffffffffffffffffffffffff160217905550600260009054906101000a900473ffffffffffffffffffffffffffffffffffffffff1673ffffffffffffffffffffffffffffffffffffffff1663cf1c316a306040518263ffffffff1660e01b81526004016200018d91906200021c565b600060405180830381600087803b158015620001a857600080fd5b505af1158015620001bd573d6000803e3d6000fd5b505050505062000287565b600081519050620001d9816200026d565b92915050565b600060208284031215620001f257600080fd5b60006200020284828501620001c8565b91505092915050565b620002168162000239565b82525050565b60006020820190506200023360008301846200020b565b92915050565b600062000246826200024d565b9050919050565b600073ffffffffffffffffffffffffffffffffffffffff82169050919050565b620002788162000239565b81146200028457600080fd5b50565b610bb480620002976000396000f3fe608060405234801561001057600080fd5b506004361061007d5760003560e01c80639edd513f1161005b5780639edd513f146100d8578063b5c774061461010c578063b91816111461013c578063cf1c316a1461016c5761007d565b8063485d7d94146100825780638da5cb5b1461009e5780639a66542f146100bc575b600080fd5b61009c600480360381019061009791906106c4565b610188565b005b6100a661023b565b6040516100b391906108bf565b60405180910390f35b6100d660048036038101906100d19190610805565b61025f565b005b6100f260048036038101906100ed91906107dc565b61028e565b604051610103959493929190610917565b60405180910390f35b610126600480360381019061012191906107dc565b6103af565b60405161013391906108f5565b60405180910390f35b610156600480360381019061015191906106c4565b6104ad565b60405161016391906108da565b60405180910390f35b610186600480360381019061018191906106c4565b6104cd565b005b60008054906101000a900473ffffffffffffffffffffffffffffffffffffffff1673ffffffffffffffffffffffffffffffffffffffff163373ffffffffffffffffffffffffffffffffffffffff16146101e057600080fd5b6000600160008373ffffffffffffffffffffffffffffffffffffffff1673ffffffffffffffffffffffffffffffffffffffff16815260200190815260200160002060006101000a81548160ff02191690831515021790555050565b60008054906101000a900473ffffffffffffffffffffffffffffffffffffffff1681565b80600360008481526020019081526020016000206000019080519060200190610289929190610527565b505050565b6060806060806060600160003373ffffffffffffffffffffffffffffffffffffffff1673ffffffffffffffffffffffffffffffffffffffff16815260200190815260200160002060009054906101000a900460ff166102ec57600080fd5b600260009054906101000a900473ffffffffffffffffffffffffffffffffffffffff1673ffffffffffffffffffffffffffffffffffffffff16639edd513f876040518263ffffffff1660e01b8152600401610347919061098d565b60006040518083038186803b15801561035f57600080fd5b505afa158015610373573d6000803e3d6000fd5b505050506040513d6000823e3d601f19601f8201168201806040525081019061039c91906106ed565b9450945094509450945091939590929450565b6060600160003373ffffffffffffffffffffffffffffffffffffffff1673ffffffffffffffffffffffffffffffffffffffff16815260200190815260200160002060009054906101000a900460ff1661040757600080fd5b60036000838152602001908152602001600020600001805461042890610aaf565b80601f016020809104026020016040519081016040528092919081815260200182805461045490610aaf565b80156104a15780601f10610476576101008083540402835291602001916104a1565b820191906000526020600020905b81548152906001019060200180831161048457829003601f168201915b50505050509050919050565b60016020528060005260406000206000915054906101000a900460ff1681565b60018060008373ffffffffffffffffffffffffffffffffffffffff1673ffffffffffffffffffffffffffffffffffffffff16815260200190815260200160002060006101000a81548160ff02191690831515021790555050565b82805461053390610aaf565b90600052602060002090601f016020900481019282610555576000855561059c565b82601f1061056e57805160ff191683800117855561059c565b8280016001018555821561059c579182015b8281111561059b578251825591602001919060010190610580565b5b5090506105a991906105ad565b5090565b5b808211156105c65760008160009055506001016105ae565b5090565b60006105dd6105d8846109d9565b6109a8565b9050828152602081018484840111156105f557600080fd5b610600848285610a6d565b509392505050565b600061061b610616846109d9565b6109a8565b90508281526020810184848401111561063357600080fd5b61063e848285610a7c565b509392505050565b60008135905061065581610b50565b92915050565b600082601f83011261066c57600080fd5b813561067c8482602086016105ca565b91505092915050565b600082601f83011261069657600080fd5b81516106a6848260208601610608565b91505092915050565b6000813590506106be81610b67565b92915050565b6000602082840312156106d657600080fd5b60006106e484828501610646565b91505092915050565b600080600080600060a0868803121561070557600080fd5b600086015167ffffffffffffffff81111561071f57600080fd5b61072b88828901610685565b955050602086015167ffffffffffffffff81111561074857600080fd5b61075488828901610685565b945050604086015167ffffffffffffffff81111561077157600080fd5b61077d88828901610685565b935050606086015167ffffffffffffffff81111561079a57600080fd5b6107a688828901610685565b925050608086015167ffffffffffffffff8111156107c357600080fd5b6107cf88828901610685565b9150509295509295909350565b6000602082840312156107ee57600080fd5b60006107fc848285016106af565b91505092915050565b6000806040838503121561081857600080fd5b6000610826858286016106af565b925050602083013567ffffffffffffffff81111561084357600080fd5b61084f8582860161065b565b9150509250929050565b61086281610a25565b82525050565b61087181610a37565b82525050565b600061088282610a09565b61088c8185610a14565b935061089c818560208601610a7c565b6108a581610b3f565b840191505092915050565b6108b981610a63565b82525050565b60006020820190506108d46000830184610859565b92915050565b60006020820190506108ef6000830184610868565b92915050565b6000602082019050818103600083015261090f8184610877565b905092915050565b600060a08201905081810360008301526109318188610877565b905081810360208301526109458187610877565b905081810360408301526109598186610877565b9050818103606083015261096d8185610877565b905081810360808301526109818184610877565b90509695505050505050565b60006020820190506109a260008301846108b0565b92915050565b6000604051905081810181811067ffffffffffffffff821117156109cf576109ce610b10565b5b8060405250919050565b600067ffffffffffffffff8211156109f4576109f3610b10565b5b601f19601f8301169050602081019050919050565b600081519050919050565b600082825260208201905092915050565b6000610a3082610a43565b9050919050565b60008115159050919050565b600073ffffffffffffffffffffffffffffffffffffffff82169050919050565b6000819050919050565b82818337600083830152505050565b60005b83811015610a9a578082015181840152602081019050610a7f565b83811115610aa9576000848401525b50505050565b60006002820490506001821680610ac757607f821691505b60208210811415610adb57610ada610ae1565b5b50919050565b7f4e487b7100000000000000000000000000000000000000000000000000000000600052602260045260246000fd5b7f4e487b7100000000000000000000000000000000000000000000000000000000600052604160045260246000fd5b6000601f19601f8301169050919050565b610b5981610a25565b8114610b6457600080fd5b50565b610b7081610a63565b8114610b7b57600080fd5b5056fea264697066735822122061f202adf0902211d1a32e40532f01da4c27bd110c94e949de41d6a57bc209ab64736f6c63430008000033",
  "immutableReferences": {},
  "source": "// SPDX-License-Identifier: MIT\r\npragma solidity ^0.8.0;\r\n\r\nimport \"./Distributore.sol\";\r\n\r\ncontract Rivenditore {\r\n\r\n    //dati per autorizzazioni alle chiamate delle funzioni\r\n    address public owner;\r\n    mapping(address => bool) public authorized;\r\n\r\n    Distributore distributoreContract;\r\n\r\n    constructor(address _distributoreContractAddress)  {\r\n        owner = msg.sender;\r\n        authorized[owner] = true; //solo per fare test, oppure  un'opzione valida se il deploy viene fatto da ogni singolo attore in maniera indipendente.\r\n        distributoreContract = Distributore(_distributoreContractAddress);\r\n        distributoreContract.addAuthorized(address(this));\r\n    }\r\n\r\n    struct DatiRivenditore {\r\n\r\n        //inserimento automatico\r\n        string tipologiaQuantita;\r\n    }\r\n\r\n    mapping(uint256 => DatiRivenditore) lotti;\r\n\r\n    //funzioni di autorizzazione\r\n    function addAuthorized(address _address) public {\r\n        //require(msg.sender == owner); Da tenere solo per testing e comodit, a lavoro definitivo va levata.\r\n        authorized[_address] = true;\r\n    }\r\n\r\n    function removeAuthorized(address _address) public {\r\n        require(msg.sender == owner);\r\n        authorized[_address] = false;\r\n    }\r\n\r\n    //inserimento automatico\r\n    function setSensoriRivenditore(uint256 _idLotto, string memory _tipologiaQuantita) public {\r\n\r\n        lotti[_idLotto].tipologiaQuantita = _tipologiaQuantita;\r\n    }\r\n\r\n    //funzioni get\r\n    function getDatiSensoriRivenditore(uint256 _idLotto) public view returns(string memory) {\r\n        require(authorized[msg.sender]);\r\n        return lotti[_idLotto].tipologiaQuantita;\r\n    }\r\n\r\n    //funzioni get da Distributore\r\n    function getDatiVendita(uint256 _idLotto) public view returns(string memory, string memory, string memory, string memory, string memory) {\r\n        require(authorized[msg.sender]);\r\n        return distributoreContract.getDatiVendita(_idLotto);\r\n    }\r\n\r\n}\r\n",
  "sourcePath": "C:\\Users\\Erman\\OneDrive\\BinTraWine2.0\\contracts\\Rivenditore.sol",
  "compiler": {
    "name": "solc",
    "version": "0.8.0+commit.c7dfd78e.Emscripten.clang"
  },
  "schemaVersion": "3.4.13",
  "updatedAt": "2023-05-22T10:59:43.285Z",
  "networkType": "quorum",
  "devdoc": {
    "kind": "dev",
    "methods": {},
    "version": 1
  },
  "userdoc": {
    "kind": "user",
    "methods": {},
    "version": 1
  }
}