{
  "contractName": "SimulatoreSensori",
  "abi": [
    {
      "inputs": [
        {
          "internalType": "address",
          "name": "agronomoContractAddr",
          "type": "address"
        },
        {
          "internalType": "address",
          "name": "viticoltoreContractAddr",
          "type": "address"
        },
        {
          "internalType": "address",
          "name": "produttoreContractAddr",
          "type": "address"
        },
        {
          "internalType": "address",
          "name": "imbottigliatoreContractAddr",
          "type": "address"
        },
        {
          "internalType": "address",
          "name": "distributoreContractAddr",
          "type": "address"
        },
        {
          "internalType": "address",
          "name": "rivenditoreContractAddr",
          "type": "address"
        }
      ],
      "stateMutability": "nonpayable",
      "type": "constructor"
    },
    {
      "inputs": [
        {
          "internalType": "uint256",
          "name": "_idTerreno",
          "type": "uint256"
        },
        {
          "internalType": "string",
          "name": "_superficie",
          "type": "string"
        },
        {
          "internalType": "string",
          "name": "_umiditaTerreno",
          "type": "string"
        },
        {
          "internalType": "string",
          "name": "_temperaturaTerreno",
          "type": "string"
        },
        {
          "internalType": "string",
          "name": "_pioggia",
          "type": "string"
        }
      ],
      "name": "setSensoriAgronomo",
      "outputs": [],
      "stateMutability": "nonpayable",
      "type": "function"
    },
    {
      "inputs": [
        {
          "internalType": "uint256",
          "name": "_idTerreno",
          "type": "uint256"
        },
        {
          "internalType": "string",
          "name": "_quantitaUvaRaccolta",
          "type": "string"
        },
        {
          "internalType": "string",
          "name": "_tipologiaUva",
          "type": "string"
        },
        {
          "internalType": "string",
          "name": "_umidita",
          "type": "string"
        },
        {
          "internalType": "string",
          "name": "_temperatura",
          "type": "string"
        },
        {
          "internalType": "string",
          "name": "_quantitaFertilizzanti",
          "type": "string"
        }
      ],
      "name": "setSensoriViticoltore",
      "outputs": [],
      "stateMutability": "nonpayable",
      "type": "function"
    },
    {
      "inputs": [
        {
          "internalType": "uint256",
          "name": "_idLotto",
          "type": "uint256"
        },
        {
          "internalType": "string",
          "name": "_pesoArrivo",
          "type": "string"
        },
        {
          "internalType": "string",
          "name": "_pesoProdottoFinito",
          "type": "string"
        },
        {
          "internalType": "string",
          "name": "_idContainer",
          "type": "string"
        },
        {
          "internalType": "string",
          "name": "_temperaturaContainer",
          "type": "string"
        }
      ],
      "name": "setSensoriProduttore",
      "outputs": [],
      "stateMutability": "nonpayable",
      "type": "function"
    },
    {
      "inputs": [
        {
          "internalType": "uint256",
          "name": "_idLotto",
          "type": "uint256"
        },
        {
          "internalType": "string",
          "name": "_quantitaProdottoRicevuta",
          "type": "string"
        },
        {
          "internalType": "string",
          "name": "_quantitaVinoImbottigliata",
          "type": "string"
        },
        {
          "internalType": "string",
          "name": "_gradazioneAlcolica",
          "type": "string"
        }
      ],
      "name": "setSensoriImbottigliatore",
      "outputs": [],
      "stateMutability": "nonpayable",
      "type": "function"
    },
    {
      "inputs": [
        {
          "internalType": "uint256",
          "name": "_idLotto",
          "type": "uint256"
        },
        {
          "internalType": "string",
          "name": "_quantitaTrasportata",
          "type": "string"
        },
        {
          "internalType": "string",
          "name": "_temperaturaTrasporto",
          "type": "string"
        }
      ],
      "name": "setSensoriDistributore",
      "outputs": [],
      "stateMutability": "nonpayable",
      "type": "function"
    },
    {
      "inputs": [
        {
          "internalType": "uint256",
          "name": "_idLotto",
          "type": "uint256"
        },
        {
          "internalType": "string",
          "name": "_tipologiaQuantita",
          "type": "string"
        }
      ],
      "name": "setSensoriRivenditore",
      "outputs": [],
      "stateMutability": "nonpayable",
      "type": "function"
    }
  ],
  "bytecode": "0x60806040523480156200001157600080fd5b5060405162000eac38038062000eac8339818101604052810190620000379190620001df565b856000806101000a81548173ffffffffffffffffffffffffffffffffffffffff021916908373ffffffffffffffffffffffffffffffffffffffff16021790555084600160006101000a81548173ffffffffffffffffffffffffffffffffffffffff021916908373ffffffffffffffffffffffffffffffffffffffff16021790555083600260006101000a81548173ffffffffffffffffffffffffffffffffffffffff021916908373ffffffffffffffffffffffffffffffffffffffff16021790555082600360006101000a81548173ffffffffffffffffffffffffffffffffffffffff021916908373ffffffffffffffffffffffffffffffffffffffff16021790555081600460006101000a81548173ffffffffffffffffffffffffffffffffffffffff021916908373ffffffffffffffffffffffffffffffffffffffff16021790555080600560006101000a81548173ffffffffffffffffffffffffffffffffffffffff021916908373ffffffffffffffffffffffffffffffffffffffff160217905550505050505050620002c3565b600081519050620001d981620002a9565b92915050565b60008060008060008060c08789031215620001f957600080fd5b60006200020989828a01620001c8565b96505060206200021c89828a01620001c8565b95505060406200022f89828a01620001c8565b94505060606200024289828a01620001c8565b93505060806200025589828a01620001c8565b92505060a06200026889828a01620001c8565b9150509295509295509295565b6000620002828262000289565b9050919050565b600073ffffffffffffffffffffffffffffffffffffffff82169050919050565b620002b48162000275565b8114620002c057600080fd5b50565b610bd980620002d36000396000f3fe608060405234801561001057600080fd5b50600436106100625760003560e01c8063045150f4146100675780632e9c2283146100835780633a86803e1461009f57806364d421c1146100bb57806381da1b18146100d75780639a66542f146100f3575b600080fd5b610081600480360381019061007c91906106a1565b61010f565b005b61009d60048036038101906100989190610778565b6101a9565b005b6100b960048036038101906100b491906105f6565b610248565b005b6100d560048036038101906100d091906106a1565b6102e1565b005b6100f160048036038101906100ec9190610577565b61037d565b005b61010d60048036038101906101089190610523565b610413565b005b60008054906101000a900473ffffffffffffffffffffffffffffffffffffffff1673ffffffffffffffffffffffffffffffffffffffff1663045150f486868686866040518663ffffffff1660e01b8152600401610170959493929190610990565b600060405180830381600087803b15801561018a57600080fd5b505af115801561019e573d6000803e3d6000fd5b505050505050505050565b600160009054906101000a900473ffffffffffffffffffffffffffffffffffffffff1673ffffffffffffffffffffffffffffffffffffffff16632e9c22838787878787876040518763ffffffff1660e01b815260040161020e969594939291906109ff565b600060405180830381600087803b15801561022857600080fd5b505af115801561023c573d6000803e3d6000fd5b50505050505050505050565b600360009054906101000a900473ffffffffffffffffffffffffffffffffffffffff1673ffffffffffffffffffffffffffffffffffffffff16633a86803e858585856040518563ffffffff1660e01b81526004016102a99493929190610936565b600060405180830381600087803b1580156102c357600080fd5b505af11580156102d7573d6000803e3d6000fd5b5050505050505050565b600260009054906101000a900473ffffffffffffffffffffffffffffffffffffffff1673ffffffffffffffffffffffffffffffffffffffff166364d421c186868686866040518663ffffffff1660e01b8152600401610344959493929190610990565b600060405180830381600087803b15801561035e57600080fd5b505af1158015610372573d6000803e3d6000fd5b505050505050505050565b600460009054906101000a900473ffffffffffffffffffffffffffffffffffffffff1673ffffffffffffffffffffffffffffffffffffffff166381da1b188484846040518463ffffffff1660e01b81526004016103dc939291906108f1565b600060405180830381600087803b1580156103f657600080fd5b505af115801561040a573d6000803e3d6000fd5b50505050505050565b600560009054906101000a900473ffffffffffffffffffffffffffffffffffffffff1673ffffffffffffffffffffffffffffffffffffffff16639a66542f83836040518363ffffffff1660e01b81526004016104709291906108c1565b600060405180830381600087803b15801561048a57600080fd5b505af115801561049e573d6000803e3d6000fd5b505050505050565b60006104b96104b484610ab4565b610a83565b9050828152602081018484840111156104d157600080fd5b6104dc848285610b0a565b509392505050565b600082601f8301126104f557600080fd5b81356105058482602086016104a6565b91505092915050565b60008135905061051d81610b8c565b92915050565b6000806040838503121561053657600080fd5b60006105448582860161050e565b925050602083013567ffffffffffffffff81111561056157600080fd5b61056d858286016104e4565b9150509250929050565b60008060006060848603121561058c57600080fd5b600061059a8682870161050e565b935050602084013567ffffffffffffffff8111156105b757600080fd5b6105c3868287016104e4565b925050604084013567ffffffffffffffff8111156105e057600080fd5b6105ec868287016104e4565b9150509250925092565b6000806000806080858703121561060c57600080fd5b600061061a8782880161050e565b945050602085013567ffffffffffffffff81111561063757600080fd5b610643878288016104e4565b935050604085013567ffffffffffffffff81111561066057600080fd5b61066c878288016104e4565b925050606085013567ffffffffffffffff81111561068957600080fd5b610695878288016104e4565b91505092959194509250565b600080600080600060a086880312156106b957600080fd5b60006106c78882890161050e565b955050602086013567ffffffffffffffff8111156106e457600080fd5b6106f0888289016104e4565b945050604086013567ffffffffffffffff81111561070d57600080fd5b610719888289016104e4565b935050606086013567ffffffffffffffff81111561073657600080fd5b610742888289016104e4565b925050608086013567ffffffffffffffff81111561075f57600080fd5b61076b888289016104e4565b9150509295509295909350565b60008060008060008060c0878903121561079157600080fd5b600061079f89828a0161050e565b965050602087013567ffffffffffffffff8111156107bc57600080fd5b6107c889828a016104e4565b955050604087013567ffffffffffffffff8111156107e557600080fd5b6107f189828a016104e4565b945050606087013567ffffffffffffffff81111561080e57600080fd5b61081a89828a016104e4565b935050608087013567ffffffffffffffff81111561083757600080fd5b61084389828a016104e4565b92505060a087013567ffffffffffffffff81111561086057600080fd5b61086c89828a016104e4565b9150509295509295509295565b600061088482610ae4565b61088e8185610aef565b935061089e818560208601610b19565b6108a781610b7b565b840191505092915050565b6108bb81610b00565b82525050565b60006040820190506108d660008301856108b2565b81810360208301526108e88184610879565b90509392505050565b600060608201905061090660008301866108b2565b81810360208301526109188185610879565b9050818103604083015261092c8184610879565b9050949350505050565b600060808201905061094b60008301876108b2565b818103602083015261095d8186610879565b905081810360408301526109718185610879565b905081810360608301526109858184610879565b905095945050505050565b600060a0820190506109a560008301886108b2565b81810360208301526109b78187610879565b905081810360408301526109cb8186610879565b905081810360608301526109df8185610879565b905081810360808301526109f38184610879565b90509695505050505050565b600060c082019050610a1460008301896108b2565b8181036020830152610a268188610879565b90508181036040830152610a3a8187610879565b90508181036060830152610a4e8186610879565b90508181036080830152610a628185610879565b905081810360a0830152610a768184610879565b9050979650505050505050565b6000604051905081810181811067ffffffffffffffff82111715610aaa57610aa9610b4c565b5b8060405250919050565b600067ffffffffffffffff821115610acf57610ace610b4c565b5b601f19601f8301169050602081019050919050565b600081519050919050565b600082825260208201905092915050565b6000819050919050565b82818337600083830152505050565b60005b83811015610b37578082015181840152602081019050610b1c565b83811115610b46576000848401525b50505050565b7f4e487b7100000000000000000000000000000000000000000000000000000000600052604160045260246000fd5b6000601f19601f8301169050919050565b610b9581610b00565b8114610ba057600080fd5b5056fea26469706673582212208bfb5b2d8982272e039d212dfe2e8e09fe19a294514fe6ca789c94e9935f961d64736f6c63430008000033",
  "immutableReferences": {},
  "source": "// SPDX-License-Identifier: MIT\r\npragma solidity ^0.8.0;\r\n\r\nimport \"./Agronomo.sol\";\r\nimport \"./Viticoltore.sol\";\r\nimport \"./Produttore.sol\";\r\nimport \"./Imbottigliatore.sol\";\r\n//import \"./EnteCertificatore.sol\";\r\nimport \"./Distributore.sol\";\r\nimport \"./Rivenditore.sol\";\r\n\r\ncontract SimulatoreSensori {\r\n\r\n    Agronomo agronomoContract;\r\n    Viticoltore viticoltoreContract;\r\n    Produttore produttoreContract;\r\n    Imbottigliatore imbottigliatoreContract;\r\n    //EnteCertificatore EnteCertificatoreContract;\r\n    Distributore distributoreContract;\r\n    Rivenditore rivenditoreContract;\r\n    \r\n    constructor(address agronomoContractAddr, address viticoltoreContractAddr, address produttoreContractAddr, address imbottigliatoreContractAddr,\r\n    address distributoreContractAddr, address rivenditoreContractAddr)  {\r\n\r\n        agronomoContract = Agronomo(agronomoContractAddr);\r\n        viticoltoreContract = Viticoltore(viticoltoreContractAddr);\r\n        produttoreContract = Produttore(produttoreContractAddr);\r\n        imbottigliatoreContract = Imbottigliatore(imbottigliatoreContractAddr);\r\n        distributoreContract = Distributore(distributoreContractAddr);\r\n        rivenditoreContract = Rivenditore(rivenditoreContractAddr);\r\n    }\r\n\r\n    function setSensoriAgronomo(uint256 _idTerreno, string memory _superficie, string memory _umiditaTerreno, string memory _temperaturaTerreno, string memory _pioggia) public {\r\n\r\n        agronomoContract.setSensoriAgronomo(_idTerreno, _superficie, _umiditaTerreno, _temperaturaTerreno, _pioggia);\r\n    }\r\n\r\n    function setSensoriViticoltore(uint256 _idTerreno, string memory _quantitaUvaRaccolta, string memory _tipologiaUva, string memory _umidita, string memory _temperatura, string memory _quantitaFertilizzanti) public {\r\n\r\n        viticoltoreContract.setSensoriViticoltore(_idTerreno, _quantitaUvaRaccolta, _tipologiaUva, _umidita, _temperatura, _quantitaFertilizzanti);\r\n    }\r\n\r\n    function setSensoriProduttore(uint256 _idLotto, string memory _pesoArrivo, string memory _pesoProdottoFinito, string memory _idContainer, string memory _temperaturaContainer) public {\r\n\r\n        produttoreContract.setSensoriProduttore(_idLotto, _pesoArrivo, _pesoProdottoFinito, _idContainer, _temperaturaContainer);\r\n    }\r\n\r\n    function setSensoriImbottigliatore(uint256 _idLotto, string memory _quantitaProdottoRicevuta, string memory _quantitaVinoImbottigliata, string memory _gradazioneAlcolica) public {\r\n\r\n        imbottigliatoreContract.setSensoriImbottigliatore(_idLotto, _quantitaProdottoRicevuta, _quantitaVinoImbottigliata, _gradazioneAlcolica);\r\n    }\r\n\r\n    function setSensoriDistributore(uint256 _idLotto, string memory _quantitaTrasportata, string memory _temperaturaTrasporto) public {\r\n\r\n        distributoreContract.setSensoriDistributore(_idLotto, _quantitaTrasportata, _temperaturaTrasporto);\r\n    }\r\n\r\n    function setSensoriRivenditore(uint256 _idLotto, string memory _tipologiaQuantita) public {\r\n\r\n        rivenditoreContract.setSensoriRivenditore(_idLotto, _tipologiaQuantita);\r\n    }\r\n\r\n}\r\n",
  "sourcePath": "C:\\Users\\Erman\\OneDrive\\BinTraWine_github\\BinTraWine\\contracts\\SimulatoreSensori.sol",
  "compiler": {
    "name": "solc",
    "version": "0.8.0+commit.c7dfd78e.Emscripten.clang"
  },
  "schemaVersion": "3.4.13",
  "updatedAt": "2023-09-07T14:05:55.009Z",
  "networkType": "quorum",
  "devdoc": {
    "kind": "dev",
    "methods": {},
    "version": 1
  },
  "userdoc": {
    "kind": "user",
    "methods": {},
    "version": 1
  }
}