{
  "contractName": "Viticoltore",
  "abi": [
    {
      "inputs": [
        {
          "internalType": "address",
          "name": "_agronomoContractAddress",
          "type": "address"
        }
      ],
      "stateMutability": "nonpayable",
      "type": "constructor"
    },
    {
      "inputs": [
        {
          "internalType": "address",
          "name": "",
          "type": "address"
        }
      ],
      "name": "authorized",
      "outputs": [
        {
          "internalType": "bool",
          "name": "",
          "type": "bool"
        }
      ],
      "stateMutability": "view",
      "type": "function",
      "constant": true
    },
    {
      "inputs": [],
      "name": "owner",
      "outputs": [
        {
          "internalType": "address",
          "name": "",
          "type": "address"
        }
      ],
      "stateMutability": "view",
      "type": "function",
      "constant": true
    },
    {
      "inputs": [
        {
          "internalType": "address",
          "name": "_address",
          "type": "address"
        }
      ],
      "name": "addAuthorized",
      "outputs": [],
      "stateMutability": "nonpayable",
      "type": "function"
    },
    {
      "inputs": [
        {
          "internalType": "address",
          "name": "_address",
          "type": "address"
        }
      ],
      "name": "removeAuthorized",
      "outputs": [],
      "stateMutability": "nonpayable",
      "type": "function"
    },
    {
      "inputs": [
        {
          "internalType": "string",
          "name": "_dataRaccolta",
          "type": "string"
        }
      ],
      "name": "setDataRaccolta",
      "outputs": [],
      "stateMutability": "nonpayable",
      "type": "function"
    },
    {
      "inputs": [
        {
          "internalType": "string",
          "name": "_datiForniture",
          "type": "string"
        }
      ],
      "name": "setDatiForniture",
      "outputs": [],
      "stateMutability": "nonpayable",
      "type": "function"
    },
    {
      "inputs": [
        {
          "internalType": "string",
          "name": "_destinazioneUva",
          "type": "string"
        }
      ],
      "name": "setDestinazioneUva",
      "outputs": [],
      "stateMutability": "nonpayable",
      "type": "function"
    },
    {
      "inputs": [
        {
          "internalType": "string",
          "name": "_nomeProdotto",
          "type": "string"
        },
        {
          "internalType": "string",
          "name": "_prezzoVendita",
          "type": "string"
        },
        {
          "internalType": "string",
          "name": "_quantita",
          "type": "string"
        },
        {
          "internalType": "string",
          "name": "_nomeCliente",
          "type": "string"
        },
        {
          "internalType": "string",
          "name": "_dataVendita",
          "type": "string"
        },
        {
          "internalType": "address[]",
          "name": "_addresses",
          "type": "address[]"
        }
      ],
      "name": "setVendita",
      "outputs": [],
      "stateMutability": "nonpayable",
      "type": "function"
    },
    {
      "inputs": [
        {
          "internalType": "uint256",
          "name": "_idTerreno",
          "type": "uint256"
        },
        {
          "internalType": "string",
          "name": "_quantitaUvaRaccolta",
          "type": "string"
        },
        {
          "internalType": "string",
          "name": "_tipologiaUva",
          "type": "string"
        },
        {
          "internalType": "string",
          "name": "_umidita",
          "type": "string"
        },
        {
          "internalType": "string",
          "name": "_temperatura",
          "type": "string"
        },
        {
          "internalType": "string",
          "name": "_quantitaFertilizzanti",
          "type": "string"
        }
      ],
      "name": "setSensoriViticoltore",
      "outputs": [],
      "stateMutability": "nonpayable",
      "type": "function"
    },
    {
      "inputs": [],
      "name": "getIdDataRaccoltaSerial",
      "outputs": [
        {
          "internalType": "uint256",
          "name": "",
          "type": "uint256"
        }
      ],
      "stateMutability": "view",
      "type": "function",
      "constant": true
    },
    {
      "inputs": [],
      "name": "getIdDatiFornitureSerial",
      "outputs": [
        {
          "internalType": "uint256",
          "name": "",
          "type": "uint256"
        }
      ],
      "stateMutability": "view",
      "type": "function",
      "constant": true
    },
    {
      "inputs": [],
      "name": "getIdDestinazioneUvaSerial",
      "outputs": [
        {
          "internalType": "uint256",
          "name": "",
          "type": "uint256"
        }
      ],
      "stateMutability": "view",
      "type": "function",
      "constant": true
    },
    {
      "inputs": [],
      "name": "getIdVenditaSerial",
      "outputs": [
        {
          "internalType": "uint256",
          "name": "",
          "type": "uint256"
        }
      ],
      "stateMutability": "view",
      "type": "function",
      "constant": true
    },
    {
      "inputs": [
        {
          "internalType": "uint256",
          "name": "_idTerreno",
          "type": "uint256"
        }
      ],
      "name": "getDataRaccolta",
      "outputs": [
        {
          "internalType": "string",
          "name": "",
          "type": "string"
        }
      ],
      "stateMutability": "view",
      "type": "function",
      "constant": true
    },
    {
      "inputs": [
        {
          "internalType": "uint256",
          "name": "_idTerreno",
          "type": "uint256"
        }
      ],
      "name": "getDatiForniture",
      "outputs": [
        {
          "internalType": "string",
          "name": "",
          "type": "string"
        }
      ],
      "stateMutability": "view",
      "type": "function",
      "constant": true
    },
    {
      "inputs": [
        {
          "internalType": "uint256",
          "name": "_idTerreno",
          "type": "uint256"
        }
      ],
      "name": "getDestinazioneUva",
      "outputs": [
        {
          "internalType": "string",
          "name": "",
          "type": "string"
        }
      ],
      "stateMutability": "view",
      "type": "function",
      "constant": true
    },
    {
      "inputs": [
        {
          "internalType": "uint256",
          "name": "_idVendita",
          "type": "uint256"
        }
      ],
      "name": "getDatiVendita",
      "outputs": [
        {
          "internalType": "string",
          "name": "",
          "type": "string"
        },
        {
          "internalType": "string",
          "name": "",
          "type": "string"
        },
        {
          "internalType": "string",
          "name": "",
          "type": "string"
        },
        {
          "internalType": "string",
          "name": "",
          "type": "string"
        },
        {
          "internalType": "string",
          "name": "",
          "type": "string"
        }
      ],
      "stateMutability": "view",
      "type": "function",
      "constant": true
    },
    {
      "inputs": [
        {
          "internalType": "uint256",
          "name": "_idTerreno",
          "type": "uint256"
        }
      ],
      "name": "getDatiSensoriViticoltore",
      "outputs": [
        {
          "internalType": "string",
          "name": "",
          "type": "string"
        },
        {
          "internalType": "string",
          "name": "",
          "type": "string"
        },
        {
          "internalType": "string",
          "name": "",
          "type": "string"
        },
        {
          "internalType": "string",
          "name": "",
          "type": "string"
        },
        {
          "internalType": "string",
          "name": "",
          "type": "string"
        }
      ],
      "stateMutability": "view",
      "type": "function",
      "constant": true
    },
    {
      "inputs": [
        {
          "internalType": "uint256",
          "name": "_idTerreno",
          "type": "uint256"
        }
      ],
      "name": "getUmiditaTerreno",
      "outputs": [
        {
          "internalType": "string",
          "name": "",
          "type": "string"
        }
      ],
      "stateMutability": "view",
      "type": "function",
      "constant": true
    },
    {
      "inputs": [
        {
          "internalType": "uint256",
          "name": "_idTerreno",
          "type": "uint256"
        }
      ],
      "name": "getTemperaturaTerreno",
      "outputs": [
        {
          "internalType": "string",
          "name": "",
          "type": "string"
        }
      ],
      "stateMutability": "view",
      "type": "function",
      "constant": true
    },
    {
      "inputs": [
        {
          "internalType": "uint256",
          "name": "_idTerreno",
          "type": "uint256"
        }
      ],
      "name": "getPioggiaTerreno",
      "outputs": [
        {
          "internalType": "string",
          "name": "",
          "type": "string"
        }
      ],
      "stateMutability": "view",
      "type": "function",
      "constant": true
    },
    {
      "inputs": [
        {
          "internalType": "uint256",
          "name": "_idTerreno",
          "type": "uint256"
        }
      ],
      "name": "getSuperficieTerreno",
      "outputs": [
        {
          "internalType": "string",
          "name": "",
          "type": "string"
        }
      ],
      "stateMutability": "view",
      "type": "function",
      "constant": true
    }
  ],
  "bytecode": "0x608060405260016006556001600755600160085560016009553480156200002557600080fd5b50604051620027a4380380620027a483398181016040528101906200004b9190620001f3565b336000806101000a81548173ffffffffffffffffffffffffffffffffffffffff021916908373ffffffffffffffffffffffffffffffffffffffff16021790555060018060008060009054906101000a900473ffffffffffffffffffffffffffffffffffffffff1673ffffffffffffffffffffffffffffffffffffffff1673ffffffffffffffffffffffffffffffffffffffff16815260200190815260200160002060006101000a81548160ff02191690831515021790555080600260006101000a81548173ffffffffffffffffffffffffffffffffffffffff021916908373ffffffffffffffffffffffffffffffffffffffff160217905550600260009054906101000a900473ffffffffffffffffffffffffffffffffffffffff1673ffffffffffffffffffffffffffffffffffffffff1663cf1c316a306040518263ffffffff1660e01b8152600401620001a1919062000230565b600060405180830381600087803b158015620001bc57600080fd5b505af1158015620001d1573d6000803e3d6000fd5b50505050506200029b565b600081519050620001ed8162000281565b92915050565b6000602082840312156200020657600080fd5b60006200021684828501620001dc565b91505092915050565b6200022a816200024d565b82525050565b60006020820190506200024760008301846200021f565b92915050565b60006200025a8262000261565b9050919050565b600073ffffffffffffffffffffffffffffffffffffffff82169050919050565b6200028c816200024d565b81146200029857600080fd5b50565b6124f980620002ab6000396000f3fe608060405234801561001057600080fd5b50600436106101425760003560e01c80636e7f3344116100b8578063a597e0071161007c578063a597e007146103a3578063a7a2821d146103c1578063b1689d40146103dd578063b17e97301461040d578063b91816111461043d578063cf1c316a1461046d57610142565b80636e7f3344146102d55780638da5cb5b146102f15780639edd513f1461030f5780639f09e11c14610343578063a50159c91461037357610142565b80634b2cfa1e1161010a5780634b2cfa1e146101ef5780634b4301d91461020b5780634c89ffed1461023b5780634e7ad4001461026b578063635f715f146102895780636475ffdc146102a557610142565b80630c6faf241461014757806313a4db7b146101655780632e9c228314610199578063485d7d94146101b557806349422115146101d1575b600080fd5b61014f610489565b60405161015c919061222e565b60405180910390f35b61017f600480360381019061017a9190611f70565b6104e9565b604051610190959493929190612198565b60405180910390f35b6101b360048036038101906101ae9190611f99565b610884565b005b6101cf60048036038101906101ca9190611d2a565b610963565b005b6101d9610a16565b6040516101e6919061222e565b60405180910390f35b61020960048036038101906102049190611d53565b610a76565b005b61022560048036038101906102209190611f70565b610b14565b6040516102329190612176565b60405180910390f35b61025560048036038101906102509190611f70565b610bd6565b6040516102629190612176565b60405180910390f35b610273610c98565b604051610280919061222e565b60405180910390f35b6102a3600480360381019061029e9190611e57565b610cf8565b005b6102bf60048036038101906102ba9190611f70565b610ffa565b6040516102cc9190612176565b60405180910390f35b6102ef60048036038101906102ea9190611d53565b6110bc565b005b6102f961115a565b6040516103069190612140565b60405180910390f35b61032960048036038101906103249190611f70565b61117e565b60405161033a959493929190612198565b60405180910390f35b61035d60048036038101906103589190611f70565b6115c3565b60405161036a9190612176565b60405180910390f35b61038d60048036038101906103889190611f70565b6116c1565b60405161039a9190612176565b60405180910390f35b6103ab611783565b6040516103b8919061222e565b60405180910390f35b6103db60048036038101906103d69190611d53565b6117e3565b005b6103f760048036038101906103f29190611f70565b611881565b6040516104049190612176565b60405180910390f35b61042760048036038101906104229190611f70565b61197f565b6040516104349190612176565b60405180910390f35b61045760048036038101906104529190611d2a565b611a7d565b604051610464919061215b565b60405180910390f35b61048760048036038101906104829190611d2a565b611a9d565b005b6000600160003373ffffffffffffffffffffffffffffffffffffffff1673ffffffffffffffffffffffffffffffffffffffff16815260200190815260200160002060009054906101000a900460ff166104e157600080fd5b600854905090565b6060806060806060600160003373ffffffffffffffffffffffffffffffffffffffff1673ffffffffffffffffffffffffffffffffffffffff16815260200190815260200160002060009054906101000a900460ff1661054757600080fd5b600360008781526020019081526020016000206003016003600088815260200190815260200160002060040160036000898152602001908152602001600020600501600360008a8152602001908152602001600020600601600360008b81526020019081526020016000206007018480546105c19061237c565b80601f01602080910402602001604051908101604052809291908181526020018280546105ed9061237c565b801561063a5780601f1061060f5761010080835404028352916020019161063a565b820191906000526020600020905b81548152906001019060200180831161061d57829003601f168201915b5050505050945083805461064d9061237c565b80601f01602080910402602001604051908101604052809291908181526020018280546106799061237c565b80156106c65780601f1061069b576101008083540402835291602001916106c6565b820191906000526020600020905b8154815290600101906020018083116106a957829003601f168201915b505050505093508280546106d99061237c565b80601f01602080910402602001604051908101604052809291908181526020018280546107059061237c565b80156107525780601f1061072757610100808354040283529160200191610752565b820191906000526020600020905b81548152906001019060200180831161073557829003601f168201915b505050505092508180546107659061237c565b80601f01602080910402602001604051908101604052809291908181526020018280546107919061237c565b80156107de5780601f106107b3576101008083540402835291602001916107de565b820191906000526020600020905b8154815290600101906020018083116107c157829003601f168201915b505050505091508080546107f19061237c565b80601f016020809104026020016040519081016040528092919081815260200182805461081d9061237c565b801561086a5780601f1061083f5761010080835404028352916020019161086a565b820191906000526020600020905b81548152906001019060200180831161084d57829003601f168201915b505050505090509450945094509450945091939590929450565b846003600088815260200190815260200160002060030190805190602001906108ae929190611af7565b50836003600088815260200190815260200160002060040190805190602001906108d9929190611af7565b5082600360008881526020019081526020016000206005019080519060200190610904929190611af7565b508160036000888152602001908152602001600020600601908051906020019061092f929190611af7565b508060036000888152602001908152602001600020600701908051906020019061095a929190611af7565b50505050505050565b60008054906101000a900473ffffffffffffffffffffffffffffffffffffffff1673ffffffffffffffffffffffffffffffffffffffff163373ffffffffffffffffffffffffffffffffffffffff16146109bb57600080fd5b6000600160008373ffffffffffffffffffffffffffffffffffffffff1673ffffffffffffffffffffffffffffffffffffffff16815260200190815260200160002060006101000a81548160ff02191690831515021790555050565b6000600160003373ffffffffffffffffffffffffffffffffffffffff1673ffffffffffffffffffffffffffffffffffffffff16815260200190815260200160002060009054906101000a900460ff16610a6e57600080fd5b600654905090565b600160003373ffffffffffffffffffffffffffffffffffffffff1673ffffffffffffffffffffffffffffffffffffffff16815260200190815260200160002060009054906101000a900460ff16610acc57600080fd5b806003600060065481526020019081526020016000206000019080519060200190610af8929190611af7565b5060066000815480929190610b0c906123ae565b919050555050565b60606000600260009054906101000a900473ffffffffffffffffffffffffffffffffffffffff1673ffffffffffffffffffffffffffffffffffffffff16635df6ec33846040518263ffffffff1660e01b8152600401610b73919061222e565b60006040518083038186803b158015610b8b57600080fd5b505afa158015610b9f573d6000803e3d6000fd5b505050506040513d6000823e3d601f19601f82011682018060405250810190610bc89190611d94565b509250505080915050919050565b60606000600260009054906101000a900473ffffffffffffffffffffffffffffffffffffffff1673ffffffffffffffffffffffffffffffffffffffff16635df6ec33846040518263ffffffff1660e01b8152600401610c35919061222e565b60006040518083038186803b158015610c4d57600080fd5b505afa158015610c61573d6000803e3d6000fd5b505050506040513d6000823e3d601f19601f82011682018060405250810190610c8a9190611d94565b505091505080915050919050565b6000600160003373ffffffffffffffffffffffffffffffffffffffff1673ffffffffffffffffffffffffffffffffffffffff16815260200190815260200160002060009054906101000a900460ff16610cf057600080fd5b600754905090565b600160003373ffffffffffffffffffffffffffffffffffffffff1673ffffffffffffffffffffffffffffffffffffffff16815260200190815260200160002060009054906101000a900460ff16610d4e57600080fd5b856004600060095481526020019081526020016000206001019080519060200190610d7a929190611af7565b50846004600060095481526020019081526020016000206000019080519060200190610da7929190611af7565b50836004600060095481526020019081526020016000206002019080519060200190610dd4929190611af7565b50826004600060095481526020019081526020016000206004019080519060200190610e01929190611af7565b50816004600060095481526020019081526020016000206003019080519060200190610e2e929190611af7565b5060005b8151811015610fd957600073ffffffffffffffffffffffffffffffffffffffff16828281518110610e8c577f4e487b7100000000000000000000000000000000000000000000000000000000600052603260045260246000fd5b602002602001015173ffffffffffffffffffffffffffffffffffffffff1614610fc657600160056000600954815260200190815260200160002060003373ffffffffffffffffffffffffffffffffffffffff1673ffffffffffffffffffffffffffffffffffffffff16815260200190815260200160002060006101000a81548160ff02191690831515021790555060016005600060095481526020019081526020016000206000848481518110610f6c577f4e487b7100000000000000000000000000000000000000000000000000000000600052603260045260246000fd5b602002602001015173ffffffffffffffffffffffffffffffffffffffff1673ffffffffffffffffffffffffffffffffffffffff16815260200190815260200160002060006101000a81548160ff0219169083151502179055505b8080610fd1906123ae565b915050610e32565b5060096000815480929190610fed906123ae565b9190505550505050505050565b60606000600260009054906101000a900473ffffffffffffffffffffffffffffffffffffffff1673ffffffffffffffffffffffffffffffffffffffff16635df6ec33846040518263ffffffff1660e01b8152600401611059919061222e565b60006040518083038186803b15801561107157600080fd5b505afa158015611085573d6000803e3d6000fd5b505050506040513d6000823e3d601f19601f820116820180604052508101906110ae9190611d94565b505050905080915050919050565b600160003373ffffffffffffffffffffffffffffffffffffffff1673ffffffffffffffffffffffffffffffffffffffff16815260200190815260200160002060009054906101000a900460ff1661111257600080fd5b80600360006007548152602001908152602001600020600101908051906020019061113e929190611af7565b5060076000815480929190611152906123ae565b919050555050565b60008054906101000a900473ffffffffffffffffffffffffffffffffffffffff1681565b6060806060806060600160003373ffffffffffffffffffffffffffffffffffffffff1673ffffffffffffffffffffffffffffffffffffffff16815260200190815260200160002060009054906101000a900460ff166111dc57600080fd5b600115156005600088815260200190815260200160002060003373ffffffffffffffffffffffffffffffffffffffff1673ffffffffffffffffffffffffffffffffffffffff16815260200190815260200160002060009054906101000a900460ff161515141561157f57600460008781526020019081526020016000206001016004600088815260200190815260200160002060000160046000898152602001908152602001600020600201600460008a8152602001908152602001600020600401600460008b81526020019081526020016000206003018480546112c09061237c565b80601f01602080910402602001604051908101604052809291908181526020018280546112ec9061237c565b80156113395780601f1061130e57610100808354040283529160200191611339565b820191906000526020600020905b81548152906001019060200180831161131c57829003601f168201915b5050505050945083805461134c9061237c565b80601f01602080910402602001604051908101604052809291908181526020018280546113789061237c565b80156113c55780601f1061139a576101008083540402835291602001916113c5565b820191906000526020600020905b8154815290600101906020018083116113a857829003601f168201915b505050505093508280546113d89061237c565b80601f01602080910402602001604051908101604052809291908181526020018280546114049061237c565b80156114515780601f1061142657610100808354040283529160200191611451565b820191906000526020600020905b81548152906001019060200180831161143457829003601f168201915b505050505092508180546114649061237c565b80601f01602080910402602001604051908101604052809291908181526020018280546114909061237c565b80156114dd5780601f106114b2576101008083540402835291602001916114dd565b820191906000526020600020905b8154815290600101906020018083116114c057829003601f168201915b505050505091508080546114f09061237c565b80601f016020809104026020016040519081016040528092919081815260200182805461151c9061237c565b80156115695780601f1061153e57610100808354040283529160200191611569565b820191906000526020600020905b81548152906001019060200180831161154c57829003601f168201915b50505050509050945094509450945094506115ba565b6040517f08c379a00000000000000000000000000000000000000000000000000000000081526004016115b19061220e565b60405180910390fd5b91939590929450565b6060600160003373ffffffffffffffffffffffffffffffffffffffff1673ffffffffffffffffffffffffffffffffffffffff16815260200190815260200160002060009054906101000a900460ff1661161b57600080fd5b60036000838152602001908152602001600020600101805461163c9061237c565b80601f01602080910402602001604051908101604052809291908181526020018280546116689061237c565b80156116b55780601f1061168a576101008083540402835291602001916116b5565b820191906000526020600020905b81548152906001019060200180831161169857829003601f168201915b50505050509050919050565b60606000600260009054906101000a900473ffffffffffffffffffffffffffffffffffffffff1673ffffffffffffffffffffffffffffffffffffffff16635df6ec33846040518263ffffffff1660e01b8152600401611720919061222e565b60006040518083038186803b15801561173857600080fd5b505afa15801561174c573d6000803e3d6000fd5b505050506040513d6000823e3d601f19601f820116820180604052508101906117759190611d94565b935050505080915050919050565b6000600160003373ffffffffffffffffffffffffffffffffffffffff1673ffffffffffffffffffffffffffffffffffffffff16815260200190815260200160002060009054906101000a900460ff166117db57600080fd5b600954905090565b600160003373ffffffffffffffffffffffffffffffffffffffff1673ffffffffffffffffffffffffffffffffffffffff16815260200190815260200160002060009054906101000a900460ff1661183957600080fd5b806003600060085481526020019081526020016000206002019080519060200190611865929190611af7565b5060086000815480929190611879906123ae565b919050555050565b6060600160003373ffffffffffffffffffffffffffffffffffffffff1673ffffffffffffffffffffffffffffffffffffffff16815260200190815260200160002060009054906101000a900460ff166118d957600080fd5b6003600083815260200190815260200160002060020180546118fa9061237c565b80601f01602080910402602001604051908101604052809291908181526020018280546119269061237c565b80156119735780601f1061194857610100808354040283529160200191611973565b820191906000526020600020905b81548152906001019060200180831161195657829003601f168201915b50505050509050919050565b6060600160003373ffffffffffffffffffffffffffffffffffffffff1673ffffffffffffffffffffffffffffffffffffffff16815260200190815260200160002060009054906101000a900460ff166119d757600080fd5b6003600083815260200190815260200160002060000180546119f89061237c565b80601f0160208091040260200160405190810160405280929190818152602001828054611a249061237c565b8015611a715780601f10611a4657610100808354040283529160200191611a71565b820191906000526020600020905b815481529060010190602001808311611a5457829003601f168201915b50505050509050919050565b60016020528060005260406000206000915054906101000a900460ff1681565b60018060008373ffffffffffffffffffffffffffffffffffffffff1673ffffffffffffffffffffffffffffffffffffffff16815260200190815260200160002060006101000a81548160ff02191690831515021790555050565b828054611b039061237c565b90600052602060002090601f016020900481019282611b255760008555611b6c565b82601f10611b3e57805160ff1916838001178555611b6c565b82800160010185558215611b6c579182015b82811115611b6b578251825591602001919060010190611b50565b5b509050611b799190611b7d565b5090565b5b80821115611b96576000816000905550600101611b7e565b5090565b6000611bad611ba88461227a565b612249565b90508083825260208201905082856020860282011115611bcc57600080fd5b60005b85811015611bfc5781611be28882611c82565b845260208401935060208301925050600181019050611bcf565b5050509392505050565b6000611c19611c14846122a6565b612249565b905082815260208101848484011115611c3157600080fd5b611c3c84828561233a565b509392505050565b6000611c57611c52846122a6565b612249565b905082815260208101848484011115611c6f57600080fd5b611c7a848285612349565b509392505050565b600081359050611c9181612495565b92915050565b600082601f830112611ca857600080fd5b8135611cb8848260208601611b9a565b91505092915050565b600082601f830112611cd257600080fd5b8135611ce2848260208601611c06565b91505092915050565b600082601f830112611cfc57600080fd5b8151611d0c848260208601611c44565b91505092915050565b600081359050611d24816124ac565b92915050565b600060208284031215611d3c57600080fd5b6000611d4a84828501611c82565b91505092915050565b600060208284031215611d6557600080fd5b600082013567ffffffffffffffff811115611d7f57600080fd5b611d8b84828501611cc1565b91505092915050565b60008060008060808587031215611daa57600080fd5b600085015167ffffffffffffffff811115611dc457600080fd5b611dd087828801611ceb565b945050602085015167ffffffffffffffff811115611ded57600080fd5b611df987828801611ceb565b935050604085015167ffffffffffffffff811115611e1657600080fd5b611e2287828801611ceb565b925050606085015167ffffffffffffffff811115611e3f57600080fd5b611e4b87828801611ceb565b91505092959194509250565b60008060008060008060c08789031215611e7057600080fd5b600087013567ffffffffffffffff811115611e8a57600080fd5b611e9689828a01611cc1565b965050602087013567ffffffffffffffff811115611eb357600080fd5b611ebf89828a01611cc1565b955050604087013567ffffffffffffffff811115611edc57600080fd5b611ee889828a01611cc1565b945050606087013567ffffffffffffffff811115611f0557600080fd5b611f1189828a01611cc1565b935050608087013567ffffffffffffffff811115611f2e57600080fd5b611f3a89828a01611cc1565b92505060a087013567ffffffffffffffff811115611f5757600080fd5b611f6389828a01611c97565b9150509295509295509295565b600060208284031215611f8257600080fd5b6000611f9084828501611d15565b91505092915050565b60008060008060008060c08789031215611fb257600080fd5b6000611fc089828a01611d15565b965050602087013567ffffffffffffffff811115611fdd57600080fd5b611fe989828a01611cc1565b955050604087013567ffffffffffffffff81111561200657600080fd5b61201289828a01611cc1565b945050606087013567ffffffffffffffff81111561202f57600080fd5b61203b89828a01611cc1565b935050608087013567ffffffffffffffff81111561205857600080fd5b61206489828a01611cc1565b92505060a087013567ffffffffffffffff81111561208157600080fd5b61208d89828a01611cc1565b9150509295509295509295565b6120a3816122f2565b82525050565b6120b281612304565b82525050565b60006120c3826122d6565b6120cd81856122e1565b93506120dd818560208601612349565b6120e681612484565b840191505092915050565b60006120fe6016836122e1565b91507f5574656e7465206e6f6e206175746f72697a7a61746f000000000000000000006000830152602082019050919050565b61213a81612330565b82525050565b6000602082019050612155600083018461209a565b92915050565b600060208201905061217060008301846120a9565b92915050565b6000602082019050818103600083015261219081846120b8565b905092915050565b600060a08201905081810360008301526121b281886120b8565b905081810360208301526121c681876120b8565b905081810360408301526121da81866120b8565b905081810360608301526121ee81856120b8565b9050818103608083015261220281846120b8565b90509695505050505050565b60006020820190508181036000830152612227816120f1565b9050919050565b60006020820190506122436000830184612131565b92915050565b6000604051905081810181811067ffffffffffffffff821117156122705761226f612455565b5b8060405250919050565b600067ffffffffffffffff82111561229557612294612455565b5b602082029050602081019050919050565b600067ffffffffffffffff8211156122c1576122c0612455565b5b601f19601f8301169050602081019050919050565b600081519050919050565b600082825260208201905092915050565b60006122fd82612310565b9050919050565b60008115159050919050565b600073ffffffffffffffffffffffffffffffffffffffff82169050919050565b6000819050919050565b82818337600083830152505050565b60005b8381101561236757808201518184015260208101905061234c565b83811115612376576000848401525b50505050565b6000600282049050600182168061239457607f821691505b602082108114156123a8576123a7612426565b5b50919050565b60006123b982612330565b91507fffffffffffffffffffffffffffffffffffffffffffffffffffffffffffffffff8214156123ec576123eb6123f7565b5b600182019050919050565b7f4e487b7100000000000000000000000000000000000000000000000000000000600052601160045260246000fd5b7f4e487b7100000000000000000000000000000000000000000000000000000000600052602260045260246000fd5b7f4e487b7100000000000000000000000000000000000000000000000000000000600052604160045260246000fd5b6000601f19601f8301169050919050565b61249e816122f2565b81146124a957600080fd5b50565b6124b581612330565b81146124c057600080fd5b5056fea264697066735822122023f6327c7effc7cfdc6c604cc716e7193424a7437fdb0e1a145da6ce1987c37c64736f6c63430008000033",
  "immutableReferences": {},
  "source": "// SPDX-License-Identifier: MIT\r\npragma solidity ^0.8.0;\r\n\r\nimport \"./Agronomo.sol\";\r\n\r\ncontract Viticoltore {\r\n\r\n    //dati per autorizzazioni alle chiamate delle funzioni\r\n    address public owner;\r\n    mapping(address => bool) public authorized;\r\n\r\n    Agronomo agronomoContract;\r\n    \r\n    constructor(address _agronomoContractAddress)  {\r\n        owner = msg.sender;\r\n        authorized[owner] = true; //solo per fare test, oppure  un'opzione valida se il deploy viene fatto da ogni singolo attore in maniera indipendente.\r\n        agronomoContract = Agronomo(_agronomoContractAddress);\r\n        agronomoContract.addAuthorized(address(this));\r\n\r\n    }\r\n\r\n    //dividere le istanze per terreni\r\n\r\n    struct DatiViticoltore {\r\n\r\n    //dati funzioni inserimento manuale\r\n    string dataRaccolta;\r\n    string datiForniture;\r\n    string destinazioneUva;\r\n\r\n\r\n    //dati funzioni simulatore\r\n    string quantitaUvaRaccolta;\r\n    string tipologiaUva;\r\n    string umidita;\r\n    string temperatura;\r\n    string quantitaFertilizzanti;\r\n\r\n    }\r\n\r\n    struct datiVendita {\r\n        string prezzoVendita;\r\n        string nomeProdotto;\r\n        string quantita;\r\n        string dataVendita;\r\n        string nomeCliente;\r\n    }\r\n\r\n    mapping(uint256 => DatiViticoltore) terreni;\r\n    mapping(uint256 => datiVendita) vendite;\r\n    mapping(uint => mapping(address => bool)) allowedAddressesVendite; //mapping per le autirizzazioni sulle get di vendita\r\n\r\n    /*identificativi funzioni terreni e vendite*/\r\n    uint256 idDataRaccoltaSerial = 1;\r\n    uint256 idDatiFornitureSerial = 1;\r\n    uint256 idDestinazioneUvaSerial = 1;\r\n    uint256 idVenditaSerial = 1;\r\n\r\n\r\n    //funzioni di autorizzazione\r\n    function addAuthorized(address _address) public {\r\n        //require(msg.sender == owner); Da tenere solo per testing e comodit, a lavoro definitivo va levata.\r\n        authorized[_address] = true;\r\n    }\r\n\r\n    function removeAuthorized(address _address) public {\r\n        require(msg.sender == owner);\r\n        authorized[_address] = false;\r\n    }\r\n\r\n    //funzioni manuali\r\n    /* esempio per gestire decimali, BISOGNA INSERIRE IN INPUT IN QUESTO MODO: EX, 125,76 VA INSERITO COME => 12576, CHE VERRA' RAPPRESENTATO COME 1257600 E BISOGNA INTERPRETARE I 2\r\n    ZERI COME I DECIMALI, QUINDI LEGGERLO COME 125,76\r\n    function setDataRaccolta(uint256 _idTerreno, uint256 _dataRaccolta) public {\r\n        uint256 decimals = 2;\r\n        terreni[_idTerreno].dataRaccolta = _dataRaccolta * (10**decimals);\r\n    }\r\n    */\r\n\r\n    function setDataRaccolta(string memory _dataRaccolta) public {\r\n        require(authorized[msg.sender]);\r\n        terreni[idDataRaccoltaSerial].dataRaccolta = _dataRaccolta;\r\n        //customerContract.setDataRaccolta(idDataRaccoltaSerial, _dataRaccolta);\r\n        idDataRaccoltaSerial++;\r\n    }\r\n\r\n    function setDatiForniture(string memory _datiForniture) public{\r\n        require(authorized[msg.sender]);\r\n        terreni[idDatiFornitureSerial].datiForniture = _datiForniture;\r\n        //customerContract.setDatiForniture(idDatiFornitureSerial, _datiForniture);\r\n        idDatiFornitureSerial++;\r\n    }\r\n\r\n   function setDestinazioneUva(string memory _destinazioneUva) public {\r\n       require(authorized[msg.sender]);\r\n       terreni[idDestinazioneUvaSerial].destinazioneUva = _destinazioneUva;\r\n       //customerContract.setDestinazioneUva(idDestinazioneUvaSerial, _destinazioneUva);\r\n       idDestinazioneUvaSerial++;\r\n   }\r\n\r\n   function setVendita(string memory _nomeProdotto,string memory _prezzoVendita, string memory _quantita, string memory _nomeCliente,\r\n            string memory _dataVendita, address[] memory _addresses) public {\r\n       require(authorized[msg.sender]);\r\n       vendite[idVenditaSerial].nomeProdotto = _nomeProdotto;\r\n       vendite[idVenditaSerial].prezzoVendita = _prezzoVendita;\r\n       vendite[idVenditaSerial].quantita = _quantita;\r\n       vendite[idVenditaSerial].nomeCliente = _nomeCliente;\r\n       vendite[idVenditaSerial].dataVendita = _dataVendita;\r\n\r\n       for(uint i=0; i<_addresses.length; i++){ //ciclo necessario a definire gli address forniti in input come \"trusted\"\r\n            if(_addresses[i] != address(0)){ //entra in azione solo de gli address forniti sono diversi dall'address nullo (0x0000000000000...)\r\n                allowedAddressesVendite[idVenditaSerial][msg.sender] = true; //TEST\r\n                allowedAddressesVendite[idVenditaSerial][_addresses[i]] = true; //salva gli address inseriti e li definisce \"trusted\" attraverso il parametro booleano \"true\"\r\n            }\r\n        } \r\n\r\n       idVenditaSerial++;\r\n       /*vendite[_idVendita].nomeCliente = _nomeCliente;*/\r\n   }\r\n\r\n    //funzione automatiche\r\n    function setSensoriViticoltore(uint256 _idTerreno, string memory _quantitaUvaRaccolta, string memory _tipologiaUva, string memory _umidita, string memory _temperatura, string memory _quantitaFertilizzanti) public {\r\n\r\n        terreni[_idTerreno].quantitaUvaRaccolta = _quantitaUvaRaccolta;\r\n        terreni[_idTerreno].tipologiaUva = _tipologiaUva;\r\n        terreni[_idTerreno].umidita = _umidita;\r\n        terreni[_idTerreno].temperatura = _temperatura;\r\n        terreni[_idTerreno].quantitaFertilizzanti = _quantitaFertilizzanti;\r\n\r\n    }\r\n\r\n    //funzioni di get\r\n    function getIdDataRaccoltaSerial() public view returns(uint256){\r\n        require(authorized[msg.sender]);\r\n        return idDataRaccoltaSerial;\r\n    }\r\n\r\n    function getIdDatiFornitureSerial() public view returns(uint256){\r\n        require(authorized[msg.sender]);\r\n        return idDatiFornitureSerial;\r\n    }\r\n\r\n    function getIdDestinazioneUvaSerial() public view returns(uint256){\r\n        require(authorized[msg.sender]);\r\n        return idDestinazioneUvaSerial;\r\n    }\r\n\r\n    function getIdVenditaSerial() public view returns(uint256){\r\n        require(authorized[msg.sender]);\r\n        return idVenditaSerial;\r\n    }\r\n\r\n    function getDataRaccolta(uint256 _idTerreno) public view returns(string memory) {\r\n        require(authorized[msg.sender]);\r\n        return terreni[_idTerreno].dataRaccolta;\r\n    }\r\n\r\n    function getDatiForniture(uint256 _idTerreno) public view returns(string memory) {\r\n        require(authorized[msg.sender]);\r\n        return terreni[_idTerreno].datiForniture;\r\n    }\r\n\r\n    function getDestinazioneUva(uint256 _idTerreno) public view returns(string memory) {\r\n        require(authorized[msg.sender]);\r\n        return terreni[_idTerreno].destinazioneUva;\r\n    }\r\n\r\n    function getDatiVendita(uint256 _idVendita) public view returns(string memory, string memory, string memory, string memory, string memory) {\r\n        require(authorized[msg.sender]);\r\n        \r\n        if (allowedAddressesVendite[_idVendita][msg.sender] == true) { //\"msg.sender\" rappresenta l'address di chi sta chiamando il metodo.\r\n           return (vendite[_idVendita].nomeProdotto, vendite[_idVendita].prezzoVendita, vendite[_idVendita].quantita, vendite[_idVendita].nomeCliente,\r\n            vendite[_idVendita].dataVendita);\r\n        } else {\r\n            revert(\"Utente non autorizzato\"); //revert() interrompe l'esecuzione della transazione e la annulla, in questo caso mostra anche un messaggio di warning.\r\n        }\r\n    }\r\n\r\n    function getDatiSensoriViticoltore(uint256 _idTerreno) public view returns(string memory, string memory, string memory, string memory, string memory) {\r\n        require(authorized[msg.sender]);\r\n        return (terreni[_idTerreno].quantitaUvaRaccolta, terreni[_idTerreno].tipologiaUva, terreni[_idTerreno].umidita, terreni[_idTerreno].temperatura, terreni[_idTerreno].quantitaFertilizzanti);\r\n    }\r\n\r\n    //funzioni di get Da Agronomo\r\n    function getUmiditaTerreno(uint256 _idTerreno) public view returns(string memory) {\r\n         (, string memory umiditaTerreno, ,) = agronomoContract.getDatiSensoriAgronomo(_idTerreno);\r\n         return umiditaTerreno;\r\n    }\r\n\r\n    function getTemperaturaTerreno(uint256 _idTerreno) public view returns(string memory) {\r\n         (,, string memory temperaturaTerreno,) = agronomoContract.getDatiSensoriAgronomo(_idTerreno);\r\n         return temperaturaTerreno;\r\n    }\r\n\r\n    function getPioggiaTerreno(uint256 _idTerreno) public view returns(string memory) {\r\n        (,,, string memory pioggiaterreno) = agronomoContract.getDatiSensoriAgronomo(_idTerreno);\r\n        return pioggiaterreno;\r\n    }\r\n\r\n    function getSuperficieTerreno(uint256 _idTerreno) public view returns(string memory) {\r\n        (string memory superficieTerreno,,,) = agronomoContract.getDatiSensoriAgronomo(_idTerreno);\r\n        return superficieTerreno;\r\n    }\r\n\r\n}\r\n",
  "sourcePath": "C:\\Users\\Erman\\OneDrive\\BinTraWine_github\\BinTraWine\\contracts\\Viticoltore.sol",
  "compiler": {
    "name": "solc",
    "version": "0.8.0+commit.c7dfd78e.Emscripten.clang"
  },
  "schemaVersion": "3.4.13",
  "updatedAt": "2023-07-03T12:40:13.275Z",
  "networkType": "quorum",
  "devdoc": {
    "kind": "dev",
    "methods": {},
    "version": 1
  },
  "userdoc": {
    "kind": "user",
    "methods": {},
    "version": 1
  }
}