{
  "contractName": "Viticoltore",
  "abi": [
    {
      "inputs": [
        {
          "internalType": "address",
          "name": "_agronomoContractAddress",
          "type": "address"
        }
      ],
      "stateMutability": "nonpayable",
      "type": "constructor"
    },
    {
      "inputs": [
        {
          "internalType": "address",
          "name": "",
          "type": "address"
        }
      ],
      "name": "authorized",
      "outputs": [
        {
          "internalType": "bool",
          "name": "",
          "type": "bool"
        }
      ],
      "stateMutability": "view",
      "type": "function",
      "constant": true
    },
    {
      "inputs": [],
      "name": "owner",
      "outputs": [
        {
          "internalType": "address",
          "name": "",
          "type": "address"
        }
      ],
      "stateMutability": "view",
      "type": "function",
      "constant": true
    },
    {
      "inputs": [
        {
          "internalType": "address",
          "name": "_address",
          "type": "address"
        }
      ],
      "name": "addAuthorized",
      "outputs": [],
      "stateMutability": "nonpayable",
      "type": "function"
    },
    {
      "inputs": [
        {
          "internalType": "address",
          "name": "_address",
          "type": "address"
        }
      ],
      "name": "removeAuthorized",
      "outputs": [],
      "stateMutability": "nonpayable",
      "type": "function"
    },
    {
      "inputs": [
        {
          "internalType": "string",
          "name": "_dataRaccolta",
          "type": "string"
        }
      ],
      "name": "setDataRaccolta",
      "outputs": [],
      "stateMutability": "nonpayable",
      "type": "function"
    },
    {
      "inputs": [
        {
          "internalType": "string",
          "name": "_datiForniture",
          "type": "string"
        }
      ],
      "name": "setDatiForniture",
      "outputs": [],
      "stateMutability": "nonpayable",
      "type": "function"
    },
    {
      "inputs": [
        {
          "internalType": "string",
          "name": "_destinazioneUva",
          "type": "string"
        }
      ],
      "name": "setDestinazioneUva",
      "outputs": [],
      "stateMutability": "nonpayable",
      "type": "function"
    },
    {
      "inputs": [
        {
          "internalType": "string",
          "name": "_nomeProdotto",
          "type": "string"
        },
        {
          "internalType": "string",
          "name": "_prezzoVendita",
          "type": "string"
        },
        {
          "internalType": "string",
          "name": "_quantita",
          "type": "string"
        },
        {
          "internalType": "string",
          "name": "_nomeCliente",
          "type": "string"
        },
        {
          "internalType": "string",
          "name": "_dataVendita",
          "type": "string"
        },
        {
          "internalType": "address[]",
          "name": "_addresses",
          "type": "address[]"
        }
      ],
      "name": "setVendita",
      "outputs": [],
      "stateMutability": "nonpayable",
      "type": "function"
    },
    {
      "inputs": [
        {
          "internalType": "uint256",
          "name": "_idTerreno",
          "type": "uint256"
        },
        {
          "internalType": "string",
          "name": "_quantitaUvaRaccolta",
          "type": "string"
        },
        {
          "internalType": "string",
          "name": "_tipologiaUva",
          "type": "string"
        },
        {
          "internalType": "string",
          "name": "_umidita",
          "type": "string"
        },
        {
          "internalType": "string",
          "name": "_temperatura",
          "type": "string"
        },
        {
          "internalType": "string",
          "name": "_quantitaFertilizzanti",
          "type": "string"
        }
      ],
      "name": "setSensoriViticoltore",
      "outputs": [],
      "stateMutability": "nonpayable",
      "type": "function"
    },
    {
      "inputs": [],
      "name": "getIdDataRaccoltaSerial",
      "outputs": [
        {
          "internalType": "uint256",
          "name": "",
          "type": "uint256"
        }
      ],
      "stateMutability": "view",
      "type": "function",
      "constant": true
    },
    {
      "inputs": [],
      "name": "getIdDatiFornitureSerial",
      "outputs": [
        {
          "internalType": "uint256",
          "name": "",
          "type": "uint256"
        }
      ],
      "stateMutability": "view",
      "type": "function",
      "constant": true
    },
    {
      "inputs": [],
      "name": "getIdDestinazioneUvaSerial",
      "outputs": [
        {
          "internalType": "uint256",
          "name": "",
          "type": "uint256"
        }
      ],
      "stateMutability": "view",
      "type": "function",
      "constant": true
    },
    {
      "inputs": [],
      "name": "getIdVenditaSerial",
      "outputs": [
        {
          "internalType": "uint256",
          "name": "",
          "type": "uint256"
        }
      ],
      "stateMutability": "view",
      "type": "function",
      "constant": true
    },
    {
      "inputs": [
        {
          "internalType": "uint256",
          "name": "_idTerreno",
          "type": "uint256"
        }
      ],
      "name": "getDataRaccolta",
      "outputs": [
        {
          "internalType": "string",
          "name": "",
          "type": "string"
        }
      ],
      "stateMutability": "view",
      "type": "function",
      "constant": true
    },
    {
      "inputs": [
        {
          "internalType": "uint256",
          "name": "_idTerreno",
          "type": "uint256"
        }
      ],
      "name": "getDatiForniture",
      "outputs": [
        {
          "internalType": "string",
          "name": "",
          "type": "string"
        }
      ],
      "stateMutability": "view",
      "type": "function",
      "constant": true
    },
    {
      "inputs": [
        {
          "internalType": "uint256",
          "name": "_idTerreno",
          "type": "uint256"
        }
      ],
      "name": "getDestinazioneUva",
      "outputs": [
        {
          "internalType": "string",
          "name": "",
          "type": "string"
        }
      ],
      "stateMutability": "view",
      "type": "function",
      "constant": true
    },
    {
      "inputs": [
        {
          "internalType": "uint256",
          "name": "_idVendita",
          "type": "uint256"
        }
      ],
      "name": "getDatiVendita",
      "outputs": [
        {
          "internalType": "string",
          "name": "",
          "type": "string"
        },
        {
          "internalType": "string",
          "name": "",
          "type": "string"
        },
        {
          "internalType": "string",
          "name": "",
          "type": "string"
        },
        {
          "internalType": "string",
          "name": "",
          "type": "string"
        },
        {
          "internalType": "string",
          "name": "",
          "type": "string"
        }
      ],
      "stateMutability": "view",
      "type": "function",
      "constant": true
    },
    {
      "inputs": [
        {
          "internalType": "uint256",
          "name": "_idTerreno",
          "type": "uint256"
        }
      ],
      "name": "getDatiSensoriViticoltore",
      "outputs": [
        {
          "internalType": "string",
          "name": "",
          "type": "string"
        },
        {
          "internalType": "string",
          "name": "",
          "type": "string"
        },
        {
          "internalType": "string",
          "name": "",
          "type": "string"
        },
        {
          "internalType": "string",
          "name": "",
          "type": "string"
        },
        {
          "internalType": "string",
          "name": "",
          "type": "string"
        }
      ],
      "stateMutability": "view",
      "type": "function",
      "constant": true
    },
    {
      "inputs": [
        {
          "internalType": "uint256",
          "name": "_idTerreno",
          "type": "uint256"
        }
      ],
      "name": "getUmiditaTerreno",
      "outputs": [
        {
          "internalType": "string",
          "name": "",
          "type": "string"
        }
      ],
      "stateMutability": "view",
      "type": "function",
      "constant": true
    },
    {
      "inputs": [
        {
          "internalType": "uint256",
          "name": "_idTerreno",
          "type": "uint256"
        }
      ],
      "name": "getTemperaturaTerreno",
      "outputs": [
        {
          "internalType": "string",
          "name": "",
          "type": "string"
        }
      ],
      "stateMutability": "view",
      "type": "function",
      "constant": true
    },
    {
      "inputs": [
        {
          "internalType": "uint256",
          "name": "_idTerreno",
          "type": "uint256"
        }
      ],
      "name": "getPioggiaTerreno",
      "outputs": [
        {
          "internalType": "string",
          "name": "",
          "type": "string"
        }
      ],
      "stateMutability": "view",
      "type": "function",
      "constant": true
    },
    {
      "inputs": [
        {
          "internalType": "uint256",
          "name": "_idTerreno",
          "type": "uint256"
        }
      ],
      "name": "getSuperficieTerreno",
      "outputs": [
        {
          "internalType": "string",
          "name": "",
          "type": "string"
        }
      ],
      "stateMutability": "view",
      "type": "function",
      "constant": true
    }
  ],
  "bytecode": "0x60806040526001600755600160085560016009556001600a553480156200002557600080fd5b50604051620027393803806200273983398181016040528101906200004b9190620001f3565b336000806101000a81548173ffffffffffffffffffffffffffffffffffffffff021916908373ffffffffffffffffffffffffffffffffffffffff16021790555060018060008060009054906101000a900473ffffffffffffffffffffffffffffffffffffffff1673ffffffffffffffffffffffffffffffffffffffff1673ffffffffffffffffffffffffffffffffffffffff16815260200190815260200160002060006101000a81548160ff02191690831515021790555080600260006101000a81548173ffffffffffffffffffffffffffffffffffffffff021916908373ffffffffffffffffffffffffffffffffffffffff160217905550600260009054906101000a900473ffffffffffffffffffffffffffffffffffffffff1673ffffffffffffffffffffffffffffffffffffffff1663cf1c316a306040518263ffffffff1660e01b8152600401620001a1919062000230565b600060405180830381600087803b158015620001bc57600080fd5b505af1158015620001d1573d6000803e3d6000fd5b50505050506200029b565b600081519050620001ed8162000281565b92915050565b6000602082840312156200020657600080fd5b60006200021684828501620001dc565b91505092915050565b6200022a816200024d565b82525050565b60006020820190506200024760008301846200021f565b92915050565b60006200025a8262000261565b9050919050565b600073ffffffffffffffffffffffffffffffffffffffff82169050919050565b6200028c816200024d565b81146200029857600080fd5b50565b61248e80620002ab6000396000f3fe608060405234801561001057600080fd5b50600436106101425760003560e01c80636e7f3344116100b8578063a597e0071161007c578063a597e007146103a3578063a7a2821d146103c1578063b1689d40146103dd578063b17e97301461040d578063b91816111461043d578063cf1c316a1461046d57610142565b80636e7f3344146102d55780638da5cb5b146102f15780639edd513f1461030f5780639f09e11c14610343578063a50159c91461037357610142565b80634b2cfa1e1161010a5780634b2cfa1e146101ef5780634b4301d91461020b5780634c89ffed1461023b5780634e7ad4001461026b578063635f715f146102895780636475ffdc146102a557610142565b80630c6faf241461014757806313a4db7b146101655780632e9c228314610199578063485d7d94146101b557806349422115146101d1575b600080fd5b61014f610489565b60405161015c91906121c3565b60405180910390f35b61017f600480360381019061017a9190611f05565b6104e9565b60405161019095949392919061212d565b60405180910390f35b6101b360048036038101906101ae9190611f2e565b610884565b005b6101cf60048036038101906101ca9190611cbf565b610963565b005b6101d9610a16565b6040516101e691906121c3565b60405180910390f35b61020960048036038101906102049190611ce8565b610a76565b005b61022560048036038101906102209190611f05565b610b14565b604051610232919061210b565b60405180910390f35b61025560048036038101906102509190611f05565b610bd6565b604051610262919061210b565b60405180910390f35b610273610c98565b60405161028091906121c3565b60405180910390f35b6102a3600480360381019061029e9190611dec565b610cf8565b005b6102bf60048036038101906102ba9190611f05565b610f8f565b6040516102cc919061210b565b60405180910390f35b6102ef60048036038101906102ea9190611ce8565b611051565b005b6102f96110ef565b60405161030691906120d5565b60405180910390f35b61032960048036038101906103249190611f05565b611113565b60405161033a95949392919061212d565b60405180910390f35b61035d60048036038101906103589190611f05565b611558565b60405161036a919061210b565b60405180910390f35b61038d60048036038101906103889190611f05565b611656565b60405161039a919061210b565b60405180910390f35b6103ab611718565b6040516103b891906121c3565b60405180910390f35b6103db60048036038101906103d69190611ce8565b611778565b005b6103f760048036038101906103f29190611f05565b611816565b604051610404919061210b565b60405180910390f35b61042760048036038101906104229190611f05565b611914565b604051610434919061210b565b60405180910390f35b61045760048036038101906104529190611cbf565b611a12565b60405161046491906120f0565b60405180910390f35b61048760048036038101906104829190611cbf565b611a32565b005b6000600160003373ffffffffffffffffffffffffffffffffffffffff1673ffffffffffffffffffffffffffffffffffffffff16815260200190815260200160002060009054906101000a900460ff166104e157600080fd5b600954905090565b6060806060806060600160003373ffffffffffffffffffffffffffffffffffffffff1673ffffffffffffffffffffffffffffffffffffffff16815260200190815260200160002060009054906101000a900460ff1661054757600080fd5b600460008781526020019081526020016000206003016004600088815260200190815260200160002060040160046000898152602001908152602001600020600501600460008a8152602001908152602001600020600601600460008b81526020019081526020016000206007018480546105c190612311565b80601f01602080910402602001604051908101604052809291908181526020018280546105ed90612311565b801561063a5780601f1061060f5761010080835404028352916020019161063a565b820191906000526020600020905b81548152906001019060200180831161061d57829003601f168201915b5050505050945083805461064d90612311565b80601f016020809104026020016040519081016040528092919081815260200182805461067990612311565b80156106c65780601f1061069b576101008083540402835291602001916106c6565b820191906000526020600020905b8154815290600101906020018083116106a957829003601f168201915b505050505093508280546106d990612311565b80601f016020809104026020016040519081016040528092919081815260200182805461070590612311565b80156107525780601f1061072757610100808354040283529160200191610752565b820191906000526020600020905b81548152906001019060200180831161073557829003601f168201915b5050505050925081805461076590612311565b80601f016020809104026020016040519081016040528092919081815260200182805461079190612311565b80156107de5780601f106107b3576101008083540402835291602001916107de565b820191906000526020600020905b8154815290600101906020018083116107c157829003601f168201915b505050505091508080546107f190612311565b80601f016020809104026020016040519081016040528092919081815260200182805461081d90612311565b801561086a5780601f1061083f5761010080835404028352916020019161086a565b820191906000526020600020905b81548152906001019060200180831161084d57829003601f168201915b505050505090509450945094509450945091939590929450565b846004600088815260200190815260200160002060030190805190602001906108ae929190611a8c565b50836004600088815260200190815260200160002060040190805190602001906108d9929190611a8c565b5082600460008881526020019081526020016000206005019080519060200190610904929190611a8c565b508160046000888152602001908152602001600020600601908051906020019061092f929190611a8c565b508060046000888152602001908152602001600020600701908051906020019061095a929190611a8c565b50505050505050565b60008054906101000a900473ffffffffffffffffffffffffffffffffffffffff1673ffffffffffffffffffffffffffffffffffffffff163373ffffffffffffffffffffffffffffffffffffffff16146109bb57600080fd5b6000600160008373ffffffffffffffffffffffffffffffffffffffff1673ffffffffffffffffffffffffffffffffffffffff16815260200190815260200160002060006101000a81548160ff02191690831515021790555050565b6000600160003373ffffffffffffffffffffffffffffffffffffffff1673ffffffffffffffffffffffffffffffffffffffff16815260200190815260200160002060009054906101000a900460ff16610a6e57600080fd5b600754905090565b600160003373ffffffffffffffffffffffffffffffffffffffff1673ffffffffffffffffffffffffffffffffffffffff16815260200190815260200160002060009054906101000a900460ff16610acc57600080fd5b806004600060075481526020019081526020016000206000019080519060200190610af8929190611a8c565b5060076000815480929190610b0c90612343565b919050555050565b60606000600260009054906101000a900473ffffffffffffffffffffffffffffffffffffffff1673ffffffffffffffffffffffffffffffffffffffff16635df6ec33846040518263ffffffff1660e01b8152600401610b7391906121c3565b60006040518083038186803b158015610b8b57600080fd5b505afa158015610b9f573d6000803e3d6000fd5b505050506040513d6000823e3d601f19601f82011682018060405250810190610bc89190611d29565b509250505080915050919050565b60606000600260009054906101000a900473ffffffffffffffffffffffffffffffffffffffff1673ffffffffffffffffffffffffffffffffffffffff16635df6ec33846040518263ffffffff1660e01b8152600401610c3591906121c3565b60006040518083038186803b158015610c4d57600080fd5b505afa158015610c61573d6000803e3d6000fd5b505050506040513d6000823e3d601f19601f82011682018060405250810190610c8a9190611d29565b505091505080915050919050565b6000600160003373ffffffffffffffffffffffffffffffffffffffff1673ffffffffffffffffffffffffffffffffffffffff16815260200190815260200160002060009054906101000a900460ff16610cf057600080fd5b600854905090565b600160003373ffffffffffffffffffffffffffffffffffffffff1673ffffffffffffffffffffffffffffffffffffffff16815260200190815260200160002060009054906101000a900460ff16610d4e57600080fd5b8560056000600a5481526020019081526020016000206001019080519060200190610d7a929190611a8c565b508460056000600a5481526020019081526020016000206000019080519060200190610da7929190611a8c565b508360056000600a5481526020019081526020016000206002019080519060200190610dd4929190611a8c565b508260056000600a5481526020019081526020016000206004019080519060200190610e01929190611a8c565b508160056000600a5481526020019081526020016000206003019080519060200190610e2e929190611a8c565b5060005b8151811015610f6e57600073ffffffffffffffffffffffffffffffffffffffff16828281518110610e8c577f4e487b7100000000000000000000000000000000000000000000000000000000600052603260045260246000fd5b602002602001015173ffffffffffffffffffffffffffffffffffffffff1614610f5b57600160066000600a5481526020019081526020016000206000848481518110610f01577f4e487b7100000000000000000000000000000000000000000000000000000000600052603260045260246000fd5b602002602001015173ffffffffffffffffffffffffffffffffffffffff1673ffffffffffffffffffffffffffffffffffffffff16815260200190815260200160002060006101000a81548160ff0219169083151502179055505b8080610f6690612343565b915050610e32565b50600a6000815480929190610f8290612343565b9190505550505050505050565b60606000600260009054906101000a900473ffffffffffffffffffffffffffffffffffffffff1673ffffffffffffffffffffffffffffffffffffffff16635df6ec33846040518263ffffffff1660e01b8152600401610fee91906121c3565b60006040518083038186803b15801561100657600080fd5b505afa15801561101a573d6000803e3d6000fd5b505050506040513d6000823e3d601f19601f820116820180604052508101906110439190611d29565b505050905080915050919050565b600160003373ffffffffffffffffffffffffffffffffffffffff1673ffffffffffffffffffffffffffffffffffffffff16815260200190815260200160002060009054906101000a900460ff166110a757600080fd5b8060046000600854815260200190815260200160002060010190805190602001906110d3929190611a8c565b50600860008154809291906110e790612343565b919050555050565b60008054906101000a900473ffffffffffffffffffffffffffffffffffffffff1681565b6060806060806060600160003373ffffffffffffffffffffffffffffffffffffffff1673ffffffffffffffffffffffffffffffffffffffff16815260200190815260200160002060009054906101000a900460ff1661117157600080fd5b600115156006600088815260200190815260200160002060003373ffffffffffffffffffffffffffffffffffffffff1673ffffffffffffffffffffffffffffffffffffffff16815260200190815260200160002060009054906101000a900460ff161515141561151457600560008781526020019081526020016000206001016005600088815260200190815260200160002060000160056000898152602001908152602001600020600201600560008a8152602001908152602001600020600401600560008b815260200190815260200160002060030184805461125590612311565b80601f016020809104026020016040519081016040528092919081815260200182805461128190612311565b80156112ce5780601f106112a3576101008083540402835291602001916112ce565b820191906000526020600020905b8154815290600101906020018083116112b157829003601f168201915b505050505094508380546112e190612311565b80601f016020809104026020016040519081016040528092919081815260200182805461130d90612311565b801561135a5780601f1061132f5761010080835404028352916020019161135a565b820191906000526020600020905b81548152906001019060200180831161133d57829003601f168201915b5050505050935082805461136d90612311565b80601f016020809104026020016040519081016040528092919081815260200182805461139990612311565b80156113e65780601f106113bb576101008083540402835291602001916113e6565b820191906000526020600020905b8154815290600101906020018083116113c957829003601f168201915b505050505092508180546113f990612311565b80601f016020809104026020016040519081016040528092919081815260200182805461142590612311565b80156114725780601f1061144757610100808354040283529160200191611472565b820191906000526020600020905b81548152906001019060200180831161145557829003601f168201915b5050505050915080805461148590612311565b80601f01602080910402602001604051908101604052809291908181526020018280546114b190612311565b80156114fe5780601f106114d3576101008083540402835291602001916114fe565b820191906000526020600020905b8154815290600101906020018083116114e157829003601f168201915b505050505090509450945094509450945061154f565b6040517f08c379a0000000000000000000000000000000000000000000000000000000008152600401611546906121a3565b60405180910390fd5b91939590929450565b6060600160003373ffffffffffffffffffffffffffffffffffffffff1673ffffffffffffffffffffffffffffffffffffffff16815260200190815260200160002060009054906101000a900460ff166115b057600080fd5b6004600083815260200190815260200160002060010180546115d190612311565b80601f01602080910402602001604051908101604052809291908181526020018280546115fd90612311565b801561164a5780601f1061161f5761010080835404028352916020019161164a565b820191906000526020600020905b81548152906001019060200180831161162d57829003601f168201915b50505050509050919050565b60606000600260009054906101000a900473ffffffffffffffffffffffffffffffffffffffff1673ffffffffffffffffffffffffffffffffffffffff16635df6ec33846040518263ffffffff1660e01b81526004016116b591906121c3565b60006040518083038186803b1580156116cd57600080fd5b505afa1580156116e1573d6000803e3d6000fd5b505050506040513d6000823e3d601f19601f8201168201806040525081019061170a9190611d29565b935050505080915050919050565b6000600160003373ffffffffffffffffffffffffffffffffffffffff1673ffffffffffffffffffffffffffffffffffffffff16815260200190815260200160002060009054906101000a900460ff1661177057600080fd5b600a54905090565b600160003373ffffffffffffffffffffffffffffffffffffffff1673ffffffffffffffffffffffffffffffffffffffff16815260200190815260200160002060009054906101000a900460ff166117ce57600080fd5b8060046000600954815260200190815260200160002060020190805190602001906117fa929190611a8c565b506009600081548092919061180e90612343565b919050555050565b6060600160003373ffffffffffffffffffffffffffffffffffffffff1673ffffffffffffffffffffffffffffffffffffffff16815260200190815260200160002060009054906101000a900460ff1661186e57600080fd5b60046000838152602001908152602001600020600201805461188f90612311565b80601f01602080910402602001604051908101604052809291908181526020018280546118bb90612311565b80156119085780601f106118dd57610100808354040283529160200191611908565b820191906000526020600020905b8154815290600101906020018083116118eb57829003601f168201915b50505050509050919050565b6060600160003373ffffffffffffffffffffffffffffffffffffffff1673ffffffffffffffffffffffffffffffffffffffff16815260200190815260200160002060009054906101000a900460ff1661196c57600080fd5b60046000838152602001908152602001600020600001805461198d90612311565b80601f01602080910402602001604051908101604052809291908181526020018280546119b990612311565b8015611a065780601f106119db57610100808354040283529160200191611a06565b820191906000526020600020905b8154815290600101906020018083116119e957829003601f168201915b50505050509050919050565b60016020528060005260406000206000915054906101000a900460ff1681565b60018060008373ffffffffffffffffffffffffffffffffffffffff1673ffffffffffffffffffffffffffffffffffffffff16815260200190815260200160002060006101000a81548160ff02191690831515021790555050565b828054611a9890612311565b90600052602060002090601f016020900481019282611aba5760008555611b01565b82601f10611ad357805160ff1916838001178555611b01565b82800160010185558215611b01579182015b82811115611b00578251825591602001919060010190611ae5565b5b509050611b0e9190611b12565b5090565b5b80821115611b2b576000816000905550600101611b13565b5090565b6000611b42611b3d8461220f565b6121de565b90508083825260208201905082856020860282011115611b6157600080fd5b60005b85811015611b915781611b778882611c17565b845260208401935060208301925050600181019050611b64565b5050509392505050565b6000611bae611ba98461223b565b6121de565b905082815260208101848484011115611bc657600080fd5b611bd18482856122cf565b509392505050565b6000611bec611be78461223b565b6121de565b905082815260208101848484011115611c0457600080fd5b611c0f8482856122de565b509392505050565b600081359050611c268161242a565b92915050565b600082601f830112611c3d57600080fd5b8135611c4d848260208601611b2f565b91505092915050565b600082601f830112611c6757600080fd5b8135611c77848260208601611b9b565b91505092915050565b600082601f830112611c9157600080fd5b8151611ca1848260208601611bd9565b91505092915050565b600081359050611cb981612441565b92915050565b600060208284031215611cd157600080fd5b6000611cdf84828501611c17565b91505092915050565b600060208284031215611cfa57600080fd5b600082013567ffffffffffffffff811115611d1457600080fd5b611d2084828501611c56565b91505092915050565b60008060008060808587031215611d3f57600080fd5b600085015167ffffffffffffffff811115611d5957600080fd5b611d6587828801611c80565b945050602085015167ffffffffffffffff811115611d8257600080fd5b611d8e87828801611c80565b935050604085015167ffffffffffffffff811115611dab57600080fd5b611db787828801611c80565b925050606085015167ffffffffffffffff811115611dd457600080fd5b611de087828801611c80565b91505092959194509250565b60008060008060008060c08789031215611e0557600080fd5b600087013567ffffffffffffffff811115611e1f57600080fd5b611e2b89828a01611c56565b965050602087013567ffffffffffffffff811115611e4857600080fd5b611e5489828a01611c56565b955050604087013567ffffffffffffffff811115611e7157600080fd5b611e7d89828a01611c56565b945050606087013567ffffffffffffffff811115611e9a57600080fd5b611ea689828a01611c56565b935050608087013567ffffffffffffffff811115611ec357600080fd5b611ecf89828a01611c56565b92505060a087013567ffffffffffffffff811115611eec57600080fd5b611ef889828a01611c2c565b9150509295509295509295565b600060208284031215611f1757600080fd5b6000611f2584828501611caa565b91505092915050565b60008060008060008060c08789031215611f4757600080fd5b6000611f5589828a01611caa565b965050602087013567ffffffffffffffff811115611f7257600080fd5b611f7e89828a01611c56565b955050604087013567ffffffffffffffff811115611f9b57600080fd5b611fa789828a01611c56565b945050606087013567ffffffffffffffff811115611fc457600080fd5b611fd089828a01611c56565b935050608087013567ffffffffffffffff811115611fed57600080fd5b611ff989828a01611c56565b92505060a087013567ffffffffffffffff81111561201657600080fd5b61202289828a01611c56565b9150509295509295509295565b61203881612287565b82525050565b61204781612299565b82525050565b60006120588261226b565b6120628185612276565b93506120728185602086016122de565b61207b81612419565b840191505092915050565b6000612093601683612276565b91507f5574656e7465206e6f6e206175746f72697a7a61746f000000000000000000006000830152602082019050919050565b6120cf816122c5565b82525050565b60006020820190506120ea600083018461202f565b92915050565b6000602082019050612105600083018461203e565b92915050565b60006020820190508181036000830152612125818461204d565b905092915050565b600060a0820190508181036000830152612147818861204d565b9050818103602083015261215b818761204d565b9050818103604083015261216f818661204d565b90508181036060830152612183818561204d565b90508181036080830152612197818461204d565b90509695505050505050565b600060208201905081810360008301526121bc81612086565b9050919050565b60006020820190506121d860008301846120c6565b92915050565b6000604051905081810181811067ffffffffffffffff82111715612205576122046123ea565b5b8060405250919050565b600067ffffffffffffffff82111561222a576122296123ea565b5b602082029050602081019050919050565b600067ffffffffffffffff821115612256576122556123ea565b5b601f19601f8301169050602081019050919050565b600081519050919050565b600082825260208201905092915050565b6000612292826122a5565b9050919050565b60008115159050919050565b600073ffffffffffffffffffffffffffffffffffffffff82169050919050565b6000819050919050565b82818337600083830152505050565b60005b838110156122fc5780820151818401526020810190506122e1565b8381111561230b576000848401525b50505050565b6000600282049050600182168061232957607f821691505b6020821081141561233d5761233c6123bb565b5b50919050565b600061234e826122c5565b91507fffffffffffffffffffffffffffffffffffffffffffffffffffffffffffffffff8214156123815761238061238c565b5b600182019050919050565b7f4e487b7100000000000000000000000000000000000000000000000000000000600052601160045260246000fd5b7f4e487b7100000000000000000000000000000000000000000000000000000000600052602260045260246000fd5b7f4e487b7100000000000000000000000000000000000000000000000000000000600052604160045260246000fd5b6000601f19601f8301169050919050565b61243381612287565b811461243e57600080fd5b50565b61244a816122c5565b811461245557600080fd5b5056fea2646970667358221220d6eb752f8cd4d3eb51e76377a3b7445fee34fb06a2527359b9ba1a40191fcea464736f6c63430008000033",
  "immutableReferences": {},
  "source": "// SPDX-License-Identifier: MIT\r\npragma solidity ^0.8.0;\r\n\r\nimport \"./Agronomo.sol\";\r\nimport \"./Customer.sol\";\r\n\r\ncontract Viticoltore {\r\n\r\n    //dati per autorizzazioni alle chiamate delle funzioni\r\n    address public owner;\r\n    mapping(address => bool) public authorized;\r\n\r\n    Agronomo agronomoContract;\r\n    Customer customerContract;\r\n\r\n    constructor(address _agronomoContractAddress/*, address _customerContractAddress*/)  {\r\n        owner = msg.sender;\r\n        authorized[owner] = true; //solo per fare test, oppure  un'opzione valida se il deploy viene fatto da ogni singolo attore in maniera indipendente.\r\n        agronomoContract = Agronomo(_agronomoContractAddress);\r\n        //customerContract = Customer(_customerContractAddress);\r\n        agronomoContract.addAuthorized(address(this));\r\n\r\n    }\r\n\r\n    //dividere le istanze per terreni\r\n\r\n    struct DatiViticoltore {\r\n\r\n    //dati funzioni inserimento manuale\r\n    string dataRaccolta;\r\n    string datiForniture;\r\n    string destinazioneUva;\r\n\r\n\r\n    //dati funzioni simulatore\r\n    string quantitaUvaRaccolta;\r\n    string tipologiaUva;\r\n    string umidita;\r\n    string temperatura;\r\n    string quantitaFertilizzanti;\r\n\r\n    }\r\n\r\n    struct datiVendita {\r\n        string prezzoVendita;\r\n        string nomeProdotto;\r\n        string quantita;\r\n        string dataVendita;\r\n        string nomeCliente;\r\n    }\r\n\r\n    mapping(uint256 => DatiViticoltore) terreni;\r\n    mapping(uint256 => datiVendita) vendite;\r\n    mapping(uint => mapping(address => bool)) allowedAddressesVendite; //mapping per le autirizzazioni sulle get di vendita\r\n\r\n    /*identificativi funzioni terreni e vendite*/\r\n    uint256 idDataRaccoltaSerial = 1;\r\n    uint256 idDatiFornitureSerial = 1;\r\n    uint256 idDestinazioneUvaSerial = 1;\r\n    uint256 idVenditaSerial = 1;\r\n\r\n\r\n    //funzioni di autorizzazione\r\n    function addAuthorized(address _address) public {\r\n        //require(msg.sender == owner); Da tenere solo per testing e comodit, a lavoro definitivo va levata.\r\n        authorized[_address] = true;\r\n    }\r\n\r\n    function removeAuthorized(address _address) public {\r\n        require(msg.sender == owner);\r\n        authorized[_address] = false;\r\n    }\r\n\r\n    //funzioni manuali\r\n    /* esempio per gestire decimali, BISOGNA INSERIRE IN INPUT IN QUESTO MODO: EX, 125,76 VA INSERITO COME => 12576, CHE VERRA' RAPPRESENTATO COME 1257600 E BISOGNA INTERPRETARE I 2\r\n    ZERI COME I DECIMALI, QUINDI LEGGERLO COME 125,76\r\n    function setDataRaccolta(uint256 _idTerreno, uint256 _dataRaccolta) public {\r\n        uint256 decimals = 2;\r\n        terreni[_idTerreno].dataRaccolta = _dataRaccolta * (10**decimals);\r\n    }\r\n    */\r\n\r\n    function setDataRaccolta(string memory _dataRaccolta) public {\r\n        require(authorized[msg.sender]);\r\n        terreni[idDataRaccoltaSerial].dataRaccolta = _dataRaccolta;\r\n        //customerContract.setDataRaccolta(idDataRaccoltaSerial, _dataRaccolta);\r\n        idDataRaccoltaSerial++;\r\n    }\r\n\r\n    function setDatiForniture(string memory _datiForniture) public{\r\n        require(authorized[msg.sender]);\r\n        terreni[idDatiFornitureSerial].datiForniture = _datiForniture;\r\n        //customerContract.setDatiForniture(idDatiFornitureSerial, _datiForniture);\r\n        idDatiFornitureSerial++;\r\n    }\r\n\r\n   function setDestinazioneUva(string memory _destinazioneUva) public {\r\n       require(authorized[msg.sender]);\r\n       terreni[idDestinazioneUvaSerial].destinazioneUva = _destinazioneUva;\r\n       //customerContract.setDestinazioneUva(idDestinazioneUvaSerial, _destinazioneUva);\r\n       idDestinazioneUvaSerial++;\r\n   }\r\n\r\n   function setVendita(string memory _nomeProdotto,string memory _prezzoVendita, string memory _quantita, string memory _nomeCliente,\r\n            string memory _dataVendita, address[] memory _addresses) public {\r\n       require(authorized[msg.sender]);\r\n       vendite[idVenditaSerial].nomeProdotto = _nomeProdotto;\r\n       vendite[idVenditaSerial].prezzoVendita = _prezzoVendita;\r\n       vendite[idVenditaSerial].quantita = _quantita;\r\n       vendite[idVenditaSerial].nomeCliente = _nomeCliente;\r\n       vendite[idVenditaSerial].dataVendita = _dataVendita;\r\n\r\n       for(uint i=0; i<_addresses.length; i++){ //ciclo necessario a definire gli address forniti in input come \"trusted\"\r\n            if(_addresses[i] != address(0)){ //entra in azione solo de gli address forniti sono diversi dall'address nullo (0x0000000000000...)\r\n                allowedAddressesVendite[idVenditaSerial][_addresses[i]] = true; //salva gli address inseriti e li definisce \"trusted\" attraverso il parametro booleano \"true\"\r\n            }\r\n        } \r\n\r\n       idVenditaSerial++;\r\n       /*vendite[_idVendita].nomeCliente = _nomeCliente;*/\r\n   }\r\n\r\n    //funzione automatiche\r\n    function setSensoriViticoltore(uint256 _idTerreno, string memory _quantitaUvaRaccolta, string memory _tipologiaUva, string memory _umidita, string memory _temperatura, string memory _quantitaFertilizzanti) public {\r\n\r\n        terreni[_idTerreno].quantitaUvaRaccolta = _quantitaUvaRaccolta;\r\n        terreni[_idTerreno].tipologiaUva = _tipologiaUva;\r\n        terreni[_idTerreno].umidita = _umidita;\r\n        terreni[_idTerreno].temperatura = _temperatura;\r\n        terreni[_idTerreno].quantitaFertilizzanti = _quantitaFertilizzanti;\r\n\r\n    }\r\n\r\n    //funzioni di get\r\n    function getIdDataRaccoltaSerial() public view returns(uint256){\r\n        require(authorized[msg.sender]);\r\n        return idDataRaccoltaSerial;\r\n    }\r\n\r\n    function getIdDatiFornitureSerial() public view returns(uint256){\r\n        require(authorized[msg.sender]);\r\n        return idDatiFornitureSerial;\r\n    }\r\n\r\n    function getIdDestinazioneUvaSerial() public view returns(uint256){\r\n        require(authorized[msg.sender]);\r\n        return idDestinazioneUvaSerial;\r\n    }\r\n\r\n    function getIdVenditaSerial() public view returns(uint256){\r\n        require(authorized[msg.sender]);\r\n        return idVenditaSerial;\r\n    }\r\n\r\n    function getDataRaccolta(uint256 _idTerreno) public view returns(string memory) {\r\n        require(authorized[msg.sender]);\r\n        return terreni[_idTerreno].dataRaccolta;\r\n    }\r\n\r\n    function getDatiForniture(uint256 _idTerreno) public view returns(string memory) {\r\n        require(authorized[msg.sender]);\r\n        return terreni[_idTerreno].datiForniture;\r\n    }\r\n\r\n    function getDestinazioneUva(uint256 _idTerreno) public view returns(string memory) {\r\n        require(authorized[msg.sender]);\r\n        return terreni[_idTerreno].destinazioneUva;\r\n    }\r\n\r\n    function getDatiVendita(uint256 _idVendita) public view returns(string memory, string memory, string memory, string memory, string memory) {\r\n        require(authorized[msg.sender]);\r\n        \r\n        if (allowedAddressesVendite[_idVendita][msg.sender] == true) { //\"msg.sender\" rappresenta l'address di chi sta chiamando il metodo.\r\n           return (vendite[_idVendita].nomeProdotto, vendite[_idVendita].prezzoVendita, vendite[_idVendita].quantita, vendite[_idVendita].nomeCliente,\r\n            vendite[_idVendita].dataVendita);\r\n        } else {\r\n            revert(\"Utente non autorizzato\"); //revert() interrompe l'esecuzione della transazione e la annulla, in questo caso mostra anche un messaggio di warning.\r\n        }\r\n    }\r\n\r\n    function getDatiSensoriViticoltore(uint256 _idTerreno) public view returns(string memory, string memory, string memory, string memory, string memory) {\r\n        require(authorized[msg.sender]);\r\n        return (terreni[_idTerreno].quantitaUvaRaccolta, terreni[_idTerreno].tipologiaUva, terreni[_idTerreno].umidita, terreni[_idTerreno].temperatura, terreni[_idTerreno].quantitaFertilizzanti);\r\n    }\r\n\r\n    //funzioni di get Da Agronomo\r\n    function getUmiditaTerreno(uint256 _idTerreno) public view returns(string memory) {\r\n         (, string memory umiditaTerreno, ,) = agronomoContract.getDatiSensoriAgronomo(_idTerreno);\r\n         return umiditaTerreno;\r\n    }\r\n\r\n    function getTemperaturaTerreno(uint256 _idTerreno) public view returns(string memory) {\r\n         (,, string memory temperaturaTerreno,) = agronomoContract.getDatiSensoriAgronomo(_idTerreno);\r\n         return temperaturaTerreno;\r\n    }\r\n\r\n    function getPioggiaTerreno(uint256 _idTerreno) public view returns(string memory) {\r\n        (,,, string memory pioggiaterreno) = agronomoContract.getDatiSensoriAgronomo(_idTerreno);\r\n        return pioggiaterreno;\r\n    }\r\n\r\n    function getSuperficieTerreno(uint256 _idTerreno) public view returns(string memory) {\r\n        (string memory superficieTerreno,,,) = agronomoContract.getDatiSensoriAgronomo(_idTerreno);\r\n        return superficieTerreno;\r\n    }\r\n\r\n}\r\n",
  "sourcePath": "C:\\Users\\Erman\\OneDrive\\BinTraWine_github\\BinTraWine\\contracts\\Viticoltore.sol",
  "compiler": {
    "name": "solc",
    "version": "0.8.0+commit.c7dfd78e.Emscripten.clang"
  },
  "schemaVersion": "3.4.13",
  "updatedAt": "2023-05-23T16:24:02.979Z",
  "networkType": "quorum",
  "devdoc": {
    "kind": "dev",
    "methods": {},
    "version": 1
  },
  "userdoc": {
    "kind": "user",
    "methods": {},
    "version": 1
  }
}