{
  "contractName": "Viticoltore",
  "abi": [
    {
      "inputs": [
        {
          "internalType": "address",
          "name": "_agronomoContractAddress",
          "type": "address"
        }
      ],
      "stateMutability": "nonpayable",
      "type": "constructor"
    },
    {
      "inputs": [
        {
          "internalType": "address",
          "name": "",
          "type": "address"
        }
      ],
      "name": "authorized",
      "outputs": [
        {
          "internalType": "bool",
          "name": "",
          "type": "bool"
        }
      ],
      "stateMutability": "view",
      "type": "function",
      "constant": true
    },
    {
      "inputs": [],
      "name": "owner",
      "outputs": [
        {
          "internalType": "address",
          "name": "",
          "type": "address"
        }
      ],
      "stateMutability": "view",
      "type": "function",
      "constant": true
    },
    {
      "inputs": [
        {
          "internalType": "address",
          "name": "_address",
          "type": "address"
        }
      ],
      "name": "addAuthorized",
      "outputs": [],
      "stateMutability": "nonpayable",
      "type": "function"
    },
    {
      "inputs": [
        {
          "internalType": "address",
          "name": "_address",
          "type": "address"
        }
      ],
      "name": "removeAuthorized",
      "outputs": [],
      "stateMutability": "nonpayable",
      "type": "function"
    },
    {
      "inputs": [
        {
          "internalType": "string",
          "name": "_dataRaccolta",
          "type": "string"
        }
      ],
      "name": "setDataRaccolta",
      "outputs": [],
      "stateMutability": "nonpayable",
      "type": "function"
    },
    {
      "inputs": [
        {
          "internalType": "string",
          "name": "_datiForniture",
          "type": "string"
        }
      ],
      "name": "setDatiForniture",
      "outputs": [],
      "stateMutability": "nonpayable",
      "type": "function"
    },
    {
      "inputs": [
        {
          "internalType": "string",
          "name": "_destinazioneUva",
          "type": "string"
        }
      ],
      "name": "setDestinazioneUva",
      "outputs": [],
      "stateMutability": "nonpayable",
      "type": "function"
    },
    {
      "inputs": [
        {
          "internalType": "string",
          "name": "_nomeProdotto",
          "type": "string"
        },
        {
          "internalType": "string",
          "name": "_prezzoVendita",
          "type": "string"
        },
        {
          "internalType": "string",
          "name": "_quantita",
          "type": "string"
        },
        {
          "internalType": "string",
          "name": "_nomeCliente",
          "type": "string"
        },
        {
          "internalType": "string",
          "name": "_dataVendita",
          "type": "string"
        },
        {
          "internalType": "address[]",
          "name": "_addresses",
          "type": "address[]"
        }
      ],
      "name": "setVendita",
      "outputs": [],
      "stateMutability": "nonpayable",
      "type": "function"
    },
    {
      "inputs": [
        {
          "internalType": "uint256",
          "name": "_idTerreno",
          "type": "uint256"
        },
        {
          "internalType": "string",
          "name": "_quantitaUvaRaccolta",
          "type": "string"
        },
        {
          "internalType": "string",
          "name": "_tipologiaUva",
          "type": "string"
        },
        {
          "internalType": "string",
          "name": "_umidita",
          "type": "string"
        },
        {
          "internalType": "string",
          "name": "_temperatura",
          "type": "string"
        },
        {
          "internalType": "string",
          "name": "_quantitaFertilizzanti",
          "type": "string"
        }
      ],
      "name": "setSensoriViticoltore",
      "outputs": [],
      "stateMutability": "nonpayable",
      "type": "function"
    },
    {
      "inputs": [],
      "name": "getMappingTerreniLength",
      "outputs": [
        {
          "internalType": "uint256",
          "name": "",
          "type": "uint256"
        }
      ],
      "stateMutability": "view",
      "type": "function",
      "constant": true
    },
    {
      "inputs": [],
      "name": "queryDataUvaRaccolta",
      "outputs": [
        {
          "internalType": "string[]",
          "name": "",
          "type": "string[]"
        },
        {
          "internalType": "uint256[]",
          "name": "",
          "type": "uint256[]"
        }
      ],
      "stateMutability": "view",
      "type": "function",
      "constant": true
    },
    {
      "inputs": [],
      "name": "getMappingVenditeLength",
      "outputs": [
        {
          "internalType": "uint256",
          "name": "",
          "type": "uint256"
        }
      ],
      "stateMutability": "view",
      "type": "function",
      "constant": true
    },
    {
      "inputs": [],
      "name": "queryNomiClientiQuantita",
      "outputs": [
        {
          "internalType": "string[]",
          "name": "",
          "type": "string[]"
        },
        {
          "internalType": "uint256[]",
          "name": "",
          "type": "uint256[]"
        }
      ],
      "stateMutability": "view",
      "type": "function",
      "constant": true
    },
    {
      "inputs": [],
      "name": "getIdDataRaccoltaSerial",
      "outputs": [
        {
          "internalType": "uint256",
          "name": "",
          "type": "uint256"
        }
      ],
      "stateMutability": "view",
      "type": "function",
      "constant": true
    },
    {
      "inputs": [],
      "name": "getIdDatiFornitureSerial",
      "outputs": [
        {
          "internalType": "uint256",
          "name": "",
          "type": "uint256"
        }
      ],
      "stateMutability": "view",
      "type": "function",
      "constant": true
    },
    {
      "inputs": [],
      "name": "getIdDestinazioneUvaSerial",
      "outputs": [
        {
          "internalType": "uint256",
          "name": "",
          "type": "uint256"
        }
      ],
      "stateMutability": "view",
      "type": "function",
      "constant": true
    },
    {
      "inputs": [],
      "name": "getIdVenditaSerial",
      "outputs": [
        {
          "internalType": "uint256",
          "name": "",
          "type": "uint256"
        }
      ],
      "stateMutability": "view",
      "type": "function",
      "constant": true
    },
    {
      "inputs": [
        {
          "internalType": "uint256",
          "name": "_idTerreno",
          "type": "uint256"
        }
      ],
      "name": "getDataRaccolta",
      "outputs": [
        {
          "internalType": "string",
          "name": "",
          "type": "string"
        }
      ],
      "stateMutability": "view",
      "type": "function",
      "constant": true
    },
    {
      "inputs": [
        {
          "internalType": "uint256",
          "name": "_idTerreno",
          "type": "uint256"
        }
      ],
      "name": "getDatiForniture",
      "outputs": [
        {
          "internalType": "string",
          "name": "",
          "type": "string"
        }
      ],
      "stateMutability": "view",
      "type": "function",
      "constant": true
    },
    {
      "inputs": [
        {
          "internalType": "uint256",
          "name": "_idTerreno",
          "type": "uint256"
        }
      ],
      "name": "getDestinazioneUva",
      "outputs": [
        {
          "internalType": "string",
          "name": "",
          "type": "string"
        }
      ],
      "stateMutability": "view",
      "type": "function",
      "constant": true
    },
    {
      "inputs": [
        {
          "internalType": "uint256",
          "name": "_idVendita",
          "type": "uint256"
        }
      ],
      "name": "getDatiVendita",
      "outputs": [
        {
          "internalType": "string",
          "name": "",
          "type": "string"
        },
        {
          "internalType": "string",
          "name": "",
          "type": "string"
        },
        {
          "internalType": "string",
          "name": "",
          "type": "string"
        },
        {
          "internalType": "string",
          "name": "",
          "type": "string"
        },
        {
          "internalType": "string",
          "name": "",
          "type": "string"
        }
      ],
      "stateMutability": "view",
      "type": "function",
      "constant": true
    },
    {
      "inputs": [
        {
          "internalType": "uint256",
          "name": "_idTerreno",
          "type": "uint256"
        }
      ],
      "name": "getDatiSensoriViticoltore",
      "outputs": [
        {
          "internalType": "string",
          "name": "",
          "type": "string"
        },
        {
          "internalType": "string",
          "name": "",
          "type": "string"
        },
        {
          "internalType": "string",
          "name": "",
          "type": "string"
        },
        {
          "internalType": "string",
          "name": "",
          "type": "string"
        },
        {
          "internalType": "string",
          "name": "",
          "type": "string"
        }
      ],
      "stateMutability": "view",
      "type": "function",
      "constant": true
    },
    {
      "inputs": [
        {
          "internalType": "uint256",
          "name": "_idTerreno",
          "type": "uint256"
        }
      ],
      "name": "getUmiditaTerreno",
      "outputs": [
        {
          "internalType": "string",
          "name": "",
          "type": "string"
        }
      ],
      "stateMutability": "view",
      "type": "function",
      "constant": true
    },
    {
      "inputs": [
        {
          "internalType": "uint256",
          "name": "_idTerreno",
          "type": "uint256"
        }
      ],
      "name": "getTemperaturaTerreno",
      "outputs": [
        {
          "internalType": "string",
          "name": "",
          "type": "string"
        }
      ],
      "stateMutability": "view",
      "type": "function",
      "constant": true
    },
    {
      "inputs": [
        {
          "internalType": "uint256",
          "name": "_idTerreno",
          "type": "uint256"
        }
      ],
      "name": "getPioggiaTerreno",
      "outputs": [
        {
          "internalType": "string",
          "name": "",
          "type": "string"
        }
      ],
      "stateMutability": "view",
      "type": "function",
      "constant": true
    },
    {
      "inputs": [
        {
          "internalType": "uint256",
          "name": "_idTerreno",
          "type": "uint256"
        }
      ],
      "name": "getSuperficieTerreno",
      "outputs": [
        {
          "internalType": "string",
          "name": "",
          "type": "string"
        }
      ],
      "stateMutability": "view",
      "type": "function",
      "constant": true
    }
  ],
  "bytecode": "0x60806040526001600755600160085560016009556001600a556001600b553480156200002a57600080fd5b5060405162003737380380620037378339818101604052810190620000509190620001f8565b336000806101000a81548173ffffffffffffffffffffffffffffffffffffffff021916908373ffffffffffffffffffffffffffffffffffffffff16021790555060018060008060009054906101000a900473ffffffffffffffffffffffffffffffffffffffff1673ffffffffffffffffffffffffffffffffffffffff1673ffffffffffffffffffffffffffffffffffffffff16815260200190815260200160002060006101000a81548160ff02191690831515021790555080600260006101000a81548173ffffffffffffffffffffffffffffffffffffffff021916908373ffffffffffffffffffffffffffffffffffffffff160217905550600260009054906101000a900473ffffffffffffffffffffffffffffffffffffffff1673ffffffffffffffffffffffffffffffffffffffff1663cf1c316a306040518263ffffffff1660e01b8152600401620001a6919062000235565b600060405180830381600087803b158015620001c157600080fd5b505af1158015620001d6573d6000803e3d6000fd5b5050505050620002a0565b600081519050620001f28162000286565b92915050565b6000602082840312156200020b57600080fd5b60006200021b84828501620001e1565b91505092915050565b6200022f8162000252565b82525050565b60006020820190506200024c600083018462000224565b92915050565b60006200025f8262000266565b9050919050565b600073ffffffffffffffffffffffffffffffffffffffff82169050919050565b620002918162000252565b81146200029d57600080fd5b50565b61348780620002b06000396000f3fe608060405234801561001057600080fd5b506004361061018e5760003560e01c80638ae35336116100de578063a7a2821d11610097578063b918161111610071578063b9181611146104c6578063c57f214f146104f6578063cf1c316a14610515578063eaed3635146105315761018e565b8063a7a2821d1461044a578063b1689d4014610466578063b17e9730146104965761018e565b80638ae353361461035b5780638da5cb5b1461037a5780639edd513f146103985780639f09e11c146103cc578063a50159c9146103fc578063a597e0071461042c5761018e565b80634b4301d91161014b578063635f715f11610125578063635f715f146102d55780636475ffdc146102f15780636e7f334414610321578063755460331461033d5761018e565b80634b4301d9146102575780634c89ffed146102875780634e7ad400146102b75761018e565b80630c6faf241461019357806313a4db7b146101b15780632e9c2283146101e5578063485d7d9414610201578063494221151461021d5780634b2cfa1e1461023b575b600080fd5b61019b61054f565b6040516101a8919061304a565b60405180910390f35b6101cb60048036038101906101c69190612bc6565b6105af565b6040516101dc959493929190612fb4565b60405180910390f35b6101ff60048036038101906101fa9190612bef565b61094a565b005b61021b60048036038101906102169190612980565b610b15565b005b610225610bc8565b604051610232919061304a565b60405180910390f35b610255600480360381019061025091906129a9565b610c28565b005b610271600480360381019061026c9190612bc6565b610cc6565b60405161027e9190612f92565b60405180910390f35b6102a1600480360381019061029c9190612bc6565b610d88565b6040516102ae9190612f92565b60405180910390f35b6102bf610e4a565b6040516102cc919061304a565b60405180910390f35b6102ef60048036038101906102ea9190612aad565b610eaa565b005b61030b60048036038101906103069190612bc6565b611258565b6040516103189190612f92565b60405180910390f35b61033b600480360381019061033691906129a9565b61131a565b005b6103456113b8565b604051610352919061304a565b60405180910390f35b610363611447565b604051610371929190612f40565b60405180910390f35b610382611855565b60405161038f9190612f25565b60405180910390f35b6103b260048036038101906103ad9190612bc6565b611879565b6040516103c3959493929190612fb4565b60405180910390f35b6103e660048036038101906103e19190612bc6565b611cbe565b6040516103f39190612f92565b60405180910390f35b61041660048036038101906104119190612bc6565b611dbc565b6040516104239190612f92565b60405180910390f35b610434611e7e565b604051610441919061304a565b60405180910390f35b610464600480360381019061045f91906129a9565b611ede565b005b610480600480360381019061047b9190612bc6565b611f7c565b60405161048d9190612f92565b60405180910390f35b6104b060048036038101906104ab9190612bc6565b61207a565b6040516104bd9190612f92565b60405180910390f35b6104e060048036038101906104db9190612980565b612178565b6040516104ed9190612f77565b60405180910390f35b6104fe612198565b60405161050c929190612f40565b60405180910390f35b61052f600480360381019061052a9190612980565b6125a6565b005b610539612600565b604051610546919061304a565b60405180910390f35b6000600160003373ffffffffffffffffffffffffffffffffffffffff1673ffffffffffffffffffffffffffffffffffffffff16815260200190815260200160002060009054906101000a900460ff166105a757600080fd5b600954905090565b6060806060806060600160003373ffffffffffffffffffffffffffffffffffffffff1673ffffffffffffffffffffffffffffffffffffffff16815260200190815260200160002060009054906101000a900460ff1661060d57600080fd5b600360008781526020019081526020016000206003016003600088815260200190815260200160002060040160036000898152602001908152602001600020600501600360008a8152602001908152602001600020600601600360008b81526020019081526020016000206007018480546106879061330a565b80601f01602080910402602001604051908101604052809291908181526020018280546106b39061330a565b80156107005780601f106106d557610100808354040283529160200191610700565b820191906000526020600020905b8154815290600101906020018083116106e357829003601f168201915b505050505094508380546107139061330a565b80601f016020809104026020016040519081016040528092919081815260200182805461073f9061330a565b801561078c5780601f106107615761010080835404028352916020019161078c565b820191906000526020600020905b81548152906001019060200180831161076f57829003601f168201915b5050505050935082805461079f9061330a565b80601f01602080910402602001604051908101604052809291908181526020018280546107cb9061330a565b80156108185780601f106107ed57610100808354040283529160200191610818565b820191906000526020600020905b8154815290600101906020018083116107fb57829003601f168201915b5050505050925081805461082b9061330a565b80601f01602080910402602001604051908101604052809291908181526020018280546108579061330a565b80156108a45780601f10610879576101008083540402835291602001916108a4565b820191906000526020600020905b81548152906001019060200180831161088757829003601f168201915b505050505091508080546108b79061330a565b80601f01602080910402602001604051908101604052809291908181526020018280546108e39061330a565b80156109305780601f1061090557610100808354040283529160200191610930565b820191906000526020600020905b81548152906001019060200180831161091357829003601f168201915b505050505090509450945094509450945091939590929450565b8460036000888152602001908152602001600020600301908051906020019061097492919061274d565b508360036000888152602001908152602001600020600401908051906020019061099f92919061274d565b50826003600088815260200190815260200160002060050190805190602001906109ca92919061274d565b50816003600088815260200190815260200160002060060190805190602001906109f592919061274d565b5080600360008881526020019081526020016000206007019080519060200190610a2092919061274d565b506000600c610a30600b5461207a565b604051610a3d9190612f0e565b908152602001604051809103902054141580610a8157506000600c610a63600b5461207a565b604051610a709190612f0e565b908152602001604051809103902054145b15610b0d576000610a918661268f565b600c610a9e600b5461207a565b604051610aab9190612f0e565b908152602001604051809103902054610ac4919061319c565b905080600c610ad4600b5461207a565b604051610ae19190612f0e565b908152602001604051809103902081905550600b6000815480929190610b069061333c565b9190505550505b505050505050565b60008054906101000a900473ffffffffffffffffffffffffffffffffffffffff1673ffffffffffffffffffffffffffffffffffffffff163373ffffffffffffffffffffffffffffffffffffffff1614610b6d57600080fd5b6000600160008373ffffffffffffffffffffffffffffffffffffffff1673ffffffffffffffffffffffffffffffffffffffff16815260200190815260200160002060006101000a81548160ff02191690831515021790555050565b6000600160003373ffffffffffffffffffffffffffffffffffffffff1673ffffffffffffffffffffffffffffffffffffffff16815260200190815260200160002060009054906101000a900460ff16610c2057600080fd5b600754905090565b600160003373ffffffffffffffffffffffffffffffffffffffff1673ffffffffffffffffffffffffffffffffffffffff16815260200190815260200160002060009054906101000a900460ff16610c7e57600080fd5b806003600060075481526020019081526020016000206000019080519060200190610caa92919061274d565b5060076000815480929190610cbe9061333c565b919050555050565b60606000600260009054906101000a900473ffffffffffffffffffffffffffffffffffffffff1673ffffffffffffffffffffffffffffffffffffffff16635df6ec33846040518263ffffffff1660e01b8152600401610d25919061304a565b60006040518083038186803b158015610d3d57600080fd5b505afa158015610d51573d6000803e3d6000fd5b505050506040513d6000823e3d601f19601f82011682018060405250810190610d7a91906129ea565b509250505080915050919050565b60606000600260009054906101000a900473ffffffffffffffffffffffffffffffffffffffff1673ffffffffffffffffffffffffffffffffffffffff16635df6ec33846040518263ffffffff1660e01b8152600401610de7919061304a565b60006040518083038186803b158015610dff57600080fd5b505afa158015610e13573d6000803e3d6000fd5b505050506040513d6000823e3d601f19601f82011682018060405250810190610e3c91906129ea565b505091505080915050919050565b6000600160003373ffffffffffffffffffffffffffffffffffffffff1673ffffffffffffffffffffffffffffffffffffffff16815260200190815260200160002060009054906101000a900460ff16610ea257600080fd5b600854905090565b600160003373ffffffffffffffffffffffffffffffffffffffff1673ffffffffffffffffffffffffffffffffffffffff16815260200190815260200160002060009054906101000a900460ff16610f0057600080fd5b8560046000600a5481526020019081526020016000206001019080519060200190610f2c92919061274d565b508460046000600a5481526020019081526020016000206000019080519060200190610f5992919061274d565b508360046000600a5481526020019081526020016000206002019080519060200190610f8692919061274d565b508260046000600a5481526020019081526020016000206004019080519060200190610fb392919061274d565b508160046000600a5481526020019081526020016000206003019080519060200190610fe092919061274d565b506000600684604051610ff39190612f0e565b90815260200160405180910390205414158061102d5750600060068460405161101c9190612f0e565b908152602001604051809103902054145b1561108d57600061103d8561268f565b60068560405161104d9190612f0e565b908152602001604051809103902054611066919061319c565b9050806006856040516110799190612f0e565b908152602001604051809103902081905550505b60005b815181101561123757600073ffffffffffffffffffffffffffffffffffffffff168282815181106110ea577f4e487b7100000000000000000000000000000000000000000000000000000000600052603260045260246000fd5b602002602001015173ffffffffffffffffffffffffffffffffffffffff161461122457600160056000600a54815260200190815260200160002060003373ffffffffffffffffffffffffffffffffffffffff1673ffffffffffffffffffffffffffffffffffffffff16815260200190815260200160002060006101000a81548160ff021916908315150217905550600160056000600a54815260200190815260200160002060008484815181106111ca577f4e487b7100000000000000000000000000000000000000000000000000000000600052603260045260246000fd5b602002602001015173ffffffffffffffffffffffffffffffffffffffff1673ffffffffffffffffffffffffffffffffffffffff16815260200190815260200160002060006101000a81548160ff0219169083151502179055505b808061122f9061333c565b915050611090565b50600a600081548092919061124b9061333c565b9190505550505050505050565b60606000600260009054906101000a900473ffffffffffffffffffffffffffffffffffffffff1673ffffffffffffffffffffffffffffffffffffffff16635df6ec33846040518263ffffffff1660e01b81526004016112b7919061304a565b60006040518083038186803b1580156112cf57600080fd5b505afa1580156112e3573d6000803e3d6000fd5b505050506040513d6000823e3d601f19601f8201168201806040525081019061130c91906129ea565b505050905080915050919050565b600160003373ffffffffffffffffffffffffffffffffffffffff1673ffffffffffffffffffffffffffffffffffffffff16815260200190815260200160002060009054906101000a900460ff1661137057600080fd5b80600360006008548152602001908152602001600020600101908051906020019061139c92919061274d565b50600860008154809291906113b09061333c565b919050555050565b600080600090506000600190505b7fffffffffffffffffffffffffffffffffffffffffffffffffffffffffffffffff81101561143f5760006003600083815260200190815260200160002060000180546114119061330a565b9050141561141e5761143f565b81806114299061333c565b92505080806114379061333c565b9150506113c6565b508091505090565b6060806000611454612600565b905060008167ffffffffffffffff811115611498577f4e487b7100000000000000000000000000000000000000000000000000000000600052604160045260246000fd5b6040519080825280602002602001820160405280156114cb57816020015b60608152602001906001900390816114b65790505b50905060008267ffffffffffffffff811115611510577f4e487b7100000000000000000000000000000000000000000000000000000000600052604160045260246000fd5b60405190808252806020026020018201604052801561153e5781602001602082028036833780820191505090505b50905060008367ffffffffffffffff811115611583577f4e487b7100000000000000000000000000000000000000000000000000000000600052604160045260246000fd5b6040519080825280602002602001820160405280156115b657816020015b60608152602001906001900390816115a15790505b509050600080600190505b85811161183f5760006004600083815260200190815260200160002060040180546115eb9061330a565b80601f01602080910402602001604051908101604052809291908181526020018280546116179061330a565b80156116645780601f1061163957610100808354040283529160200191611664565b820191906000526020600020905b81548152906001019060200180831161164757829003601f168201915b505050505090506000805b8481101561172757826040516020016116889190612f0e565b604051602081830303815290604052805190602001208682815181106116d7577f4e487b7100000000000000000000000000000000000000000000000000000000600052603260045260246000fd5b60200260200101516040516020016116ef9190612f0e565b6040516020818303038152906040528051906020012014156117145760019150611727565b808061171f9061333c565b91505061166f565b508061182a5781858581518110611767577f4e487b7100000000000000000000000000000000000000000000000000000000600052603260045260246000fd5b6020026020010181905250818785815181106117ac577f4e487b7100000000000000000000000000000000000000000000000000000000600052603260045260246000fd5b60200260200101819052506006826040516117c79190612f0e565b90815260200160405180910390205486858151811061180f577f4e487b7100000000000000000000000000000000000000000000000000000000600052603260045260246000fd5b60200260200101818152505083806118269061333c565b9450505b505080806118379061333c565b9150506115c1565b5080845280835283839650965050505050509091565b60008054906101000a900473ffffffffffffffffffffffffffffffffffffffff1681565b6060806060806060600160003373ffffffffffffffffffffffffffffffffffffffff1673ffffffffffffffffffffffffffffffffffffffff16815260200190815260200160002060009054906101000a900460ff166118d757600080fd5b600115156005600088815260200190815260200160002060003373ffffffffffffffffffffffffffffffffffffffff1673ffffffffffffffffffffffffffffffffffffffff16815260200190815260200160002060009054906101000a900460ff1615151415611c7a57600460008781526020019081526020016000206001016004600088815260200190815260200160002060000160046000898152602001908152602001600020600201600460008a8152602001908152602001600020600401600460008b81526020019081526020016000206003018480546119bb9061330a565b80601f01602080910402602001604051908101604052809291908181526020018280546119e79061330a565b8015611a345780601f10611a0957610100808354040283529160200191611a34565b820191906000526020600020905b815481529060010190602001808311611a1757829003601f168201915b50505050509450838054611a479061330a565b80601f0160208091040260200160405190810160405280929190818152602001828054611a739061330a565b8015611ac05780601f10611a9557610100808354040283529160200191611ac0565b820191906000526020600020905b815481529060010190602001808311611aa357829003601f168201915b50505050509350828054611ad39061330a565b80601f0160208091040260200160405190810160405280929190818152602001828054611aff9061330a565b8015611b4c5780601f10611b2157610100808354040283529160200191611b4c565b820191906000526020600020905b815481529060010190602001808311611b2f57829003601f168201915b50505050509250818054611b5f9061330a565b80601f0160208091040260200160405190810160405280929190818152602001828054611b8b9061330a565b8015611bd85780601f10611bad57610100808354040283529160200191611bd8565b820191906000526020600020905b815481529060010190602001808311611bbb57829003601f168201915b50505050509150808054611beb9061330a565b80601f0160208091040260200160405190810160405280929190818152602001828054611c179061330a565b8015611c645780601f10611c3957610100808354040283529160200191611c64565b820191906000526020600020905b815481529060010190602001808311611c4757829003601f168201915b5050505050905094509450945094509450611cb5565b6040517f08c379a0000000000000000000000000000000000000000000000000000000008152600401611cac9061302a565b60405180910390fd5b91939590929450565b6060600160003373ffffffffffffffffffffffffffffffffffffffff1673ffffffffffffffffffffffffffffffffffffffff16815260200190815260200160002060009054906101000a900460ff16611d1657600080fd5b600360008381526020019081526020016000206001018054611d379061330a565b80601f0160208091040260200160405190810160405280929190818152602001828054611d639061330a565b8015611db05780601f10611d8557610100808354040283529160200191611db0565b820191906000526020600020905b815481529060010190602001808311611d9357829003601f168201915b50505050509050919050565b60606000600260009054906101000a900473ffffffffffffffffffffffffffffffffffffffff1673ffffffffffffffffffffffffffffffffffffffff16635df6ec33846040518263ffffffff1660e01b8152600401611e1b919061304a565b60006040518083038186803b158015611e3357600080fd5b505afa158015611e47573d6000803e3d6000fd5b505050506040513d6000823e3d601f19601f82011682018060405250810190611e7091906129ea565b935050505080915050919050565b6000600160003373ffffffffffffffffffffffffffffffffffffffff1673ffffffffffffffffffffffffffffffffffffffff16815260200190815260200160002060009054906101000a900460ff16611ed657600080fd5b600a54905090565b600160003373ffffffffffffffffffffffffffffffffffffffff1673ffffffffffffffffffffffffffffffffffffffff16815260200190815260200160002060009054906101000a900460ff16611f3457600080fd5b806003600060095481526020019081526020016000206002019080519060200190611f6092919061274d565b5060096000815480929190611f749061333c565b919050555050565b6060600160003373ffffffffffffffffffffffffffffffffffffffff1673ffffffffffffffffffffffffffffffffffffffff16815260200190815260200160002060009054906101000a900460ff16611fd457600080fd5b600360008381526020019081526020016000206002018054611ff59061330a565b80601f01602080910402602001604051908101604052809291908181526020018280546120219061330a565b801561206e5780601f106120435761010080835404028352916020019161206e565b820191906000526020600020905b81548152906001019060200180831161205157829003601f168201915b50505050509050919050565b6060600160003373ffffffffffffffffffffffffffffffffffffffff1673ffffffffffffffffffffffffffffffffffffffff16815260200190815260200160002060009054906101000a900460ff166120d257600080fd5b6003600083815260200190815260200160002060000180546120f39061330a565b80601f016020809104026020016040519081016040528092919081815260200182805461211f9061330a565b801561216c5780601f106121415761010080835404028352916020019161216c565b820191906000526020600020905b81548152906001019060200180831161214f57829003601f168201915b50505050509050919050565b60016020528060005260406000206000915054906101000a900460ff1681565b60608060006121a56113b8565b905060008167ffffffffffffffff8111156121e9577f4e487b7100000000000000000000000000000000000000000000000000000000600052604160045260246000fd5b60405190808252806020026020018201604052801561221c57816020015b60608152602001906001900390816122075790505b50905060008267ffffffffffffffff811115612261577f4e487b7100000000000000000000000000000000000000000000000000000000600052604160045260246000fd5b60405190808252806020026020018201604052801561228f5781602001602082028036833780820191505090505b50905060008367ffffffffffffffff8111156122d4577f4e487b7100000000000000000000000000000000000000000000000000000000600052604160045260246000fd5b60405190808252806020026020018201604052801561230757816020015b60608152602001906001900390816122f25790505b509050600080600190505b85811161259057600060036000838152602001908152602001600020600001805461233c9061330a565b80601f01602080910402602001604051908101604052809291908181526020018280546123689061330a565b80156123b55780601f1061238a576101008083540402835291602001916123b5565b820191906000526020600020905b81548152906001019060200180831161239857829003601f168201915b505050505090506000805b8481101561247857826040516020016123d99190612f0e565b60405160208183030381529060405280519060200120868281518110612428577f4e487b7100000000000000000000000000000000000000000000000000000000600052603260045260246000fd5b60200260200101516040516020016124409190612f0e565b6040516020818303038152906040528051906020012014156124655760019150612478565b80806124709061333c565b9150506123c0565b508061257b57818585815181106124b8577f4e487b7100000000000000000000000000000000000000000000000000000000600052603260045260246000fd5b6020026020010181905250818785815181106124fd577f4e487b7100000000000000000000000000000000000000000000000000000000600052603260045260246000fd5b6020026020010181905250600c826040516125189190612f0e565b908152602001604051809103902054868581518110612560577f4e487b7100000000000000000000000000000000000000000000000000000000600052603260045260246000fd5b60200260200101818152505083806125779061333c565b9450505b505080806125889061333c565b915050612312565b5080845280835283839650965050505050509091565b60018060008373ffffffffffffffffffffffffffffffffffffffff1673ffffffffffffffffffffffffffffffffffffffff16815260200190815260200160002060006101000a81548160ff02191690831515021790555050565b600080600090506000600190505b7fffffffffffffffffffffffffffffffffffffffffffffffffffffffffffffffff8110156126875760006004600083815260200190815260200160002060000180546126599061330a565b9050141561266657612687565b81806126719061333c565b925050808061267f9061333c565b91505061260e565b508091505090565b6000808290506000805b82518110156127425760008382815181106126dd577f4e487b7100000000000000000000000000000000000000000000000000000000600052603260045260246000fd5b602001015160f81c60f81b60f81c60ff16905060308110158015612702575060398111155b1561272e57603081612714919061324c565b600a8461272191906131f2565b61272b919061319c565b92505b50808061273a9061333c565b915050612699565b508092505050919050565b8280546127599061330a565b90600052602060002090601f01602090048101928261277b57600085556127c2565b82601f1061279457805160ff19168380011785556127c2565b828001600101855582156127c2579182015b828111156127c15782518255916020019190600101906127a6565b5b5090506127cf91906127d3565b5090565b5b808211156127ec5760008160009055506001016127d4565b5090565b60006128036127fe84613096565b613065565b9050808382526020820190508285602086028201111561282257600080fd5b60005b85811015612852578161283888826128d8565b845260208401935060208301925050600181019050612825565b5050509392505050565b600061286f61286a846130c2565b613065565b90508281526020810184848401111561288757600080fd5b6128928482856132c8565b509392505050565b60006128ad6128a8846130c2565b613065565b9050828152602081018484840111156128c557600080fd5b6128d08482856132d7565b509392505050565b6000813590506128e781613423565b92915050565b600082601f8301126128fe57600080fd5b813561290e8482602086016127f0565b91505092915050565b600082601f83011261292857600080fd5b813561293884826020860161285c565b91505092915050565b600082601f83011261295257600080fd5b815161296284826020860161289a565b91505092915050565b60008135905061297a8161343a565b92915050565b60006020828403121561299257600080fd5b60006129a0848285016128d8565b91505092915050565b6000602082840312156129bb57600080fd5b600082013567ffffffffffffffff8111156129d557600080fd5b6129e184828501612917565b91505092915050565b60008060008060808587031215612a0057600080fd5b600085015167ffffffffffffffff811115612a1a57600080fd5b612a2687828801612941565b945050602085015167ffffffffffffffff811115612a4357600080fd5b612a4f87828801612941565b935050604085015167ffffffffffffffff811115612a6c57600080fd5b612a7887828801612941565b925050606085015167ffffffffffffffff811115612a9557600080fd5b612aa187828801612941565b91505092959194509250565b60008060008060008060c08789031215612ac657600080fd5b600087013567ffffffffffffffff811115612ae057600080fd5b612aec89828a01612917565b965050602087013567ffffffffffffffff811115612b0957600080fd5b612b1589828a01612917565b955050604087013567ffffffffffffffff811115612b3257600080fd5b612b3e89828a01612917565b945050606087013567ffffffffffffffff811115612b5b57600080fd5b612b6789828a01612917565b935050608087013567ffffffffffffffff811115612b8457600080fd5b612b9089828a01612917565b92505060a087013567ffffffffffffffff811115612bad57600080fd5b612bb989828a016128ed565b9150509295509295509295565b600060208284031215612bd857600080fd5b6000612be68482850161296b565b91505092915050565b60008060008060008060c08789031215612c0857600080fd5b6000612c1689828a0161296b565b965050602087013567ffffffffffffffff811115612c3357600080fd5b612c3f89828a01612917565b955050604087013567ffffffffffffffff811115612c5c57600080fd5b612c6889828a01612917565b945050606087013567ffffffffffffffff811115612c8557600080fd5b612c9189828a01612917565b935050608087013567ffffffffffffffff811115612cae57600080fd5b612cba89828a01612917565b92505060a087013567ffffffffffffffff811115612cd757600080fd5b612ce389828a01612917565b9150509295509295509295565b6000612cfc8383612e0d565b905092915050565b6000612d108383612ef0565b60208301905092915050565b612d2581613280565b82525050565b6000612d3682613112565b612d40818561314d565b935083602082028501612d52856130f2565b8060005b85811015612d8e5784840389528151612d6f8582612cf0565b9450612d7a83613133565b925060208a01995050600181019050612d56565b50829750879550505050505092915050565b6000612dab8261311d565b612db5818561315e565b9350612dc083613102565b8060005b83811015612df1578151612dd88882612d04565b9750612de383613140565b925050600181019050612dc4565b5085935050505092915050565b612e0781613292565b82525050565b6000612e1882613128565b612e22818561316f565b9350612e328185602086016132d7565b612e3b81613412565b840191505092915050565b6000612e5182613128565b612e5b8185613180565b9350612e6b8185602086016132d7565b612e7481613412565b840191505092915050565b6000612e8a82613128565b612e948185613191565b9350612ea48185602086016132d7565b80840191505092915050565b6000612ebd601683613180565b91507f5574656e7465206e6f6e206175746f72697a7a61746f000000000000000000006000830152602082019050919050565b612ef9816132be565b82525050565b612f08816132be565b82525050565b6000612f1a8284612e7f565b915081905092915050565b6000602082019050612f3a6000830184612d1c565b92915050565b60006040820190508181036000830152612f5a8185612d2b565b90508181036020830152612f6e8184612da0565b90509392505050565b6000602082019050612f8c6000830184612dfe565b92915050565b60006020820190508181036000830152612fac8184612e46565b905092915050565b600060a0820190508181036000830152612fce8188612e46565b90508181036020830152612fe28187612e46565b90508181036040830152612ff68186612e46565b9050818103606083015261300a8185612e46565b9050818103608083015261301e8184612e46565b90509695505050505050565b6000602082019050818103600083015261304381612eb0565b9050919050565b600060208201905061305f6000830184612eff565b92915050565b6000604051905081810181811067ffffffffffffffff8211171561308c5761308b6133e3565b5b8060405250919050565b600067ffffffffffffffff8211156130b1576130b06133e3565b5b602082029050602081019050919050565b600067ffffffffffffffff8211156130dd576130dc6133e3565b5b601f19601f8301169050602081019050919050565b6000819050602082019050919050565b6000819050602082019050919050565b600081519050919050565b600081519050919050565b600081519050919050565b6000602082019050919050565b6000602082019050919050565b600082825260208201905092915050565b600082825260208201905092915050565b600082825260208201905092915050565b600082825260208201905092915050565b600081905092915050565b60006131a7826132be565b91506131b2836132be565b9250827fffffffffffffffffffffffffffffffffffffffffffffffffffffffffffffffff038211156131e7576131e6613385565b5b828201905092915050565b60006131fd826132be565b9150613208836132be565b9250817fffffffffffffffffffffffffffffffffffffffffffffffffffffffffffffffff048311821515161561324157613240613385565b5b828202905092915050565b6000613257826132be565b9150613262836132be565b92508282101561327557613274613385565b5b828203905092915050565b600061328b8261329e565b9050919050565b60008115159050919050565b600073ffffffffffffffffffffffffffffffffffffffff82169050919050565b6000819050919050565b82818337600083830152505050565b60005b838110156132f55780820151818401526020810190506132da565b83811115613304576000848401525b50505050565b6000600282049050600182168061332257607f821691505b60208210811415613336576133356133b4565b5b50919050565b6000613347826132be565b91507fffffffffffffffffffffffffffffffffffffffffffffffffffffffffffffffff82141561337a57613379613385565b5b600182019050919050565b7f4e487b7100000000000000000000000000000000000000000000000000000000600052601160045260246000fd5b7f4e487b7100000000000000000000000000000000000000000000000000000000600052602260045260246000fd5b7f4e487b7100000000000000000000000000000000000000000000000000000000600052604160045260246000fd5b6000601f19601f8301169050919050565b61342c81613280565b811461343757600080fd5b50565b613443816132be565b811461344e57600080fd5b5056fea264697066735822122098a8ca710ffd728dfa138f82a94ed9e3a4e022983d7d9c43e8ebd732ae6a23f564736f6c63430008000033",
  "immutableReferences": {},
  "source": "// SPDX-License-Identifier: MIT\r\npragma solidity ^0.8.0;\r\n\r\nimport \"./Agronomo.sol\";\r\n\r\ncontract Viticoltore {\r\n\r\n    //dati per autorizzazioni alle chiamate delle funzioni\r\n    address public owner;\r\n    mapping(address => bool) public authorized;\r\n\r\n    Agronomo agronomoContract;\r\n    \r\n    constructor(address _agronomoContractAddress)  {\r\n        owner = msg.sender;\r\n        authorized[owner] = true; //solo per fare test, oppure  un'opzione valida se il deploy viene fatto da ogni singolo attore in maniera indipendente.\r\n        agronomoContract = Agronomo(_agronomoContractAddress);\r\n        agronomoContract.addAuthorized(address(this));\r\n\r\n    }\r\n\r\n    //dividere le istanze per terreni\r\n\r\n    struct DatiViticoltore {\r\n\r\n    //dati funzioni inserimento manuale\r\n    string dataRaccolta;\r\n    string datiForniture;\r\n    string destinazioneUva;\r\n\r\n\r\n    //dati funzioni simulatore\r\n    string quantitaUvaRaccolta;\r\n    //uint256 quantitaUvaRaccolta;\r\n    string tipologiaUva;\r\n    string umidita;\r\n    string temperatura;\r\n    string quantitaFertilizzanti;\r\n\r\n    }\r\n\r\n    struct datiVendita {\r\n        string prezzoVendita;\r\n        string nomeProdotto;\r\n        string quantita;\r\n        //uint256 quantita;\r\n        string dataVendita;\r\n        string nomeCliente;\r\n    }\r\n\r\n    mapping(uint256 => DatiViticoltore) terreni;\r\n    mapping(uint256 => datiVendita) vendite;\r\n    mapping(uint => mapping(address => bool)) allowedAddressesVendite; //mapping per le autirizzazioni sulle get di vendita\r\n    mapping(string => uint256) nomiQuantita; // MAPPA DI TEST PER DATA AGGREGATION\r\n\r\n    /*identificativi funzioni terreni e vendite*/\r\n    uint256 idDataRaccoltaSerial = 1;\r\n    uint256 idDatiFornitureSerial = 1;\r\n    uint256 idDestinazioneUvaSerial = 1;\r\n    uint256 idVenditaSerial = 1;\r\n\r\n\r\n    //funzioni di autorizzazione\r\n    function addAuthorized(address _address) public {\r\n        //require(msg.sender == owner); Da tenere solo per testing e comodit, a lavoro definitivo va levata.\r\n        authorized[_address] = true;\r\n    }\r\n\r\n    function removeAuthorized(address _address) public {\r\n        require(msg.sender == owner);\r\n        authorized[_address] = false;\r\n    }\r\n\r\n    //funzioni manuali\r\n    /* esempio per gestire decimali, BISOGNA INSERIRE IN INPUT IN QUESTO MODO: EX, 125,76 VA INSERITO COME => 12576, CHE VERRA' RAPPRESENTATO COME 1257600 E BISOGNA INTERPRETARE I 2\r\n    ZERI COME I DECIMALI, QUINDI LEGGERLO COME 125,76\r\n    function setDataRaccolta(uint256 _idTerreno, uint256 _dataRaccolta) public {\r\n        uint256 decimals = 2;\r\n        terreni[_idTerreno].dataRaccolta = _dataRaccolta * (10**decimals);\r\n    }\r\n    */\r\n\r\n    function setDataRaccolta(string memory _dataRaccolta) public {\r\n        require(authorized[msg.sender]);\r\n        terreni[idDataRaccoltaSerial].dataRaccolta = _dataRaccolta;\r\n        //customerContract.setDataRaccolta(idDataRaccoltaSerial, _dataRaccolta);\r\n        idDataRaccoltaSerial++;\r\n    }\r\n\r\n    function setDatiForniture(string memory _datiForniture) public{\r\n        require(authorized[msg.sender]);\r\n        terreni[idDatiFornitureSerial].datiForniture = _datiForniture;\r\n        //customerContract.setDatiForniture(idDatiFornitureSerial, _datiForniture);\r\n        idDatiFornitureSerial++;\r\n    }\r\n\r\n   function setDestinazioneUva(string memory _destinazioneUva) public {\r\n       require(authorized[msg.sender]);\r\n       terreni[idDestinazioneUvaSerial].destinazioneUva = _destinazioneUva;\r\n       //customerContract.setDestinazioneUva(idDestinazioneUvaSerial, _destinazioneUva);\r\n       idDestinazioneUvaSerial++;\r\n   }\r\n\r\n   function setVendita(string memory _nomeProdotto,string memory _prezzoVendita, string memory/*uint256*/ _quantita, string memory _nomeCliente,\r\n            string memory _dataVendita, address[] memory _addresses) public {\r\n       require(authorized[msg.sender]);\r\n       vendite[idVenditaSerial].nomeProdotto = _nomeProdotto;\r\n       vendite[idVenditaSerial].prezzoVendita = _prezzoVendita;\r\n       vendite[idVenditaSerial].quantita = _quantita;\r\n       vendite[idVenditaSerial].nomeCliente = _nomeCliente;\r\n       vendite[idVenditaSerial].dataVendita = _dataVendita;\r\n\r\n       //TEST PER DATA AGGREGATION\r\n       if(nomiQuantita[_nomeCliente] != 0 || nomiQuantita[_nomeCliente]==0){\r\n            uint256 temp = nomiQuantita[_nomeCliente] + stringToUint(_quantita);\r\n            nomiQuantita[_nomeCliente] = temp;\r\n        }\r\n\r\n       for(uint i=0; i<_addresses.length; i++){ //ciclo necessario a definire gli address forniti in input come \"trusted\"\r\n            if(_addresses[i] != address(0)){ //entra in azione solo de gli address forniti sono diversi dall'address nullo (0x0000000000000...)\r\n                allowedAddressesVendite[idVenditaSerial][msg.sender] = true; //TEST\r\n                allowedAddressesVendite[idVenditaSerial][_addresses[i]] = true; //salva gli address inseriti e li definisce \"trusted\" attraverso il parametro booleano \"true\"\r\n            }\r\n        } \r\n\r\n       idVenditaSerial++;\r\n       /*vendite[_idVendita].nomeCliente = _nomeCliente;*/\r\n   }\r\n\r\n    //funzione automatiche\r\n    //uint256[] app; //TEST DATA AGGREGATION\r\n    uint256 idRaccolta=1;\r\n    mapping(string => uint256) dateQuantita;\r\n    function setSensoriViticoltore(uint256 _idTerreno, string memory _quantitaUvaRaccolta, string memory _tipologiaUva, string memory _umidita, string memory _temperatura, string memory _quantitaFertilizzanti) public {\r\n\r\n      /*  if(terreni[_idTerreno].quantitaUvaRaccolta == 0) {\r\n        app.push( _quantitaUvaRaccolta); //TEST DATA AGGREGATION\r\n        } else {\r\n            app.push(terreni[_idTerreno].quantitaUvaRaccolta + _quantitaUvaRaccolta);\r\n        } */\r\n    \r\n        terreni[_idTerreno].quantitaUvaRaccolta = _quantitaUvaRaccolta;\r\n        terreni[_idTerreno].tipologiaUva = _tipologiaUva;\r\n        terreni[_idTerreno].umidita = _umidita;\r\n        terreni[_idTerreno].temperatura = _temperatura;\r\n        terreni[_idTerreno].quantitaFertilizzanti = _quantitaFertilizzanti;\r\n\r\n        //TEST PER DATA AGGREGATION\r\n        \r\n       if(dateQuantita[getDataRaccolta(idRaccolta)] != 0 || dateQuantita[getDataRaccolta(idRaccolta)]==0){\r\n            uint256 temp = dateQuantita[getDataRaccolta(idRaccolta)] + stringToUint(_quantitaUvaRaccolta);\r\n            dateQuantita[getDataRaccolta(idRaccolta)] = temp;\r\n            idRaccolta++;\r\n        }\r\n\r\n    }\r\n\r\n    /* query e funzioni di supporto per data analysis*/\r\n    function getMappingTerreniLength() public view returns (uint256) {\r\n    uint256 count = 0;\r\n    for (uint256 i = 1; i < type(uint256).max; i++) {\r\n        if (bytes(terreni[i].dataRaccolta).length == 0) {\r\n            break;\r\n        }\r\n        count++;\r\n    }\r\n    return count;\r\n    }\r\n\r\n     function stringToUint(string memory s) internal pure returns (uint256) {\r\n    bytes memory b = bytes(s);\r\n    uint256 result = 0;\r\n    for (uint256 i = 0; i < b.length; i++) {\r\n        uint256 c = uint256(uint8(b[i]));\r\n        if (c >= 48 && c <= 57) {\r\n            result = result * 10 + (c - 48);\r\n        }\r\n    }\r\n    return result;\r\n    }\r\n\r\n    function uintToString(uint256 value) internal pure returns (string memory) {\r\n    if (value == 0) {\r\n        return \"0\";\r\n    }\r\n    uint256 temp = value;\r\n    uint256 digits;\r\n    while (temp != 0) {\r\n        digits++;\r\n        temp /= 10;\r\n    }\r\n    bytes memory buffer = new bytes(digits);\r\n    while (value != 0) {\r\n        digits--;\r\n        buffer[digits] = bytes1(uint8(48 + value % 10));\r\n        value /= 10;\r\n    }\r\n    return string(buffer);\r\n    }\r\n\r\n    //string[] app;\r\n    function queryDataUvaRaccolta() public view returns (string[] memory, uint256[] memory/*string[] memory*/) {\r\n        \r\n        uint256 length = getMappingTerreniLength();\r\n        string[] memory resultData = new string[](length);\r\n        uint256[] memory resultQuantitaRaccolta = new uint256[](length);\r\n        //string[] memory app = new string[](length);\r\n\r\n      /*  for (uint256 i = 1; i <= length; i++) {\r\n            resultData[i-1] = terreni[i].dataRaccolta;\r\n            resultQuantitaRaccolta[i-1] = app[i-1];//terreni[i].quantitaUvaRaccolta;\r\n            //app[i] = terreni[i].quantitaUvaRaccolta;\r\n        } */\r\n\r\n        string[] memory usedDate = new string[](length);\r\n        uint256 uniqueCount = 0; // Counter for unique names\r\n\r\n        for (uint256 i = 1; i <= length; i++) {\r\n            string memory data = terreni[i].dataRaccolta;\r\n            bool isUsed = false;\r\n\r\n        // Check if the name has already been used\r\n        for (uint256 j = 0; j < uniqueCount; j++) {\r\n            if (keccak256(abi.encodePacked(usedDate[j])) == keccak256(abi.encodePacked(data))) {\r\n                isUsed = true;\r\n                break;\r\n            }\r\n        }\r\n\r\n        if (!isUsed) {\r\n            usedDate[uniqueCount] = data;\r\n            resultData[uniqueCount] = data;\r\n            resultQuantitaRaccolta[uniqueCount] = dateQuantita[data];\r\n            uniqueCount++;\r\n        }\r\n    }\r\n\r\n    // Resize the arrays to remove unused slots\r\n    assembly {\r\n        mstore(resultData, uniqueCount)\r\n        mstore(resultQuantitaRaccolta, uniqueCount)\r\n    }\r\n\r\n        \r\n\r\n            return (resultData, /*app*/resultQuantitaRaccolta);\r\n    } \r\n\r\n    function getMappingVenditeLength() public view returns (uint256) {\r\n        \r\n        uint256 count = 0;\r\n        for (uint256 i = 1; i < type(uint256).max; i++) {\r\n            if (bytes(vendite[i].prezzoVendita).length == 0) {\r\n                break;\r\n            }\r\n            count++;\r\n        }\r\n            return count;\r\n    }\r\n\r\n    function queryNomiClientiQuantita() public view returns (string[] memory, uint256[] memory) {\r\n        \r\n        uint256 length = getMappingVenditeLength();\r\n        string[] memory resultNomi = new string[](length);\r\n        uint256[] memory resultQuantita = new uint256[](length);\r\n\r\n      /*  for (uint256 i = 1; i <= length; i++) {\r\n            resultNomi[i-1] = vendite[i].nomeCliente;\r\n            resultQuantita[i-1] = vendite[i].quantita;\r\n        }\r\n\r\n        return (resultNomi, resultQuantita);*/\r\n        string[] memory usedNomi = new string[](length);\r\n        uint256 uniqueCount = 0; // Counter for unique names\r\n\r\n        for (uint256 i = 1; i <= length; i++) {\r\n            string memory nomeCliente = vendite[i].nomeCliente;\r\n            bool isUsed = false;\r\n\r\n        // Check if the name has already been used\r\n        for (uint256 j = 0; j < uniqueCount; j++) {\r\n            if (keccak256(abi.encodePacked(usedNomi[j])) == keccak256(abi.encodePacked(nomeCliente))) {\r\n                isUsed = true;\r\n                break;\r\n            }\r\n        }\r\n\r\n        if (!isUsed) {\r\n            usedNomi[uniqueCount] = nomeCliente;\r\n            resultNomi[uniqueCount] = nomeCliente;\r\n            resultQuantita[uniqueCount] = nomiQuantita[nomeCliente];\r\n            uniqueCount++;\r\n        }\r\n    }\r\n\r\n    // Resize the arrays to remove unused slots\r\n    assembly {\r\n        mstore(resultNomi, uniqueCount)\r\n        mstore(resultQuantita, uniqueCount)\r\n    }\r\n\r\n        return (resultNomi, resultQuantita);\r\n    } \r\n//\r\n\r\n\r\n    //funzioni di get\r\n    function getIdDataRaccoltaSerial() public view returns(uint256){\r\n        require(authorized[msg.sender]);\r\n        return idDataRaccoltaSerial;\r\n    }\r\n\r\n    function getIdDatiFornitureSerial() public view returns(uint256){\r\n        require(authorized[msg.sender]);\r\n        return idDatiFornitureSerial;\r\n    }\r\n\r\n    function getIdDestinazioneUvaSerial() public view returns(uint256){\r\n        require(authorized[msg.sender]);\r\n        return idDestinazioneUvaSerial;\r\n    }\r\n\r\n    function getIdVenditaSerial() public view returns(uint256){\r\n        require(authorized[msg.sender]);\r\n        return idVenditaSerial;\r\n    }\r\n\r\n    function getDataRaccolta(uint256 _idTerreno) public view returns(string memory) {\r\n        require(authorized[msg.sender]);\r\n        return terreni[_idTerreno].dataRaccolta;\r\n    }\r\n\r\n    function getDatiForniture(uint256 _idTerreno) public view returns(string memory) {\r\n        require(authorized[msg.sender]);\r\n        return terreni[_idTerreno].datiForniture;\r\n    }\r\n\r\n    function getDestinazioneUva(uint256 _idTerreno) public view returns(string memory) {\r\n        require(authorized[msg.sender]);\r\n        return terreni[_idTerreno].destinazioneUva;\r\n    }\r\n\r\n    function getDatiVendita(uint256 _idVendita) public view returns(string memory, string memory, /*uint256*/string memory, string memory, string memory) {\r\n        require(authorized[msg.sender]);\r\n        \r\n        if (allowedAddressesVendite[_idVendita][msg.sender] == true) { //\"msg.sender\" rappresenta l'address di chi sta chiamando il metodo.\r\n           return (vendite[_idVendita].nomeProdotto, vendite[_idVendita].prezzoVendita, vendite[_idVendita].quantita, vendite[_idVendita].nomeCliente,\r\n            vendite[_idVendita].dataVendita);\r\n        } else {\r\n            revert(\"Utente non autorizzato\"); //revert() interrompe l'esecuzione della transazione e la annulla, in questo caso mostra anche un messaggio di warning.\r\n        }\r\n    }\r\n\r\n    function getDatiSensoriViticoltore(uint256 _idTerreno) public view returns(string memory, string memory, string memory, string memory, string memory) {\r\n        require(authorized[msg.sender]);\r\n        return (terreni[_idTerreno].quantitaUvaRaccolta, terreni[_idTerreno].tipologiaUva, terreni[_idTerreno].umidita, terreni[_idTerreno].temperatura, terreni[_idTerreno].quantitaFertilizzanti);\r\n    }\r\n\r\n    //funzioni di get Da Agronomo\r\n    function getUmiditaTerreno(uint256 _idTerreno) public view returns(string memory) {\r\n         (, string memory umiditaTerreno, ,) = agronomoContract.getDatiSensoriAgronomo(_idTerreno);\r\n         return umiditaTerreno;\r\n    }\r\n\r\n    function getTemperaturaTerreno(uint256 _idTerreno) public view returns(string memory) {\r\n         (,, string memory temperaturaTerreno,) = agronomoContract.getDatiSensoriAgronomo(_idTerreno);\r\n         return temperaturaTerreno;\r\n    }\r\n\r\n    function getPioggiaTerreno(uint256 _idTerreno) public view returns(string memory) {\r\n        (,,, string memory pioggiaterreno) = agronomoContract.getDatiSensoriAgronomo(_idTerreno);\r\n        return pioggiaterreno;\r\n    }\r\n\r\n    function getSuperficieTerreno(uint256 _idTerreno) public view returns(string memory) {\r\n        (string memory superficieTerreno,,,) = agronomoContract.getDatiSensoriAgronomo(_idTerreno);\r\n        return superficieTerreno;\r\n    }\r\n\r\n}\r\n",
  "sourcePath": "C:\\Users\\Erman\\OneDrive\\BinTraWine_github\\BinTraWine\\contracts\\Viticoltore.sol",
  "compiler": {
    "name": "solc",
    "version": "0.8.0+commit.c7dfd78e.Emscripten.clang"
  },
  "schemaVersion": "3.4.13",
  "updatedAt": "2023-09-07T14:05:54.725Z",
  "networkType": "quorum",
  "devdoc": {
    "kind": "dev",
    "methods": {},
    "version": 1
  },
  "userdoc": {
    "kind": "user",
    "methods": {},
    "version": 1
  }
}