{
  "contractName": "Viticoltore",
  "abi": [
    {
      "inputs": [
        {
          "internalType": "address",
          "name": "_agronomoContractAddress",
          "type": "address"
        }
      ],
      "stateMutability": "nonpayable",
      "type": "constructor"
    },
    {
      "inputs": [
        {
          "internalType": "address",
          "name": "",
          "type": "address"
        }
      ],
      "name": "authorized",
      "outputs": [
        {
          "internalType": "bool",
          "name": "",
          "type": "bool"
        }
      ],
      "stateMutability": "view",
      "type": "function"
    },
    {
      "inputs": [],
      "name": "owner",
      "outputs": [
        {
          "internalType": "address",
          "name": "",
          "type": "address"
        }
      ],
      "stateMutability": "view",
      "type": "function"
    },
    {
      "inputs": [
        {
          "internalType": "address",
          "name": "_address",
          "type": "address"
        }
      ],
      "name": "addAuthorized",
      "outputs": [],
      "stateMutability": "nonpayable",
      "type": "function"
    },
    {
      "inputs": [
        {
          "internalType": "address",
          "name": "_address",
          "type": "address"
        }
      ],
      "name": "removeAuthorized",
      "outputs": [],
      "stateMutability": "nonpayable",
      "type": "function"
    },
    {
      "inputs": [
        {
          "internalType": "string",
          "name": "_dataRaccolta",
          "type": "string"
        }
      ],
      "name": "setDataRaccolta",
      "outputs": [],
      "stateMutability": "nonpayable",
      "type": "function"
    },
    {
      "inputs": [
        {
          "internalType": "string",
          "name": "_datiForniture",
          "type": "string"
        }
      ],
      "name": "setDatiForniture",
      "outputs": [],
      "stateMutability": "nonpayable",
      "type": "function"
    },
    {
      "inputs": [
        {
          "internalType": "string",
          "name": "_destinazioneUva",
          "type": "string"
        }
      ],
      "name": "setDestinazioneUva",
      "outputs": [],
      "stateMutability": "nonpayable",
      "type": "function"
    },
    {
      "inputs": [
        {
          "internalType": "string",
          "name": "_nomeProdotto",
          "type": "string"
        },
        {
          "internalType": "string",
          "name": "_prezzoVendita",
          "type": "string"
        },
        {
          "internalType": "string",
          "name": "_quantita",
          "type": "string"
        },
        {
          "internalType": "string",
          "name": "_nomeCliente",
          "type": "string"
        },
        {
          "internalType": "string",
          "name": "_dataVendita",
          "type": "string"
        },
        {
          "internalType": "address[]",
          "name": "_addresses",
          "type": "address[]"
        }
      ],
      "name": "setVendita",
      "outputs": [],
      "stateMutability": "nonpayable",
      "type": "function"
    },
    {
      "inputs": [
        {
          "internalType": "uint256",
          "name": "_idTerreno",
          "type": "uint256"
        },
        {
          "internalType": "string",
          "name": "_quantitaUvaRaccolta",
          "type": "string"
        },
        {
          "internalType": "string",
          "name": "_tipologiaUva",
          "type": "string"
        },
        {
          "internalType": "string",
          "name": "_umidita",
          "type": "string"
        },
        {
          "internalType": "string",
          "name": "_temperatura",
          "type": "string"
        },
        {
          "internalType": "string",
          "name": "_quantitaFertilizzanti",
          "type": "string"
        }
      ],
      "name": "setSensoriViticoltore",
      "outputs": [],
      "stateMutability": "nonpayable",
      "type": "function"
    },
    {
      "inputs": [],
      "name": "getMappingTerreniLength",
      "outputs": [
        {
          "internalType": "uint256",
          "name": "",
          "type": "uint256"
        }
      ],
      "stateMutability": "view",
      "type": "function"
    },
    {
      "inputs": [],
      "name": "queryDataUvaRaccolta",
      "outputs": [
        {
          "internalType": "string[]",
          "name": "",
          "type": "string[]"
        },
        {
          "internalType": "uint256[]",
          "name": "",
          "type": "uint256[]"
        }
      ],
      "stateMutability": "view",
      "type": "function"
    },
    {
      "inputs": [],
      "name": "getMappingVenditeLength",
      "outputs": [
        {
          "internalType": "uint256",
          "name": "",
          "type": "uint256"
        }
      ],
      "stateMutability": "view",
      "type": "function"
    },
    {
      "inputs": [],
      "name": "queryNomiClientiQuantita",
      "outputs": [
        {
          "internalType": "string[]",
          "name": "",
          "type": "string[]"
        },
        {
          "internalType": "uint256[]",
          "name": "",
          "type": "uint256[]"
        }
      ],
      "stateMutability": "view",
      "type": "function"
    },
    {
      "inputs": [],
      "name": "getIdDataRaccoltaSerial",
      "outputs": [
        {
          "internalType": "uint256",
          "name": "",
          "type": "uint256"
        }
      ],
      "stateMutability": "view",
      "type": "function"
    },
    {
      "inputs": [],
      "name": "getIdDatiFornitureSerial",
      "outputs": [
        {
          "internalType": "uint256",
          "name": "",
          "type": "uint256"
        }
      ],
      "stateMutability": "view",
      "type": "function"
    },
    {
      "inputs": [],
      "name": "getIdDestinazioneUvaSerial",
      "outputs": [
        {
          "internalType": "uint256",
          "name": "",
          "type": "uint256"
        }
      ],
      "stateMutability": "view",
      "type": "function"
    },
    {
      "inputs": [],
      "name": "getIdVenditaSerial",
      "outputs": [
        {
          "internalType": "uint256",
          "name": "",
          "type": "uint256"
        }
      ],
      "stateMutability": "view",
      "type": "function"
    },
    {
      "inputs": [
        {
          "internalType": "uint256",
          "name": "_idTerreno",
          "type": "uint256"
        }
      ],
      "name": "getDataRaccolta",
      "outputs": [
        {
          "internalType": "string",
          "name": "",
          "type": "string"
        }
      ],
      "stateMutability": "view",
      "type": "function"
    },
    {
      "inputs": [
        {
          "internalType": "uint256",
          "name": "_idTerreno",
          "type": "uint256"
        }
      ],
      "name": "getDatiForniture",
      "outputs": [
        {
          "internalType": "string",
          "name": "",
          "type": "string"
        }
      ],
      "stateMutability": "view",
      "type": "function"
    },
    {
      "inputs": [
        {
          "internalType": "uint256",
          "name": "_idTerreno",
          "type": "uint256"
        }
      ],
      "name": "getDestinazioneUva",
      "outputs": [
        {
          "internalType": "string",
          "name": "",
          "type": "string"
        }
      ],
      "stateMutability": "view",
      "type": "function"
    },
    {
      "inputs": [
        {
          "internalType": "uint256",
          "name": "_idVendita",
          "type": "uint256"
        }
      ],
      "name": "getDatiVendita",
      "outputs": [
        {
          "internalType": "string",
          "name": "",
          "type": "string"
        },
        {
          "internalType": "string",
          "name": "",
          "type": "string"
        },
        {
          "internalType": "string",
          "name": "",
          "type": "string"
        },
        {
          "internalType": "string",
          "name": "",
          "type": "string"
        },
        {
          "internalType": "string",
          "name": "",
          "type": "string"
        }
      ],
      "stateMutability": "view",
      "type": "function"
    },
    {
      "inputs": [
        {
          "internalType": "uint256",
          "name": "_idTerreno",
          "type": "uint256"
        }
      ],
      "name": "getDatiSensoriViticoltore",
      "outputs": [
        {
          "internalType": "string",
          "name": "",
          "type": "string"
        },
        {
          "internalType": "string",
          "name": "",
          "type": "string"
        },
        {
          "internalType": "string",
          "name": "",
          "type": "string"
        },
        {
          "internalType": "string",
          "name": "",
          "type": "string"
        },
        {
          "internalType": "string",
          "name": "",
          "type": "string"
        }
      ],
      "stateMutability": "view",
      "type": "function"
    },
    {
      "inputs": [
        {
          "internalType": "uint256",
          "name": "_idTerreno",
          "type": "uint256"
        }
      ],
      "name": "getUmiditaTerreno",
      "outputs": [
        {
          "internalType": "string",
          "name": "",
          "type": "string"
        }
      ],
      "stateMutability": "view",
      "type": "function"
    },
    {
      "inputs": [
        {
          "internalType": "uint256",
          "name": "_idTerreno",
          "type": "uint256"
        }
      ],
      "name": "getTemperaturaTerreno",
      "outputs": [
        {
          "internalType": "string",
          "name": "",
          "type": "string"
        }
      ],
      "stateMutability": "view",
      "type": "function"
    },
    {
      "inputs": [
        {
          "internalType": "uint256",
          "name": "_idTerreno",
          "type": "uint256"
        }
      ],
      "name": "getPioggiaTerreno",
      "outputs": [
        {
          "internalType": "string",
          "name": "",
          "type": "string"
        }
      ],
      "stateMutability": "view",
      "type": "function"
    },
    {
      "inputs": [
        {
          "internalType": "uint256",
          "name": "_idTerreno",
          "type": "uint256"
        }
      ],
      "name": "getSuperficieTerreno",
      "outputs": [
        {
          "internalType": "string",
          "name": "",
          "type": "string"
        }
      ],
      "stateMutability": "view",
      "type": "function"
    }
  ],
  "bytecode": "0x60806040526001600755600160085560016009556001600a556001600b553480156200002a57600080fd5b5060405162003780380380620037808339818101604052810190620000509190620001f8565b336000806101000a81548173ffffffffffffffffffffffffffffffffffffffff021916908373ffffffffffffffffffffffffffffffffffffffff16021790555060018060008060009054906101000a900473ffffffffffffffffffffffffffffffffffffffff1673ffffffffffffffffffffffffffffffffffffffff1673ffffffffffffffffffffffffffffffffffffffff16815260200190815260200160002060006101000a81548160ff02191690831515021790555080600260006101000a81548173ffffffffffffffffffffffffffffffffffffffff021916908373ffffffffffffffffffffffffffffffffffffffff160217905550600260009054906101000a900473ffffffffffffffffffffffffffffffffffffffff1673ffffffffffffffffffffffffffffffffffffffff1663cf1c316a306040518263ffffffff1660e01b8152600401620001a6919062000235565b600060405180830381600087803b158015620001c157600080fd5b505af1158015620001d6573d6000803e3d6000fd5b5050505050620002a0565b600081519050620001f28162000286565b92915050565b6000602082840312156200020b57600080fd5b60006200021b84828501620001e1565b91505092915050565b6200022f8162000252565b82525050565b60006020820190506200024c600083018462000224565b92915050565b60006200025f8262000266565b9050919050565b600073ffffffffffffffffffffffffffffffffffffffff82169050919050565b620002918162000252565b81146200029d57600080fd5b50565b6134d080620002b06000396000f3fe608060405234801561001057600080fd5b506004361061018e5760003560e01c80638ae35336116100de578063a7a2821d11610097578063b918161111610071578063b9181611146104c6578063c57f214f146104f6578063cf1c316a14610515578063eaed3635146105315761018e565b8063a7a2821d1461044a578063b1689d4014610466578063b17e9730146104965761018e565b80638ae353361461035b5780638da5cb5b1461037a5780639edd513f146103985780639f09e11c146103cc578063a50159c9146103fc578063a597e0071461042c5761018e565b80634b4301d91161014b578063635f715f11610125578063635f715f146102d55780636475ffdc146102f15780636e7f334414610321578063755460331461033d5761018e565b80634b4301d9146102575780634c89ffed146102875780634e7ad400146102b75761018e565b80630c6faf241461019357806313a4db7b146101b15780632e9c2283146101e5578063485d7d9414610201578063494221151461021d5780634b2cfa1e1461023b575b600080fd5b61019b61054f565b6040516101a89190613093565b60405180910390f35b6101cb60048036038101906101c69190612c0f565b6105af565b6040516101dc959493929190612ffd565b60405180910390f35b6101ff60048036038101906101fa9190612c38565b61094a565b005b61021b600480360381019061021691906129c9565b610b15565b005b610225610bc8565b6040516102329190613093565b60405180910390f35b610255600480360381019061025091906129f2565b610c28565b005b610271600480360381019061026c9190612c0f565b610cc6565b60405161027e9190612fdb565b60405180910390f35b6102a1600480360381019061029c9190612c0f565b610d88565b6040516102ae9190612fdb565b60405180910390f35b6102bf610e4a565b6040516102cc9190613093565b60405180910390f35b6102ef60048036038101906102ea9190612af6565b610eaa565b005b61030b60048036038101906103069190612c0f565b6112a1565b6040516103189190612fdb565b60405180910390f35b61033b600480360381019061033691906129f2565b611363565b005b610345611401565b6040516103529190613093565b60405180910390f35b610363611490565b604051610371929190612f89565b60405180910390f35b61038261189e565b60405161038f9190612f6e565b60405180910390f35b6103b260048036038101906103ad9190612c0f565b6118c2565b6040516103c3959493929190612ffd565b60405180910390f35b6103e660048036038101906103e19190612c0f565b611d07565b6040516103f39190612fdb565b60405180910390f35b61041660048036038101906104119190612c0f565b611e05565b6040516104239190612fdb565b60405180910390f35b610434611ec7565b6040516104419190613093565b60405180910390f35b610464600480360381019061045f91906129f2565b611f27565b005b610480600480360381019061047b9190612c0f565b611fc5565b60405161048d9190612fdb565b60405180910390f35b6104b060048036038101906104ab9190612c0f565b6120c3565b6040516104bd9190612fdb565b60405180910390f35b6104e060048036038101906104db91906129c9565b6121c1565b6040516104ed9190612fc0565b60405180910390f35b6104fe6121e1565b60405161050c929190612f89565b60405180910390f35b61052f600480360381019061052a91906129c9565b6125ef565b005b610539612649565b6040516105469190613093565b60405180910390f35b6000600160003373ffffffffffffffffffffffffffffffffffffffff1673ffffffffffffffffffffffffffffffffffffffff16815260200190815260200160002060009054906101000a900460ff166105a757600080fd5b600954905090565b6060806060806060600160003373ffffffffffffffffffffffffffffffffffffffff1673ffffffffffffffffffffffffffffffffffffffff16815260200190815260200160002060009054906101000a900460ff1661060d57600080fd5b600360008781526020019081526020016000206003016003600088815260200190815260200160002060040160036000898152602001908152602001600020600501600360008a8152602001908152602001600020600601600360008b815260200190815260200160002060070184805461068790613353565b80601f01602080910402602001604051908101604052809291908181526020018280546106b390613353565b80156107005780601f106106d557610100808354040283529160200191610700565b820191906000526020600020905b8154815290600101906020018083116106e357829003601f168201915b5050505050945083805461071390613353565b80601f016020809104026020016040519081016040528092919081815260200182805461073f90613353565b801561078c5780601f106107615761010080835404028352916020019161078c565b820191906000526020600020905b81548152906001019060200180831161076f57829003601f168201915b5050505050935082805461079f90613353565b80601f01602080910402602001604051908101604052809291908181526020018280546107cb90613353565b80156108185780601f106107ed57610100808354040283529160200191610818565b820191906000526020600020905b8154815290600101906020018083116107fb57829003601f168201915b5050505050925081805461082b90613353565b80601f016020809104026020016040519081016040528092919081815260200182805461085790613353565b80156108a45780601f10610879576101008083540402835291602001916108a4565b820191906000526020600020905b81548152906001019060200180831161088757829003601f168201915b505050505091508080546108b790613353565b80601f01602080910402602001604051908101604052809291908181526020018280546108e390613353565b80156109305780601f1061090557610100808354040283529160200191610930565b820191906000526020600020905b81548152906001019060200180831161091357829003601f168201915b505050505090509450945094509450945091939590929450565b84600360008881526020019081526020016000206003019080519060200190610974929190612796565b508360036000888152602001908152602001600020600401908051906020019061099f929190612796565b50826003600088815260200190815260200160002060050190805190602001906109ca929190612796565b50816003600088815260200190815260200160002060060190805190602001906109f5929190612796565b5080600360008881526020019081526020016000206007019080519060200190610a20929190612796565b506000600c610a30600b546120c3565b604051610a3d9190612f57565b908152602001604051809103902054141580610a8157506000600c610a63600b546120c3565b604051610a709190612f57565b908152602001604051809103902054145b15610b0d576000610a91866126d8565b600c610a9e600b546120c3565b604051610aab9190612f57565b908152602001604051809103902054610ac491906131e5565b905080600c610ad4600b546120c3565b604051610ae19190612f57565b908152602001604051809103902081905550600b6000815480929190610b0690613385565b9190505550505b505050505050565b60008054906101000a900473ffffffffffffffffffffffffffffffffffffffff1673ffffffffffffffffffffffffffffffffffffffff163373ffffffffffffffffffffffffffffffffffffffff1614610b6d57600080fd5b6000600160008373ffffffffffffffffffffffffffffffffffffffff1673ffffffffffffffffffffffffffffffffffffffff16815260200190815260200160002060006101000a81548160ff02191690831515021790555050565b6000600160003373ffffffffffffffffffffffffffffffffffffffff1673ffffffffffffffffffffffffffffffffffffffff16815260200190815260200160002060009054906101000a900460ff16610c2057600080fd5b600754905090565b600160003373ffffffffffffffffffffffffffffffffffffffff1673ffffffffffffffffffffffffffffffffffffffff16815260200190815260200160002060009054906101000a900460ff16610c7e57600080fd5b806003600060075481526020019081526020016000206000019080519060200190610caa929190612796565b5060076000815480929190610cbe90613385565b919050555050565b60606000600260009054906101000a900473ffffffffffffffffffffffffffffffffffffffff1673ffffffffffffffffffffffffffffffffffffffff16635df6ec33846040518263ffffffff1660e01b8152600401610d259190613093565b60006040518083038186803b158015610d3d57600080fd5b505afa158015610d51573d6000803e3d6000fd5b505050506040513d6000823e3d601f19601f82011682018060405250810190610d7a9190612a33565b509250505080915050919050565b60606000600260009054906101000a900473ffffffffffffffffffffffffffffffffffffffff1673ffffffffffffffffffffffffffffffffffffffff16635df6ec33846040518263ffffffff1660e01b8152600401610de79190613093565b60006040518083038186803b158015610dff57600080fd5b505afa158015610e13573d6000803e3d6000fd5b505050506040513d6000823e3d601f19601f82011682018060405250810190610e3c9190612a33565b505091505080915050919050565b6000600160003373ffffffffffffffffffffffffffffffffffffffff1673ffffffffffffffffffffffffffffffffffffffff16815260200190815260200160002060009054906101000a900460ff16610ea257600080fd5b600854905090565b600160003373ffffffffffffffffffffffffffffffffffffffff1673ffffffffffffffffffffffffffffffffffffffff16815260200190815260200160002060009054906101000a900460ff16610f0057600080fd5b8560046000600a5481526020019081526020016000206001019080519060200190610f2c929190612796565b508460046000600a5481526020019081526020016000206000019080519060200190610f59929190612796565b508360046000600a5481526020019081526020016000206002019080519060200190610f86929190612796565b508260046000600a5481526020019081526020016000206004019080519060200190610fb3929190612796565b508160046000600a5481526020019081526020016000206003019080519060200190610fe0929190612796565b506000600684604051610ff39190612f57565b90815260200160405180910390205414158061102d5750600060068460405161101c9190612f57565b908152602001604051809103902054145b1561108d57600061103d856126d8565b60068560405161104d9190612f57565b90815260200160405180910390205461106691906131e5565b9050806006856040516110799190612f57565b908152602001604051809103902081905550505b60005b815181101561128057600073ffffffffffffffffffffffffffffffffffffffff168282815181106110ea577f4e487b7100000000000000000000000000000000000000000000000000000000600052603260045260246000fd5b602002602001015173ffffffffffffffffffffffffffffffffffffffff161461126d57600160056000600a54815260200190815260200160002060003373ffffffffffffffffffffffffffffffffffffffff1673ffffffffffffffffffffffffffffffffffffffff16815260200190815260200160002060006101000a81548160ff021916908315150217905550600160056000600a54815260200190815260200160002060008484815181106111ca577f4e487b7100000000000000000000000000000000000000000000000000000000600052603260045260246000fd5b602002602001015173ffffffffffffffffffffffffffffffffffffffff1673ffffffffffffffffffffffffffffffffffffffff16815260200190815260200160002060006101000a81548160ff02191690831515021790555061126c82828151811061125f577f4e487b7100000000000000000000000000000000000000000000000000000000600052603260045260246000fd5b60200260200101516125ef565b5b808061127890613385565b915050611090565b50600a600081548092919061129490613385565b9190505550505050505050565b60606000600260009054906101000a900473ffffffffffffffffffffffffffffffffffffffff1673ffffffffffffffffffffffffffffffffffffffff16635df6ec33846040518263ffffffff1660e01b81526004016113009190613093565b60006040518083038186803b15801561131857600080fd5b505afa15801561132c573d6000803e3d6000fd5b505050506040513d6000823e3d601f19601f820116820180604052508101906113559190612a33565b505050905080915050919050565b600160003373ffffffffffffffffffffffffffffffffffffffff1673ffffffffffffffffffffffffffffffffffffffff16815260200190815260200160002060009054906101000a900460ff166113b957600080fd5b8060036000600854815260200190815260200160002060010190805190602001906113e5929190612796565b50600860008154809291906113f990613385565b919050555050565b600080600090506000600190505b7fffffffffffffffffffffffffffffffffffffffffffffffffffffffffffffffff81101561148857600060036000838152602001908152602001600020600001805461145a90613353565b9050141561146757611488565b818061147290613385565b925050808061148090613385565b91505061140f565b508091505090565b606080600061149d612649565b905060008167ffffffffffffffff8111156114e1577f4e487b7100000000000000000000000000000000000000000000000000000000600052604160045260246000fd5b60405190808252806020026020018201604052801561151457816020015b60608152602001906001900390816114ff5790505b50905060008267ffffffffffffffff811115611559577f4e487b7100000000000000000000000000000000000000000000000000000000600052604160045260246000fd5b6040519080825280602002602001820160405280156115875781602001602082028036833780820191505090505b50905060008367ffffffffffffffff8111156115cc577f4e487b7100000000000000000000000000000000000000000000000000000000600052604160045260246000fd5b6040519080825280602002602001820160405280156115ff57816020015b60608152602001906001900390816115ea5790505b509050600080600190505b85811161188857600060046000838152602001908152602001600020600401805461163490613353565b80601f016020809104026020016040519081016040528092919081815260200182805461166090613353565b80156116ad5780601f10611682576101008083540402835291602001916116ad565b820191906000526020600020905b81548152906001019060200180831161169057829003601f168201915b505050505090506000805b8481101561177057826040516020016116d19190612f57565b60405160208183030381529060405280519060200120868281518110611720577f4e487b7100000000000000000000000000000000000000000000000000000000600052603260045260246000fd5b60200260200101516040516020016117389190612f57565b60405160208183030381529060405280519060200120141561175d5760019150611770565b808061176890613385565b9150506116b8565b508061187357818585815181106117b0577f4e487b7100000000000000000000000000000000000000000000000000000000600052603260045260246000fd5b6020026020010181905250818785815181106117f5577f4e487b7100000000000000000000000000000000000000000000000000000000600052603260045260246000fd5b60200260200101819052506006826040516118109190612f57565b908152602001604051809103902054868581518110611858577f4e487b7100000000000000000000000000000000000000000000000000000000600052603260045260246000fd5b602002602001018181525050838061186f90613385565b9450505b5050808061188090613385565b91505061160a565b5080845280835283839650965050505050509091565b60008054906101000a900473ffffffffffffffffffffffffffffffffffffffff1681565b6060806060806060600160003373ffffffffffffffffffffffffffffffffffffffff1673ffffffffffffffffffffffffffffffffffffffff16815260200190815260200160002060009054906101000a900460ff1661192057600080fd5b600115156005600088815260200190815260200160002060003373ffffffffffffffffffffffffffffffffffffffff1673ffffffffffffffffffffffffffffffffffffffff16815260200190815260200160002060009054906101000a900460ff1615151415611cc357600460008781526020019081526020016000206001016004600088815260200190815260200160002060000160046000898152602001908152602001600020600201600460008a8152602001908152602001600020600401600460008b8152602001908152602001600020600301848054611a0490613353565b80601f0160208091040260200160405190810160405280929190818152602001828054611a3090613353565b8015611a7d5780601f10611a5257610100808354040283529160200191611a7d565b820191906000526020600020905b815481529060010190602001808311611a6057829003601f168201915b50505050509450838054611a9090613353565b80601f0160208091040260200160405190810160405280929190818152602001828054611abc90613353565b8015611b095780601f10611ade57610100808354040283529160200191611b09565b820191906000526020600020905b815481529060010190602001808311611aec57829003601f168201915b50505050509350828054611b1c90613353565b80601f0160208091040260200160405190810160405280929190818152602001828054611b4890613353565b8015611b955780601f10611b6a57610100808354040283529160200191611b95565b820191906000526020600020905b815481529060010190602001808311611b7857829003601f168201915b50505050509250818054611ba890613353565b80601f0160208091040260200160405190810160405280929190818152602001828054611bd490613353565b8015611c215780601f10611bf657610100808354040283529160200191611c21565b820191906000526020600020905b815481529060010190602001808311611c0457829003601f168201915b50505050509150808054611c3490613353565b80601f0160208091040260200160405190810160405280929190818152602001828054611c6090613353565b8015611cad5780601f10611c8257610100808354040283529160200191611cad565b820191906000526020600020905b815481529060010190602001808311611c9057829003601f168201915b5050505050905094509450945094509450611cfe565b6040517f08c379a0000000000000000000000000000000000000000000000000000000008152600401611cf590613073565b60405180910390fd5b91939590929450565b6060600160003373ffffffffffffffffffffffffffffffffffffffff1673ffffffffffffffffffffffffffffffffffffffff16815260200190815260200160002060009054906101000a900460ff16611d5f57600080fd5b600360008381526020019081526020016000206001018054611d8090613353565b80601f0160208091040260200160405190810160405280929190818152602001828054611dac90613353565b8015611df95780601f10611dce57610100808354040283529160200191611df9565b820191906000526020600020905b815481529060010190602001808311611ddc57829003601f168201915b50505050509050919050565b60606000600260009054906101000a900473ffffffffffffffffffffffffffffffffffffffff1673ffffffffffffffffffffffffffffffffffffffff16635df6ec33846040518263ffffffff1660e01b8152600401611e649190613093565b60006040518083038186803b158015611e7c57600080fd5b505afa158015611e90573d6000803e3d6000fd5b505050506040513d6000823e3d601f19601f82011682018060405250810190611eb99190612a33565b935050505080915050919050565b6000600160003373ffffffffffffffffffffffffffffffffffffffff1673ffffffffffffffffffffffffffffffffffffffff16815260200190815260200160002060009054906101000a900460ff16611f1f57600080fd5b600a54905090565b600160003373ffffffffffffffffffffffffffffffffffffffff1673ffffffffffffffffffffffffffffffffffffffff16815260200190815260200160002060009054906101000a900460ff16611f7d57600080fd5b806003600060095481526020019081526020016000206002019080519060200190611fa9929190612796565b5060096000815480929190611fbd90613385565b919050555050565b6060600160003373ffffffffffffffffffffffffffffffffffffffff1673ffffffffffffffffffffffffffffffffffffffff16815260200190815260200160002060009054906101000a900460ff1661201d57600080fd5b60036000838152602001908152602001600020600201805461203e90613353565b80601f016020809104026020016040519081016040528092919081815260200182805461206a90613353565b80156120b75780601f1061208c576101008083540402835291602001916120b7565b820191906000526020600020905b81548152906001019060200180831161209a57829003601f168201915b50505050509050919050565b6060600160003373ffffffffffffffffffffffffffffffffffffffff1673ffffffffffffffffffffffffffffffffffffffff16815260200190815260200160002060009054906101000a900460ff1661211b57600080fd5b60036000838152602001908152602001600020600001805461213c90613353565b80601f016020809104026020016040519081016040528092919081815260200182805461216890613353565b80156121b55780601f1061218a576101008083540402835291602001916121b5565b820191906000526020600020905b81548152906001019060200180831161219857829003601f168201915b50505050509050919050565b60016020528060005260406000206000915054906101000a900460ff1681565b60608060006121ee611401565b905060008167ffffffffffffffff811115612232577f4e487b7100000000000000000000000000000000000000000000000000000000600052604160045260246000fd5b60405190808252806020026020018201604052801561226557816020015b60608152602001906001900390816122505790505b50905060008267ffffffffffffffff8111156122aa577f4e487b7100000000000000000000000000000000000000000000000000000000600052604160045260246000fd5b6040519080825280602002602001820160405280156122d85781602001602082028036833780820191505090505b50905060008367ffffffffffffffff81111561231d577f4e487b7100000000000000000000000000000000000000000000000000000000600052604160045260246000fd5b60405190808252806020026020018201604052801561235057816020015b606081526020019060019003908161233b5790505b509050600080600190505b8581116125d957600060036000838152602001908152602001600020600001805461238590613353565b80601f01602080910402602001604051908101604052809291908181526020018280546123b190613353565b80156123fe5780601f106123d3576101008083540402835291602001916123fe565b820191906000526020600020905b8154815290600101906020018083116123e157829003601f168201915b505050505090506000805b848110156124c157826040516020016124229190612f57565b60405160208183030381529060405280519060200120868281518110612471577f4e487b7100000000000000000000000000000000000000000000000000000000600052603260045260246000fd5b60200260200101516040516020016124899190612f57565b6040516020818303038152906040528051906020012014156124ae57600191506124c1565b80806124b990613385565b915050612409565b50806125c45781858581518110612501577f4e487b7100000000000000000000000000000000000000000000000000000000600052603260045260246000fd5b602002602001018190525081878581518110612546577f4e487b7100000000000000000000000000000000000000000000000000000000600052603260045260246000fd5b6020026020010181905250600c826040516125619190612f57565b9081526020016040518091039020548685815181106125a9577f4e487b7100000000000000000000000000000000000000000000000000000000600052603260045260246000fd5b60200260200101818152505083806125c090613385565b9450505b505080806125d190613385565b91505061235b565b5080845280835283839650965050505050509091565b60018060008373ffffffffffffffffffffffffffffffffffffffff1673ffffffffffffffffffffffffffffffffffffffff16815260200190815260200160002060006101000a81548160ff02191690831515021790555050565b600080600090506000600190505b7fffffffffffffffffffffffffffffffffffffffffffffffffffffffffffffffff8110156126d05760006004600083815260200190815260200160002060000180546126a290613353565b905014156126af576126d0565b81806126ba90613385565b92505080806126c890613385565b915050612657565b508091505090565b6000808290506000805b825181101561278b576000838281518110612726577f4e487b7100000000000000000000000000000000000000000000000000000000600052603260045260246000fd5b602001015160f81c60f81b60f81c60ff1690506030811015801561274b575060398111155b156127775760308161275d9190613295565b600a8461276a919061323b565b61277491906131e5565b92505b50808061278390613385565b9150506126e2565b508092505050919050565b8280546127a290613353565b90600052602060002090601f0160209004810192826127c4576000855561280b565b82601f106127dd57805160ff191683800117855561280b565b8280016001018555821561280b579182015b8281111561280a5782518255916020019190600101906127ef565b5b509050612818919061281c565b5090565b5b8082111561283557600081600090555060010161281d565b5090565b600061284c612847846130df565b6130ae565b9050808382526020820190508285602086028201111561286b57600080fd5b60005b8581101561289b57816128818882612921565b84526020840193506020830192505060018101905061286e565b5050509392505050565b60006128b86128b38461310b565b6130ae565b9050828152602081018484840111156128d057600080fd5b6128db848285613311565b509392505050565b60006128f66128f18461310b565b6130ae565b90508281526020810184848401111561290e57600080fd5b612919848285613320565b509392505050565b6000813590506129308161346c565b92915050565b600082601f83011261294757600080fd5b8135612957848260208601612839565b91505092915050565b600082601f83011261297157600080fd5b81356129818482602086016128a5565b91505092915050565b600082601f83011261299b57600080fd5b81516129ab8482602086016128e3565b91505092915050565b6000813590506129c381613483565b92915050565b6000602082840312156129db57600080fd5b60006129e984828501612921565b91505092915050565b600060208284031215612a0457600080fd5b600082013567ffffffffffffffff811115612a1e57600080fd5b612a2a84828501612960565b91505092915050565b60008060008060808587031215612a4957600080fd5b600085015167ffffffffffffffff811115612a6357600080fd5b612a6f8782880161298a565b945050602085015167ffffffffffffffff811115612a8c57600080fd5b612a988782880161298a565b935050604085015167ffffffffffffffff811115612ab557600080fd5b612ac18782880161298a565b925050606085015167ffffffffffffffff811115612ade57600080fd5b612aea8782880161298a565b91505092959194509250565b60008060008060008060c08789031215612b0f57600080fd5b600087013567ffffffffffffffff811115612b2957600080fd5b612b3589828a01612960565b965050602087013567ffffffffffffffff811115612b5257600080fd5b612b5e89828a01612960565b955050604087013567ffffffffffffffff811115612b7b57600080fd5b612b8789828a01612960565b945050606087013567ffffffffffffffff811115612ba457600080fd5b612bb089828a01612960565b935050608087013567ffffffffffffffff811115612bcd57600080fd5b612bd989828a01612960565b92505060a087013567ffffffffffffffff811115612bf657600080fd5b612c0289828a01612936565b9150509295509295509295565b600060208284031215612c2157600080fd5b6000612c2f848285016129b4565b91505092915050565b60008060008060008060c08789031215612c5157600080fd5b6000612c5f89828a016129b4565b965050602087013567ffffffffffffffff811115612c7c57600080fd5b612c8889828a01612960565b955050604087013567ffffffffffffffff811115612ca557600080fd5b612cb189828a01612960565b945050606087013567ffffffffffffffff811115612cce57600080fd5b612cda89828a01612960565b935050608087013567ffffffffffffffff811115612cf757600080fd5b612d0389828a01612960565b92505060a087013567ffffffffffffffff811115612d2057600080fd5b612d2c89828a01612960565b9150509295509295509295565b6000612d458383612e56565b905092915050565b6000612d598383612f39565b60208301905092915050565b612d6e816132c9565b82525050565b6000612d7f8261315b565b612d898185613196565b935083602082028501612d9b8561313b565b8060005b85811015612dd75784840389528151612db88582612d39565b9450612dc38361317c565b925060208a01995050600181019050612d9f565b50829750879550505050505092915050565b6000612df482613166565b612dfe81856131a7565b9350612e098361314b565b8060005b83811015612e3a578151612e218882612d4d565b9750612e2c83613189565b925050600181019050612e0d565b5085935050505092915050565b612e50816132db565b82525050565b6000612e6182613171565b612e6b81856131b8565b9350612e7b818560208601613320565b612e848161345b565b840191505092915050565b6000612e9a82613171565b612ea481856131c9565b9350612eb4818560208601613320565b612ebd8161345b565b840191505092915050565b6000612ed382613171565b612edd81856131da565b9350612eed818560208601613320565b80840191505092915050565b6000612f066016836131c9565b91507f5574656e7465206e6f6e206175746f72697a7a61746f000000000000000000006000830152602082019050919050565b612f4281613307565b82525050565b612f5181613307565b82525050565b6000612f638284612ec8565b915081905092915050565b6000602082019050612f836000830184612d65565b92915050565b60006040820190508181036000830152612fa38185612d74565b90508181036020830152612fb78184612de9565b90509392505050565b6000602082019050612fd56000830184612e47565b92915050565b60006020820190508181036000830152612ff58184612e8f565b905092915050565b600060a08201905081810360008301526130178188612e8f565b9050818103602083015261302b8187612e8f565b9050818103604083015261303f8186612e8f565b905081810360608301526130538185612e8f565b905081810360808301526130678184612e8f565b90509695505050505050565b6000602082019050818103600083015261308c81612ef9565b9050919050565b60006020820190506130a86000830184612f48565b92915050565b6000604051905081810181811067ffffffffffffffff821117156130d5576130d461342c565b5b8060405250919050565b600067ffffffffffffffff8211156130fa576130f961342c565b5b602082029050602081019050919050565b600067ffffffffffffffff8211156131265761312561342c565b5b601f19601f8301169050602081019050919050565b6000819050602082019050919050565b6000819050602082019050919050565b600081519050919050565b600081519050919050565b600081519050919050565b6000602082019050919050565b6000602082019050919050565b600082825260208201905092915050565b600082825260208201905092915050565b600082825260208201905092915050565b600082825260208201905092915050565b600081905092915050565b60006131f082613307565b91506131fb83613307565b9250827fffffffffffffffffffffffffffffffffffffffffffffffffffffffffffffffff038211156132305761322f6133ce565b5b828201905092915050565b600061324682613307565b915061325183613307565b9250817fffffffffffffffffffffffffffffffffffffffffffffffffffffffffffffffff048311821515161561328a576132896133ce565b5b828202905092915050565b60006132a082613307565b91506132ab83613307565b9250828210156132be576132bd6133ce565b5b828203905092915050565b60006132d4826132e7565b9050919050565b60008115159050919050565b600073ffffffffffffffffffffffffffffffffffffffff82169050919050565b6000819050919050565b82818337600083830152505050565b60005b8381101561333e578082015181840152602081019050613323565b8381111561334d576000848401525b50505050565b6000600282049050600182168061336b57607f821691505b6020821081141561337f5761337e6133fd565b5b50919050565b600061339082613307565b91507fffffffffffffffffffffffffffffffffffffffffffffffffffffffffffffffff8214156133c3576133c26133ce565b5b600182019050919050565b7f4e487b7100000000000000000000000000000000000000000000000000000000600052601160045260246000fd5b7f4e487b7100000000000000000000000000000000000000000000000000000000600052602260045260246000fd5b7f4e487b7100000000000000000000000000000000000000000000000000000000600052604160045260246000fd5b6000601f19601f8301169050919050565b613475816132c9565b811461348057600080fd5b50565b61348c81613307565b811461349757600080fd5b5056fea264697066735822122065a3c96331d00e1f37de43dbe617a78528dd13e8558256df618d6dba27c2c46f64736f6c63430008000033",
  "immutableReferences": {},
  "source": "// SPDX-License-Identifier: MIT\npragma solidity ^0.8.0;\n\nimport \"./Agronomo.sol\";\n\ncontract Viticoltore {\n\n    //dati per autorizzazioni alle chiamate delle funzioni\n    address public owner;\n    mapping(address => bool) public authorized;\n\n    Agronomo agronomoContract;\n    \n    constructor(address _agronomoContractAddress)  {\n        owner = msg.sender;\n        authorized[owner] = true; //solo per fare test, oppure  un'opzione valida se il deploy viene fatto da ogni singolo attore in maniera indipendente.\n        agronomoContract = Agronomo(_agronomoContractAddress);\n        agronomoContract.addAuthorized(address(this));\n\n    }\n\n    //dividere le istanze per terreni\n\n    struct DatiViticoltore {\n\n    //dati funzioni inserimento manuale\n    string dataRaccolta;\n    string datiForniture;\n    string destinazioneUva;\n\n\n    //dati funzioni simulatore\n    string quantitaUvaRaccolta;\n    //uint256 quantitaUvaRaccolta;\n    string tipologiaUva;\n    string umidita;\n    string temperatura;\n    string quantitaFertilizzanti;\n\n    }\n\n    struct datiVendita {\n        string prezzoVendita;\n        string nomeProdotto;\n        string quantita;\n        //uint256 quantita;\n        string dataVendita;\n        string nomeCliente;\n    }\n\n    mapping(uint256 => DatiViticoltore) terreni;\n    mapping(uint256 => datiVendita) vendite;\n    mapping(uint => mapping(address => bool)) allowedAddressesVendite; //mapping per le autirizzazioni sulle get di vendita\n    mapping(string => uint256) nomiQuantita; // MAPPA DI TEST PER DATA AGGREGATION\n\n    /*identificativi funzioni terreni e vendite*/\n    uint256 idDataRaccoltaSerial = 1;\n    uint256 idDatiFornitureSerial = 1;\n    uint256 idDestinazioneUvaSerial = 1;\n    uint256 idVenditaSerial = 1;\n\n\n    //funzioni di autorizzazione\n    function addAuthorized(address _address) public {\n        //require(msg.sender == owner); Da tenere solo per testing e comodit, a lavoro definitivo va levata.\n        authorized[_address] = true;\n    }\n\n    function removeAuthorized(address _address) public {\n        require(msg.sender == owner);\n        authorized[_address] = false;\n    }\n\n    //funzioni manuali\n    /* esempio per gestire decimali, BISOGNA INSERIRE IN INPUT IN QUESTO MODO: EX, 125,76 VA INSERITO COME => 12576, CHE VERRA' RAPPRESENTATO COME 1257600 E BISOGNA INTERPRETARE I 2\n    ZERI COME I DECIMALI, QUINDI LEGGERLO COME 125,76\n    function setDataRaccolta(uint256 _idTerreno, uint256 _dataRaccolta) public {\n        uint256 decimals = 2;\n        terreni[_idTerreno].dataRaccolta = _dataRaccolta * (10**decimals);\n    }\n    */\n\n    function setDataRaccolta(string memory _dataRaccolta) public {\n        require(authorized[msg.sender]);\n        terreni[idDataRaccoltaSerial].dataRaccolta = _dataRaccolta;\n        //customerContract.setDataRaccolta(idDataRaccoltaSerial, _dataRaccolta);\n        idDataRaccoltaSerial++;\n    }\n\n    function setDatiForniture(string memory _datiForniture) public{\n        require(authorized[msg.sender]);\n        terreni[idDatiFornitureSerial].datiForniture = _datiForniture;\n        //customerContract.setDatiForniture(idDatiFornitureSerial, _datiForniture);\n        idDatiFornitureSerial++;\n    }\n\n   function setDestinazioneUva(string memory _destinazioneUva) public {\n       require(authorized[msg.sender]);\n       terreni[idDestinazioneUvaSerial].destinazioneUva = _destinazioneUva;\n       //customerContract.setDestinazioneUva(idDestinazioneUvaSerial, _destinazioneUva);\n       idDestinazioneUvaSerial++;\n   }\n\n   function setVendita(string memory _nomeProdotto,string memory _prezzoVendita, string memory/*uint256*/ _quantita, string memory _nomeCliente,\n            string memory _dataVendita, address[] memory _addresses) public {\n       require(authorized[msg.sender]);\n       vendite[idVenditaSerial].nomeProdotto = _nomeProdotto;\n       vendite[idVenditaSerial].prezzoVendita = _prezzoVendita;\n       vendite[idVenditaSerial].quantita = _quantita;\n       vendite[idVenditaSerial].nomeCliente = _nomeCliente;\n       vendite[idVenditaSerial].dataVendita = _dataVendita;\n\n       //TEST PER DATA AGGREGATION\n       if(nomiQuantita[_nomeCliente] != 0 || nomiQuantita[_nomeCliente]==0){\n            uint256 temp = nomiQuantita[_nomeCliente] + stringToUint(_quantita);\n            nomiQuantita[_nomeCliente] = temp;\n        }\n\n       for(uint i=0; i<_addresses.length; i++){ //ciclo necessario a definire gli address forniti in input come \"trusted\"\n            if(_addresses[i] != address(0)){ //entra in azione solo de gli address forniti sono diversi dall'address nullo (0x0000000000000...)\n                allowedAddressesVendite[idVenditaSerial][msg.sender] = true; //TEST\n                allowedAddressesVendite[idVenditaSerial][_addresses[i]] = true; //salva gli address inseriti e li definisce \"trusted\" attraverso il parametro booleano \"true\"\n\n                //TEST\n                addAuthorized(_addresses[i]);\n            }\n        } \n\n       idVenditaSerial++;\n       /*vendite[_idVendita].nomeCliente = _nomeCliente;*/\n   }\n\n    //funzione automatiche\n    //uint256[] app; //TEST DATA AGGREGATION\n    uint256 idRaccolta=1;\n    mapping(string => uint256) dateQuantita;\n    function setSensoriViticoltore(uint256 _idTerreno, string memory _quantitaUvaRaccolta, string memory _tipologiaUva, string memory _umidita, string memory _temperatura, string memory _quantitaFertilizzanti) public {\n\n      /*  if(terreni[_idTerreno].quantitaUvaRaccolta == 0) {\n        app.push( _quantitaUvaRaccolta); //TEST DATA AGGREGATION\n        } else {\n            app.push(terreni[_idTerreno].quantitaUvaRaccolta + _quantitaUvaRaccolta);\n        } */\n    \n        terreni[_idTerreno].quantitaUvaRaccolta = _quantitaUvaRaccolta;\n        terreni[_idTerreno].tipologiaUva = _tipologiaUva;\n        terreni[_idTerreno].umidita = _umidita;\n        terreni[_idTerreno].temperatura = _temperatura;\n        terreni[_idTerreno].quantitaFertilizzanti = _quantitaFertilizzanti;\n\n        //TEST PER DATA AGGREGATION\n        \n       if(dateQuantita[getDataRaccolta(idRaccolta)] != 0 || dateQuantita[getDataRaccolta(idRaccolta)]==0){\n            uint256 temp = dateQuantita[getDataRaccolta(idRaccolta)] + stringToUint(_quantitaUvaRaccolta);\n            dateQuantita[getDataRaccolta(idRaccolta)] = temp;\n            idRaccolta++;\n        }\n\n    }\n\n    /* query e funzioni di supporto per data analysis*/\n    function getMappingTerreniLength() public view returns (uint256) {\n    uint256 count = 0;\n    for (uint256 i = 1; i < type(uint256).max; i++) {\n        if (bytes(terreni[i].dataRaccolta).length == 0) {\n            break;\n        }\n        count++;\n    }\n    return count;\n    }\n\n     function stringToUint(string memory s) internal pure returns (uint256) {\n    bytes memory b = bytes(s);\n    uint256 result = 0;\n    for (uint256 i = 0; i < b.length; i++) {\n        uint256 c = uint256(uint8(b[i]));\n        if (c >= 48 && c <= 57) {\n            result = result * 10 + (c - 48);\n        }\n    }\n    return result;\n    }\n\n    function uintToString(uint256 value) internal pure returns (string memory) {\n    if (value == 0) {\n        return \"0\";\n    }\n    uint256 temp = value;\n    uint256 digits;\n    while (temp != 0) {\n        digits++;\n        temp /= 10;\n    }\n    bytes memory buffer = new bytes(digits);\n    while (value != 0) {\n        digits--;\n        buffer[digits] = bytes1(uint8(48 + value % 10));\n        value /= 10;\n    }\n    return string(buffer);\n    }\n\n    //string[] app;\n    function queryDataUvaRaccolta() public view returns (string[] memory, uint256[] memory/*string[] memory*/) {\n        \n        uint256 length = getMappingTerreniLength();\n        string[] memory resultData = new string[](length);\n        uint256[] memory resultQuantitaRaccolta = new uint256[](length);\n        //string[] memory app = new string[](length);\n\n      /*  for (uint256 i = 1; i <= length; i++) {\n            resultData[i-1] = terreni[i].dataRaccolta;\n            resultQuantitaRaccolta[i-1] = app[i-1];//terreni[i].quantitaUvaRaccolta;\n            //app[i] = terreni[i].quantitaUvaRaccolta;\n        } */\n\n        string[] memory usedDate = new string[](length);\n        uint256 uniqueCount = 0; // Counter for unique names\n\n        for (uint256 i = 1; i <= length; i++) {\n            string memory data = terreni[i].dataRaccolta;\n            bool isUsed = false;\n\n        // Check if the name has already been used\n        for (uint256 j = 0; j < uniqueCount; j++) {\n            if (keccak256(abi.encodePacked(usedDate[j])) == keccak256(abi.encodePacked(data))) {\n                isUsed = true;\n                break;\n            }\n        }\n\n        if (!isUsed) {\n            usedDate[uniqueCount] = data;\n            resultData[uniqueCount] = data;\n            resultQuantitaRaccolta[uniqueCount] = dateQuantita[data];\n            uniqueCount++;\n        }\n    }\n\n    // Resize the arrays to remove unused slots\n    assembly {\n        mstore(resultData, uniqueCount)\n        mstore(resultQuantitaRaccolta, uniqueCount)\n    }\n\n        \n\n            return (resultData, /*app*/resultQuantitaRaccolta);\n    } \n\n    function getMappingVenditeLength() public view returns (uint256) {\n        \n        uint256 count = 0;\n        for (uint256 i = 1; i < type(uint256).max; i++) {\n            if (bytes(vendite[i].prezzoVendita).length == 0) {\n                break;\n            }\n            count++;\n        }\n            return count;\n    }\n\n    function queryNomiClientiQuantita() public view returns (string[] memory, uint256[] memory) {\n        \n        uint256 length = getMappingVenditeLength();\n        string[] memory resultNomi = new string[](length);\n        uint256[] memory resultQuantita = new uint256[](length);\n\n      /*  for (uint256 i = 1; i <= length; i++) {\n            resultNomi[i-1] = vendite[i].nomeCliente;\n            resultQuantita[i-1] = vendite[i].quantita;\n        }\n\n        return (resultNomi, resultQuantita);*/\n        string[] memory usedNomi = new string[](length);\n        uint256 uniqueCount = 0; // Counter for unique names\n\n        for (uint256 i = 1; i <= length; i++) {\n            string memory nomeCliente = vendite[i].nomeCliente;\n            bool isUsed = false;\n\n        // Check if the name has already been used\n        for (uint256 j = 0; j < uniqueCount; j++) {\n            if (keccak256(abi.encodePacked(usedNomi[j])) == keccak256(abi.encodePacked(nomeCliente))) {\n                isUsed = true;\n                break;\n            }\n        }\n\n        if (!isUsed) {\n            usedNomi[uniqueCount] = nomeCliente;\n            resultNomi[uniqueCount] = nomeCliente;\n            resultQuantita[uniqueCount] = nomiQuantita[nomeCliente];\n            uniqueCount++;\n        }\n    }\n\n    // Resize the arrays to remove unused slots\n    assembly {\n        mstore(resultNomi, uniqueCount)\n        mstore(resultQuantita, uniqueCount)\n    }\n\n        return (resultNomi, resultQuantita);\n    } \n//\n\n\n    //funzioni di get\n    function getIdDataRaccoltaSerial() public view returns(uint256){\n        require(authorized[msg.sender]);\n        return idDataRaccoltaSerial;\n    }\n\n    function getIdDatiFornitureSerial() public view returns(uint256){\n        require(authorized[msg.sender]);\n        return idDatiFornitureSerial;\n    }\n\n    function getIdDestinazioneUvaSerial() public view returns(uint256){\n        require(authorized[msg.sender]);\n        return idDestinazioneUvaSerial;\n    }\n\n    function getIdVenditaSerial() public view returns(uint256){\n        require(authorized[msg.sender]);\n        return idVenditaSerial;\n    }\n\n    function getDataRaccolta(uint256 _idTerreno) public view returns(string memory) {\n        require(authorized[msg.sender]);\n        return terreni[_idTerreno].dataRaccolta;\n    }\n\n    function getDatiForniture(uint256 _idTerreno) public view returns(string memory) {\n        require(authorized[msg.sender]);\n        return terreni[_idTerreno].datiForniture;\n    }\n\n    function getDestinazioneUva(uint256 _idTerreno) public view returns(string memory) {\n        require(authorized[msg.sender]);\n        return terreni[_idTerreno].destinazioneUva;\n    }\n\n    function getDatiVendita(uint256 _idVendita) public view returns(string memory, string memory, /*uint256*/string memory, string memory, string memory) {\n        require(authorized[msg.sender]);\n        \n        if (allowedAddressesVendite[_idVendita][msg.sender] == true) { //\"msg.sender\" rappresenta l'address di chi sta chiamando il metodo.\n           return (vendite[_idVendita].nomeProdotto, vendite[_idVendita].prezzoVendita, vendite[_idVendita].quantita, vendite[_idVendita].nomeCliente,\n            vendite[_idVendita].dataVendita);\n        } else {\n            revert(\"Utente non autorizzato\"); //revert() interrompe l'esecuzione della transazione e la annulla, in questo caso mostra anche un messaggio di warning.\n        }\n    }\n\n    function getDatiSensoriViticoltore(uint256 _idTerreno) public view returns(string memory, string memory, string memory, string memory, string memory) {\n        require(authorized[msg.sender]);\n        return (terreni[_idTerreno].quantitaUvaRaccolta, terreni[_idTerreno].tipologiaUva, terreni[_idTerreno].umidita, terreni[_idTerreno].temperatura, terreni[_idTerreno].quantitaFertilizzanti);\n    }\n\n    //funzioni di get Da Agronomo\n    function getUmiditaTerreno(uint256 _idTerreno) public view returns(string memory) {\n         (, string memory umiditaTerreno, ,) = agronomoContract.getDatiSensoriAgronomo(_idTerreno);\n         return umiditaTerreno;\n    }\n\n    function getTemperaturaTerreno(uint256 _idTerreno) public view returns(string memory) {\n         (,, string memory temperaturaTerreno,) = agronomoContract.getDatiSensoriAgronomo(_idTerreno);\n         return temperaturaTerreno;\n    }\n\n    function getPioggiaTerreno(uint256 _idTerreno) public view returns(string memory) {\n        (,,, string memory pioggiaterreno) = agronomoContract.getDatiSensoriAgronomo(_idTerreno);\n        return pioggiaterreno;\n    }\n\n    function getSuperficieTerreno(uint256 _idTerreno) public view returns(string memory) {\n        (string memory superficieTerreno,,,) = agronomoContract.getDatiSensoriAgronomo(_idTerreno);\n        return superficieTerreno;\n    }\n\n}\n",
  "sourcePath": "/Users/davidchieregato/BinTraWine/contracts/Viticoltore.sol",
  "compiler": {
    "name": "solc",
    "version": "0.8.0+commit.c7dfd78e.Emscripten.clang"
  },
  "schemaVersion": "3.4.15",
  "updatedAt": "2023-10-06T11:29:27.994Z",
  "devdoc": {
    "kind": "dev",
    "methods": {},
    "version": 1
  },
  "userdoc": {
    "kind": "user",
    "methods": {},
    "version": 1
  }
}